{"abi":[{"inputs":[{"internalType":"address","name":"creator","type":"address"},{"internalType":"uint256","name":"minimum","type":"uint256"}],"stateMutability":"nonpayable","type":"constructor"},{"inputs":[{"internalType":"uint256","name":"index","type":"uint256"}],"name":"approveRequest","outputs":[],"stateMutability":"nonpayable","type":"function"},{"inputs":[],"name":"approverCount","outputs":[{"internalType":"uint256","name":"","type":"uint256"}],"stateMutability":"view","type":"function"},{"inputs":[{"internalType":"address","name":"","type":"address"}],"name":"approvers","outputs":[{"internalType":"bool","name":"","type":"bool"}],"stateMutability":"view","type":"function"},{"inputs":[],"name":"contribute","outputs":[],"stateMutability":"payable","type":"function"},{"inputs":[{"internalType":"string","name":"description","type":"string"},{"internalType":"uint256","name":"value","type":"uint256"},{"internalType":"address","name":"recipient","type":"address"}],"name":"createRequest","outputs":[],"stateMutability":"nonpayable","type":"function"},{"inputs":[{"internalType":"uint256","name":"index","type":"uint256"}],"name":"denyRequest","outputs":[],"stateMutability":"nonpayable","type":"function"},{"inputs":[{"internalType":"uint256","name":"index","type":"uint256"}],"name":"finalizeRequest","outputs":[],"stateMutability":"nonpayable","type":"function"},{"inputs":[],"name":"getMetrics","outputs":[{"internalType":"uint256","name":"","type":"uint256"},{"internalType":"uint256","name":"","type":"uint256"},{"internalType":"uint256","name":"","type":"uint256"},{"internalType":"uint256","name":"","type":"uint256"},{"internalType":"address","name":"","type":"address"}],"stateMutability":"view","type":"function"},{"inputs":[],"name":"manager","outputs":[{"internalType":"address","name":"","type":"address"}],"stateMutability":"view","type":"function"},{"inputs":[],"name":"minimumContribution","outputs":[{"internalType":"uint256","name":"","type":"uint256"}],"stateMutability":"view","type":"function"},{"inputs":[],"name":"requestCount","outputs":[{"internalType":"uint256","name":"","type":"uint256"}],"stateMutability":"view","type":"function"},{"inputs":[{"internalType":"uint256","name":"","type":"uint256"}],"name":"requests","outputs":[{"internalType":"string","name":"description","type":"string"},{"internalType":"uint256","name":"value","type":"uint256"},{"internalType":"address","name":"recipient","type":"address"},{"internalType":"bool","name":"complete","type":"bool"},{"internalType":"uint256","name":"approvalCount","type":"uint256"}],"stateMutability":"view","type":"function"}],"devdoc":{"kind":"dev","methods":{},"version":1},"evm":{"assembly":"    /* \"Campaign.sol\":409:3497  contract Campaign {\r... */\n  mstore(0x40, 0x80)\n    /* \"Campaign.sol\":1039:1214  constructor (address creator, uint minimum) {\r... */\n  callvalue\n  dup1\n  iszero\n  tag_1\n  jumpi\n  0x00\n  dup1\n  revert\ntag_1:\n  pop\n  mload(0x40)\n  sub(codesize, bytecodeSize)\n  dup1\n  bytecodeSize\n  dup4\n  codecopy\n  dup2\n  dup2\n  add\n  0x40\n  mstore\n  dup2\n  add\n  swap1\n  tag_2\n  swap2\n  swap1\n  tag_3\n  jump\t// in\ntag_2:\n    /* \"Campaign.sol\":1104:1111  creator */\n  dup2\n    /* \"Campaign.sol\":1094:1101  manager */\n  0x00\n  dup1\n    /* \"Campaign.sol\":1094:1111  manager = creator */\n  0x0100\n  exp\n  dup2\n  sload\n  dup2\n  0xffffffffffffffffffffffffffffffffffffffff\n  mul\n  not\n  and\n  swap1\n  dup4\n  0xffffffffffffffffffffffffffffffffffffffff\n  and\n  mul\n  or\n  swap1\n  sstore\n  pop\n    /* \"Campaign.sol\":1144:1151  minimum */\n  dup1\n    /* \"Campaign.sol\":1122:1141  minimumContribution */\n  0x01\n    /* \"Campaign.sol\":1122:1151  minimumContribution = minimum */\n  dup2\n  swap1\n  sstore\n  pop\n    /* \"Campaign.sol\":1178:1179  0 */\n  0x00\n    /* \"Campaign.sol\":1162:1175  approverCount */\n  0x02\n    /* \"Campaign.sol\":1162:1179  approverCount = 0 */\n  dup2\n  swap1\n  sstore\n  pop\n    /* \"Campaign.sol\":1205:1206  0 */\n  0x00\n    /* \"Campaign.sol\":1190:1202  requestCount */\n  0x05\n    /* \"Campaign.sol\":1190:1206  requestCount = 0 */\n  dup2\n  swap1\n  sstore\n  pop\n    /* \"Campaign.sol\":1039:1214  constructor (address creator, uint minimum) {\r... */\n  pop\n  pop\n    /* \"Campaign.sol\":409:3497  contract Campaign {\r... */\n  jump(tag_6)\n    /* \"#utility.yul\":7:150   */\ntag_8:\n    /* \"#utility.yul\":64:69   */\n  0x00\n    /* \"#utility.yul\":95:101   */\n  dup2\n    /* \"#utility.yul\":89:102   */\n  mload\n    /* \"#utility.yul\":80:102   */\n  swap1\n  pop\n    /* \"#utility.yul\":111:144   */\n  tag_10\n    /* \"#utility.yul\":138:143   */\n  dup2\n    /* \"#utility.yul\":111:144   */\n  tag_11\n  jump\t// in\ntag_10:\n    /* \"#utility.yul\":7:150   */\n  swap3\n  swap2\n  pop\n  pop\n  jump\t// out\n    /* \"#utility.yul\":156:299   */\ntag_12:\n    /* \"#utility.yul\":213:218   */\n  0x00\n    /* \"#utility.yul\":244:250   */\n  dup2\n    /* \"#utility.yul\":238:251   */\n  mload\n    /* \"#utility.yul\":229:251   */\n  swap1\n  pop\n    /* \"#utility.yul\":260:293   */\n  tag_14\n    /* \"#utility.yul\":287:292   */\n  dup2\n    /* \"#utility.yul\":260:293   */\n  tag_15\n  jump\t// in\ntag_14:\n    /* \"#utility.yul\":156:299   */\n  swap3\n  swap2\n  pop\n  pop\n  jump\t// out\n    /* \"#utility.yul\":305:812   */\ntag_3:\n    /* \"#utility.yul\":384:390   */\n  0x00\n    /* \"#utility.yul\":392:398   */\n  dup1\n    /* \"#utility.yul\":441:443   */\n  0x40\n    /* \"#utility.yul\":429:438   */\n  dup4\n    /* \"#utility.yul\":420:427   */\n  dup6\n    /* \"#utility.yul\":416:439   */\n  sub\n    /* \"#utility.yul\":412:444   */\n  slt\n    /* \"#utility.yul\":409:528   */\n  iszero\n  tag_17\n  jumpi\n    /* \"#utility.yul\":447:526   */\n  tag_18\n  tag_19\n  jump\t// in\ntag_18:\n    /* \"#utility.yul\":409:528   */\ntag_17:\n    /* \"#utility.yul\":567:568   */\n  0x00\n    /* \"#utility.yul\":592:656   */\n  tag_20\n    /* \"#utility.yul\":648:655   */\n  dup6\n    /* \"#utility.yul\":639:645   */\n  dup3\n    /* \"#utility.yul\":628:637   */\n  dup7\n    /* \"#utility.yul\":624:646   */\n  add\n    /* \"#utility.yul\":592:656   */\n  tag_8\n  jump\t// in\ntag_20:\n    /* \"#utility.yul\":582:656   */\n  swap3\n  pop\n    /* \"#utility.yul\":538:666   */\n  pop\n    /* \"#utility.yul\":705:707   */\n  0x20\n    /* \"#utility.yul\":731:795   */\n  tag_21\n    /* \"#utility.yul\":787:794   */\n  dup6\n    /* \"#utility.yul\":778:784   */\n  dup3\n    /* \"#utility.yul\":767:776   */\n  dup7\n    /* \"#utility.yul\":763:785   */\n  add\n    /* \"#utility.yul\":731:795   */\n  tag_12\n  jump\t// in\ntag_21:\n    /* \"#utility.yul\":721:795   */\n  swap2\n  pop\n    /* \"#utility.yul\":676:805   */\n  pop\n    /* \"#utility.yul\":305:812   */\n  swap3\n  pop\n  swap3\n  swap1\n  pop\n  jump\t// out\n    /* \"#utility.yul\":899:995   */\ntag_24:\n    /* \"#utility.yul\":936:943   */\n  0x00\n    /* \"#utility.yul\":965:989   */\n  tag_26\n    /* \"#utility.yul\":983:988   */\n  dup3\n    /* \"#utility.yul\":965:989   */\n  tag_27\n  jump\t// in\ntag_26:\n    /* \"#utility.yul\":954:989   */\n  swap1\n  pop\n    /* \"#utility.yul\":899:995   */\n  swap2\n  swap1\n  pop\n  jump\t// out\n    /* \"#utility.yul\":1001:1127   */\ntag_27:\n    /* \"#utility.yul\":1038:1045   */\n  0x00\n    /* \"#utility.yul\":1078:1120   */\n  0xffffffffffffffffffffffffffffffffffffffff\n    /* \"#utility.yul\":1071:1076   */\n  dup3\n    /* \"#utility.yul\":1067:1121   */\n  and\n    /* \"#utility.yul\":1056:1121   */\n  swap1\n  pop\n    /* \"#utility.yul\":1001:1127   */\n  swap2\n  swap1\n  pop\n  jump\t// out\n    /* \"#utility.yul\":1133:1210   */\ntag_29:\n    /* \"#utility.yul\":1170:1177   */\n  0x00\n    /* \"#utility.yul\":1199:1204   */\n  dup2\n    /* \"#utility.yul\":1188:1204   */\n  swap1\n  pop\n    /* \"#utility.yul\":1133:1210   */\n  swap2\n  swap1\n  pop\n  jump\t// out\n    /* \"#utility.yul\":1339:1456   */\ntag_19:\n    /* \"#utility.yul\":1448:1449   */\n  0x00\n    /* \"#utility.yul\":1445:1446   */\n  dup1\n    /* \"#utility.yul\":1438:1450   */\n  revert\n    /* \"#utility.yul\":1462:1584   */\ntag_11:\n    /* \"#utility.yul\":1535:1559   */\n  tag_35\n    /* \"#utility.yul\":1553:1558   */\n  dup2\n    /* \"#utility.yul\":1535:1559   */\n  tag_24\n  jump\t// in\ntag_35:\n    /* \"#utility.yul\":1528:1533   */\n  dup2\n    /* \"#utility.yul\":1525:1560   */\n  eq\n    /* \"#utility.yul\":1515:1578   */\n  tag_36\n  jumpi\n    /* \"#utility.yul\":1574:1575   */\n  0x00\n    /* \"#utility.yul\":1571:1572   */\n  dup1\n    /* \"#utility.yul\":1564:1576   */\n  revert\n    /* \"#utility.yul\":1515:1578   */\ntag_36:\n    /* \"#utility.yul\":1462:1584   */\n  pop\n  jump\t// out\n    /* \"#utility.yul\":1590:1712   */\ntag_15:\n    /* \"#utility.yul\":1663:1687   */\n  tag_38\n    /* \"#utility.yul\":1681:1686   */\n  dup2\n    /* \"#utility.yul\":1663:1687   */\n  tag_29\n  jump\t// in\ntag_38:\n    /* \"#utility.yul\":1656:1661   */\n  dup2\n    /* \"#utility.yul\":1653:1688   */\n  eq\n    /* \"#utility.yul\":1643:1706   */\n  tag_39\n  jumpi\n    /* \"#utility.yul\":1702:1703   */\n  0x00\n    /* \"#utility.yul\":1699:1700   */\n  dup1\n    /* \"#utility.yul\":1692:1704   */\n  revert\n    /* \"#utility.yul\":1643:1706   */\ntag_39:\n    /* \"#utility.yul\":1590:1712   */\n  pop\n  jump\t// out\n    /* \"Campaign.sol\":409:3497  contract Campaign {\r... */\ntag_6:\n  dataSize(sub_0)\n  dup1\n  dataOffset(sub_0)\n  0x00\n  codecopy\n  0x00\n  return\nstop\n\nsub_0: assembly {\n        /* \"Campaign.sol\":409:3497  contract Campaign {\r... */\n      mstore(0x40, 0x80)\n      jumpi(tag_1, lt(calldatasize, 0x04))\n      shr(0xe0, calldataload(0x00))\n      dup1\n      0x79f96c57\n      gt\n      tag_14\n      jumpi\n      dup1\n      0x79f96c57\n      eq\n      tag_8\n      jumpi\n      dup1\n      0x81d12c58\n      eq\n      tag_9\n      jumpi\n      dup1\n      0x8a9cfd55\n      eq\n      tag_10\n      jumpi\n      dup1\n      0x937e09b1\n      eq\n      tag_11\n      jumpi\n      dup1\n      0xd7bb99ba\n      eq\n      tag_12\n      jumpi\n      dup1\n      0xd7d1bbdb\n      eq\n      tag_13\n      jumpi\n      jump(tag_1)\n    tag_14:\n      dup1\n      0x03441006\n      eq\n      tag_2\n      jumpi\n      dup1\n      0x0a144391\n      eq\n      tag_3\n      jumpi\n      dup1\n      0x128e9be6\n      eq\n      tag_4\n      jumpi\n      dup1\n      0x481c6a75\n      eq\n      tag_5\n      jumpi\n      dup1\n      0x5badbe4c\n      eq\n      tag_6\n      jumpi\n      dup1\n      0x7606f781\n      eq\n      tag_7\n      jumpi\n    tag_1:\n      0x00\n      dup1\n      revert\n        /* \"Campaign.sol\":2717:3210  function finalizeRequest(uint index) public restricted {\r... */\n    tag_2:\n      callvalue\n      dup1\n      iszero\n      tag_15\n      jumpi\n      0x00\n      dup1\n      revert\n    tag_15:\n      pop\n      tag_16\n      0x04\n      dup1\n      calldatasize\n      sub\n      dup2\n      add\n      swap1\n      tag_17\n      swap2\n      swap1\n      tag_18\n      jump\t// in\n    tag_17:\n      tag_19\n      jump\t// in\n    tag_16:\n      stop\n        /* \"Campaign.sol\":740:781  mapping(address => bool) public approvers */\n    tag_3:\n      callvalue\n      dup1\n      iszero\n      tag_20\n      jumpi\n      0x00\n      dup1\n      revert\n    tag_20:\n      pop\n      tag_21\n      0x04\n      dup1\n      calldatasize\n      sub\n      dup2\n      add\n      swap1\n      tag_22\n      swap2\n      swap1\n      tag_23\n      jump\t// in\n    tag_22:\n      tag_24\n      jump\t// in\n    tag_21:\n      mload(0x40)\n      tag_25\n      swap2\n      swap1\n      tag_26\n      jump\t// in\n    tag_25:\n      mload(0x40)\n      dup1\n      swap2\n      sub\n      swap1\n      return\n        /* \"Campaign.sol\":708:733  uint public approverCount */\n    tag_4:\n      callvalue\n      dup1\n      iszero\n      tag_27\n      jumpi\n      0x00\n      dup1\n      revert\n    tag_27:\n      pop\n      tag_28\n      tag_29\n      jump\t// in\n    tag_28:\n      mload(0x40)\n      tag_30\n      swap2\n      swap1\n      tag_31\n      jump\t// in\n    tag_30:\n      mload(0x40)\n      dup1\n      swap2\n      sub\n      swap1\n      return\n        /* \"Campaign.sol\":641:663  address public manager */\n    tag_5:\n      callvalue\n      dup1\n      iszero\n      tag_32\n      jumpi\n      0x00\n      dup1\n      revert\n    tag_32:\n      pop\n      tag_33\n      tag_34\n      jump\t// in\n    tag_33:\n      mload(0x40)\n      tag_35\n      swap2\n      swap1\n      tag_36\n      jump\t// in\n    tag_35:\n      mload(0x40)\n      dup1\n      swap2\n      sub\n      swap1\n      return\n        /* \"Campaign.sol\":835:859  uint public requestCount */\n    tag_6:\n      callvalue\n      dup1\n      iszero\n      tag_37\n      jumpi\n      0x00\n      dup1\n      revert\n    tag_37:\n      pop\n      tag_38\n      tag_39\n      jump\t// in\n    tag_38:\n      mload(0x40)\n      tag_40\n      swap2\n      swap1\n      tag_31\n      jump\t// in\n    tag_40:\n      mload(0x40)\n      dup1\n      swap2\n      sub\n      swap1\n      return\n        /* \"Campaign.sol\":3218:3494  function getMetrics() public view returns (\r... */\n    tag_7:\n      callvalue\n      dup1\n      iszero\n      tag_41\n      jumpi\n      0x00\n      dup1\n      revert\n    tag_41:\n      pop\n      tag_42\n      tag_43\n      jump\t// in\n    tag_42:\n      mload(0x40)\n      tag_44\n      swap6\n      swap5\n      swap4\n      swap3\n      swap2\n      swap1\n      tag_45\n      jump\t// in\n    tag_44:\n      mload(0x40)\n      dup1\n      swap2\n      sub\n      swap1\n      return\n        /* \"Campaign.sol\":2483:2709  function denyRequest(uint index) public {\r... */\n    tag_8:\n      callvalue\n      dup1\n      iszero\n      tag_46\n      jumpi\n      0x00\n      dup1\n      revert\n    tag_46:\n      pop\n      tag_47\n      0x04\n      dup1\n      calldatasize\n      sub\n      dup2\n      add\n      swap1\n      tag_48\n      swap2\n      swap1\n      tag_18\n      jump\t// in\n    tag_48:\n      tag_49\n      jump\t// in\n    tag_47:\n      stop\n        /* \"Campaign.sol\":788:828  mapping(uint => Request) public requests */\n    tag_9:\n      callvalue\n      dup1\n      iszero\n      tag_50\n      jumpi\n      0x00\n      dup1\n      revert\n    tag_50:\n      pop\n      tag_51\n      0x04\n      dup1\n      calldatasize\n      sub\n      dup2\n      add\n      swap1\n      tag_52\n      swap2\n      swap1\n      tag_18\n      jump\t// in\n    tag_52:\n      tag_53\n      jump\t// in\n    tag_51:\n      mload(0x40)\n      tag_54\n      swap6\n      swap5\n      swap4\n      swap3\n      swap2\n      swap1\n      tag_55\n      jump\t// in\n    tag_54:\n      mload(0x40)\n      dup1\n      swap2\n      sub\n      swap1\n      return\n        /* \"Campaign.sol\":1544:1903  function createRequest(string calldata description, uint value, address recipient) external restricted {\r... */\n    tag_10:\n      callvalue\n      dup1\n      iszero\n      tag_56\n      jumpi\n      0x00\n      dup1\n      revert\n    tag_56:\n      pop\n      tag_57\n      0x04\n      dup1\n      calldatasize\n      sub\n      dup2\n      add\n      swap1\n      tag_58\n      swap2\n      swap1\n      tag_59\n      jump\t// in\n    tag_58:\n      tag_60\n      jump\t// in\n    tag_57:\n      stop\n        /* \"Campaign.sol\":670:701  uint public minimumContribution */\n    tag_11:\n      callvalue\n      dup1\n      iszero\n      tag_61\n      jumpi\n      0x00\n      dup1\n      revert\n    tag_61:\n      pop\n      tag_62\n      tag_63\n      jump\t// in\n    tag_62:\n      mload(0x40)\n      tag_64\n      swap2\n      swap1\n      tag_31\n      jump\t// in\n    tag_64:\n      mload(0x40)\n      dup1\n      swap2\n      sub\n      swap1\n      return\n        /* \"Campaign.sol\":1222:1536  function contribute() public payable {\r... */\n    tag_12:\n      tag_65\n      tag_66\n      jump\t// in\n    tag_65:\n      stop\n        /* \"Campaign.sol\":1911:2475  function approveRequest(uint index) public {\r... */\n    tag_13:\n      callvalue\n      dup1\n      iszero\n      tag_67\n      jumpi\n      0x00\n      dup1\n      revert\n    tag_67:\n      pop\n      tag_68\n      0x04\n      dup1\n      calldatasize\n      sub\n      dup2\n      add\n      swap1\n      tag_69\n      swap2\n      swap1\n      tag_18\n      jump\t// in\n    tag_69:\n      tag_70\n      jump\t// in\n    tag_68:\n      stop\n        /* \"Campaign.sol\":2717:3210  function finalizeRequest(uint index) public restricted {\r... */\n    tag_19:\n        /* \"Campaign.sol\":937:944  manager */\n      0x00\n      dup1\n      sload\n      swap1\n      0x0100\n      exp\n      swap1\n      div\n      0xffffffffffffffffffffffffffffffffffffffff\n      and\n        /* \"Campaign.sol\":923:944  msg.sender == manager */\n      0xffffffffffffffffffffffffffffffffffffffff\n      and\n        /* \"Campaign.sol\":923:933  msg.sender */\n      caller\n        /* \"Campaign.sol\":923:944  msg.sender == manager */\n      0xffffffffffffffffffffffffffffffffffffffff\n      and\n      eq\n        /* \"Campaign.sol\":901:1011  require(\r... */\n      tag_72\n      jumpi\n      mload(0x40)\n      0x08c379a000000000000000000000000000000000000000000000000000000000\n      dup2\n      mstore\n      0x04\n      add\n      tag_73\n      swap1\n      tag_74\n      jump\t// in\n    tag_73:\n      mload(0x40)\n      dup1\n      swap2\n      sub\n      swap1\n      revert\n    tag_72:\n        /* \"Campaign.sol\":2783:2806  Request storage request */\n      0x00\n        /* \"Campaign.sol\":2809:2817  requests */\n      0x04\n        /* \"Campaign.sol\":2809:2824  requests[index] */\n      0x00\n        /* \"Campaign.sol\":2818:2823  index */\n      dup4\n        /* \"Campaign.sol\":2809:2824  requests[index] */\n      dup2\n      mstore\n      0x20\n      add\n      swap1\n      dup2\n      mstore\n      0x20\n      add\n      0x00\n      keccak256\n        /* \"Campaign.sol\":2783:2824  Request storage request = requests[index] */\n      swap1\n      pop\n        /* \"Campaign.sol\":2868:2875  request */\n      dup1\n        /* \"Campaign.sol\":2868:2884  request.complete */\n      0x02\n      add\n      0x14\n      swap1\n      sload\n      swap1\n      0x0100\n      exp\n      swap1\n      div\n      0xff\n      and\n        /* \"Campaign.sol\":2867:2884  !request.complete */\n      iszero\n        /* \"Campaign.sol\":2845:2946  require(\r... */\n      tag_76\n      jumpi\n      mload(0x40)\n      0x08c379a000000000000000000000000000000000000000000000000000000000\n      dup2\n      mstore\n      0x04\n      add\n      tag_77\n      swap1\n      tag_78\n      jump\t// in\n    tag_77:\n      mload(0x40)\n      dup1\n      swap2\n      sub\n      swap1\n      revert\n    tag_76:\n        /* \"Campaign.sol\":3017:3018  2 */\n      0x02\n        /* \"Campaign.sol\":3003:3016  approverCount */\n      dup1\n      sload\n        /* \"Campaign.sol\":3003:3018  approverCount/2 */\n      tag_79\n      swap2\n      swap1\n      tag_80\n      jump\t// in\n    tag_79:\n        /* \"Campaign.sol\":2979:2986  request */\n      dup2\n        /* \"Campaign.sol\":2979:3000  request.approvalCount */\n      0x03\n      add\n      sload\n        /* \"Campaign.sol\":2979:3018  request.approvalCount > approverCount/2 */\n      gt\n        /* \"Campaign.sol\":2957:3097  require(\r... */\n      tag_81\n      jumpi\n      mload(0x40)\n      0x08c379a000000000000000000000000000000000000000000000000000000000\n      dup2\n      mstore\n      0x04\n      add\n      tag_82\n      swap1\n      tag_83\n      jump\t// in\n    tag_82:\n      mload(0x40)\n      dup1\n      swap2\n      sub\n      swap1\n      revert\n    tag_81:\n        /* \"Campaign.sol\":3137:3141  true */\n      0x01\n        /* \"Campaign.sol\":3118:3125  request */\n      dup2\n        /* \"Campaign.sol\":3118:3134  request.complete */\n      0x02\n      add\n      0x14\n        /* \"Campaign.sol\":3118:3141  request.complete = true */\n      0x0100\n      exp\n      dup2\n      sload\n      dup2\n      0xff\n      mul\n      not\n      and\n      swap1\n      dup4\n      iszero\n      iszero\n      mul\n      or\n      swap1\n      sstore\n      pop\n        /* \"Campaign.sol\":3160:3167  request */\n      dup1\n        /* \"Campaign.sol\":3160:3177  request.recipient */\n      0x02\n      add\n      0x00\n      swap1\n      sload\n      swap1\n      0x0100\n      exp\n      swap1\n      div\n      0xffffffffffffffffffffffffffffffffffffffff\n      and\n        /* \"Campaign.sol\":3152:3187  payable(request.recipient).transfer */\n      0xffffffffffffffffffffffffffffffffffffffff\n      and\n        /* \"Campaign.sol\":3152:3202  payable(request.recipient).transfer(request.value) */\n      0x08fc\n        /* \"Campaign.sol\":3188:3195  request */\n      dup3\n        /* \"Campaign.sol\":3188:3201  request.value */\n      0x01\n      add\n      sload\n        /* \"Campaign.sol\":3152:3202  payable(request.recipient).transfer(request.value) */\n      swap1\n      dup2\n      iszero\n      mul\n      swap1\n      mload(0x40)\n      0x00\n      mload(0x40)\n      dup1\n      dup4\n      sub\n      dup2\n      dup6\n      dup9\n      dup9\n      call\n      swap4\n      pop\n      pop\n      pop\n      pop\n      iszero\n      dup1\n      iszero\n      tag_85\n      jumpi\n      returndatasize\n      0x00\n      dup1\n      returndatacopy\n      revert(0x00, returndatasize)\n    tag_85:\n      pop\n        /* \"Campaign.sol\":2772:3210  {\r... */\n      pop\n        /* \"Campaign.sol\":2717:3210  function finalizeRequest(uint index) public restricted {\r... */\n      pop\n      jump\t// out\n        /* \"Campaign.sol\":740:781  mapping(address => bool) public approvers */\n    tag_24:\n      mstore(0x20, 0x03)\n      dup1\n      0x00\n      mstore\n      keccak256(0x00, 0x40)\n      0x00\n      swap2\n      pop\n      sload\n      swap1\n      0x0100\n      exp\n      swap1\n      div\n      0xff\n      and\n      dup2\n      jump\t// out\n        /* \"Campaign.sol\":708:733  uint public approverCount */\n    tag_29:\n      sload(0x02)\n      dup2\n      jump\t// out\n        /* \"Campaign.sol\":641:663  address public manager */\n    tag_34:\n      0x00\n      dup1\n      sload\n      swap1\n      0x0100\n      exp\n      swap1\n      div\n      0xffffffffffffffffffffffffffffffffffffffff\n      and\n      dup2\n      jump\t// out\n        /* \"Campaign.sol\":835:859  uint public requestCount */\n    tag_39:\n      sload(0x05)\n      dup2\n      jump\t// out\n        /* \"Campaign.sol\":3218:3494  function getMetrics() public view returns (\r... */\n    tag_43:\n        /* \"Campaign.sol\":3271:3275  uint */\n      0x00\n        /* \"Campaign.sol\":3277:3281  uint */\n      dup1\n        /* \"Campaign.sol\":3283:3287  uint */\n      0x00\n        /* \"Campaign.sol\":3289:3293  uint */\n      dup1\n        /* \"Campaign.sol\":3295:3302  address */\n      0x00\n        /* \"Campaign.sol\":3343:3362  minimumContribution */\n      sload(0x01)\n        /* \"Campaign.sol\":3377:3398  address(this).balance */\n      selfbalance\n        /* \"Campaign.sol\":3413:3425  requestCount */\n      sload(0x05)\n        /* \"Campaign.sol\":3440:3453  approverCount */\n      sload(0x02)\n        /* \"Campaign.sol\":3468:3475  manager */\n      0x00\n      dup1\n      sload\n      swap1\n      0x0100\n      exp\n      swap1\n      div\n      0xffffffffffffffffffffffffffffffffffffffff\n      and\n        /* \"Campaign.sol\":3321:3486  return (\r... */\n      swap5\n      pop\n      swap5\n      pop\n      swap5\n      pop\n      swap5\n      pop\n      swap5\n      pop\n        /* \"Campaign.sol\":3218:3494  function getMetrics() public view returns (\r... */\n      swap1\n      swap2\n      swap3\n      swap4\n      swap5\n      jump\t// out\n        /* \"Campaign.sol\":2483:2709  function denyRequest(uint index) public {\r... */\n    tag_49:\n        /* \"Campaign.sol\":2578:2582  true */\n      0x01\n        /* \"Campaign.sol\":2537:2582  requests[index].approvals[msg.sender] == true */\n      iszero\n      iszero\n        /* \"Campaign.sol\":2537:2545  requests */\n      0x04\n        /* \"Campaign.sol\":2537:2552  requests[index] */\n      0x00\n        /* \"Campaign.sol\":2546:2551  index */\n      dup4\n        /* \"Campaign.sol\":2537:2552  requests[index] */\n      dup2\n      mstore\n      0x20\n      add\n      swap1\n      dup2\n      mstore\n      0x20\n      add\n      0x00\n      keccak256\n        /* \"Campaign.sol\":2537:2562  requests[index].approvals */\n      0x04\n      add\n        /* \"Campaign.sol\":2537:2574  requests[index].approvals[msg.sender] */\n      0x00\n        /* \"Campaign.sol\":2563:2573  msg.sender */\n      caller\n        /* \"Campaign.sol\":2537:2574  requests[index].approvals[msg.sender] */\n      0xffffffffffffffffffffffffffffffffffffffff\n      and\n      0xffffffffffffffffffffffffffffffffffffffff\n      and\n      dup2\n      mstore\n      0x20\n      add\n      swap1\n      dup2\n      mstore\n      0x20\n      add\n      0x00\n      keccak256\n      0x00\n      swap1\n      sload\n      swap1\n      0x0100\n      exp\n      swap1\n      div\n      0xff\n      and\n        /* \"Campaign.sol\":2537:2582  requests[index].approvals[msg.sender] == true */\n      iszero\n      iszero\n      eq\n        /* \"Campaign.sol\":2534:2702  if(requests[index].approvals[msg.sender] == true) {\r... */\n      iszero\n      tag_88\n      jumpi\n        /* \"Campaign.sol\":2639:2644  false */\n      0x00\n        /* \"Campaign.sol\":2599:2607  requests */\n      0x04\n        /* \"Campaign.sol\":2599:2614  requests[index] */\n      0x00\n        /* \"Campaign.sol\":2608:2613  index */\n      dup4\n        /* \"Campaign.sol\":2599:2614  requests[index] */\n      dup2\n      mstore\n      0x20\n      add\n      swap1\n      dup2\n      mstore\n      0x20\n      add\n      0x00\n      keccak256\n        /* \"Campaign.sol\":2599:2624  requests[index].approvals */\n      0x04\n      add\n        /* \"Campaign.sol\":2599:2636  requests[index].approvals[msg.sender] */\n      0x00\n        /* \"Campaign.sol\":2625:2635  msg.sender */\n      caller\n        /* \"Campaign.sol\":2599:2636  requests[index].approvals[msg.sender] */\n      0xffffffffffffffffffffffffffffffffffffffff\n      and\n      0xffffffffffffffffffffffffffffffffffffffff\n      and\n      dup2\n      mstore\n      0x20\n      add\n      swap1\n      dup2\n      mstore\n      0x20\n      add\n      0x00\n      keccak256\n      0x00\n        /* \"Campaign.sol\":2599:2644  requests[index].approvals[msg.sender] = false */\n      0x0100\n      exp\n      dup2\n      sload\n      dup2\n      0xff\n      mul\n      not\n      and\n      swap1\n      dup4\n      iszero\n      iszero\n      mul\n      or\n      swap1\n      sstore\n      pop\n        /* \"Campaign.sol\":2659:2667  requests */\n      0x04\n        /* \"Campaign.sol\":2659:2674  requests[index] */\n      0x00\n        /* \"Campaign.sol\":2668:2673  index */\n      dup3\n        /* \"Campaign.sol\":2659:2674  requests[index] */\n      dup2\n      mstore\n      0x20\n      add\n      swap1\n      dup2\n      mstore\n      0x20\n      add\n      0x00\n      keccak256\n        /* \"Campaign.sol\":2659:2688  requests[index].approvalCount */\n      0x03\n      add\n      0x00\n        /* \"Campaign.sol\":2659:2690  requests[index].approvalCount-- */\n      dup2\n      sload\n      dup1\n      swap3\n      swap2\n      swap1\n      tag_89\n      swap1\n      tag_90\n      jump\t// in\n    tag_89:\n      swap2\n      swap1\n      pop\n      sstore\n      pop\n        /* \"Campaign.sol\":2534:2702  if(requests[index].approvals[msg.sender] == true) {\r... */\n    tag_88:\n        /* \"Campaign.sol\":2483:2709  function denyRequest(uint index) public {\r... */\n      pop\n      jump\t// out\n        /* \"Campaign.sol\":788:828  mapping(uint => Request) public requests */\n    tag_53:\n      mstore(0x20, 0x04)\n      dup1\n      0x00\n      mstore\n      keccak256(0x00, 0x40)\n      0x00\n      swap2\n      pop\n      swap1\n      pop\n      dup1\n      0x00\n      add\n      dup1\n      sload\n      tag_91\n      swap1\n      tag_92\n      jump\t// in\n    tag_91:\n      dup1\n      0x1f\n      add\n      0x20\n      dup1\n      swap2\n      div\n      mul\n      0x20\n      add\n      mload(0x40)\n      swap1\n      dup2\n      add\n      0x40\n      mstore\n      dup1\n      swap3\n      swap2\n      swap1\n      dup2\n      dup2\n      mstore\n      0x20\n      add\n      dup3\n      dup1\n      sload\n      tag_93\n      swap1\n      tag_92\n      jump\t// in\n    tag_93:\n      dup1\n      iszero\n      tag_94\n      jumpi\n      dup1\n      0x1f\n      lt\n      tag_95\n      jumpi\n      0x0100\n      dup1\n      dup4\n      sload\n      div\n      mul\n      dup4\n      mstore\n      swap2\n      0x20\n      add\n      swap2\n      jump(tag_94)\n    tag_95:\n      dup3\n      add\n      swap2\n      swap1\n      0x00\n      mstore\n      keccak256(0x00, 0x20)\n      swap1\n    tag_96:\n      dup2\n      sload\n      dup2\n      mstore\n      swap1\n      0x01\n      add\n      swap1\n      0x20\n      add\n      dup1\n      dup4\n      gt\n      tag_96\n      jumpi\n      dup3\n      swap1\n      sub\n      0x1f\n      and\n      dup3\n      add\n      swap2\n    tag_94:\n      pop\n      pop\n      pop\n      pop\n      pop\n      swap1\n      dup1\n      0x01\n      add\n      sload\n      swap1\n      dup1\n      0x02\n      add\n      0x00\n      swap1\n      sload\n      swap1\n      0x0100\n      exp\n      swap1\n      div\n      0xffffffffffffffffffffffffffffffffffffffff\n      and\n      swap1\n      dup1\n      0x02\n      add\n      0x14\n      swap1\n      sload\n      swap1\n      0x0100\n      exp\n      swap1\n      div\n      0xff\n      and\n      swap1\n      dup1\n      0x03\n      add\n      sload\n      swap1\n      pop\n      dup6\n      jump\t// out\n        /* \"Campaign.sol\":1544:1903  function createRequest(string calldata description, uint value, address recipient) external restricted {\r... */\n    tag_60:\n        /* \"Campaign.sol\":937:944  manager */\n      0x00\n      dup1\n      sload\n      swap1\n      0x0100\n      exp\n      swap1\n      div\n      0xffffffffffffffffffffffffffffffffffffffff\n      and\n        /* \"Campaign.sol\":923:944  msg.sender == manager */\n      0xffffffffffffffffffffffffffffffffffffffff\n      and\n        /* \"Campaign.sol\":923:933  msg.sender */\n      caller\n        /* \"Campaign.sol\":923:944  msg.sender == manager */\n      0xffffffffffffffffffffffffffffffffffffffff\n      and\n      eq\n        /* \"Campaign.sol\":901:1011  require(\r... */\n      tag_98\n      jumpi\n      mload(0x40)\n      0x08c379a000000000000000000000000000000000000000000000000000000000\n      dup2\n      mstore\n      0x04\n      add\n      tag_99\n      swap1\n      tag_74\n      jump\t// in\n    tag_99:\n      mload(0x40)\n      dup1\n      swap2\n      sub\n      swap1\n      revert\n    tag_98:\n        /* \"Campaign.sol\":1658:1681  Request storage request */\n      0x00\n        /* \"Campaign.sol\":1684:1692  requests */\n      0x04\n        /* \"Campaign.sol\":1684:1708  requests[requestCount++] */\n      0x00\n        /* \"Campaign.sol\":1693:1705  requestCount */\n      0x05\n      0x00\n        /* \"Campaign.sol\":1693:1707  requestCount++ */\n      dup2\n      sload\n      dup1\n      swap3\n      swap2\n      swap1\n      tag_101\n      swap1\n      tag_102\n      jump\t// in\n    tag_101:\n      swap2\n      swap1\n      pop\n      sstore\n        /* \"Campaign.sol\":1684:1708  requests[requestCount++] */\n      dup2\n      mstore\n      0x20\n      add\n      swap1\n      dup2\n      mstore\n      0x20\n      add\n      0x00\n      keccak256\n        /* \"Campaign.sol\":1658:1708  Request storage request = requests[requestCount++] */\n      swap1\n      pop\n        /* \"Campaign.sol\":1741:1752  description */\n      dup5\n      dup5\n        /* \"Campaign.sol\":1719:1726  request */\n      dup3\n        /* \"Campaign.sol\":1719:1738  request.description */\n      0x00\n      add\n        /* \"Campaign.sol\":1719:1752  request.description = description */\n      swap2\n      swap1\n      tag_103\n      swap3\n      swap2\n      swap1\n      tag_104\n      jump\t// in\n    tag_103:\n      pop\n        /* \"Campaign.sol\":1779:1784  value */\n      dup3\n        /* \"Campaign.sol\":1763:1770  request */\n      dup2\n        /* \"Campaign.sol\":1763:1776  request.value */\n      0x01\n      add\n        /* \"Campaign.sol\":1763:1784  request.value = value */\n      dup2\n      swap1\n      sstore\n      pop\n        /* \"Campaign.sol\":1815:1824  recipient */\n      dup2\n        /* \"Campaign.sol\":1795:1802  request */\n      dup2\n        /* \"Campaign.sol\":1795:1812  request.recipient */\n      0x02\n      add\n      0x00\n        /* \"Campaign.sol\":1795:1824  request.recipient = recipient */\n      0x0100\n      exp\n      dup2\n      sload\n      dup2\n      0xffffffffffffffffffffffffffffffffffffffff\n      mul\n      not\n      and\n      swap1\n      dup4\n      0xffffffffffffffffffffffffffffffffffffffff\n      and\n      mul\n      or\n      swap1\n      sstore\n      pop\n        /* \"Campaign.sol\":1854:1859  false */\n      0x00\n        /* \"Campaign.sol\":1835:1842  request */\n      dup2\n        /* \"Campaign.sol\":1835:1851  request.complete */\n      0x02\n      add\n      0x14\n        /* \"Campaign.sol\":1835:1859  request.complete = false */\n      0x0100\n      exp\n      dup2\n      sload\n      dup2\n      0xff\n      mul\n      not\n      and\n      swap1\n      dup4\n      iszero\n      iszero\n      mul\n      or\n      swap1\n      sstore\n      pop\n        /* \"Campaign.sol\":1894:1895  0 */\n      0x00\n        /* \"Campaign.sol\":1870:1877  request */\n      dup2\n        /* \"Campaign.sol\":1870:1891  request.approvalCount */\n      0x03\n      add\n        /* \"Campaign.sol\":1870:1895  request.approvalCount = 0 */\n      dup2\n      swap1\n      sstore\n      pop\n        /* \"Campaign.sol\":1647:1903  {\r... */\n      pop\n        /* \"Campaign.sol\":1544:1903  function createRequest(string calldata description, uint value, address recipient) external restricted {\r... */\n      pop\n      pop\n      pop\n      pop\n      jump\t// out\n        /* \"Campaign.sol\":670:701  uint public minimumContribution */\n    tag_63:\n      sload(0x01)\n      dup2\n      jump\t// out\n        /* \"Campaign.sol\":1222:1536  function contribute() public payable {\r... */\n    tag_66:\n        /* \"Campaign.sol\":1305:1324  minimumContribution */\n      sload(0x01)\n        /* \"Campaign.sol\":1292:1301  msg.value */\n      callvalue\n        /* \"Campaign.sol\":1292:1324  msg.value >= minimumContribution */\n      lt\n      iszero\n        /* \"Campaign.sol\":1270:1397  require(\r... */\n      tag_106\n      jumpi\n      mload(0x40)\n      0x08c379a000000000000000000000000000000000000000000000000000000000\n      dup2\n      mstore\n      0x04\n      add\n      tag_107\n      swap1\n      tag_108\n      jump\t// in\n    tag_107:\n      mload(0x40)\n      dup1\n      swap2\n      sub\n      swap1\n      revert\n    tag_106:\n        /* \"Campaign.sol\":1438:1442  true */\n      0x01\n        /* \"Campaign.sol\":1413:1442  approvers[msg.sender] != true */\n      iszero\n      iszero\n        /* \"Campaign.sol\":1413:1422  approvers */\n      0x03\n        /* \"Campaign.sol\":1413:1434  approvers[msg.sender] */\n      0x00\n        /* \"Campaign.sol\":1423:1433  msg.sender */\n      caller\n        /* \"Campaign.sol\":1413:1434  approvers[msg.sender] */\n      0xffffffffffffffffffffffffffffffffffffffff\n      and\n      0xffffffffffffffffffffffffffffffffffffffff\n      and\n      dup2\n      mstore\n      0x20\n      add\n      swap1\n      dup2\n      mstore\n      0x20\n      add\n      0x00\n      keccak256\n      0x00\n      swap1\n      sload\n      swap1\n      0x0100\n      exp\n      swap1\n      div\n      0xff\n      and\n        /* \"Campaign.sol\":1413:1442  approvers[msg.sender] != true */\n      iszero\n      iszero\n      eq\n        /* \"Campaign.sol\":1410:1529  if(approvers[msg.sender] != true) {\r... */\n      tag_109\n      jumpi\n        /* \"Campaign.sol\":1483:1487  true */\n      0x01\n        /* \"Campaign.sol\":1459:1468  approvers */\n      0x03\n        /* \"Campaign.sol\":1459:1480  approvers[msg.sender] */\n      0x00\n        /* \"Campaign.sol\":1469:1479  msg.sender */\n      caller\n        /* \"Campaign.sol\":1459:1480  approvers[msg.sender] */\n      0xffffffffffffffffffffffffffffffffffffffff\n      and\n      0xffffffffffffffffffffffffffffffffffffffff\n      and\n      dup2\n      mstore\n      0x20\n      add\n      swap1\n      dup2\n      mstore\n      0x20\n      add\n      0x00\n      keccak256\n      0x00\n        /* \"Campaign.sol\":1459:1487  approvers[msg.sender] = true */\n      0x0100\n      exp\n      dup2\n      sload\n      dup2\n      0xff\n      mul\n      not\n      and\n      swap1\n      dup4\n      iszero\n      iszero\n      mul\n      or\n      swap1\n      sstore\n      pop\n        /* \"Campaign.sol\":1502:1515  approverCount */\n      0x02\n      0x00\n        /* \"Campaign.sol\":1502:1517  approverCount++ */\n      dup2\n      sload\n      dup1\n      swap3\n      swap2\n      swap1\n      tag_110\n      swap1\n      tag_102\n      jump\t// in\n    tag_110:\n      swap2\n      swap1\n      pop\n      sstore\n      pop\n        /* \"Campaign.sol\":1410:1529  if(approvers[msg.sender] != true) {\r... */\n    tag_109:\n        /* \"Campaign.sol\":1222:1536  function contribute() public payable {\r... */\n      jump\t// out\n        /* \"Campaign.sol\":1911:2475  function approveRequest(uint index) public {\r... */\n    tag_70:\n        /* \"Campaign.sol\":1987:1996  approvers */\n      0x03\n        /* \"Campaign.sol\":1987:2008  approvers[msg.sender] */\n      0x00\n        /* \"Campaign.sol\":1997:2007  msg.sender */\n      caller\n        /* \"Campaign.sol\":1987:2008  approvers[msg.sender] */\n      0xffffffffffffffffffffffffffffffffffffffff\n      and\n      0xffffffffffffffffffffffffffffffffffffffff\n      and\n      dup2\n      mstore\n      0x20\n      add\n      swap1\n      dup2\n      mstore\n      0x20\n      add\n      0x00\n      keccak256\n      0x00\n      swap1\n      sload\n      swap1\n      0x0100\n      exp\n      swap1\n      div\n      0xff\n      and\n        /* \"Campaign.sol\":1965:2075  require(\r... */\n      tag_112\n      jumpi\n      mload(0x40)\n      0x08c379a000000000000000000000000000000000000000000000000000000000\n      dup2\n      mstore\n      0x04\n      add\n      tag_113\n      swap1\n      tag_114\n      jump\t// in\n    tag_113:\n      mload(0x40)\n      dup1\n      swap2\n      sub\n      swap1\n      revert\n    tag_112:\n        /* \"Campaign.sol\":2088:2111  Request storage request */\n      0x00\n        /* \"Campaign.sol\":2114:2122  requests */\n      0x04\n        /* \"Campaign.sol\":2114:2129  requests[index] */\n      0x00\n        /* \"Campaign.sol\":2123:2128  index */\n      dup4\n        /* \"Campaign.sol\":2114:2129  requests[index] */\n      dup2\n      mstore\n      0x20\n      add\n      swap1\n      dup2\n      mstore\n      0x20\n      add\n      0x00\n      keccak256\n        /* \"Campaign.sol\":2088:2129  Request storage request = requests[index] */\n      swap1\n      pop\n        /* \"Campaign.sol\":2163:2170  request */\n      dup1\n        /* \"Campaign.sol\":2163:2179  request.complete */\n      0x02\n      add\n      0x14\n      swap1\n      sload\n      swap1\n      0x0100\n      exp\n      swap1\n      div\n      0xff\n      and\n        /* \"Campaign.sol\":2162:2179  !request.complete */\n      iszero\n        /* \"Campaign.sol\":2140:2247  require(\r... */\n      tag_115\n      jumpi\n      mload(0x40)\n      0x08c379a000000000000000000000000000000000000000000000000000000000\n      dup2\n      mstore\n      0x04\n      add\n      tag_116\n      swap1\n      tag_117\n      jump\t// in\n    tag_116:\n      mload(0x40)\n      dup1\n      swap2\n      sub\n      swap1\n      revert\n    tag_115:\n        /* \"Campaign.sol\":2281:2288  request */\n      dup1\n        /* \"Campaign.sol\":2281:2298  request.approvals */\n      0x04\n      add\n        /* \"Campaign.sol\":2281:2310  request.approvals[msg.sender] */\n      0x00\n        /* \"Campaign.sol\":2299:2309  msg.sender */\n      caller\n        /* \"Campaign.sol\":2281:2310  request.approvals[msg.sender] */\n      0xffffffffffffffffffffffffffffffffffffffff\n      and\n      0xffffffffffffffffffffffffffffffffffffffff\n      and\n      dup2\n      mstore\n      0x20\n      add\n      swap1\n      dup2\n      mstore\n      0x20\n      add\n      0x00\n      keccak256\n      0x00\n      swap1\n      sload\n      swap1\n      0x0100\n      exp\n      swap1\n      div\n      0xff\n      and\n        /* \"Campaign.sol\":2280:2310  !request.approvals[msg.sender] */\n      iszero\n        /* \"Campaign.sol\":2258:2376  require(\r... */\n      tag_118\n      jumpi\n      mload(0x40)\n      0x08c379a000000000000000000000000000000000000000000000000000000000\n      dup2\n      mstore\n      0x04\n      add\n      tag_119\n      swap1\n      tag_120\n      jump\t// in\n    tag_119:\n      mload(0x40)\n      dup1\n      swap2\n      sub\n      swap1\n      revert\n    tag_118:\n        /* \"Campaign.sol\":2429:2433  true */\n      0x01\n        /* \"Campaign.sol\":2397:2404  request */\n      dup2\n        /* \"Campaign.sol\":2397:2414  request.approvals */\n      0x04\n      add\n        /* \"Campaign.sol\":2397:2426  request.approvals[msg.sender] */\n      0x00\n        /* \"Campaign.sol\":2415:2425  msg.sender */\n      caller\n        /* \"Campaign.sol\":2397:2426  request.approvals[msg.sender] */\n      0xffffffffffffffffffffffffffffffffffffffff\n      and\n      0xffffffffffffffffffffffffffffffffffffffff\n      and\n      dup2\n      mstore\n      0x20\n      add\n      swap1\n      dup2\n      mstore\n      0x20\n      add\n      0x00\n      keccak256\n      0x00\n        /* \"Campaign.sol\":2397:2433  request.approvals[msg.sender] = true */\n      0x0100\n      exp\n      dup2\n      sload\n      dup2\n      0xff\n      mul\n      not\n      and\n      swap1\n      dup4\n      iszero\n      iszero\n      mul\n      or\n      swap1\n      sstore\n      pop\n        /* \"Campaign.sol\":2444:2451  request */\n      dup1\n        /* \"Campaign.sol\":2444:2465  request.approvalCount */\n      0x03\n      add\n      0x00\n        /* \"Campaign.sol\":2444:2467  request.approvalCount++ */\n      dup2\n      sload\n      dup1\n      swap3\n      swap2\n      swap1\n      tag_121\n      swap1\n      tag_102\n      jump\t// in\n    tag_121:\n      swap2\n      swap1\n      pop\n      sstore\n      pop\n        /* \"Campaign.sol\":1954:2475  {\r... */\n      pop\n        /* \"Campaign.sol\":1911:2475  function approveRequest(uint index) public {\r... */\n      pop\n      jump\t// out\n    tag_104:\n      dup3\n      dup1\n      sload\n      tag_122\n      swap1\n      tag_92\n      jump\t// in\n    tag_122:\n      swap1\n      0x00\n      mstore\n      keccak256(0x00, 0x20)\n      swap1\n      0x1f\n      add\n      0x20\n      swap1\n      div\n      dup2\n      add\n      swap3\n      dup3\n      tag_124\n      jumpi\n      0x00\n      dup6\n      sstore\n      jump(tag_123)\n    tag_124:\n      dup3\n      0x1f\n      lt\n      tag_125\n      jumpi\n      dup1\n      calldataload\n      not(0xff)\n      and\n      dup4\n      dup1\n      add\n      or\n      dup6\n      sstore\n      jump(tag_123)\n    tag_125:\n      dup3\n      dup1\n      add\n      0x01\n      add\n      dup6\n      sstore\n      dup3\n      iszero\n      tag_123\n      jumpi\n      swap2\n      dup3\n      add\n    tag_126:\n      dup3\n      dup2\n      gt\n      iszero\n      tag_127\n      jumpi\n      dup3\n      calldataload\n      dup3\n      sstore\n      swap2\n      0x20\n      add\n      swap2\n      swap1\n      0x01\n      add\n      swap1\n      jump(tag_126)\n    tag_127:\n    tag_123:\n      pop\n      swap1\n      pop\n      tag_128\n      swap2\n      swap1\n      tag_129\n      jump\t// in\n    tag_128:\n      pop\n      swap1\n      jump\t// out\n    tag_129:\n    tag_130:\n      dup1\n      dup3\n      gt\n      iszero\n      tag_131\n      jumpi\n      0x00\n      dup2\n      0x00\n      swap1\n      sstore\n      pop\n      0x01\n      add\n      jump(tag_130)\n    tag_131:\n      pop\n      swap1\n      jump\t// out\n        /* \"#utility.yul\":7:146   */\n    tag_133:\n        /* \"#utility.yul\":53:58   */\n      0x00\n        /* \"#utility.yul\":91:97   */\n      dup2\n        /* \"#utility.yul\":78:98   */\n      calldataload\n        /* \"#utility.yul\":69:98   */\n      swap1\n      pop\n        /* \"#utility.yul\":107:140   */\n      tag_135\n        /* \"#utility.yul\":134:139   */\n      dup2\n        /* \"#utility.yul\":107:140   */\n      tag_136\n      jump\t// in\n    tag_135:\n        /* \"#utility.yul\":7:146   */\n      swap3\n      swap2\n      pop\n      pop\n      jump\t// out\n        /* \"#utility.yul\":166:719   */\n    tag_137:\n        /* \"#utility.yul\":224:232   */\n      0x00\n        /* \"#utility.yul\":234:240   */\n      dup1\n        /* \"#utility.yul\":284:287   */\n      dup4\n        /* \"#utility.yul\":277:281   */\n      0x1f\n        /* \"#utility.yul\":269:275   */\n      dup5\n        /* \"#utility.yul\":265:282   */\n      add\n        /* \"#utility.yul\":261:288   */\n      slt\n        /* \"#utility.yul\":251:373   */\n      tag_139\n      jumpi\n        /* \"#utility.yul\":292:371   */\n      tag_140\n      tag_141\n      jump\t// in\n    tag_140:\n        /* \"#utility.yul\":251:373   */\n    tag_139:\n        /* \"#utility.yul\":405:411   */\n      dup3\n        /* \"#utility.yul\":392:412   */\n      calldataload\n        /* \"#utility.yul\":382:412   */\n      swap1\n      pop\n        /* \"#utility.yul\":435:453   */\n      0xffffffffffffffff\n        /* \"#utility.yul\":427:433   */\n      dup2\n        /* \"#utility.yul\":424:454   */\n      gt\n        /* \"#utility.yul\":421:538   */\n      iszero\n      tag_142\n      jumpi\n        /* \"#utility.yul\":457:536   */\n      tag_143\n      tag_144\n      jump\t// in\n    tag_143:\n        /* \"#utility.yul\":421:538   */\n    tag_142:\n        /* \"#utility.yul\":571:575   */\n      0x20\n        /* \"#utility.yul\":563:569   */\n      dup4\n        /* \"#utility.yul\":559:576   */\n      add\n        /* \"#utility.yul\":547:576   */\n      swap2\n      pop\n        /* \"#utility.yul\":625:628   */\n      dup4\n        /* \"#utility.yul\":617:621   */\n      0x01\n        /* \"#utility.yul\":609:615   */\n      dup3\n        /* \"#utility.yul\":605:622   */\n      mul\n        /* \"#utility.yul\":595:603   */\n      dup4\n        /* \"#utility.yul\":591:623   */\n      add\n        /* \"#utility.yul\":588:629   */\n      gt\n        /* \"#utility.yul\":585:713   */\n      iszero\n      tag_145\n      jumpi\n        /* \"#utility.yul\":632:711   */\n      tag_146\n      tag_147\n      jump\t// in\n    tag_146:\n        /* \"#utility.yul\":585:713   */\n    tag_145:\n        /* \"#utility.yul\":166:719   */\n      swap3\n      pop\n      swap3\n      swap1\n      pop\n      jump\t// out\n        /* \"#utility.yul\":725:864   */\n    tag_148:\n        /* \"#utility.yul\":771:776   */\n      0x00\n        /* \"#utility.yul\":809:815   */\n      dup2\n        /* \"#utility.yul\":796:816   */\n      calldataload\n        /* \"#utility.yul\":787:816   */\n      swap1\n      pop\n        /* \"#utility.yul\":825:858   */\n      tag_150\n        /* \"#utility.yul\":852:857   */\n      dup2\n        /* \"#utility.yul\":825:858   */\n      tag_151\n      jump\t// in\n    tag_150:\n        /* \"#utility.yul\":725:864   */\n      swap3\n      swap2\n      pop\n      pop\n      jump\t// out\n        /* \"#utility.yul\":870:1199   */\n    tag_23:\n        /* \"#utility.yul\":929:935   */\n      0x00\n        /* \"#utility.yul\":978:980   */\n      0x20\n        /* \"#utility.yul\":966:975   */\n      dup3\n        /* \"#utility.yul\":957:964   */\n      dup5\n        /* \"#utility.yul\":953:976   */\n      sub\n        /* \"#utility.yul\":949:981   */\n      slt\n        /* \"#utility.yul\":946:1065   */\n      iszero\n      tag_153\n      jumpi\n        /* \"#utility.yul\":984:1063   */\n      tag_154\n      tag_155\n      jump\t// in\n    tag_154:\n        /* \"#utility.yul\":946:1065   */\n    tag_153:\n        /* \"#utility.yul\":1104:1105   */\n      0x00\n        /* \"#utility.yul\":1129:1182   */\n      tag_156\n        /* \"#utility.yul\":1174:1181   */\n      dup5\n        /* \"#utility.yul\":1165:1171   */\n      dup3\n        /* \"#utility.yul\":1154:1163   */\n      dup6\n        /* \"#utility.yul\":1150:1172   */\n      add\n        /* \"#utility.yul\":1129:1182   */\n      tag_133\n      jump\t// in\n    tag_156:\n        /* \"#utility.yul\":1119:1182   */\n      swap2\n      pop\n        /* \"#utility.yul\":1075:1192   */\n      pop\n        /* \"#utility.yul\":870:1199   */\n      swap3\n      swap2\n      pop\n      pop\n      jump\t// out\n        /* \"#utility.yul\":1205:2024   */\n    tag_59:\n        /* \"#utility.yul\":1294:1300   */\n      0x00\n        /* \"#utility.yul\":1302:1308   */\n      dup1\n        /* \"#utility.yul\":1310:1316   */\n      0x00\n        /* \"#utility.yul\":1318:1324   */\n      dup1\n        /* \"#utility.yul\":1367:1369   */\n      0x60\n        /* \"#utility.yul\":1355:1364   */\n      dup6\n        /* \"#utility.yul\":1346:1353   */\n      dup8\n        /* \"#utility.yul\":1342:1365   */\n      sub\n        /* \"#utility.yul\":1338:1370   */\n      slt\n        /* \"#utility.yul\":1335:1454   */\n      iszero\n      tag_158\n      jumpi\n        /* \"#utility.yul\":1373:1452   */\n      tag_159\n      tag_155\n      jump\t// in\n    tag_159:\n        /* \"#utility.yul\":1335:1454   */\n    tag_158:\n        /* \"#utility.yul\":1521:1522   */\n      0x00\n        /* \"#utility.yul\":1510:1519   */\n      dup6\n        /* \"#utility.yul\":1506:1523   */\n      add\n        /* \"#utility.yul\":1493:1524   */\n      calldataload\n        /* \"#utility.yul\":1551:1569   */\n      0xffffffffffffffff\n        /* \"#utility.yul\":1543:1549   */\n      dup2\n        /* \"#utility.yul\":1540:1570   */\n      gt\n        /* \"#utility.yul\":1537:1654   */\n      iszero\n      tag_160\n      jumpi\n        /* \"#utility.yul\":1573:1652   */\n      tag_161\n      tag_162\n      jump\t// in\n    tag_161:\n        /* \"#utility.yul\":1537:1654   */\n    tag_160:\n        /* \"#utility.yul\":1686:1751   */\n      tag_163\n        /* \"#utility.yul\":1743:1750   */\n      dup8\n        /* \"#utility.yul\":1734:1740   */\n      dup3\n        /* \"#utility.yul\":1723:1732   */\n      dup9\n        /* \"#utility.yul\":1719:1741   */\n      add\n        /* \"#utility.yul\":1686:1751   */\n      tag_137\n      jump\t// in\n    tag_163:\n        /* \"#utility.yul\":1668:1751   */\n      swap5\n      pop\n      swap5\n      pop\n        /* \"#utility.yul\":1464:1761   */\n      pop\n        /* \"#utility.yul\":1800:1802   */\n      0x20\n        /* \"#utility.yul\":1826:1879   */\n      tag_164\n        /* \"#utility.yul\":1871:1878   */\n      dup8\n        /* \"#utility.yul\":1862:1868   */\n      dup3\n        /* \"#utility.yul\":1851:1860   */\n      dup9\n        /* \"#utility.yul\":1847:1869   */\n      add\n        /* \"#utility.yul\":1826:1879   */\n      tag_148\n      jump\t// in\n    tag_164:\n        /* \"#utility.yul\":1816:1879   */\n      swap3\n      pop\n        /* \"#utility.yul\":1771:1889   */\n      pop\n        /* \"#utility.yul\":1928:1930   */\n      0x40\n        /* \"#utility.yul\":1954:2007   */\n      tag_165\n        /* \"#utility.yul\":1999:2006   */\n      dup8\n        /* \"#utility.yul\":1990:1996   */\n      dup3\n        /* \"#utility.yul\":1979:1988   */\n      dup9\n        /* \"#utility.yul\":1975:1997   */\n      add\n        /* \"#utility.yul\":1954:2007   */\n      tag_133\n      jump\t// in\n    tag_165:\n        /* \"#utility.yul\":1944:2007   */\n      swap2\n      pop\n        /* \"#utility.yul\":1899:2017   */\n      pop\n        /* \"#utility.yul\":1205:2024   */\n      swap3\n      swap6\n      swap2\n      swap5\n      pop\n      swap3\n      pop\n      jump\t// out\n        /* \"#utility.yul\":2030:2359   */\n    tag_18:\n        /* \"#utility.yul\":2089:2095   */\n      0x00\n        /* \"#utility.yul\":2138:2140   */\n      0x20\n        /* \"#utility.yul\":2126:2135   */\n      dup3\n        /* \"#utility.yul\":2117:2124   */\n      dup5\n        /* \"#utility.yul\":2113:2136   */\n      sub\n        /* \"#utility.yul\":2109:2141   */\n      slt\n        /* \"#utility.yul\":2106:2225   */\n      iszero\n      tag_167\n      jumpi\n        /* \"#utility.yul\":2144:2223   */\n      tag_168\n      tag_155\n      jump\t// in\n    tag_168:\n        /* \"#utility.yul\":2106:2225   */\n    tag_167:\n        /* \"#utility.yul\":2264:2265   */\n      0x00\n        /* \"#utility.yul\":2289:2342   */\n      tag_169\n        /* \"#utility.yul\":2334:2341   */\n      dup5\n        /* \"#utility.yul\":2325:2331   */\n      dup3\n        /* \"#utility.yul\":2314:2323   */\n      dup6\n        /* \"#utility.yul\":2310:2332   */\n      add\n        /* \"#utility.yul\":2289:2342   */\n      tag_148\n      jump\t// in\n    tag_169:\n        /* \"#utility.yul\":2279:2342   */\n      swap2\n      pop\n        /* \"#utility.yul\":2235:2352   */\n      pop\n        /* \"#utility.yul\":2030:2359   */\n      swap3\n      swap2\n      pop\n      pop\n      jump\t// out\n        /* \"#utility.yul\":2365:2483   */\n    tag_170:\n        /* \"#utility.yul\":2452:2476   */\n      tag_172\n        /* \"#utility.yul\":2470:2475   */\n      dup2\n        /* \"#utility.yul\":2452:2476   */\n      tag_173\n      jump\t// in\n    tag_172:\n        /* \"#utility.yul\":2447:2450   */\n      dup3\n        /* \"#utility.yul\":2440:2477   */\n      mstore\n        /* \"#utility.yul\":2365:2483   */\n      pop\n      pop\n      jump\t// out\n        /* \"#utility.yul\":2489:2598   */\n    tag_174:\n        /* \"#utility.yul\":2570:2591   */\n      tag_176\n        /* \"#utility.yul\":2585:2590   */\n      dup2\n        /* \"#utility.yul\":2570:2591   */\n      tag_177\n      jump\t// in\n    tag_176:\n        /* \"#utility.yul\":2565:2568   */\n      dup3\n        /* \"#utility.yul\":2558:2592   */\n      mstore\n        /* \"#utility.yul\":2489:2598   */\n      pop\n      pop\n      jump\t// out\n        /* \"#utility.yul\":2604:2968   */\n    tag_178:\n        /* \"#utility.yul\":2692:2695   */\n      0x00\n        /* \"#utility.yul\":2720:2759   */\n      tag_180\n        /* \"#utility.yul\":2753:2758   */\n      dup3\n        /* \"#utility.yul\":2720:2759   */\n      tag_181\n      jump\t// in\n    tag_180:\n        /* \"#utility.yul\":2775:2846   */\n      tag_182\n        /* \"#utility.yul\":2839:2845   */\n      dup2\n        /* \"#utility.yul\":2834:2837   */\n      dup6\n        /* \"#utility.yul\":2775:2846   */\n      tag_183\n      jump\t// in\n    tag_182:\n        /* \"#utility.yul\":2768:2846   */\n      swap4\n      pop\n        /* \"#utility.yul\":2855:2907   */\n      tag_184\n        /* \"#utility.yul\":2900:2906   */\n      dup2\n        /* \"#utility.yul\":2895:2898   */\n      dup6\n        /* \"#utility.yul\":2888:2892   */\n      0x20\n        /* \"#utility.yul\":2881:2886   */\n      dup7\n        /* \"#utility.yul\":2877:2893   */\n      add\n        /* \"#utility.yul\":2855:2907   */\n      tag_185\n      jump\t// in\n    tag_184:\n        /* \"#utility.yul\":2932:2961   */\n      tag_186\n        /* \"#utility.yul\":2954:2960   */\n      dup2\n        /* \"#utility.yul\":2932:2961   */\n      tag_187\n      jump\t// in\n    tag_186:\n        /* \"#utility.yul\":2927:2930   */\n      dup5\n        /* \"#utility.yul\":2923:2962   */\n      add\n        /* \"#utility.yul\":2916:2962   */\n      swap2\n      pop\n        /* \"#utility.yul\":2696:2968   */\n      pop\n        /* \"#utility.yul\":2604:2968   */\n      swap3\n      swap2\n      pop\n      pop\n      jump\t// out\n        /* \"#utility.yul\":2974:3340   */\n    tag_188:\n        /* \"#utility.yul\":3116:3119   */\n      0x00\n        /* \"#utility.yul\":3137:3204   */\n      tag_190\n        /* \"#utility.yul\":3201:3203   */\n      0x2d\n        /* \"#utility.yul\":3196:3199   */\n      dup4\n        /* \"#utility.yul\":3137:3204   */\n      tag_183\n      jump\t// in\n    tag_190:\n        /* \"#utility.yul\":3130:3204   */\n      swap2\n      pop\n        /* \"#utility.yul\":3213:3306   */\n      tag_191\n        /* \"#utility.yul\":3302:3305   */\n      dup3\n        /* \"#utility.yul\":3213:3306   */\n      tag_192\n      jump\t// in\n    tag_191:\n        /* \"#utility.yul\":3331:3333   */\n      0x40\n        /* \"#utility.yul\":3326:3329   */\n      dup3\n        /* \"#utility.yul\":3322:3334   */\n      add\n        /* \"#utility.yul\":3315:3334   */\n      swap1\n      pop\n        /* \"#utility.yul\":2974:3340   */\n      swap2\n      swap1\n      pop\n      jump\t// out\n        /* \"#utility.yul\":3346:3712   */\n    tag_193:\n        /* \"#utility.yul\":3488:3491   */\n      0x00\n        /* \"#utility.yul\":3509:3576   */\n      tag_195\n        /* \"#utility.yul\":3573:3575   */\n      0x22\n        /* \"#utility.yul\":3568:3571   */\n      dup4\n        /* \"#utility.yul\":3509:3576   */\n      tag_183\n      jump\t// in\n    tag_195:\n        /* \"#utility.yul\":3502:3576   */\n      swap2\n      pop\n        /* \"#utility.yul\":3585:3678   */\n      tag_196\n        /* \"#utility.yul\":3674:3677   */\n      dup3\n        /* \"#utility.yul\":3585:3678   */\n      tag_197\n      jump\t// in\n    tag_196:\n        /* \"#utility.yul\":3703:3705   */\n      0x40\n        /* \"#utility.yul\":3698:3701   */\n      dup3\n        /* \"#utility.yul\":3694:3706   */\n      add\n        /* \"#utility.yul\":3687:3706   */\n      swap1\n      pop\n        /* \"#utility.yul\":3346:3712   */\n      swap2\n      swap1\n      pop\n      jump\t// out\n        /* \"#utility.yul\":3718:4084   */\n    tag_198:\n        /* \"#utility.yul\":3860:3863   */\n      0x00\n        /* \"#utility.yul\":3881:3948   */\n      tag_200\n        /* \"#utility.yul\":3945:3947   */\n      0x28\n        /* \"#utility.yul\":3940:3943   */\n      dup4\n        /* \"#utility.yul\":3881:3948   */\n      tag_183\n      jump\t// in\n    tag_200:\n        /* \"#utility.yul\":3874:3948   */\n      swap2\n      pop\n        /* \"#utility.yul\":3957:4050   */\n      tag_201\n        /* \"#utility.yul\":4046:4049   */\n      dup3\n        /* \"#utility.yul\":3957:4050   */\n      tag_202\n      jump\t// in\n    tag_201:\n        /* \"#utility.yul\":4075:4077   */\n      0x40\n        /* \"#utility.yul\":4070:4073   */\n      dup3\n        /* \"#utility.yul\":4066:4078   */\n      add\n        /* \"#utility.yul\":4059:4078   */\n      swap1\n      pop\n        /* \"#utility.yul\":3718:4084   */\n      swap2\n      swap1\n      pop\n      jump\t// out\n        /* \"#utility.yul\":4090:4456   */\n    tag_203:\n        /* \"#utility.yul\":4232:4235   */\n      0x00\n        /* \"#utility.yul\":4253:4320   */\n      tag_205\n        /* \"#utility.yul\":4317:4319   */\n      0x27\n        /* \"#utility.yul\":4312:4315   */\n      dup4\n        /* \"#utility.yul\":4253:4320   */\n      tag_183\n      jump\t// in\n    tag_205:\n        /* \"#utility.yul\":4246:4320   */\n      swap2\n      pop\n        /* \"#utility.yul\":4329:4422   */\n      tag_206\n        /* \"#utility.yul\":4418:4421   */\n      dup3\n        /* \"#utility.yul\":4329:4422   */\n      tag_207\n      jump\t// in\n    tag_206:\n        /* \"#utility.yul\":4447:4449   */\n      0x40\n        /* \"#utility.yul\":4442:4445   */\n      dup3\n        /* \"#utility.yul\":4438:4450   */\n      add\n        /* \"#utility.yul\":4431:4450   */\n      swap1\n      pop\n        /* \"#utility.yul\":4090:4456   */\n      swap2\n      swap1\n      pop\n      jump\t// out\n        /* \"#utility.yul\":4462:4828   */\n    tag_208:\n        /* \"#utility.yul\":4604:4607   */\n      0x00\n        /* \"#utility.yul\":4625:4692   */\n      tag_210\n        /* \"#utility.yul\":4689:4691   */\n      0x27\n        /* \"#utility.yul\":4684:4687   */\n      dup4\n        /* \"#utility.yul\":4625:4692   */\n      tag_183\n      jump\t// in\n    tag_210:\n        /* \"#utility.yul\":4618:4692   */\n      swap2\n      pop\n        /* \"#utility.yul\":4701:4794   */\n      tag_211\n        /* \"#utility.yul\":4790:4793   */\n      dup3\n        /* \"#utility.yul\":4701:4794   */\n      tag_212\n      jump\t// in\n    tag_211:\n        /* \"#utility.yul\":4819:4821   */\n      0x40\n        /* \"#utility.yul\":4814:4817   */\n      dup3\n        /* \"#utility.yul\":4810:4822   */\n      add\n        /* \"#utility.yul\":4803:4822   */\n      swap1\n      pop\n        /* \"#utility.yul\":4462:4828   */\n      swap2\n      swap1\n      pop\n      jump\t// out\n        /* \"#utility.yul\":4834:5200   */\n    tag_213:\n        /* \"#utility.yul\":4976:4979   */\n      0x00\n        /* \"#utility.yul\":4997:5064   */\n      tag_215\n        /* \"#utility.yul\":5061:5063   */\n      0x33\n        /* \"#utility.yul\":5056:5059   */\n      dup4\n        /* \"#utility.yul\":4997:5064   */\n      tag_183\n      jump\t// in\n    tag_215:\n        /* \"#utility.yul\":4990:5064   */\n      swap2\n      pop\n        /* \"#utility.yul\":5073:5166   */\n      tag_216\n        /* \"#utility.yul\":5162:5165   */\n      dup3\n        /* \"#utility.yul\":5073:5166   */\n      tag_217\n      jump\t// in\n    tag_216:\n        /* \"#utility.yul\":5191:5193   */\n      0x40\n        /* \"#utility.yul\":5186:5189   */\n      dup3\n        /* \"#utility.yul\":5182:5194   */\n      add\n        /* \"#utility.yul\":5175:5194   */\n      swap1\n      pop\n        /* \"#utility.yul\":4834:5200   */\n      swap2\n      swap1\n      pop\n      jump\t// out\n        /* \"#utility.yul\":5206:5572   */\n    tag_218:\n        /* \"#utility.yul\":5348:5351   */\n      0x00\n        /* \"#utility.yul\":5369:5436   */\n      tag_220\n        /* \"#utility.yul\":5433:5435   */\n      0x26\n        /* \"#utility.yul\":5428:5431   */\n      dup4\n        /* \"#utility.yul\":5369:5436   */\n      tag_183\n      jump\t// in\n    tag_220:\n        /* \"#utility.yul\":5362:5436   */\n      swap2\n      pop\n        /* \"#utility.yul\":5445:5538   */\n      tag_221\n        /* \"#utility.yul\":5534:5537   */\n      dup3\n        /* \"#utility.yul\":5445:5538   */\n      tag_222\n      jump\t// in\n    tag_221:\n        /* \"#utility.yul\":5563:5565   */\n      0x40\n        /* \"#utility.yul\":5558:5561   */\n      dup3\n        /* \"#utility.yul\":5554:5566   */\n      add\n        /* \"#utility.yul\":5547:5566   */\n      swap1\n      pop\n        /* \"#utility.yul\":5206:5572   */\n      swap2\n      swap1\n      pop\n      jump\t// out\n        /* \"#utility.yul\":5578:5696   */\n    tag_223:\n        /* \"#utility.yul\":5665:5689   */\n      tag_225\n        /* \"#utility.yul\":5683:5688   */\n      dup2\n        /* \"#utility.yul\":5665:5689   */\n      tag_226\n      jump\t// in\n    tag_225:\n        /* \"#utility.yul\":5660:5663   */\n      dup3\n        /* \"#utility.yul\":5653:5690   */\n      mstore\n        /* \"#utility.yul\":5578:5696   */\n      pop\n      pop\n      jump\t// out\n        /* \"#utility.yul\":5702:5924   */\n    tag_36:\n        /* \"#utility.yul\":5795:5799   */\n      0x00\n        /* \"#utility.yul\":5833:5835   */\n      0x20\n        /* \"#utility.yul\":5822:5831   */\n      dup3\n        /* \"#utility.yul\":5818:5836   */\n      add\n        /* \"#utility.yul\":5810:5836   */\n      swap1\n      pop\n        /* \"#utility.yul\":5846:5917   */\n      tag_228\n        /* \"#utility.yul\":5914:5915   */\n      0x00\n        /* \"#utility.yul\":5903:5912   */\n      dup4\n        /* \"#utility.yul\":5899:5916   */\n      add\n        /* \"#utility.yul\":5890:5896   */\n      dup5\n        /* \"#utility.yul\":5846:5917   */\n      tag_170\n      jump\t// in\n    tag_228:\n        /* \"#utility.yul\":5702:5924   */\n      swap3\n      swap2\n      pop\n      pop\n      jump\t// out\n        /* \"#utility.yul\":5930:6140   */\n    tag_26:\n        /* \"#utility.yul\":6017:6021   */\n      0x00\n        /* \"#utility.yul\":6055:6057   */\n      0x20\n        /* \"#utility.yul\":6044:6053   */\n      dup3\n        /* \"#utility.yul\":6040:6058   */\n      add\n        /* \"#utility.yul\":6032:6058   */\n      swap1\n      pop\n        /* \"#utility.yul\":6068:6133   */\n      tag_230\n        /* \"#utility.yul\":6130:6131   */\n      0x00\n        /* \"#utility.yul\":6119:6128   */\n      dup4\n        /* \"#utility.yul\":6115:6132   */\n      add\n        /* \"#utility.yul\":6106:6112   */\n      dup5\n        /* \"#utility.yul\":6068:6133   */\n      tag_174\n      jump\t// in\n    tag_230:\n        /* \"#utility.yul\":5930:6140   */\n      swap3\n      swap2\n      pop\n      pop\n      jump\t// out\n        /* \"#utility.yul\":6146:6889   */\n    tag_55:\n        /* \"#utility.yul\":6365:6369   */\n      0x00\n        /* \"#utility.yul\":6403:6406   */\n      0xa0\n        /* \"#utility.yul\":6392:6401   */\n      dup3\n        /* \"#utility.yul\":6388:6407   */\n      add\n        /* \"#utility.yul\":6380:6407   */\n      swap1\n      pop\n        /* \"#utility.yul\":6453:6462   */\n      dup2\n        /* \"#utility.yul\":6447:6451   */\n      dup2\n        /* \"#utility.yul\":6443:6463   */\n      sub\n        /* \"#utility.yul\":6439:6440   */\n      0x00\n        /* \"#utility.yul\":6428:6437   */\n      dup4\n        /* \"#utility.yul\":6424:6441   */\n      add\n        /* \"#utility.yul\":6417:6464   */\n      mstore\n        /* \"#utility.yul\":6481:6559   */\n      tag_232\n        /* \"#utility.yul\":6554:6558   */\n      dup2\n        /* \"#utility.yul\":6545:6551   */\n      dup9\n        /* \"#utility.yul\":6481:6559   */\n      tag_178\n      jump\t// in\n    tag_232:\n        /* \"#utility.yul\":6473:6559   */\n      swap1\n      pop\n        /* \"#utility.yul\":6569:6641   */\n      tag_233\n        /* \"#utility.yul\":6637:6639   */\n      0x20\n        /* \"#utility.yul\":6626:6635   */\n      dup4\n        /* \"#utility.yul\":6622:6640   */\n      add\n        /* \"#utility.yul\":6613:6619   */\n      dup8\n        /* \"#utility.yul\":6569:6641   */\n      tag_223\n      jump\t// in\n    tag_233:\n        /* \"#utility.yul\":6651:6723   */\n      tag_234\n        /* \"#utility.yul\":6719:6721   */\n      0x40\n        /* \"#utility.yul\":6708:6717   */\n      dup4\n        /* \"#utility.yul\":6704:6722   */\n      add\n        /* \"#utility.yul\":6695:6701   */\n      dup7\n        /* \"#utility.yul\":6651:6723   */\n      tag_170\n      jump\t// in\n    tag_234:\n        /* \"#utility.yul\":6733:6799   */\n      tag_235\n        /* \"#utility.yul\":6795:6797   */\n      0x60\n        /* \"#utility.yul\":6784:6793   */\n      dup4\n        /* \"#utility.yul\":6780:6798   */\n      add\n        /* \"#utility.yul\":6771:6777   */\n      dup6\n        /* \"#utility.yul\":6733:6799   */\n      tag_174\n      jump\t// in\n    tag_235:\n        /* \"#utility.yul\":6809:6882   */\n      tag_236\n        /* \"#utility.yul\":6877:6880   */\n      0x80\n        /* \"#utility.yul\":6866:6875   */\n      dup4\n        /* \"#utility.yul\":6862:6881   */\n      add\n        /* \"#utility.yul\":6853:6859   */\n      dup5\n        /* \"#utility.yul\":6809:6882   */\n      tag_223\n      jump\t// in\n    tag_236:\n        /* \"#utility.yul\":6146:6889   */\n      swap7\n      swap6\n      pop\n      pop\n      pop\n      pop\n      pop\n      pop\n      jump\t// out\n        /* \"#utility.yul\":6895:7314   */\n    tag_108:\n        /* \"#utility.yul\":7061:7065   */\n      0x00\n        /* \"#utility.yul\":7099:7101   */\n      0x20\n        /* \"#utility.yul\":7088:7097   */\n      dup3\n        /* \"#utility.yul\":7084:7102   */\n      add\n        /* \"#utility.yul\":7076:7102   */\n      swap1\n      pop\n        /* \"#utility.yul\":7148:7157   */\n      dup2\n        /* \"#utility.yul\":7142:7146   */\n      dup2\n        /* \"#utility.yul\":7138:7158   */\n      sub\n        /* \"#utility.yul\":7134:7135   */\n      0x00\n        /* \"#utility.yul\":7123:7132   */\n      dup4\n        /* \"#utility.yul\":7119:7136   */\n      add\n        /* \"#utility.yul\":7112:7159   */\n      mstore\n        /* \"#utility.yul\":7176:7307   */\n      tag_238\n        /* \"#utility.yul\":7302:7306   */\n      dup2\n        /* \"#utility.yul\":7176:7307   */\n      tag_188\n      jump\t// in\n    tag_238:\n        /* \"#utility.yul\":7168:7307   */\n      swap1\n      pop\n        /* \"#utility.yul\":6895:7314   */\n      swap2\n      swap1\n      pop\n      jump\t// out\n        /* \"#utility.yul\":7320:7739   */\n    tag_78:\n        /* \"#utility.yul\":7486:7490   */\n      0x00\n        /* \"#utility.yul\":7524:7526   */\n      0x20\n        /* \"#utility.yul\":7513:7522   */\n      dup3\n        /* \"#utility.yul\":7509:7527   */\n      add\n        /* \"#utility.yul\":7501:7527   */\n      swap1\n      pop\n        /* \"#utility.yul\":7573:7582   */\n      dup2\n        /* \"#utility.yul\":7567:7571   */\n      dup2\n        /* \"#utility.yul\":7563:7583   */\n      sub\n        /* \"#utility.yul\":7559:7560   */\n      0x00\n        /* \"#utility.yul\":7548:7557   */\n      dup4\n        /* \"#utility.yul\":7544:7561   */\n      add\n        /* \"#utility.yul\":7537:7584   */\n      mstore\n        /* \"#utility.yul\":7601:7732   */\n      tag_240\n        /* \"#utility.yul\":7727:7731   */\n      dup2\n        /* \"#utility.yul\":7601:7732   */\n      tag_193\n      jump\t// in\n    tag_240:\n        /* \"#utility.yul\":7593:7732   */\n      swap1\n      pop\n        /* \"#utility.yul\":7320:7739   */\n      swap2\n      swap1\n      pop\n      jump\t// out\n        /* \"#utility.yul\":7745:8164   */\n    tag_117:\n        /* \"#utility.yul\":7911:7915   */\n      0x00\n        /* \"#utility.yul\":7949:7951   */\n      0x20\n        /* \"#utility.yul\":7938:7947   */\n      dup3\n        /* \"#utility.yul\":7934:7952   */\n      add\n        /* \"#utility.yul\":7926:7952   */\n      swap1\n      pop\n        /* \"#utility.yul\":7998:8007   */\n      dup2\n        /* \"#utility.yul\":7992:7996   */\n      dup2\n        /* \"#utility.yul\":7988:8008   */\n      sub\n        /* \"#utility.yul\":7984:7985   */\n      0x00\n        /* \"#utility.yul\":7973:7982   */\n      dup4\n        /* \"#utility.yul\":7969:7986   */\n      add\n        /* \"#utility.yul\":7962:8009   */\n      mstore\n        /* \"#utility.yul\":8026:8157   */\n      tag_242\n        /* \"#utility.yul\":8152:8156   */\n      dup2\n        /* \"#utility.yul\":8026:8157   */\n      tag_198\n      jump\t// in\n    tag_242:\n        /* \"#utility.yul\":8018:8157   */\n      swap1\n      pop\n        /* \"#utility.yul\":7745:8164   */\n      swap2\n      swap1\n      pop\n      jump\t// out\n        /* \"#utility.yul\":8170:8589   */\n    tag_114:\n        /* \"#utility.yul\":8336:8340   */\n      0x00\n        /* \"#utility.yul\":8374:8376   */\n      0x20\n        /* \"#utility.yul\":8363:8372   */\n      dup3\n        /* \"#utility.yul\":8359:8377   */\n      add\n        /* \"#utility.yul\":8351:8377   */\n      swap1\n      pop\n        /* \"#utility.yul\":8423:8432   */\n      dup2\n        /* \"#utility.yul\":8417:8421   */\n      dup2\n        /* \"#utility.yul\":8413:8433   */\n      sub\n        /* \"#utility.yul\":8409:8410   */\n      0x00\n        /* \"#utility.yul\":8398:8407   */\n      dup4\n        /* \"#utility.yul\":8394:8411   */\n      add\n        /* \"#utility.yul\":8387:8434   */\n      mstore\n        /* \"#utility.yul\":8451:8582   */\n      tag_244\n        /* \"#utility.yul\":8577:8581   */\n      dup2\n        /* \"#utility.yul\":8451:8582   */\n      tag_203\n      jump\t// in\n    tag_244:\n        /* \"#utility.yul\":8443:8582   */\n      swap1\n      pop\n        /* \"#utility.yul\":8170:8589   */\n      swap2\n      swap1\n      pop\n      jump\t// out\n        /* \"#utility.yul\":8595:9014   */\n    tag_74:\n        /* \"#utility.yul\":8761:8765   */\n      0x00\n        /* \"#utility.yul\":8799:8801   */\n      0x20\n        /* \"#utility.yul\":8788:8797   */\n      dup3\n        /* \"#utility.yul\":8784:8802   */\n      add\n        /* \"#utility.yul\":8776:8802   */\n      swap1\n      pop\n        /* \"#utility.yul\":8848:8857   */\n      dup2\n        /* \"#utility.yul\":8842:8846   */\n      dup2\n        /* \"#utility.yul\":8838:8858   */\n      sub\n        /* \"#utility.yul\":8834:8835   */\n      0x00\n        /* \"#utility.yul\":8823:8832   */\n      dup4\n        /* \"#utility.yul\":8819:8836   */\n      add\n        /* \"#utility.yul\":8812:8859   */\n      mstore\n        /* \"#utility.yul\":8876:9007   */\n      tag_246\n        /* \"#utility.yul\":9002:9006   */\n      dup2\n        /* \"#utility.yul\":8876:9007   */\n      tag_208\n      jump\t// in\n    tag_246:\n        /* \"#utility.yul\":8868:9007   */\n      swap1\n      pop\n        /* \"#utility.yul\":8595:9014   */\n      swap2\n      swap1\n      pop\n      jump\t// out\n        /* \"#utility.yul\":9020:9439   */\n    tag_83:\n        /* \"#utility.yul\":9186:9190   */\n      0x00\n        /* \"#utility.yul\":9224:9226   */\n      0x20\n        /* \"#utility.yul\":9213:9222   */\n      dup3\n        /* \"#utility.yul\":9209:9227   */\n      add\n        /* \"#utility.yul\":9201:9227   */\n      swap1\n      pop\n        /* \"#utility.yul\":9273:9282   */\n      dup2\n        /* \"#utility.yul\":9267:9271   */\n      dup2\n        /* \"#utility.yul\":9263:9283   */\n      sub\n        /* \"#utility.yul\":9259:9260   */\n      0x00\n        /* \"#utility.yul\":9248:9257   */\n      dup4\n        /* \"#utility.yul\":9244:9261   */\n      add\n        /* \"#utility.yul\":9237:9284   */\n      mstore\n        /* \"#utility.yul\":9301:9432   */\n      tag_248\n        /* \"#utility.yul\":9427:9431   */\n      dup2\n        /* \"#utility.yul\":9301:9432   */\n      tag_213\n      jump\t// in\n    tag_248:\n        /* \"#utility.yul\":9293:9432   */\n      swap1\n      pop\n        /* \"#utility.yul\":9020:9439   */\n      swap2\n      swap1\n      pop\n      jump\t// out\n        /* \"#utility.yul\":9445:9864   */\n    tag_120:\n        /* \"#utility.yul\":9611:9615   */\n      0x00\n        /* \"#utility.yul\":9649:9651   */\n      0x20\n        /* \"#utility.yul\":9638:9647   */\n      dup3\n        /* \"#utility.yul\":9634:9652   */\n      add\n        /* \"#utility.yul\":9626:9652   */\n      swap1\n      pop\n        /* \"#utility.yul\":9698:9707   */\n      dup2\n        /* \"#utility.yul\":9692:9696   */\n      dup2\n        /* \"#utility.yul\":9688:9708   */\n      sub\n        /* \"#utility.yul\":9684:9685   */\n      0x00\n        /* \"#utility.yul\":9673:9682   */\n      dup4\n        /* \"#utility.yul\":9669:9686   */\n      add\n        /* \"#utility.yul\":9662:9709   */\n      mstore\n        /* \"#utility.yul\":9726:9857   */\n      tag_250\n        /* \"#utility.yul\":9852:9856   */\n      dup2\n        /* \"#utility.yul\":9726:9857   */\n      tag_218\n      jump\t// in\n    tag_250:\n        /* \"#utility.yul\":9718:9857   */\n      swap1\n      pop\n        /* \"#utility.yul\":9445:9864   */\n      swap2\n      swap1\n      pop\n      jump\t// out\n        /* \"#utility.yul\":9870:10092   */\n    tag_31:\n        /* \"#utility.yul\":9963:9967   */\n      0x00\n        /* \"#utility.yul\":10001:10003   */\n      0x20\n        /* \"#utility.yul\":9990:9999   */\n      dup3\n        /* \"#utility.yul\":9986:10004   */\n      add\n        /* \"#utility.yul\":9978:10004   */\n      swap1\n      pop\n        /* \"#utility.yul\":10014:10085   */\n      tag_252\n        /* \"#utility.yul\":10082:10083   */\n      0x00\n        /* \"#utility.yul\":10071:10080   */\n      dup4\n        /* \"#utility.yul\":10067:10084   */\n      add\n        /* \"#utility.yul\":10058:10064   */\n      dup5\n        /* \"#utility.yul\":10014:10085   */\n      tag_223\n      jump\t// in\n    tag_252:\n        /* \"#utility.yul\":9870:10092   */\n      swap3\n      swap2\n      pop\n      pop\n      jump\t// out\n        /* \"#utility.yul\":10098:10762   */\n    tag_45:\n        /* \"#utility.yul\":10303:10307   */\n      0x00\n        /* \"#utility.yul\":10341:10344   */\n      0xa0\n        /* \"#utility.yul\":10330:10339   */\n      dup3\n        /* \"#utility.yul\":10326:10345   */\n      add\n        /* \"#utility.yul\":10318:10345   */\n      swap1\n      pop\n        /* \"#utility.yul\":10355:10426   */\n      tag_254\n        /* \"#utility.yul\":10423:10424   */\n      0x00\n        /* \"#utility.yul\":10412:10421   */\n      dup4\n        /* \"#utility.yul\":10408:10425   */\n      add\n        /* \"#utility.yul\":10399:10405   */\n      dup9\n        /* \"#utility.yul\":10355:10426   */\n      tag_223\n      jump\t// in\n    tag_254:\n        /* \"#utility.yul\":10436:10508   */\n      tag_255\n        /* \"#utility.yul\":10504:10506   */\n      0x20\n        /* \"#utility.yul\":10493:10502   */\n      dup4\n        /* \"#utility.yul\":10489:10507   */\n      add\n        /* \"#utility.yul\":10480:10486   */\n      dup8\n        /* \"#utility.yul\":10436:10508   */\n      tag_223\n      jump\t// in\n    tag_255:\n        /* \"#utility.yul\":10518:10590   */\n      tag_256\n        /* \"#utility.yul\":10586:10588   */\n      0x40\n        /* \"#utility.yul\":10575:10584   */\n      dup4\n        /* \"#utility.yul\":10571:10589   */\n      add\n        /* \"#utility.yul\":10562:10568   */\n      dup7\n        /* \"#utility.yul\":10518:10590   */\n      tag_223\n      jump\t// in\n    tag_256:\n        /* \"#utility.yul\":10600:10672   */\n      tag_257\n        /* \"#utility.yul\":10668:10670   */\n      0x60\n        /* \"#utility.yul\":10657:10666   */\n      dup4\n        /* \"#utility.yul\":10653:10671   */\n      add\n        /* \"#utility.yul\":10644:10650   */\n      dup6\n        /* \"#utility.yul\":10600:10672   */\n      tag_223\n      jump\t// in\n    tag_257:\n        /* \"#utility.yul\":10682:10755   */\n      tag_258\n        /* \"#utility.yul\":10750:10753   */\n      0x80\n        /* \"#utility.yul\":10739:10748   */\n      dup4\n        /* \"#utility.yul\":10735:10754   */\n      add\n        /* \"#utility.yul\":10726:10732   */\n      dup5\n        /* \"#utility.yul\":10682:10755   */\n      tag_170\n      jump\t// in\n    tag_258:\n        /* \"#utility.yul\":10098:10762   */\n      swap7\n      swap6\n      pop\n      pop\n      pop\n      pop\n      pop\n      pop\n      jump\t// out\n        /* \"#utility.yul\":10849:10948   */\n    tag_181:\n        /* \"#utility.yul\":10901:10907   */\n      0x00\n        /* \"#utility.yul\":10935:10940   */\n      dup2\n        /* \"#utility.yul\":10929:10941   */\n      mload\n        /* \"#utility.yul\":10919:10941   */\n      swap1\n      pop\n        /* \"#utility.yul\":10849:10948   */\n      swap2\n      swap1\n      pop\n      jump\t// out\n        /* \"#utility.yul\":10954:11123   */\n    tag_183:\n        /* \"#utility.yul\":11038:11049   */\n      0x00\n        /* \"#utility.yul\":11072:11078   */\n      dup3\n        /* \"#utility.yul\":11067:11070   */\n      dup3\n        /* \"#utility.yul\":11060:11079   */\n      mstore\n        /* \"#utility.yul\":11112:11116   */\n      0x20\n        /* \"#utility.yul\":11107:11110   */\n      dup3\n        /* \"#utility.yul\":11103:11117   */\n      add\n        /* \"#utility.yul\":11088:11117   */\n      swap1\n      pop\n        /* \"#utility.yul\":10954:11123   */\n      swap3\n      swap2\n      pop\n      pop\n      jump\t// out\n        /* \"#utility.yul\":11129:11314   */\n    tag_80:\n        /* \"#utility.yul\":11169:11170   */\n      0x00\n        /* \"#utility.yul\":11186:11206   */\n      tag_264\n        /* \"#utility.yul\":11204:11205   */\n      dup3\n        /* \"#utility.yul\":11186:11206   */\n      tag_226\n      jump\t// in\n    tag_264:\n        /* \"#utility.yul\":11181:11206   */\n      swap2\n      pop\n        /* \"#utility.yul\":11220:11240   */\n      tag_265\n        /* \"#utility.yul\":11238:11239   */\n      dup4\n        /* \"#utility.yul\":11220:11240   */\n      tag_226\n      jump\t// in\n    tag_265:\n        /* \"#utility.yul\":11215:11240   */\n      swap3\n      pop\n        /* \"#utility.yul\":11259:11260   */\n      dup3\n        /* \"#utility.yul\":11249:11284   */\n      tag_266\n      jumpi\n        /* \"#utility.yul\":11264:11282   */\n      tag_267\n      tag_268\n      jump\t// in\n    tag_267:\n        /* \"#utility.yul\":11249:11284   */\n    tag_266:\n        /* \"#utility.yul\":11306:11307   */\n      dup3\n        /* \"#utility.yul\":11303:11304   */\n      dup3\n        /* \"#utility.yul\":11299:11308   */\n      div\n        /* \"#utility.yul\":11294:11308   */\n      swap1\n      pop\n        /* \"#utility.yul\":11129:11314   */\n      swap3\n      swap2\n      pop\n      pop\n      jump\t// out\n        /* \"#utility.yul\":11320:11416   */\n    tag_173:\n        /* \"#utility.yul\":11357:11364   */\n      0x00\n        /* \"#utility.yul\":11386:11410   */\n      tag_270\n        /* \"#utility.yul\":11404:11409   */\n      dup3\n        /* \"#utility.yul\":11386:11410   */\n      tag_271\n      jump\t// in\n    tag_270:\n        /* \"#utility.yul\":11375:11410   */\n      swap1\n      pop\n        /* \"#utility.yul\":11320:11416   */\n      swap2\n      swap1\n      pop\n      jump\t// out\n        /* \"#utility.yul\":11422:11512   */\n    tag_177:\n        /* \"#utility.yul\":11456:11463   */\n      0x00\n        /* \"#utility.yul\":11499:11504   */\n      dup2\n        /* \"#utility.yul\":11492:11505   */\n      iszero\n        /* \"#utility.yul\":11485:11506   */\n      iszero\n        /* \"#utility.yul\":11474:11506   */\n      swap1\n      pop\n        /* \"#utility.yul\":11422:11512   */\n      swap2\n      swap1\n      pop\n      jump\t// out\n        /* \"#utility.yul\":11518:11644   */\n    tag_271:\n        /* \"#utility.yul\":11555:11562   */\n      0x00\n        /* \"#utility.yul\":11595:11637   */\n      0xffffffffffffffffffffffffffffffffffffffff\n        /* \"#utility.yul\":11588:11593   */\n      dup3\n        /* \"#utility.yul\":11584:11638   */\n      and\n        /* \"#utility.yul\":11573:11638   */\n      swap1\n      pop\n        /* \"#utility.yul\":11518:11644   */\n      swap2\n      swap1\n      pop\n      jump\t// out\n        /* \"#utility.yul\":11650:11727   */\n    tag_226:\n        /* \"#utility.yul\":11687:11694   */\n      0x00\n        /* \"#utility.yul\":11716:11721   */\n      dup2\n        /* \"#utility.yul\":11705:11721   */\n      swap1\n      pop\n        /* \"#utility.yul\":11650:11727   */\n      swap2\n      swap1\n      pop\n      jump\t// out\n        /* \"#utility.yul\":11733:12040   */\n    tag_185:\n        /* \"#utility.yul\":11801:11802   */\n      0x00\n        /* \"#utility.yul\":11811:11924   */\n    tag_276:\n        /* \"#utility.yul\":11825:11831   */\n      dup4\n        /* \"#utility.yul\":11822:11823   */\n      dup2\n        /* \"#utility.yul\":11819:11832   */\n      lt\n        /* \"#utility.yul\":11811:11924   */\n      iszero\n      tag_278\n      jumpi\n        /* \"#utility.yul\":11910:11911   */\n      dup1\n        /* \"#utility.yul\":11905:11908   */\n      dup3\n        /* \"#utility.yul\":11901:11912   */\n      add\n        /* \"#utility.yul\":11895:11913   */\n      mload\n        /* \"#utility.yul\":11891:11892   */\n      dup2\n        /* \"#utility.yul\":11886:11889   */\n      dup5\n        /* \"#utility.yul\":11882:11893   */\n      add\n        /* \"#utility.yul\":11875:11914   */\n      mstore\n        /* \"#utility.yul\":11847:11849   */\n      0x20\n        /* \"#utility.yul\":11844:11845   */\n      dup2\n        /* \"#utility.yul\":11840:11850   */\n      add\n        /* \"#utility.yul\":11835:11850   */\n      swap1\n      pop\n        /* \"#utility.yul\":11811:11924   */\n      jump(tag_276)\n    tag_278:\n        /* \"#utility.yul\":11942:11948   */\n      dup4\n        /* \"#utility.yul\":11939:11940   */\n      dup2\n        /* \"#utility.yul\":11936:11949   */\n      gt\n        /* \"#utility.yul\":11933:12034   */\n      iszero\n      tag_279\n      jumpi\n        /* \"#utility.yul\":12022:12023   */\n      0x00\n        /* \"#utility.yul\":12013:12019   */\n      dup5\n        /* \"#utility.yul\":12008:12011   */\n      dup5\n        /* \"#utility.yul\":12004:12020   */\n      add\n        /* \"#utility.yul\":11997:12024   */\n      mstore\n        /* \"#utility.yul\":11933:12034   */\n    tag_279:\n        /* \"#utility.yul\":11782:12040   */\n      pop\n        /* \"#utility.yul\":11733:12040   */\n      pop\n      pop\n      pop\n      jump\t// out\n        /* \"#utility.yul\":12046:12217   */\n    tag_90:\n        /* \"#utility.yul\":12085:12088   */\n      0x00\n        /* \"#utility.yul\":12108:12132   */\n      tag_281\n        /* \"#utility.yul\":12126:12131   */\n      dup3\n        /* \"#utility.yul\":12108:12132   */\n      tag_226\n      jump\t// in\n    tag_281:\n        /* \"#utility.yul\":12099:12132   */\n      swap2\n      pop\n        /* \"#utility.yul\":12154:12158   */\n      0x00\n        /* \"#utility.yul\":12147:12152   */\n      dup3\n        /* \"#utility.yul\":12144:12159   */\n      eq\n        /* \"#utility.yul\":12141:12182   */\n      iszero\n      tag_282\n      jumpi\n        /* \"#utility.yul\":12162:12180   */\n      tag_283\n      tag_284\n      jump\t// in\n    tag_283:\n        /* \"#utility.yul\":12141:12182   */\n    tag_282:\n        /* \"#utility.yul\":12209:12210   */\n      0x01\n        /* \"#utility.yul\":12202:12207   */\n      dup3\n        /* \"#utility.yul\":12198:12211   */\n      sub\n        /* \"#utility.yul\":12191:12211   */\n      swap1\n      pop\n        /* \"#utility.yul\":12046:12217   */\n      swap2\n      swap1\n      pop\n      jump\t// out\n        /* \"#utility.yul\":12223:12543   */\n    tag_92:\n        /* \"#utility.yul\":12267:12273   */\n      0x00\n        /* \"#utility.yul\":12304:12305   */\n      0x02\n        /* \"#utility.yul\":12298:12302   */\n      dup3\n        /* \"#utility.yul\":12294:12306   */\n      div\n        /* \"#utility.yul\":12284:12306   */\n      swap1\n      pop\n        /* \"#utility.yul\":12351:12352   */\n      0x01\n        /* \"#utility.yul\":12345:12349   */\n      dup3\n        /* \"#utility.yul\":12341:12353   */\n      and\n        /* \"#utility.yul\":12372:12390   */\n      dup1\n        /* \"#utility.yul\":12362:12443   */\n      tag_286\n      jumpi\n        /* \"#utility.yul\":12428:12432   */\n      0x7f\n        /* \"#utility.yul\":12420:12426   */\n      dup3\n        /* \"#utility.yul\":12416:12433   */\n      and\n        /* \"#utility.yul\":12406:12433   */\n      swap2\n      pop\n        /* \"#utility.yul\":12362:12443   */\n    tag_286:\n        /* \"#utility.yul\":12490:12492   */\n      0x20\n        /* \"#utility.yul\":12482:12488   */\n      dup3\n        /* \"#utility.yul\":12479:12493   */\n      lt\n        /* \"#utility.yul\":12459:12477   */\n      dup2\n        /* \"#utility.yul\":12456:12494   */\n      eq\n        /* \"#utility.yul\":12453:12537   */\n      iszero\n      tag_287\n      jumpi\n        /* \"#utility.yul\":12509:12527   */\n      tag_288\n      tag_289\n      jump\t// in\n    tag_288:\n        /* \"#utility.yul\":12453:12537   */\n    tag_287:\n        /* \"#utility.yul\":12274:12543   */\n      pop\n        /* \"#utility.yul\":12223:12543   */\n      swap2\n      swap1\n      pop\n      jump\t// out\n        /* \"#utility.yul\":12549:12782   */\n    tag_102:\n        /* \"#utility.yul\":12588:12591   */\n      0x00\n        /* \"#utility.yul\":12611:12635   */\n      tag_291\n        /* \"#utility.yul\":12629:12634   */\n      dup3\n        /* \"#utility.yul\":12611:12635   */\n      tag_226\n      jump\t// in\n    tag_291:\n        /* \"#utility.yul\":12602:12635   */\n      swap2\n      pop\n        /* \"#utility.yul\":12657:12723   */\n      0xffffffffffffffffffffffffffffffffffffffffffffffffffffffffffffffff\n        /* \"#utility.yul\":12650:12655   */\n      dup3\n        /* \"#utility.yul\":12647:12724   */\n      eq\n        /* \"#utility.yul\":12644:12747   */\n      iszero\n      tag_292\n      jumpi\n        /* \"#utility.yul\":12727:12745   */\n      tag_293\n      tag_284\n      jump\t// in\n    tag_293:\n        /* \"#utility.yul\":12644:12747   */\n    tag_292:\n        /* \"#utility.yul\":12774:12775   */\n      0x01\n        /* \"#utility.yul\":12767:12772   */\n      dup3\n        /* \"#utility.yul\":12763:12776   */\n      add\n        /* \"#utility.yul\":12756:12776   */\n      swap1\n      pop\n        /* \"#utility.yul\":12549:12782   */\n      swap2\n      swap1\n      pop\n      jump\t// out\n        /* \"#utility.yul\":12788:12968   */\n    tag_284:\n        /* \"#utility.yul\":12836:12913   */\n      0x4e487b7100000000000000000000000000000000000000000000000000000000\n        /* \"#utility.yul\":12833:12834   */\n      0x00\n        /* \"#utility.yul\":12826:12914   */\n      mstore\n        /* \"#utility.yul\":12933:12937   */\n      0x11\n        /* \"#utility.yul\":12930:12931   */\n      0x04\n        /* \"#utility.yul\":12923:12938   */\n      mstore\n        /* \"#utility.yul\":12957:12961   */\n      0x24\n        /* \"#utility.yul\":12954:12955   */\n      0x00\n        /* \"#utility.yul\":12947:12962   */\n      revert\n        /* \"#utility.yul\":12974:13154   */\n    tag_268:\n        /* \"#utility.yul\":13022:13099   */\n      0x4e487b7100000000000000000000000000000000000000000000000000000000\n        /* \"#utility.yul\":13019:13020   */\n      0x00\n        /* \"#utility.yul\":13012:13100   */\n      mstore\n        /* \"#utility.yul\":13119:13123   */\n      0x12\n        /* \"#utility.yul\":13116:13117   */\n      0x04\n        /* \"#utility.yul\":13109:13124   */\n      mstore\n        /* \"#utility.yul\":13143:13147   */\n      0x24\n        /* \"#utility.yul\":13140:13141   */\n      0x00\n        /* \"#utility.yul\":13133:13148   */\n      revert\n        /* \"#utility.yul\":13160:13340   */\n    tag_289:\n        /* \"#utility.yul\":13208:13285   */\n      0x4e487b7100000000000000000000000000000000000000000000000000000000\n        /* \"#utility.yul\":13205:13206   */\n      0x00\n        /* \"#utility.yul\":13198:13286   */\n      mstore\n        /* \"#utility.yul\":13305:13309   */\n      0x22\n        /* \"#utility.yul\":13302:13303   */\n      0x04\n        /* \"#utility.yul\":13295:13310   */\n      mstore\n        /* \"#utility.yul\":13329:13333   */\n      0x24\n        /* \"#utility.yul\":13326:13327   */\n      0x00\n        /* \"#utility.yul\":13319:13334   */\n      revert\n        /* \"#utility.yul\":13346:13463   */\n    tag_144:\n        /* \"#utility.yul\":13455:13456   */\n      0x00\n        /* \"#utility.yul\":13452:13453   */\n      dup1\n        /* \"#utility.yul\":13445:13457   */\n      revert\n        /* \"#utility.yul\":13469:13586   */\n    tag_141:\n        /* \"#utility.yul\":13578:13579   */\n      0x00\n        /* \"#utility.yul\":13575:13576   */\n      dup1\n        /* \"#utility.yul\":13568:13580   */\n      revert\n        /* \"#utility.yul\":13592:13709   */\n    tag_147:\n        /* \"#utility.yul\":13701:13702   */\n      0x00\n        /* \"#utility.yul\":13698:13699   */\n      dup1\n        /* \"#utility.yul\":13691:13703   */\n      revert\n        /* \"#utility.yul\":13715:13832   */\n    tag_162:\n        /* \"#utility.yul\":13824:13825   */\n      0x00\n        /* \"#utility.yul\":13821:13822   */\n      dup1\n        /* \"#utility.yul\":13814:13826   */\n      revert\n        /* \"#utility.yul\":13838:13955   */\n    tag_155:\n        /* \"#utility.yul\":13947:13948   */\n      0x00\n        /* \"#utility.yul\":13944:13945   */\n      dup1\n        /* \"#utility.yul\":13937:13949   */\n      revert\n        /* \"#utility.yul\":13961:14063   */\n    tag_187:\n        /* \"#utility.yul\":14002:14008   */\n      0x00\n        /* \"#utility.yul\":14053:14055   */\n      0x1f\n        /* \"#utility.yul\":14049:14056   */\n      not\n        /* \"#utility.yul\":14044:14046   */\n      0x1f\n        /* \"#utility.yul\":14037:14042   */\n      dup4\n        /* \"#utility.yul\":14033:14047   */\n      add\n        /* \"#utility.yul\":14029:14057   */\n      and\n        /* \"#utility.yul\":14019:14057   */\n      swap1\n      pop\n        /* \"#utility.yul\":13961:14063   */\n      swap2\n      swap1\n      pop\n      jump\t// out\n        /* \"#utility.yul\":14069:14301   */\n    tag_192:\n        /* \"#utility.yul\":14209:14243   */\n      0x436f6e747269627574696f6e20616d6f756e74206973206c657373207468616e\n        /* \"#utility.yul\":14205:14206   */\n      0x00\n        /* \"#utility.yul\":14197:14203   */\n      dup3\n        /* \"#utility.yul\":14193:14207   */\n      add\n        /* \"#utility.yul\":14186:14244   */\n      mstore\n        /* \"#utility.yul\":14278:14293   */\n      0x20746865206d696e696d756d2e00000000000000000000000000000000000000\n        /* \"#utility.yul\":14273:14275   */\n      0x20\n        /* \"#utility.yul\":14265:14271   */\n      dup3\n        /* \"#utility.yul\":14261:14276   */\n      add\n        /* \"#utility.yul\":14254:14294   */\n      mstore\n        /* \"#utility.yul\":14069:14301   */\n      pop\n      jump\t// out\n        /* \"#utility.yul\":14307:14528   */\n    tag_197:\n        /* \"#utility.yul\":14447:14481   */\n      0x54686973207265717565737420697320616c72656164792066696e616c697a65\n        /* \"#utility.yul\":14443:14444   */\n      0x00\n        /* \"#utility.yul\":14435:14441   */\n      dup3\n        /* \"#utility.yul\":14431:14445   */\n      add\n        /* \"#utility.yul\":14424:14482   */\n      mstore\n        /* \"#utility.yul\":14516:14520   */\n      0x642e000000000000000000000000000000000000000000000000000000000000\n        /* \"#utility.yul\":14511:14513   */\n      0x20\n        /* \"#utility.yul\":14503:14509   */\n      dup3\n        /* \"#utility.yul\":14499:14514   */\n      add\n        /* \"#utility.yul\":14492:14521   */\n      mstore\n        /* \"#utility.yul\":14307:14528   */\n      pop\n      jump\t// out\n        /* \"#utility.yul\":14534:14761   */\n    tag_202:\n        /* \"#utility.yul\":14674:14708   */\n      0x5468697320726571756573742068617320616c7265616479206265656e20636f\n        /* \"#utility.yul\":14670:14671   */\n      0x00\n        /* \"#utility.yul\":14662:14668   */\n      dup3\n        /* \"#utility.yul\":14658:14672   */\n      add\n        /* \"#utility.yul\":14651:14709   */\n      mstore\n        /* \"#utility.yul\":14743:14753   */\n      0x6d706c657465642e000000000000000000000000000000000000000000000000\n        /* \"#utility.yul\":14738:14740   */\n      0x20\n        /* \"#utility.yul\":14730:14736   */\n      dup3\n        /* \"#utility.yul\":14726:14741   */\n      add\n        /* \"#utility.yul\":14719:14754   */\n      mstore\n        /* \"#utility.yul\":14534:14761   */\n      pop\n      jump\t// out\n        /* \"#utility.yul\":14767:14993   */\n    tag_207:\n        /* \"#utility.yul\":14907:14941   */\n      0x4f6e6c7920636f6e7472696275746f72732063616e20617070726f7665207265\n        /* \"#utility.yul\":14903:14904   */\n      0x00\n        /* \"#utility.yul\":14895:14901   */\n      dup3\n        /* \"#utility.yul\":14891:14905   */\n      add\n        /* \"#utility.yul\":14884:14942   */\n      mstore\n        /* \"#utility.yul\":14976:14985   */\n      0x7175657374732e00000000000000000000000000000000000000000000000000\n        /* \"#utility.yul\":14971:14973   */\n      0x20\n        /* \"#utility.yul\":14963:14969   */\n      dup3\n        /* \"#utility.yul\":14959:14974   */\n      add\n        /* \"#utility.yul\":14952:14986   */\n      mstore\n        /* \"#utility.yul\":14767:14993   */\n      pop\n      jump\t// out\n        /* \"#utility.yul\":14999:15225   */\n    tag_212:\n        /* \"#utility.yul\":15139:15173   */\n      0x4f6e6c79206d616e616765722063616e206d616b652074686973207472616e73\n        /* \"#utility.yul\":15135:15136   */\n      0x00\n        /* \"#utility.yul\":15127:15133   */\n      dup3\n        /* \"#utility.yul\":15123:15137   */\n      add\n        /* \"#utility.yul\":15116:15174   */\n      mstore\n        /* \"#utility.yul\":15208:15217   */\n      0x616374696f6e2e00000000000000000000000000000000000000000000000000\n        /* \"#utility.yul\":15203:15205   */\n      0x20\n        /* \"#utility.yul\":15195:15201   */\n      dup3\n        /* \"#utility.yul\":15191:15206   */\n      add\n        /* \"#utility.yul\":15184:15218   */\n      mstore\n        /* \"#utility.yul\":14999:15225   */\n      pop\n      jump\t// out\n        /* \"#utility.yul\":15231:15469   */\n    tag_217:\n        /* \"#utility.yul\":15371:15405   */\n      0x54686973207265717565737420686173206e6f74207965742072656163686564\n        /* \"#utility.yul\":15367:15368   */\n      0x00\n        /* \"#utility.yul\":15359:15365   */\n      dup3\n        /* \"#utility.yul\":15355:15369   */\n      add\n        /* \"#utility.yul\":15348:15406   */\n      mstore\n        /* \"#utility.yul\":15440:15461   */\n      0x207265717569726564206d616a6f726974792e00000000000000000000000000\n        /* \"#utility.yul\":15435:15437   */\n      0x20\n        /* \"#utility.yul\":15427:15433   */\n      dup3\n        /* \"#utility.yul\":15423:15438   */\n      add\n        /* \"#utility.yul\":15416:15462   */\n      mstore\n        /* \"#utility.yul\":15231:15469   */\n      pop\n      jump\t// out\n        /* \"#utility.yul\":15475:15700   */\n    tag_222:\n        /* \"#utility.yul\":15615:15649   */\n      0x596f75206861766520616c726561647920617070726f76656420746869732072\n        /* \"#utility.yul\":15611:15612   */\n      0x00\n        /* \"#utility.yul\":15603:15609   */\n      dup3\n        /* \"#utility.yul\":15599:15613   */\n      add\n        /* \"#utility.yul\":15592:15650   */\n      mstore\n        /* \"#utility.yul\":15684:15692   */\n      0x6571756573740000000000000000000000000000000000000000000000000000\n        /* \"#utility.yul\":15679:15681   */\n      0x20\n        /* \"#utility.yul\":15671:15677   */\n      dup3\n        /* \"#utility.yul\":15667:15682   */\n      add\n        /* \"#utility.yul\":15660:15693   */\n      mstore\n        /* \"#utility.yul\":15475:15700   */\n      pop\n      jump\t// out\n        /* \"#utility.yul\":15706:15828   */\n    tag_136:\n        /* \"#utility.yul\":15779:15803   */\n      tag_311\n        /* \"#utility.yul\":15797:15802   */\n      dup2\n        /* \"#utility.yul\":15779:15803   */\n      tag_173\n      jump\t// in\n    tag_311:\n        /* \"#utility.yul\":15772:15777   */\n      dup2\n        /* \"#utility.yul\":15769:15804   */\n      eq\n        /* \"#utility.yul\":15759:15822   */\n      tag_312\n      jumpi\n        /* \"#utility.yul\":15818:15819   */\n      0x00\n        /* \"#utility.yul\":15815:15816   */\n      dup1\n        /* \"#utility.yul\":15808:15820   */\n      revert\n        /* \"#utility.yul\":15759:15822   */\n    tag_312:\n        /* \"#utility.yul\":15706:15828   */\n      pop\n      jump\t// out\n        /* \"#utility.yul\":15834:15956   */\n    tag_151:\n        /* \"#utility.yul\":15907:15931   */\n      tag_314\n        /* \"#utility.yul\":15925:15930   */\n      dup2\n        /* \"#utility.yul\":15907:15931   */\n      tag_226\n      jump\t// in\n    tag_314:\n        /* \"#utility.yul\":15900:15905   */\n      dup2\n        /* \"#utility.yul\":15897:15932   */\n      eq\n        /* \"#utility.yul\":15887:15950   */\n      tag_315\n      jumpi\n        /* \"#utility.yul\":15946:15947   */\n      0x00\n        /* \"#utility.yul\":15943:15944   */\n      dup1\n        /* \"#utility.yul\":15936:15948   */\n      revert\n        /* \"#utility.yul\":15887:15950   */\n    tag_315:\n        /* \"#utility.yul\":15834:15956   */\n      pop\n      jump\t// out\n\n    auxdata: 0xa26469706673582212208276101cfee7814ca78bb04cf61aff95640320fac09d777dcfb77281a9f7a2be64736f6c63430008070033\n}\n","bytecode":{"linkReferences":{},"object":"60806040523480156200001157600080fd5b50604051620016dd380380620016dd8339818101604052810190620000379190620000c4565b816000806101000a81548173ffffffffffffffffffffffffffffffffffffffff021916908373ffffffffffffffffffffffffffffffffffffffff1602179055508060018190555060006002819055506000600581905550505062000182565b600081519050620000a7816200014e565b92915050565b600081519050620000be8162000168565b92915050565b60008060408385031215620000de57620000dd62000149565b5b6000620000ee8582860162000096565b92505060206200010185828601620000ad565b9150509250929050565b600062000118826200011f565b9050919050565b600073ffffffffffffffffffffffffffffffffffffffff82169050919050565b6000819050919050565b600080fd5b62000159816200010b565b81146200016557600080fd5b50565b62000173816200013f565b81146200017f57600080fd5b50565b61154b80620001926000396000f3fe6080604052600436106100a75760003560e01c806379f96c571161006457806379f96c57146101c257806381d12c58146101eb5780638a9cfd551461022c578063937e09b114610255578063d7bb99ba14610280578063d7d1bbdb1461028a576100a7565b806303441006146100ac5780630a144391146100d5578063128e9be614610112578063481c6a751461013d5780635badbe4c146101685780637606f78114610193575b600080fd5b3480156100b857600080fd5b506100d360048036038101906100ce9190610d34565b6102b3565b005b3480156100e157600080fd5b506100fc60048036038101906100f79190610c93565b61048d565b6040516101099190610ed7565b60405180910390f35b34801561011e57600080fd5b506101276104ad565b604051610134919061102c565b60405180910390f35b34801561014957600080fd5b506101526104b3565b60405161015f9190610ebc565b60405180910390f35b34801561017457600080fd5b5061017d6104d7565b60405161018a919061102c565b60405180910390f35b34801561019f57600080fd5b506101a86104dd565b6040516101b9959493929190611047565b60405180910390f35b3480156101ce57600080fd5b506101e960048036038101906101e49190610d34565b610521565b005b3480156101f757600080fd5b50610212600480360381019061020d9190610d34565b61062a565b604051610223959493929190610ef2565b60405180910390f35b34801561023857600080fd5b50610253600480360381019061024e9190610cc0565b610715565b005b34801561026157600080fd5b5061026a61085e565b604051610277919061102c565b60405180910390f35b610288610864565b005b34801561029657600080fd5b506102b160048036038101906102ac9190610d34565b610974565b005b60008054906101000a900473ffffffffffffffffffffffffffffffffffffffff1673ffffffffffffffffffffffffffffffffffffffff163373ffffffffffffffffffffffffffffffffffffffff1614610341576040517f08c379a000000000000000000000000000000000000000000000000000000000815260040161033890610fcc565b60405180910390fd5b60006004600083815260200190815260200160002090508060020160149054906101000a900460ff16156103aa576040517f08c379a00000000000000000000000000000000000000000000000000000000081526004016103a190610f6c565b60405180910390fd5b600280546103b891906110b6565b8160030154116103fd576040517f08c379a00000000000000000000000000000000000000000000000000000000081526004016103f490610fec565b60405180910390fd5b60018160020160146101000a81548160ff0219169083151502179055508060020160009054906101000a900473ffffffffffffffffffffffffffffffffffffffff1673ffffffffffffffffffffffffffffffffffffffff166108fc82600101549081150290604051600060405180830381858888f19350505050158015610488573d6000803e3d6000fd5b505050565b60036020528060005260406000206000915054906101000a900460ff1681565b60025481565b60008054906101000a900473ffffffffffffffffffffffffffffffffffffffff1681565b60055481565b60008060008060006001544760055460025460008054906101000a900473ffffffffffffffffffffffffffffffffffffffff16945094509450945094509091929394565b600115156004600083815260200190815260200160002060040160003373ffffffffffffffffffffffffffffffffffffffff1673ffffffffffffffffffffffffffffffffffffffff16815260200190815260200160002060009054906101000a900460ff16151514156106275760006004600083815260200190815260200160002060040160003373ffffffffffffffffffffffffffffffffffffffff1673ffffffffffffffffffffffffffffffffffffffff16815260200190815260200160002060006101000a81548160ff02191690831515021790555060046000828152602001908152602001600020600301600081548092919061062190611162565b91905055505b50565b600460205280600052604060002060009150905080600001805461064d9061118c565b80601f01602080910402602001604051908101604052809291908181526020018280546106799061118c565b80156106c65780601f1061069b576101008083540402835291602001916106c6565b820191906000526020600020905b8154815290600101906020018083116106a957829003601f168201915b5050505050908060010154908060020160009054906101000a900473ffffffffffffffffffffffffffffffffffffffff16908060020160149054906101000a900460ff16908060030154905085565b60008054906101000a900473ffffffffffffffffffffffffffffffffffffffff1673ffffffffffffffffffffffffffffffffffffffff163373ffffffffffffffffffffffffffffffffffffffff16146107a3576040517f08c379a000000000000000000000000000000000000000000000000000000000815260040161079a90610fcc565b60405180910390fd5b600060046000600560008154809291906107bc906111be565b919050558152602001908152602001600020905084848260000191906107e3929190610b70565b50828160010181905550818160020160006101000a81548173ffffffffffffffffffffffffffffffffffffffff021916908373ffffffffffffffffffffffffffffffffffffffff16021790555060008160020160146101000a81548160ff021916908315150217905550600081600301819055505050505050565b60015481565b6001543410156108a9576040517f08c379a00000000000000000000000000000000000000000000000000000000081526004016108a090610f4c565b60405180910390fd5b60011515600360003373ffffffffffffffffffffffffffffffffffffffff1673ffffffffffffffffffffffffffffffffffffffff16815260200190815260200160002060009054906101000a900460ff16151514610972576001600360003373ffffffffffffffffffffffffffffffffffffffff1673ffffffffffffffffffffffffffffffffffffffff16815260200190815260200160002060006101000a81548160ff0219169083151502179055506002600081548092919061096c906111be565b91905055505b565b600360003373ffffffffffffffffffffffffffffffffffffffff1673ffffffffffffffffffffffffffffffffffffffff16815260200190815260200160002060009054906101000a900460ff16610a00576040517f08c379a00000000000000000000000000000000000000000000000000000000081526004016109f790610fac565b60405180910390fd5b60006004600083815260200190815260200160002090508060020160149054906101000a900460ff1615610a69576040517f08c379a0000000000000000000000000000000000000000000000000000000008152600401610a6090610f8c565b60405180910390fd5b8060040160003373ffffffffffffffffffffffffffffffffffffffff1673ffffffffffffffffffffffffffffffffffffffff16815260200190815260200160002060009054906101000a900460ff1615610af8576040517f08c379a0000000000000000000000000000000000000000000000000000000008152600401610aef9061100c565b60405180910390fd5b60018160040160003373ffffffffffffffffffffffffffffffffffffffff1673ffffffffffffffffffffffffffffffffffffffff16815260200190815260200160002060006101000a81548160ff021916908315150217905550806003016000815480929190610b67906111be565b91905055505050565b828054610b7c9061118c565b90600052602060002090601f016020900481019282610b9e5760008555610be5565b82601f10610bb757803560ff1916838001178555610be5565b82800160010185558215610be5579182015b82811115610be4578235825591602001919060010190610bc9565b5b509050610bf29190610bf6565b5090565b5b80821115610c0f576000816000905550600101610bf7565b5090565b600081359050610c22816114e7565b92915050565b60008083601f840112610c3e57610c3d611299565b5b8235905067ffffffffffffffff811115610c5b57610c5a611294565b5b602083019150836001820283011115610c7757610c7661129e565b5b9250929050565b600081359050610c8d816114fe565b92915050565b600060208284031215610ca957610ca86112a8565b5b6000610cb784828501610c13565b91505092915050565b60008060008060608587031215610cda57610cd96112a8565b5b600085013567ffffffffffffffff811115610cf857610cf76112a3565b5b610d0487828801610c28565b94509450506020610d1787828801610c7e565b9250506040610d2887828801610c13565b91505092959194509250565b600060208284031215610d4a57610d496112a8565b5b6000610d5884828501610c7e565b91505092915050565b610d6a816110e7565b82525050565b610d79816110f9565b82525050565b6000610d8a8261109a565b610d9481856110a5565b9350610da481856020860161112f565b610dad816112ad565b840191505092915050565b6000610dc5602d836110a5565b9150610dd0826112be565b604082019050919050565b6000610de86022836110a5565b9150610df38261130d565b604082019050919050565b6000610e0b6028836110a5565b9150610e168261135c565b604082019050919050565b6000610e2e6027836110a5565b9150610e39826113ab565b604082019050919050565b6000610e516027836110a5565b9150610e5c826113fa565b604082019050919050565b6000610e746033836110a5565b9150610e7f82611449565b604082019050919050565b6000610e976026836110a5565b9150610ea282611498565b604082019050919050565b610eb681611125565b82525050565b6000602082019050610ed16000830184610d61565b92915050565b6000602082019050610eec6000830184610d70565b92915050565b600060a0820190508181036000830152610f0c8188610d7f565b9050610f1b6020830187610ead565b610f286040830186610d61565b610f356060830185610d70565b610f426080830184610ead565b9695505050505050565b60006020820190508181036000830152610f6581610db8565b9050919050565b60006020820190508181036000830152610f8581610ddb565b9050919050565b60006020820190508181036000830152610fa581610dfe565b9050919050565b60006020820190508181036000830152610fc581610e21565b9050919050565b60006020820190508181036000830152610fe581610e44565b9050919050565b6000602082019050818103600083015261100581610e67565b9050919050565b6000602082019050818103600083015261102581610e8a565b9050919050565b60006020820190506110416000830184610ead565b92915050565b600060a08201905061105c6000830188610ead565b6110696020830187610ead565b6110766040830186610ead565b6110836060830185610ead565b6110906080830184610d61565b9695505050505050565b600081519050919050565b600082825260208201905092915050565b60006110c182611125565b91506110cc83611125565b9250826110dc576110db611236565b5b828204905092915050565b60006110f282611105565b9050919050565b60008115159050919050565b600073ffffffffffffffffffffffffffffffffffffffff82169050919050565b6000819050919050565b60005b8381101561114d578082015181840152602081019050611132565b8381111561115c576000848401525b50505050565b600061116d82611125565b9150600082141561118157611180611207565b5b600182039050919050565b600060028204905060018216806111a457607f821691505b602082108114156111b8576111b7611265565b5b50919050565b60006111c982611125565b91507fffffffffffffffffffffffffffffffffffffffffffffffffffffffffffffffff8214156111fc576111fb611207565b5b600182019050919050565b7f4e487b7100000000000000000000000000000000000000000000000000000000600052601160045260246000fd5b7f4e487b7100000000000000000000000000000000000000000000000000000000600052601260045260246000fd5b7f4e487b7100000000000000000000000000000000000000000000000000000000600052602260045260246000fd5b600080fd5b600080fd5b600080fd5b600080fd5b600080fd5b6000601f19601f8301169050919050565b7f436f6e747269627574696f6e20616d6f756e74206973206c657373207468616e60008201527f20746865206d696e696d756d2e00000000000000000000000000000000000000602082015250565b7f54686973207265717565737420697320616c72656164792066696e616c697a6560008201527f642e000000000000000000000000000000000000000000000000000000000000602082015250565b7f5468697320726571756573742068617320616c7265616479206265656e20636f60008201527f6d706c657465642e000000000000000000000000000000000000000000000000602082015250565b7f4f6e6c7920636f6e7472696275746f72732063616e20617070726f766520726560008201527f7175657374732e00000000000000000000000000000000000000000000000000602082015250565b7f4f6e6c79206d616e616765722063616e206d616b652074686973207472616e7360008201527f616374696f6e2e00000000000000000000000000000000000000000000000000602082015250565b7f54686973207265717565737420686173206e6f7420796574207265616368656460008201527f207265717569726564206d616a6f726974792e00000000000000000000000000602082015250565b7f596f75206861766520616c726561647920617070726f7665642074686973207260008201527f6571756573740000000000000000000000000000000000000000000000000000602082015250565b6114f0816110e7565b81146114fb57600080fd5b50565b61150781611125565b811461151257600080fd5b5056fea26469706673582212208276101cfee7814ca78bb04cf61aff95640320fac09d777dcfb77281a9f7a2be64736f6c63430008070033","opcodes":"PUSH1 0x80 PUSH1 0x40 MSTORE CALLVALUE DUP1 ISZERO PUSH3 0x11 JUMPI PUSH1 0x0 DUP1 REVERT JUMPDEST POP PUSH1 0x40 MLOAD PUSH3 0x16DD CODESIZE SUB DUP1 PUSH3 0x16DD DUP4 CODECOPY DUP2 DUP2 ADD PUSH1 0x40 MSTORE DUP2 ADD SWAP1 PUSH3 0x37 SWAP2 SWAP1 PUSH3 0xC4 JUMP JUMPDEST DUP2 PUSH1 0x0 DUP1 PUSH2 0x100 EXP DUP2 SLOAD DUP2 PUSH20 0xFFFFFFFFFFFFFFFFFFFFFFFFFFFFFFFFFFFFFFFF MUL NOT AND SWAP1 DUP4 PUSH20 0xFFFFFFFFFFFFFFFFFFFFFFFFFFFFFFFFFFFFFFFF AND MUL OR SWAP1 SSTORE POP DUP1 PUSH1 0x1 DUP2 SWAP1 SSTORE POP PUSH1 0x0 PUSH1 0x2 DUP2 SWAP1 SSTORE POP PUSH1 0x0 PUSH1 0x5 DUP2 SWAP1 SSTORE POP POP POP PUSH3 0x182 JUMP JUMPDEST PUSH1 0x0 DUP2 MLOAD SWAP1 POP PUSH3 0xA7 DUP2 PUSH3 0x14E JUMP JUMPDEST SWAP3 SWAP2 POP POP JUMP JUMPDEST PUSH1 0x0 DUP2 MLOAD SWAP1 POP PUSH3 0xBE DUP2 PUSH3 0x168 JUMP JUMPDEST SWAP3 SWAP2 POP POP JUMP JUMPDEST PUSH1 0x0 DUP1 PUSH1 0x40 DUP4 DUP6 SUB SLT ISZERO PUSH3 0xDE JUMPI PUSH3 0xDD PUSH3 0x149 JUMP JUMPDEST JUMPDEST PUSH1 0x0 PUSH3 0xEE DUP6 DUP3 DUP7 ADD PUSH3 0x96 JUMP JUMPDEST SWAP3 POP POP PUSH1 0x20 PUSH3 0x101 DUP6 DUP3 DUP7 ADD PUSH3 0xAD JUMP JUMPDEST SWAP2 POP POP SWAP3 POP SWAP3 SWAP1 POP JUMP JUMPDEST PUSH1 0x0 PUSH3 0x118 DUP3 PUSH3 0x11F JUMP JUMPDEST SWAP1 POP SWAP2 SWAP1 POP JUMP JUMPDEST PUSH1 0x0 PUSH20 0xFFFFFFFFFFFFFFFFFFFFFFFFFFFFFFFFFFFFFFFF DUP3 AND SWAP1 POP SWAP2 SWAP1 POP JUMP JUMPDEST PUSH1 0x0 DUP2 SWAP1 POP SWAP2 SWAP1 POP JUMP JUMPDEST PUSH1 0x0 DUP1 REVERT JUMPDEST PUSH3 0x159 DUP2 PUSH3 0x10B JUMP JUMPDEST DUP2 EQ PUSH3 0x165 JUMPI PUSH1 0x0 DUP1 REVERT JUMPDEST POP JUMP JUMPDEST PUSH3 0x173 DUP2 PUSH3 0x13F JUMP JUMPDEST DUP2 EQ PUSH3 0x17F JUMPI PUSH1 0x0 DUP1 REVERT JUMPDEST POP JUMP JUMPDEST PUSH2 0x154B DUP1 PUSH3 0x192 PUSH1 0x0 CODECOPY PUSH1 0x0 RETURN INVALID PUSH1 0x80 PUSH1 0x40 MSTORE PUSH1 0x4 CALLDATASIZE LT PUSH2 0xA7 JUMPI PUSH1 0x0 CALLDATALOAD PUSH1 0xE0 SHR DUP1 PUSH4 0x79F96C57 GT PUSH2 0x64 JUMPI DUP1 PUSH4 0x79F96C57 EQ PUSH2 0x1C2 JUMPI DUP1 PUSH4 0x81D12C58 EQ PUSH2 0x1EB JUMPI DUP1 PUSH4 0x8A9CFD55 EQ PUSH2 0x22C JUMPI DUP1 PUSH4 0x937E09B1 EQ PUSH2 0x255 JUMPI DUP1 PUSH4 0xD7BB99BA EQ PUSH2 0x280 JUMPI DUP1 PUSH4 0xD7D1BBDB EQ PUSH2 0x28A JUMPI PUSH2 0xA7 JUMP JUMPDEST DUP1 PUSH4 0x3441006 EQ PUSH2 0xAC JUMPI DUP1 PUSH4 0xA144391 EQ PUSH2 0xD5 JUMPI DUP1 PUSH4 0x128E9BE6 EQ PUSH2 0x112 JUMPI DUP1 PUSH4 0x481C6A75 EQ PUSH2 0x13D JUMPI DUP1 PUSH4 0x5BADBE4C EQ PUSH2 0x168 JUMPI DUP1 PUSH4 0x7606F781 EQ PUSH2 0x193 JUMPI JUMPDEST PUSH1 0x0 DUP1 REVERT JUMPDEST CALLVALUE DUP1 ISZERO PUSH2 0xB8 JUMPI PUSH1 0x0 DUP1 REVERT JUMPDEST POP PUSH2 0xD3 PUSH1 0x4 DUP1 CALLDATASIZE SUB DUP2 ADD SWAP1 PUSH2 0xCE SWAP2 SWAP1 PUSH2 0xD34 JUMP JUMPDEST PUSH2 0x2B3 JUMP JUMPDEST STOP JUMPDEST CALLVALUE DUP1 ISZERO PUSH2 0xE1 JUMPI PUSH1 0x0 DUP1 REVERT JUMPDEST POP PUSH2 0xFC PUSH1 0x4 DUP1 CALLDATASIZE SUB DUP2 ADD SWAP1 PUSH2 0xF7 SWAP2 SWAP1 PUSH2 0xC93 JUMP JUMPDEST PUSH2 0x48D JUMP JUMPDEST PUSH1 0x40 MLOAD PUSH2 0x109 SWAP2 SWAP1 PUSH2 0xED7 JUMP JUMPDEST PUSH1 0x40 MLOAD DUP1 SWAP2 SUB SWAP1 RETURN JUMPDEST CALLVALUE DUP1 ISZERO PUSH2 0x11E JUMPI PUSH1 0x0 DUP1 REVERT JUMPDEST POP PUSH2 0x127 PUSH2 0x4AD JUMP JUMPDEST PUSH1 0x40 MLOAD PUSH2 0x134 SWAP2 SWAP1 PUSH2 0x102C JUMP JUMPDEST PUSH1 0x40 MLOAD DUP1 SWAP2 SUB SWAP1 RETURN JUMPDEST CALLVALUE DUP1 ISZERO PUSH2 0x149 JUMPI PUSH1 0x0 DUP1 REVERT JUMPDEST POP PUSH2 0x152 PUSH2 0x4B3 JUMP JUMPDEST PUSH1 0x40 MLOAD PUSH2 0x15F SWAP2 SWAP1 PUSH2 0xEBC JUMP JUMPDEST PUSH1 0x40 MLOAD DUP1 SWAP2 SUB SWAP1 RETURN JUMPDEST CALLVALUE DUP1 ISZERO PUSH2 0x174 JUMPI PUSH1 0x0 DUP1 REVERT JUMPDEST POP PUSH2 0x17D PUSH2 0x4D7 JUMP JUMPDEST PUSH1 0x40 MLOAD PUSH2 0x18A SWAP2 SWAP1 PUSH2 0x102C JUMP JUMPDEST PUSH1 0x40 MLOAD DUP1 SWAP2 SUB SWAP1 RETURN JUMPDEST CALLVALUE DUP1 ISZERO PUSH2 0x19F JUMPI PUSH1 0x0 DUP1 REVERT JUMPDEST POP PUSH2 0x1A8 PUSH2 0x4DD JUMP JUMPDEST PUSH1 0x40 MLOAD PUSH2 0x1B9 SWAP6 SWAP5 SWAP4 SWAP3 SWAP2 SWAP1 PUSH2 0x1047 JUMP JUMPDEST PUSH1 0x40 MLOAD DUP1 SWAP2 SUB SWAP1 RETURN JUMPDEST CALLVALUE DUP1 ISZERO PUSH2 0x1CE JUMPI PUSH1 0x0 DUP1 REVERT JUMPDEST POP PUSH2 0x1E9 PUSH1 0x4 DUP1 CALLDATASIZE SUB DUP2 ADD SWAP1 PUSH2 0x1E4 SWAP2 SWAP1 PUSH2 0xD34 JUMP JUMPDEST PUSH2 0x521 JUMP JUMPDEST STOP JUMPDEST CALLVALUE DUP1 ISZERO PUSH2 0x1F7 JUMPI PUSH1 0x0 DUP1 REVERT JUMPDEST POP PUSH2 0x212 PUSH1 0x4 DUP1 CALLDATASIZE SUB DUP2 ADD SWAP1 PUSH2 0x20D SWAP2 SWAP1 PUSH2 0xD34 JUMP JUMPDEST PUSH2 0x62A JUMP JUMPDEST PUSH1 0x40 MLOAD PUSH2 0x223 SWAP6 SWAP5 SWAP4 SWAP3 SWAP2 SWAP1 PUSH2 0xEF2 JUMP JUMPDEST PUSH1 0x40 MLOAD DUP1 SWAP2 SUB SWAP1 RETURN JUMPDEST CALLVALUE DUP1 ISZERO PUSH2 0x238 JUMPI PUSH1 0x0 DUP1 REVERT JUMPDEST POP PUSH2 0x253 PUSH1 0x4 DUP1 CALLDATASIZE SUB DUP2 ADD SWAP1 PUSH2 0x24E SWAP2 SWAP1 PUSH2 0xCC0 JUMP JUMPDEST PUSH2 0x715 JUMP JUMPDEST STOP JUMPDEST CALLVALUE DUP1 ISZERO PUSH2 0x261 JUMPI PUSH1 0x0 DUP1 REVERT JUMPDEST POP PUSH2 0x26A PUSH2 0x85E JUMP JUMPDEST PUSH1 0x40 MLOAD PUSH2 0x277 SWAP2 SWAP1 PUSH2 0x102C JUMP JUMPDEST PUSH1 0x40 MLOAD DUP1 SWAP2 SUB SWAP1 RETURN JUMPDEST PUSH2 0x288 PUSH2 0x864 JUMP JUMPDEST STOP JUMPDEST CALLVALUE DUP1 ISZERO PUSH2 0x296 JUMPI PUSH1 0x0 DUP1 REVERT JUMPDEST POP PUSH2 0x2B1 PUSH1 0x4 DUP1 CALLDATASIZE SUB DUP2 ADD SWAP1 PUSH2 0x2AC SWAP2 SWAP1 PUSH2 0xD34 JUMP JUMPDEST PUSH2 0x974 JUMP JUMPDEST STOP JUMPDEST PUSH1 0x0 DUP1 SLOAD SWAP1 PUSH2 0x100 EXP SWAP1 DIV PUSH20 0xFFFFFFFFFFFFFFFFFFFFFFFFFFFFFFFFFFFFFFFF AND PUSH20 0xFFFFFFFFFFFFFFFFFFFFFFFFFFFFFFFFFFFFFFFF AND CALLER PUSH20 0xFFFFFFFFFFFFFFFFFFFFFFFFFFFFFFFFFFFFFFFF AND EQ PUSH2 0x341 JUMPI PUSH1 0x40 MLOAD PUSH32 0x8C379A000000000000000000000000000000000000000000000000000000000 DUP2 MSTORE PUSH1 0x4 ADD PUSH2 0x338 SWAP1 PUSH2 0xFCC JUMP JUMPDEST PUSH1 0x40 MLOAD DUP1 SWAP2 SUB SWAP1 REVERT JUMPDEST PUSH1 0x0 PUSH1 0x4 PUSH1 0x0 DUP4 DUP2 MSTORE PUSH1 0x20 ADD SWAP1 DUP2 MSTORE PUSH1 0x20 ADD PUSH1 0x0 KECCAK256 SWAP1 POP DUP1 PUSH1 0x2 ADD PUSH1 0x14 SWAP1 SLOAD SWAP1 PUSH2 0x100 EXP SWAP1 DIV PUSH1 0xFF AND ISZERO PUSH2 0x3AA JUMPI PUSH1 0x40 MLOAD PUSH32 0x8C379A000000000000000000000000000000000000000000000000000000000 DUP2 MSTORE PUSH1 0x4 ADD PUSH2 0x3A1 SWAP1 PUSH2 0xF6C JUMP JUMPDEST PUSH1 0x40 MLOAD DUP1 SWAP2 SUB SWAP1 REVERT JUMPDEST PUSH1 0x2 DUP1 SLOAD PUSH2 0x3B8 SWAP2 SWAP1 PUSH2 0x10B6 JUMP JUMPDEST DUP2 PUSH1 0x3 ADD SLOAD GT PUSH2 0x3FD JUMPI PUSH1 0x40 MLOAD PUSH32 0x8C379A000000000000000000000000000000000000000000000000000000000 DUP2 MSTORE PUSH1 0x4 ADD PUSH2 0x3F4 SWAP1 PUSH2 0xFEC JUMP JUMPDEST PUSH1 0x40 MLOAD DUP1 SWAP2 SUB SWAP1 REVERT JUMPDEST PUSH1 0x1 DUP2 PUSH1 0x2 ADD PUSH1 0x14 PUSH2 0x100 EXP DUP2 SLOAD DUP2 PUSH1 0xFF MUL NOT AND SWAP1 DUP4 ISZERO ISZERO MUL OR SWAP1 SSTORE POP DUP1 PUSH1 0x2 ADD PUSH1 0x0 SWAP1 SLOAD SWAP1 PUSH2 0x100 EXP SWAP1 DIV PUSH20 0xFFFFFFFFFFFFFFFFFFFFFFFFFFFFFFFFFFFFFFFF AND PUSH20 0xFFFFFFFFFFFFFFFFFFFFFFFFFFFFFFFFFFFFFFFF AND PUSH2 0x8FC DUP3 PUSH1 0x1 ADD SLOAD SWAP1 DUP2 ISZERO MUL SWAP1 PUSH1 0x40 MLOAD PUSH1 0x0 PUSH1 0x40 MLOAD DUP1 DUP4 SUB DUP2 DUP6 DUP9 DUP9 CALL SWAP4 POP POP POP POP ISZERO DUP1 ISZERO PUSH2 0x488 JUMPI RETURNDATASIZE PUSH1 0x0 DUP1 RETURNDATACOPY RETURNDATASIZE PUSH1 0x0 REVERT JUMPDEST POP POP POP JUMP JUMPDEST PUSH1 0x3 PUSH1 0x20 MSTORE DUP1 PUSH1 0x0 MSTORE PUSH1 0x40 PUSH1 0x0 KECCAK256 PUSH1 0x0 SWAP2 POP SLOAD SWAP1 PUSH2 0x100 EXP SWAP1 DIV PUSH1 0xFF AND DUP2 JUMP JUMPDEST PUSH1 0x2 SLOAD DUP2 JUMP JUMPDEST PUSH1 0x0 DUP1 SLOAD SWAP1 PUSH2 0x100 EXP SWAP1 DIV PUSH20 0xFFFFFFFFFFFFFFFFFFFFFFFFFFFFFFFFFFFFFFFF AND DUP2 JUMP JUMPDEST PUSH1 0x5 SLOAD DUP2 JUMP JUMPDEST PUSH1 0x0 DUP1 PUSH1 0x0 DUP1 PUSH1 0x0 PUSH1 0x1 SLOAD SELFBALANCE PUSH1 0x5 SLOAD PUSH1 0x2 SLOAD PUSH1 0x0 DUP1 SLOAD SWAP1 PUSH2 0x100 EXP SWAP1 DIV PUSH20 0xFFFFFFFFFFFFFFFFFFFFFFFFFFFFFFFFFFFFFFFF AND SWAP5 POP SWAP5 POP SWAP5 POP SWAP5 POP SWAP5 POP SWAP1 SWAP2 SWAP3 SWAP4 SWAP5 JUMP JUMPDEST PUSH1 0x1 ISZERO ISZERO PUSH1 0x4 PUSH1 0x0 DUP4 DUP2 MSTORE PUSH1 0x20 ADD SWAP1 DUP2 MSTORE PUSH1 0x20 ADD PUSH1 0x0 KECCAK256 PUSH1 0x4 ADD PUSH1 0x0 CALLER PUSH20 0xFFFFFFFFFFFFFFFFFFFFFFFFFFFFFFFFFFFFFFFF AND PUSH20 0xFFFFFFFFFFFFFFFFFFFFFFFFFFFFFFFFFFFFFFFF AND DUP2 MSTORE PUSH1 0x20 ADD SWAP1 DUP2 MSTORE PUSH1 0x20 ADD PUSH1 0x0 KECCAK256 PUSH1 0x0 SWAP1 SLOAD SWAP1 PUSH2 0x100 EXP SWAP1 DIV PUSH1 0xFF AND ISZERO ISZERO EQ ISZERO PUSH2 0x627 JUMPI PUSH1 0x0 PUSH1 0x4 PUSH1 0x0 DUP4 DUP2 MSTORE PUSH1 0x20 ADD SWAP1 DUP2 MSTORE PUSH1 0x20 ADD PUSH1 0x0 KECCAK256 PUSH1 0x4 ADD PUSH1 0x0 CALLER PUSH20 0xFFFFFFFFFFFFFFFFFFFFFFFFFFFFFFFFFFFFFFFF AND PUSH20 0xFFFFFFFFFFFFFFFFFFFFFFFFFFFFFFFFFFFFFFFF AND DUP2 MSTORE PUSH1 0x20 ADD SWAP1 DUP2 MSTORE PUSH1 0x20 ADD PUSH1 0x0 KECCAK256 PUSH1 0x0 PUSH2 0x100 EXP DUP2 SLOAD DUP2 PUSH1 0xFF MUL NOT AND SWAP1 DUP4 ISZERO ISZERO MUL OR SWAP1 SSTORE POP PUSH1 0x4 PUSH1 0x0 DUP3 DUP2 MSTORE PUSH1 0x20 ADD SWAP1 DUP2 MSTORE PUSH1 0x20 ADD PUSH1 0x0 KECCAK256 PUSH1 0x3 ADD PUSH1 0x0 DUP2 SLOAD DUP1 SWAP3 SWAP2 SWAP1 PUSH2 0x621 SWAP1 PUSH2 0x1162 JUMP JUMPDEST SWAP2 SWAP1 POP SSTORE POP JUMPDEST POP JUMP JUMPDEST PUSH1 0x4 PUSH1 0x20 MSTORE DUP1 PUSH1 0x0 MSTORE PUSH1 0x40 PUSH1 0x0 KECCAK256 PUSH1 0x0 SWAP2 POP SWAP1 POP DUP1 PUSH1 0x0 ADD DUP1 SLOAD PUSH2 0x64D SWAP1 PUSH2 0x118C JUMP JUMPDEST DUP1 PUSH1 0x1F ADD PUSH1 0x20 DUP1 SWAP2 DIV MUL PUSH1 0x20 ADD PUSH1 0x40 MLOAD SWAP1 DUP2 ADD PUSH1 0x40 MSTORE DUP1 SWAP3 SWAP2 SWAP1 DUP2 DUP2 MSTORE PUSH1 0x20 ADD DUP3 DUP1 SLOAD PUSH2 0x679 SWAP1 PUSH2 0x118C JUMP JUMPDEST DUP1 ISZERO PUSH2 0x6C6 JUMPI DUP1 PUSH1 0x1F LT PUSH2 0x69B JUMPI PUSH2 0x100 DUP1 DUP4 SLOAD DIV MUL DUP4 MSTORE SWAP2 PUSH1 0x20 ADD SWAP2 PUSH2 0x6C6 JUMP JUMPDEST DUP3 ADD SWAP2 SWAP1 PUSH1 0x0 MSTORE PUSH1 0x20 PUSH1 0x0 KECCAK256 SWAP1 JUMPDEST DUP2 SLOAD DUP2 MSTORE SWAP1 PUSH1 0x1 ADD SWAP1 PUSH1 0x20 ADD DUP1 DUP4 GT PUSH2 0x6A9 JUMPI DUP3 SWAP1 SUB PUSH1 0x1F AND DUP3 ADD SWAP2 JUMPDEST POP POP POP POP POP SWAP1 DUP1 PUSH1 0x1 ADD SLOAD SWAP1 DUP1 PUSH1 0x2 ADD PUSH1 0x0 SWAP1 SLOAD SWAP1 PUSH2 0x100 EXP SWAP1 DIV PUSH20 0xFFFFFFFFFFFFFFFFFFFFFFFFFFFFFFFFFFFFFFFF AND SWAP1 DUP1 PUSH1 0x2 ADD PUSH1 0x14 SWAP1 SLOAD SWAP1 PUSH2 0x100 EXP SWAP1 DIV PUSH1 0xFF AND SWAP1 DUP1 PUSH1 0x3 ADD SLOAD SWAP1 POP DUP6 JUMP JUMPDEST PUSH1 0x0 DUP1 SLOAD SWAP1 PUSH2 0x100 EXP SWAP1 DIV PUSH20 0xFFFFFFFFFFFFFFFFFFFFFFFFFFFFFFFFFFFFFFFF AND PUSH20 0xFFFFFFFFFFFFFFFFFFFFFFFFFFFFFFFFFFFFFFFF AND CALLER PUSH20 0xFFFFFFFFFFFFFFFFFFFFFFFFFFFFFFFFFFFFFFFF AND EQ PUSH2 0x7A3 JUMPI PUSH1 0x40 MLOAD PUSH32 0x8C379A000000000000000000000000000000000000000000000000000000000 DUP2 MSTORE PUSH1 0x4 ADD PUSH2 0x79A SWAP1 PUSH2 0xFCC JUMP JUMPDEST PUSH1 0x40 MLOAD DUP1 SWAP2 SUB SWAP1 REVERT JUMPDEST PUSH1 0x0 PUSH1 0x4 PUSH1 0x0 PUSH1 0x5 PUSH1 0x0 DUP2 SLOAD DUP1 SWAP3 SWAP2 SWAP1 PUSH2 0x7BC SWAP1 PUSH2 0x11BE JUMP JUMPDEST SWAP2 SWAP1 POP SSTORE DUP2 MSTORE PUSH1 0x20 ADD SWAP1 DUP2 MSTORE PUSH1 0x20 ADD PUSH1 0x0 KECCAK256 SWAP1 POP DUP5 DUP5 DUP3 PUSH1 0x0 ADD SWAP2 SWAP1 PUSH2 0x7E3 SWAP3 SWAP2 SWAP1 PUSH2 0xB70 JUMP JUMPDEST POP DUP3 DUP2 PUSH1 0x1 ADD DUP2 SWAP1 SSTORE POP DUP2 DUP2 PUSH1 0x2 ADD PUSH1 0x0 PUSH2 0x100 EXP DUP2 SLOAD DUP2 PUSH20 0xFFFFFFFFFFFFFFFFFFFFFFFFFFFFFFFFFFFFFFFF MUL NOT AND SWAP1 DUP4 PUSH20 0xFFFFFFFFFFFFFFFFFFFFFFFFFFFFFFFFFFFFFFFF AND MUL OR SWAP1 SSTORE POP PUSH1 0x0 DUP2 PUSH1 0x2 ADD PUSH1 0x14 PUSH2 0x100 EXP DUP2 SLOAD DUP2 PUSH1 0xFF MUL NOT AND SWAP1 DUP4 ISZERO ISZERO MUL OR SWAP1 SSTORE POP PUSH1 0x0 DUP2 PUSH1 0x3 ADD DUP2 SWAP1 SSTORE POP POP POP POP POP POP JUMP JUMPDEST PUSH1 0x1 SLOAD DUP2 JUMP JUMPDEST PUSH1 0x1 SLOAD CALLVALUE LT ISZERO PUSH2 0x8A9 JUMPI PUSH1 0x40 MLOAD PUSH32 0x8C379A000000000000000000000000000000000000000000000000000000000 DUP2 MSTORE PUSH1 0x4 ADD PUSH2 0x8A0 SWAP1 PUSH2 0xF4C JUMP JUMPDEST PUSH1 0x40 MLOAD DUP1 SWAP2 SUB SWAP1 REVERT JUMPDEST PUSH1 0x1 ISZERO ISZERO PUSH1 0x3 PUSH1 0x0 CALLER PUSH20 0xFFFFFFFFFFFFFFFFFFFFFFFFFFFFFFFFFFFFFFFF AND PUSH20 0xFFFFFFFFFFFFFFFFFFFFFFFFFFFFFFFFFFFFFFFF AND DUP2 MSTORE PUSH1 0x20 ADD SWAP1 DUP2 MSTORE PUSH1 0x20 ADD PUSH1 0x0 KECCAK256 PUSH1 0x0 SWAP1 SLOAD SWAP1 PUSH2 0x100 EXP SWAP1 DIV PUSH1 0xFF AND ISZERO ISZERO EQ PUSH2 0x972 JUMPI PUSH1 0x1 PUSH1 0x3 PUSH1 0x0 CALLER PUSH20 0xFFFFFFFFFFFFFFFFFFFFFFFFFFFFFFFFFFFFFFFF AND PUSH20 0xFFFFFFFFFFFFFFFFFFFFFFFFFFFFFFFFFFFFFFFF AND DUP2 MSTORE PUSH1 0x20 ADD SWAP1 DUP2 MSTORE PUSH1 0x20 ADD PUSH1 0x0 KECCAK256 PUSH1 0x0 PUSH2 0x100 EXP DUP2 SLOAD DUP2 PUSH1 0xFF MUL NOT AND SWAP1 DUP4 ISZERO ISZERO MUL OR SWAP1 SSTORE POP PUSH1 0x2 PUSH1 0x0 DUP2 SLOAD DUP1 SWAP3 SWAP2 SWAP1 PUSH2 0x96C SWAP1 PUSH2 0x11BE JUMP JUMPDEST SWAP2 SWAP1 POP SSTORE POP JUMPDEST JUMP JUMPDEST PUSH1 0x3 PUSH1 0x0 CALLER PUSH20 0xFFFFFFFFFFFFFFFFFFFFFFFFFFFFFFFFFFFFFFFF AND PUSH20 0xFFFFFFFFFFFFFFFFFFFFFFFFFFFFFFFFFFFFFFFF AND DUP2 MSTORE PUSH1 0x20 ADD SWAP1 DUP2 MSTORE PUSH1 0x20 ADD PUSH1 0x0 KECCAK256 PUSH1 0x0 SWAP1 SLOAD SWAP1 PUSH2 0x100 EXP SWAP1 DIV PUSH1 0xFF AND PUSH2 0xA00 JUMPI PUSH1 0x40 MLOAD PUSH32 0x8C379A000000000000000000000000000000000000000000000000000000000 DUP2 MSTORE PUSH1 0x4 ADD PUSH2 0x9F7 SWAP1 PUSH2 0xFAC JUMP JUMPDEST PUSH1 0x40 MLOAD DUP1 SWAP2 SUB SWAP1 REVERT JUMPDEST PUSH1 0x0 PUSH1 0x4 PUSH1 0x0 DUP4 DUP2 MSTORE PUSH1 0x20 ADD SWAP1 DUP2 MSTORE PUSH1 0x20 ADD PUSH1 0x0 KECCAK256 SWAP1 POP DUP1 PUSH1 0x2 ADD PUSH1 0x14 SWAP1 SLOAD SWAP1 PUSH2 0x100 EXP SWAP1 DIV PUSH1 0xFF AND ISZERO PUSH2 0xA69 JUMPI PUSH1 0x40 MLOAD PUSH32 0x8C379A000000000000000000000000000000000000000000000000000000000 DUP2 MSTORE PUSH1 0x4 ADD PUSH2 0xA60 SWAP1 PUSH2 0xF8C JUMP JUMPDEST PUSH1 0x40 MLOAD DUP1 SWAP2 SUB SWAP1 REVERT JUMPDEST DUP1 PUSH1 0x4 ADD PUSH1 0x0 CALLER PUSH20 0xFFFFFFFFFFFFFFFFFFFFFFFFFFFFFFFFFFFFFFFF AND PUSH20 0xFFFFFFFFFFFFFFFFFFFFFFFFFFFFFFFFFFFFFFFF AND DUP2 MSTORE PUSH1 0x20 ADD SWAP1 DUP2 MSTORE PUSH1 0x20 ADD PUSH1 0x0 KECCAK256 PUSH1 0x0 SWAP1 SLOAD SWAP1 PUSH2 0x100 EXP SWAP1 DIV PUSH1 0xFF AND ISZERO PUSH2 0xAF8 JUMPI PUSH1 0x40 MLOAD PUSH32 0x8C379A000000000000000000000000000000000000000000000000000000000 DUP2 MSTORE PUSH1 0x4 ADD PUSH2 0xAEF SWAP1 PUSH2 0x100C JUMP JUMPDEST PUSH1 0x40 MLOAD DUP1 SWAP2 SUB SWAP1 REVERT JUMPDEST PUSH1 0x1 DUP2 PUSH1 0x4 ADD PUSH1 0x0 CALLER PUSH20 0xFFFFFFFFFFFFFFFFFFFFFFFFFFFFFFFFFFFFFFFF AND PUSH20 0xFFFFFFFFFFFFFFFFFFFFFFFFFFFFFFFFFFFFFFFF AND DUP2 MSTORE PUSH1 0x20 ADD SWAP1 DUP2 MSTORE PUSH1 0x20 ADD PUSH1 0x0 KECCAK256 PUSH1 0x0 PUSH2 0x100 EXP DUP2 SLOAD DUP2 PUSH1 0xFF MUL NOT AND SWAP1 DUP4 ISZERO ISZERO MUL OR SWAP1 SSTORE POP DUP1 PUSH1 0x3 ADD PUSH1 0x0 DUP2 SLOAD DUP1 SWAP3 SWAP2 SWAP1 PUSH2 0xB67 SWAP1 PUSH2 0x11BE JUMP JUMPDEST SWAP2 SWAP1 POP SSTORE POP POP POP JUMP JUMPDEST DUP3 DUP1 SLOAD PUSH2 0xB7C SWAP1 PUSH2 0x118C JUMP JUMPDEST SWAP1 PUSH1 0x0 MSTORE PUSH1 0x20 PUSH1 0x0 KECCAK256 SWAP1 PUSH1 0x1F ADD PUSH1 0x20 SWAP1 DIV DUP2 ADD SWAP3 DUP3 PUSH2 0xB9E JUMPI PUSH1 0x0 DUP6 SSTORE PUSH2 0xBE5 JUMP JUMPDEST DUP3 PUSH1 0x1F LT PUSH2 0xBB7 JUMPI DUP1 CALLDATALOAD PUSH1 0xFF NOT AND DUP4 DUP1 ADD OR DUP6 SSTORE PUSH2 0xBE5 JUMP JUMPDEST DUP3 DUP1 ADD PUSH1 0x1 ADD DUP6 SSTORE DUP3 ISZERO PUSH2 0xBE5 JUMPI SWAP2 DUP3 ADD JUMPDEST DUP3 DUP2 GT ISZERO PUSH2 0xBE4 JUMPI DUP3 CALLDATALOAD DUP3 SSTORE SWAP2 PUSH1 0x20 ADD SWAP2 SWAP1 PUSH1 0x1 ADD SWAP1 PUSH2 0xBC9 JUMP JUMPDEST JUMPDEST POP SWAP1 POP PUSH2 0xBF2 SWAP2 SWAP1 PUSH2 0xBF6 JUMP JUMPDEST POP SWAP1 JUMP JUMPDEST JUMPDEST DUP1 DUP3 GT ISZERO PUSH2 0xC0F JUMPI PUSH1 0x0 DUP2 PUSH1 0x0 SWAP1 SSTORE POP PUSH1 0x1 ADD PUSH2 0xBF7 JUMP JUMPDEST POP SWAP1 JUMP JUMPDEST PUSH1 0x0 DUP2 CALLDATALOAD SWAP1 POP PUSH2 0xC22 DUP2 PUSH2 0x14E7 JUMP JUMPDEST SWAP3 SWAP2 POP POP JUMP JUMPDEST PUSH1 0x0 DUP1 DUP4 PUSH1 0x1F DUP5 ADD SLT PUSH2 0xC3E JUMPI PUSH2 0xC3D PUSH2 0x1299 JUMP JUMPDEST JUMPDEST DUP3 CALLDATALOAD SWAP1 POP PUSH8 0xFFFFFFFFFFFFFFFF DUP2 GT ISZERO PUSH2 0xC5B JUMPI PUSH2 0xC5A PUSH2 0x1294 JUMP JUMPDEST JUMPDEST PUSH1 0x20 DUP4 ADD SWAP2 POP DUP4 PUSH1 0x1 DUP3 MUL DUP4 ADD GT ISZERO PUSH2 0xC77 JUMPI PUSH2 0xC76 PUSH2 0x129E JUMP JUMPDEST JUMPDEST SWAP3 POP SWAP3 SWAP1 POP JUMP JUMPDEST PUSH1 0x0 DUP2 CALLDATALOAD SWAP1 POP PUSH2 0xC8D DUP2 PUSH2 0x14FE JUMP JUMPDEST SWAP3 SWAP2 POP POP JUMP JUMPDEST PUSH1 0x0 PUSH1 0x20 DUP3 DUP5 SUB SLT ISZERO PUSH2 0xCA9 JUMPI PUSH2 0xCA8 PUSH2 0x12A8 JUMP JUMPDEST JUMPDEST PUSH1 0x0 PUSH2 0xCB7 DUP5 DUP3 DUP6 ADD PUSH2 0xC13 JUMP JUMPDEST SWAP2 POP POP SWAP3 SWAP2 POP POP JUMP JUMPDEST PUSH1 0x0 DUP1 PUSH1 0x0 DUP1 PUSH1 0x60 DUP6 DUP8 SUB SLT ISZERO PUSH2 0xCDA JUMPI PUSH2 0xCD9 PUSH2 0x12A8 JUMP JUMPDEST JUMPDEST PUSH1 0x0 DUP6 ADD CALLDATALOAD PUSH8 0xFFFFFFFFFFFFFFFF DUP2 GT ISZERO PUSH2 0xCF8 JUMPI PUSH2 0xCF7 PUSH2 0x12A3 JUMP JUMPDEST JUMPDEST PUSH2 0xD04 DUP8 DUP3 DUP9 ADD PUSH2 0xC28 JUMP JUMPDEST SWAP5 POP SWAP5 POP POP PUSH1 0x20 PUSH2 0xD17 DUP8 DUP3 DUP9 ADD PUSH2 0xC7E JUMP JUMPDEST SWAP3 POP POP PUSH1 0x40 PUSH2 0xD28 DUP8 DUP3 DUP9 ADD PUSH2 0xC13 JUMP JUMPDEST SWAP2 POP POP SWAP3 SWAP6 SWAP2 SWAP5 POP SWAP3 POP JUMP JUMPDEST PUSH1 0x0 PUSH1 0x20 DUP3 DUP5 SUB SLT ISZERO PUSH2 0xD4A JUMPI PUSH2 0xD49 PUSH2 0x12A8 JUMP JUMPDEST JUMPDEST PUSH1 0x0 PUSH2 0xD58 DUP5 DUP3 DUP6 ADD PUSH2 0xC7E JUMP JUMPDEST SWAP2 POP POP SWAP3 SWAP2 POP POP JUMP JUMPDEST PUSH2 0xD6A DUP2 PUSH2 0x10E7 JUMP JUMPDEST DUP3 MSTORE POP POP JUMP JUMPDEST PUSH2 0xD79 DUP2 PUSH2 0x10F9 JUMP JUMPDEST DUP3 MSTORE POP POP JUMP JUMPDEST PUSH1 0x0 PUSH2 0xD8A DUP3 PUSH2 0x109A JUMP JUMPDEST PUSH2 0xD94 DUP2 DUP6 PUSH2 0x10A5 JUMP JUMPDEST SWAP4 POP PUSH2 0xDA4 DUP2 DUP6 PUSH1 0x20 DUP7 ADD PUSH2 0x112F JUMP JUMPDEST PUSH2 0xDAD DUP2 PUSH2 0x12AD JUMP JUMPDEST DUP5 ADD SWAP2 POP POP SWAP3 SWAP2 POP POP JUMP JUMPDEST PUSH1 0x0 PUSH2 0xDC5 PUSH1 0x2D DUP4 PUSH2 0x10A5 JUMP JUMPDEST SWAP2 POP PUSH2 0xDD0 DUP3 PUSH2 0x12BE JUMP JUMPDEST PUSH1 0x40 DUP3 ADD SWAP1 POP SWAP2 SWAP1 POP JUMP JUMPDEST PUSH1 0x0 PUSH2 0xDE8 PUSH1 0x22 DUP4 PUSH2 0x10A5 JUMP JUMPDEST SWAP2 POP PUSH2 0xDF3 DUP3 PUSH2 0x130D JUMP JUMPDEST PUSH1 0x40 DUP3 ADD SWAP1 POP SWAP2 SWAP1 POP JUMP JUMPDEST PUSH1 0x0 PUSH2 0xE0B PUSH1 0x28 DUP4 PUSH2 0x10A5 JUMP JUMPDEST SWAP2 POP PUSH2 0xE16 DUP3 PUSH2 0x135C JUMP JUMPDEST PUSH1 0x40 DUP3 ADD SWAP1 POP SWAP2 SWAP1 POP JUMP JUMPDEST PUSH1 0x0 PUSH2 0xE2E PUSH1 0x27 DUP4 PUSH2 0x10A5 JUMP JUMPDEST SWAP2 POP PUSH2 0xE39 DUP3 PUSH2 0x13AB JUMP JUMPDEST PUSH1 0x40 DUP3 ADD SWAP1 POP SWAP2 SWAP1 POP JUMP JUMPDEST PUSH1 0x0 PUSH2 0xE51 PUSH1 0x27 DUP4 PUSH2 0x10A5 JUMP JUMPDEST SWAP2 POP PUSH2 0xE5C DUP3 PUSH2 0x13FA JUMP JUMPDEST PUSH1 0x40 DUP3 ADD SWAP1 POP SWAP2 SWAP1 POP JUMP JUMPDEST PUSH1 0x0 PUSH2 0xE74 PUSH1 0x33 DUP4 PUSH2 0x10A5 JUMP JUMPDEST SWAP2 POP PUSH2 0xE7F DUP3 PUSH2 0x1449 JUMP JUMPDEST PUSH1 0x40 DUP3 ADD SWAP1 POP SWAP2 SWAP1 POP JUMP JUMPDEST PUSH1 0x0 PUSH2 0xE97 PUSH1 0x26 DUP4 PUSH2 0x10A5 JUMP JUMPDEST SWAP2 POP PUSH2 0xEA2 DUP3 PUSH2 0x1498 JUMP JUMPDEST PUSH1 0x40 DUP3 ADD SWAP1 POP SWAP2 SWAP1 POP JUMP JUMPDEST PUSH2 0xEB6 DUP2 PUSH2 0x1125 JUMP JUMPDEST DUP3 MSTORE POP POP JUMP JUMPDEST PUSH1 0x0 PUSH1 0x20 DUP3 ADD SWAP1 POP PUSH2 0xED1 PUSH1 0x0 DUP4 ADD DUP5 PUSH2 0xD61 JUMP JUMPDEST SWAP3 SWAP2 POP POP JUMP JUMPDEST PUSH1 0x0 PUSH1 0x20 DUP3 ADD SWAP1 POP PUSH2 0xEEC PUSH1 0x0 DUP4 ADD DUP5 PUSH2 0xD70 JUMP JUMPDEST SWAP3 SWAP2 POP POP JUMP JUMPDEST PUSH1 0x0 PUSH1 0xA0 DUP3 ADD SWAP1 POP DUP2 DUP2 SUB PUSH1 0x0 DUP4 ADD MSTORE PUSH2 0xF0C DUP2 DUP9 PUSH2 0xD7F JUMP JUMPDEST SWAP1 POP PUSH2 0xF1B PUSH1 0x20 DUP4 ADD DUP8 PUSH2 0xEAD JUMP JUMPDEST PUSH2 0xF28 PUSH1 0x40 DUP4 ADD DUP7 PUSH2 0xD61 JUMP JUMPDEST PUSH2 0xF35 PUSH1 0x60 DUP4 ADD DUP6 PUSH2 0xD70 JUMP JUMPDEST PUSH2 0xF42 PUSH1 0x80 DUP4 ADD DUP5 PUSH2 0xEAD JUMP JUMPDEST SWAP7 SWAP6 POP POP POP POP POP POP JUMP JUMPDEST PUSH1 0x0 PUSH1 0x20 DUP3 ADD SWAP1 POP DUP2 DUP2 SUB PUSH1 0x0 DUP4 ADD MSTORE PUSH2 0xF65 DUP2 PUSH2 0xDB8 JUMP JUMPDEST SWAP1 POP SWAP2 SWAP1 POP JUMP JUMPDEST PUSH1 0x0 PUSH1 0x20 DUP3 ADD SWAP1 POP DUP2 DUP2 SUB PUSH1 0x0 DUP4 ADD MSTORE PUSH2 0xF85 DUP2 PUSH2 0xDDB JUMP JUMPDEST SWAP1 POP SWAP2 SWAP1 POP JUMP JUMPDEST PUSH1 0x0 PUSH1 0x20 DUP3 ADD SWAP1 POP DUP2 DUP2 SUB PUSH1 0x0 DUP4 ADD MSTORE PUSH2 0xFA5 DUP2 PUSH2 0xDFE JUMP JUMPDEST SWAP1 POP SWAP2 SWAP1 POP JUMP JUMPDEST PUSH1 0x0 PUSH1 0x20 DUP3 ADD SWAP1 POP DUP2 DUP2 SUB PUSH1 0x0 DUP4 ADD MSTORE PUSH2 0xFC5 DUP2 PUSH2 0xE21 JUMP JUMPDEST SWAP1 POP SWAP2 SWAP1 POP JUMP JUMPDEST PUSH1 0x0 PUSH1 0x20 DUP3 ADD SWAP1 POP DUP2 DUP2 SUB PUSH1 0x0 DUP4 ADD MSTORE PUSH2 0xFE5 DUP2 PUSH2 0xE44 JUMP JUMPDEST SWAP1 POP SWAP2 SWAP1 POP JUMP JUMPDEST PUSH1 0x0 PUSH1 0x20 DUP3 ADD SWAP1 POP DUP2 DUP2 SUB PUSH1 0x0 DUP4 ADD MSTORE PUSH2 0x1005 DUP2 PUSH2 0xE67 JUMP JUMPDEST SWAP1 POP SWAP2 SWAP1 POP JUMP JUMPDEST PUSH1 0x0 PUSH1 0x20 DUP3 ADD SWAP1 POP DUP2 DUP2 SUB PUSH1 0x0 DUP4 ADD MSTORE PUSH2 0x1025 DUP2 PUSH2 0xE8A JUMP JUMPDEST SWAP1 POP SWAP2 SWAP1 POP JUMP JUMPDEST PUSH1 0x0 PUSH1 0x20 DUP3 ADD SWAP1 POP PUSH2 0x1041 PUSH1 0x0 DUP4 ADD DUP5 PUSH2 0xEAD JUMP JUMPDEST SWAP3 SWAP2 POP POP JUMP JUMPDEST PUSH1 0x0 PUSH1 0xA0 DUP3 ADD SWAP1 POP PUSH2 0x105C PUSH1 0x0 DUP4 ADD DUP9 PUSH2 0xEAD JUMP JUMPDEST PUSH2 0x1069 PUSH1 0x20 DUP4 ADD DUP8 PUSH2 0xEAD JUMP JUMPDEST PUSH2 0x1076 PUSH1 0x40 DUP4 ADD DUP7 PUSH2 0xEAD JUMP JUMPDEST PUSH2 0x1083 PUSH1 0x60 DUP4 ADD DUP6 PUSH2 0xEAD JUMP JUMPDEST PUSH2 0x1090 PUSH1 0x80 DUP4 ADD DUP5 PUSH2 0xD61 JUMP JUMPDEST SWAP7 SWAP6 POP POP POP POP POP POP JUMP JUMPDEST PUSH1 0x0 DUP2 MLOAD SWAP1 POP SWAP2 SWAP1 POP JUMP JUMPDEST PUSH1 0x0 DUP3 DUP3 MSTORE PUSH1 0x20 DUP3 ADD SWAP1 POP SWAP3 SWAP2 POP POP JUMP JUMPDEST PUSH1 0x0 PUSH2 0x10C1 DUP3 PUSH2 0x1125 JUMP JUMPDEST SWAP2 POP PUSH2 0x10CC DUP4 PUSH2 0x1125 JUMP JUMPDEST SWAP3 POP DUP3 PUSH2 0x10DC JUMPI PUSH2 0x10DB PUSH2 0x1236 JUMP JUMPDEST JUMPDEST DUP3 DUP3 DIV SWAP1 POP SWAP3 SWAP2 POP POP JUMP JUMPDEST PUSH1 0x0 PUSH2 0x10F2 DUP3 PUSH2 0x1105 JUMP JUMPDEST SWAP1 POP SWAP2 SWAP1 POP JUMP JUMPDEST PUSH1 0x0 DUP2 ISZERO ISZERO SWAP1 POP SWAP2 SWAP1 POP JUMP JUMPDEST PUSH1 0x0 PUSH20 0xFFFFFFFFFFFFFFFFFFFFFFFFFFFFFFFFFFFFFFFF DUP3 AND SWAP1 POP SWAP2 SWAP1 POP JUMP JUMPDEST PUSH1 0x0 DUP2 SWAP1 POP SWAP2 SWAP1 POP JUMP JUMPDEST PUSH1 0x0 JUMPDEST DUP4 DUP2 LT ISZERO PUSH2 0x114D JUMPI DUP1 DUP3 ADD MLOAD DUP2 DUP5 ADD MSTORE PUSH1 0x20 DUP2 ADD SWAP1 POP PUSH2 0x1132 JUMP JUMPDEST DUP4 DUP2 GT ISZERO PUSH2 0x115C JUMPI PUSH1 0x0 DUP5 DUP5 ADD MSTORE JUMPDEST POP POP POP POP JUMP JUMPDEST PUSH1 0x0 PUSH2 0x116D DUP3 PUSH2 0x1125 JUMP JUMPDEST SWAP2 POP PUSH1 0x0 DUP3 EQ ISZERO PUSH2 0x1181 JUMPI PUSH2 0x1180 PUSH2 0x1207 JUMP JUMPDEST JUMPDEST PUSH1 0x1 DUP3 SUB SWAP1 POP SWAP2 SWAP1 POP JUMP JUMPDEST PUSH1 0x0 PUSH1 0x2 DUP3 DIV SWAP1 POP PUSH1 0x1 DUP3 AND DUP1 PUSH2 0x11A4 JUMPI PUSH1 0x7F DUP3 AND SWAP2 POP JUMPDEST PUSH1 0x20 DUP3 LT DUP2 EQ ISZERO PUSH2 0x11B8 JUMPI PUSH2 0x11B7 PUSH2 0x1265 JUMP JUMPDEST JUMPDEST POP SWAP2 SWAP1 POP JUMP JUMPDEST PUSH1 0x0 PUSH2 0x11C9 DUP3 PUSH2 0x1125 JUMP JUMPDEST SWAP2 POP PUSH32 0xFFFFFFFFFFFFFFFFFFFFFFFFFFFFFFFFFFFFFFFFFFFFFFFFFFFFFFFFFFFFFFFF DUP3 EQ ISZERO PUSH2 0x11FC JUMPI PUSH2 0x11FB PUSH2 0x1207 JUMP JUMPDEST JUMPDEST PUSH1 0x1 DUP3 ADD SWAP1 POP SWAP2 SWAP1 POP JUMP JUMPDEST PUSH32 0x4E487B7100000000000000000000000000000000000000000000000000000000 PUSH1 0x0 MSTORE PUSH1 0x11 PUSH1 0x4 MSTORE PUSH1 0x24 PUSH1 0x0 REVERT JUMPDEST PUSH32 0x4E487B7100000000000000000000000000000000000000000000000000000000 PUSH1 0x0 MSTORE PUSH1 0x12 PUSH1 0x4 MSTORE PUSH1 0x24 PUSH1 0x0 REVERT JUMPDEST PUSH32 0x4E487B7100000000000000000000000000000000000000000000000000000000 PUSH1 0x0 MSTORE PUSH1 0x22 PUSH1 0x4 MSTORE PUSH1 0x24 PUSH1 0x0 REVERT JUMPDEST PUSH1 0x0 DUP1 REVERT JUMPDEST PUSH1 0x0 DUP1 REVERT JUMPDEST PUSH1 0x0 DUP1 REVERT JUMPDEST PUSH1 0x0 DUP1 REVERT JUMPDEST PUSH1 0x0 DUP1 REVERT JUMPDEST PUSH1 0x0 PUSH1 0x1F NOT PUSH1 0x1F DUP4 ADD AND SWAP1 POP SWAP2 SWAP1 POP JUMP JUMPDEST PUSH32 0x436F6E747269627574696F6E20616D6F756E74206973206C657373207468616E PUSH1 0x0 DUP3 ADD MSTORE PUSH32 0x20746865206D696E696D756D2E00000000000000000000000000000000000000 PUSH1 0x20 DUP3 ADD MSTORE POP JUMP JUMPDEST PUSH32 0x54686973207265717565737420697320616C72656164792066696E616C697A65 PUSH1 0x0 DUP3 ADD MSTORE PUSH32 0x642E000000000000000000000000000000000000000000000000000000000000 PUSH1 0x20 DUP3 ADD MSTORE POP JUMP JUMPDEST PUSH32 0x5468697320726571756573742068617320616C7265616479206265656E20636F PUSH1 0x0 DUP3 ADD MSTORE PUSH32 0x6D706C657465642E000000000000000000000000000000000000000000000000 PUSH1 0x20 DUP3 ADD MSTORE POP JUMP JUMPDEST PUSH32 0x4F6E6C7920636F6E7472696275746F72732063616E20617070726F7665207265 PUSH1 0x0 DUP3 ADD MSTORE PUSH32 0x7175657374732E00000000000000000000000000000000000000000000000000 PUSH1 0x20 DUP3 ADD MSTORE POP JUMP JUMPDEST PUSH32 0x4F6E6C79206D616E616765722063616E206D616B652074686973207472616E73 PUSH1 0x0 DUP3 ADD MSTORE PUSH32 0x616374696F6E2E00000000000000000000000000000000000000000000000000 PUSH1 0x20 DUP3 ADD MSTORE POP JUMP JUMPDEST PUSH32 0x54686973207265717565737420686173206E6F74207965742072656163686564 PUSH1 0x0 DUP3 ADD MSTORE PUSH32 0x207265717569726564206D616A6F726974792E00000000000000000000000000 PUSH1 0x20 DUP3 ADD MSTORE POP JUMP JUMPDEST PUSH32 0x596F75206861766520616C726561647920617070726F76656420746869732072 PUSH1 0x0 DUP3 ADD MSTORE PUSH32 0x6571756573740000000000000000000000000000000000000000000000000000 PUSH1 0x20 DUP3 ADD MSTORE POP JUMP JUMPDEST PUSH2 0x14F0 DUP2 PUSH2 0x10E7 JUMP JUMPDEST DUP2 EQ PUSH2 0x14FB JUMPI PUSH1 0x0 DUP1 REVERT JUMPDEST POP JUMP JUMPDEST PUSH2 0x1507 DUP2 PUSH2 0x1125 JUMP JUMPDEST DUP2 EQ PUSH2 0x1512 JUMPI PUSH1 0x0 DUP1 REVERT JUMPDEST POP JUMP INVALID LOG2 PUSH5 0x6970667358 0x22 SLT KECCAK256 DUP3 PUSH23 0x101CFEE7814CA78BB04CF61AFF95640320FAC09D777DCF 0xB7 PUSH19 0x81A9F7A2BE64736F6C63430008070033000000 "},"gasEstimates":{"creation":{"codeDepositCost":"1090200","executionCost":"infinite","totalCost":"infinite"},"external":{"approveRequest(uint256)":"infinite","approverCount()":"2474","approvers(address)":"2868","contribute()":"53309","createRequest(string,uint256,address)":"infinite","denyRequest(uint256)":"infinite","finalizeRequest(uint256)":"infinite","getMetrics()":"infinite","manager()":"2578","minimumContribution()":"2495","requestCount()":"2518","requests(uint256)":"infinite"}},"methodIdentifiers":{"approveRequest(uint256)":"d7d1bbdb","approverCount()":"128e9be6","approvers(address)":"0a144391","contribute()":"d7bb99ba","createRequest(string,uint256,address)":"8a9cfd55","denyRequest(uint256)":"79f96c57","finalizeRequest(uint256)":"03441006","getMetrics()":"7606f781","manager()":"481c6a75","minimumContribution()":"937e09b1","requestCount()":"5badbe4c","requests(uint256)":"81d12c58"}},"storageLayout":{"storage":[{"astId":56,"contract":"Campaign.sol:Campaign","label":"manager","offset":0,"slot":"0","type":"t_address"},{"astId":58,"contract":"Campaign.sol:Campaign","label":"minimumContribution","offset":0,"slot":"1","type":"t_uint256"},{"astId":60,"contract":"Campaign.sol:Campaign","label":"approverCount","offset":0,"slot":"2","type":"t_uint256"},{"astId":64,"contract":"Campaign.sol:Campaign","label":"approvers","offset":0,"slot":"3","type":"t_mapping(t_address,t_bool)"},{"astId":69,"contract":"Campaign.sol:Campaign","label":"requests","offset":0,"slot":"4","type":"t_mapping(t_uint256,t_struct(Request)54_storage)"},{"astId":71,"contract":"Campaign.sol:Campaign","label":"requestCount","offset":0,"slot":"5","type":"t_uint256"}],"types":{"t_address":{"encoding":"inplace","label":"address","numberOfBytes":"20"},"t_bool":{"encoding":"inplace","label":"bool","numberOfBytes":"1"},"t_mapping(t_address,t_bool)":{"encoding":"mapping","key":"t_address","label":"mapping(address => bool)","numberOfBytes":"32","value":"t_bool"},"t_mapping(t_uint256,t_struct(Request)54_storage)":{"encoding":"mapping","key":"t_uint256","label":"mapping(uint256 => struct Campaign.Request)","numberOfBytes":"32","value":"t_struct(Request)54_storage"},"t_string_storage":{"encoding":"bytes","label":"string","numberOfBytes":"32"},"t_struct(Request)54_storage":{"encoding":"inplace","label":"struct Campaign.Request","members":[{"astId":41,"contract":"Campaign.sol:Campaign","label":"description","offset":0,"slot":"0","type":"t_string_storage"},{"astId":43,"contract":"Campaign.sol:Campaign","label":"value","offset":0,"slot":"1","type":"t_uint256"},{"astId":45,"contract":"Campaign.sol:Campaign","label":"recipient","offset":0,"slot":"2","type":"t_address"},{"astId":47,"contract":"Campaign.sol:Campaign","label":"complete","offset":20,"slot":"2","type":"t_bool"},{"astId":49,"contract":"Campaign.sol:Campaign","label":"approvalCount","offset":0,"slot":"3","type":"t_uint256"},{"astId":53,"contract":"Campaign.sol:Campaign","label":"approvals","offset":0,"slot":"4","type":"t_mapping(t_address,t_bool)"}],"numberOfBytes":"160"},"t_uint256":{"encoding":"inplace","label":"uint256","numberOfBytes":"32"}}},"userdoc":{"kind":"user","methods":{},"version":1}}