{"abi":[{"inputs":[{"internalType":"uint256","name":"minimum","type":"uint256"}],"name":"createCampaign","outputs":[],"stateMutability":"payable","type":"function"},{"inputs":[],"name":"getCampaigns","outputs":[{"internalType":"address[]","name":"","type":"address[]"}],"stateMutability":"view","type":"function"}],"devdoc":{"kind":"dev","methods":{},"version":1},"evm":{"assembly":"    /* \"Campaign.sol\":64:405  contract CampaignFactory {\r... */\n  mstore(0x40, 0x80)\n  callvalue\n  dup1\n  iszero\n  tag_1\n  jumpi\n  0x00\n  dup1\n  revert\ntag_1:\n  pop\n  dataSize(sub_0)\n  dup1\n  dataOffset(sub_0)\n  0x00\n  codecopy\n  0x00\n  return\nstop\n\nsub_0: assembly {\n        /* \"Campaign.sol\":64:405  contract CampaignFactory {\r... */\n      mstore(0x40, 0x80)\n      jumpi(tag_1, lt(calldatasize, 0x04))\n      shr(0xe0, calldataload(0x00))\n      dup1\n      0xa3303a75\n      eq\n      tag_2\n      jumpi\n      dup1\n      0xa6b03633\n      eq\n      tag_3\n      jumpi\n    tag_1:\n      0x00\n      dup1\n      revert\n        /* \"Campaign.sol\":128:296  function createCampaign(uint minimum) public payable {\r... */\n    tag_2:\n      tag_4\n      0x04\n      dup1\n      calldatasize\n      sub\n      dup2\n      add\n      swap1\n      tag_5\n      swap2\n      swap1\n      tag_6\n      jump\t// in\n    tag_5:\n      tag_7\n      jump\t// in\n    tag_4:\n      stop\n        /* \"Campaign.sol\":304:402  function getCampaigns() public view returns (address[] memory) {\r... */\n    tag_3:\n      callvalue\n      dup1\n      iszero\n      tag_8\n      jumpi\n      0x00\n      dup1\n      revert\n    tag_8:\n      pop\n      tag_9\n      tag_10\n      jump\t// in\n    tag_9:\n      mload(0x40)\n      tag_11\n      swap2\n      swap1\n      tag_12\n      jump\t// in\n    tag_11:\n      mload(0x40)\n      dup1\n      swap2\n      sub\n      swap1\n      return\n        /* \"Campaign.sol\":128:296  function createCampaign(uint minimum) public payable {\r... */\n    tag_7:\n        /* \"Campaign.sol\":192:208  address campaign */\n      0x00\n        /* \"Campaign.sol\":232:242  msg.sender */\n      caller\n        /* \"Campaign.sol\":244:251  minimum */\n      dup3\n        /* \"Campaign.sol\":219:252  new Campaign(msg.sender, minimum) */\n      mload(0x40)\n      tag_14\n      swap1\n      tag_15\n      jump\t// in\n    tag_14:\n      tag_16\n      swap3\n      swap2\n      swap1\n      tag_17\n      jump\t// in\n    tag_16:\n      mload(0x40)\n      dup1\n      swap2\n      sub\n      swap1\n      0x00\n      create\n      dup1\n      iszero\n      dup1\n      iszero\n      tag_18\n      jumpi\n      returndatasize\n      0x00\n      dup1\n      returndatacopy\n      revert(0x00, returndatasize)\n    tag_18:\n      pop\n        /* \"Campaign.sol\":192:253  address campaign = address(new Campaign(msg.sender, minimum)) */\n      swap1\n      pop\n        /* \"Campaign.sol\":264:273  campaigns */\n      0x00\n        /* \"Campaign.sol\":279:287  campaign */\n      dup2\n        /* \"Campaign.sol\":264:288  campaigns.push(campaign) */\n      swap1\n      dup1\n      0x01\n      dup2\n      sload\n      add\n      dup1\n      dup3\n      sstore\n      dup1\n      swap2\n      pop\n      pop\n      0x01\n      swap1\n      sub\n      swap1\n      0x00\n      mstore\n      keccak256(0x00, 0x20)\n      add\n      0x00\n      swap1\n      swap2\n      swap1\n      swap2\n      swap1\n      swap2\n      0x0100\n      exp\n      dup2\n      sload\n      dup2\n      0xffffffffffffffffffffffffffffffffffffffff\n      mul\n      not\n      and\n      swap1\n      dup4\n      0xffffffffffffffffffffffffffffffffffffffff\n      and\n      mul\n      or\n      swap1\n      sstore\n      pop\n        /* \"Campaign.sol\":181:296  {\r... */\n      pop\n        /* \"Campaign.sol\":128:296  function createCampaign(uint minimum) public payable {\r... */\n      pop\n      jump\t// out\n        /* \"Campaign.sol\":304:402  function getCampaigns() public view returns (address[] memory) {\r... */\n    tag_10:\n        /* \"Campaign.sol\":349:365  address[] memory */\n      0x60\n        /* \"Campaign.sol\":385:394  campaigns */\n      0x00\n        /* \"Campaign.sol\":378:394  return campaigns */\n      dup1\n      sload\n      dup1\n      0x20\n      mul\n      0x20\n      add\n      mload(0x40)\n      swap1\n      dup2\n      add\n      0x40\n      mstore\n      dup1\n      swap3\n      swap2\n      swap1\n      dup2\n      dup2\n      mstore\n      0x20\n      add\n      dup3\n      dup1\n      sload\n      dup1\n      iszero\n      tag_21\n      jumpi\n      0x20\n      mul\n      dup3\n      add\n      swap2\n      swap1\n      0x00\n      mstore\n      keccak256(0x00, 0x20)\n      swap1\n    tag_22:\n      dup2\n      0x00\n      swap1\n      sload\n      swap1\n      0x0100\n      exp\n      swap1\n      div\n      0xffffffffffffffffffffffffffffffffffffffff\n      and\n      0xffffffffffffffffffffffffffffffffffffffff\n      and\n      dup2\n      mstore\n      0x20\n      add\n      swap1\n      0x01\n      add\n      swap1\n      dup1\n      dup4\n      gt\n      tag_22\n      jumpi\n    tag_21:\n      pop\n      pop\n      pop\n      pop\n      pop\n      swap1\n      pop\n        /* \"Campaign.sol\":304:402  function getCampaigns() public view returns (address[] memory) {\r... */\n      swap1\n      jump\t// out\n    tag_15:\n      dataSize(sub_0)\n      dup1\n      dataOffset(sub_0)\n      dup4\n      codecopy\n      add\n      swap1\n      jump\t// out\n        /* \"#utility.yul\":7:146   */\n    tag_24:\n        /* \"#utility.yul\":53:58   */\n      0x00\n        /* \"#utility.yul\":91:97   */\n      dup2\n        /* \"#utility.yul\":78:98   */\n      calldataload\n        /* \"#utility.yul\":69:98   */\n      swap1\n      pop\n        /* \"#utility.yul\":107:140   */\n      tag_26\n        /* \"#utility.yul\":134:139   */\n      dup2\n        /* \"#utility.yul\":107:140   */\n      tag_27\n      jump\t// in\n    tag_26:\n        /* \"#utility.yul\":7:146   */\n      swap3\n      swap2\n      pop\n      pop\n      jump\t// out\n        /* \"#utility.yul\":152:481   */\n    tag_6:\n        /* \"#utility.yul\":211:217   */\n      0x00\n        /* \"#utility.yul\":260:262   */\n      0x20\n        /* \"#utility.yul\":248:257   */\n      dup3\n        /* \"#utility.yul\":239:246   */\n      dup5\n        /* \"#utility.yul\":235:258   */\n      sub\n        /* \"#utility.yul\":231:263   */\n      slt\n        /* \"#utility.yul\":228:347   */\n      iszero\n      tag_29\n      jumpi\n        /* \"#utility.yul\":266:345   */\n      tag_30\n      tag_31\n      jump\t// in\n    tag_30:\n        /* \"#utility.yul\":228:347   */\n    tag_29:\n        /* \"#utility.yul\":386:387   */\n      0x00\n        /* \"#utility.yul\":411:464   */\n      tag_32\n        /* \"#utility.yul\":456:463   */\n      dup5\n        /* \"#utility.yul\":447:453   */\n      dup3\n        /* \"#utility.yul\":436:445   */\n      dup6\n        /* \"#utility.yul\":432:454   */\n      add\n        /* \"#utility.yul\":411:464   */\n      tag_24\n      jump\t// in\n    tag_32:\n        /* \"#utility.yul\":401:464   */\n      swap2\n      pop\n        /* \"#utility.yul\":357:474   */\n      pop\n        /* \"#utility.yul\":152:481   */\n      swap3\n      swap2\n      pop\n      pop\n      jump\t// out\n        /* \"#utility.yul\":487:666   */\n    tag_33:\n        /* \"#utility.yul\":556:566   */\n      0x00\n        /* \"#utility.yul\":577:623   */\n      tag_35\n        /* \"#utility.yul\":619:622   */\n      dup4\n        /* \"#utility.yul\":611:617   */\n      dup4\n        /* \"#utility.yul\":577:623   */\n      tag_36\n      jump\t// in\n    tag_35:\n        /* \"#utility.yul\":655:659   */\n      0x20\n        /* \"#utility.yul\":650:653   */\n      dup4\n        /* \"#utility.yul\":646:660   */\n      add\n        /* \"#utility.yul\":632:660   */\n      swap1\n      pop\n        /* \"#utility.yul\":487:666   */\n      swap3\n      swap2\n      pop\n      pop\n      jump\t// out\n        /* \"#utility.yul\":672:780   */\n    tag_36:\n        /* \"#utility.yul\":749:773   */\n      tag_38\n        /* \"#utility.yul\":767:772   */\n      dup2\n        /* \"#utility.yul\":749:773   */\n      tag_39\n      jump\t// in\n    tag_38:\n        /* \"#utility.yul\":744:747   */\n      dup3\n        /* \"#utility.yul\":737:774   */\n      mstore\n        /* \"#utility.yul\":672:780   */\n      pop\n      pop\n      jump\t// out\n        /* \"#utility.yul\":786:904   */\n    tag_40:\n        /* \"#utility.yul\":873:897   */\n      tag_42\n        /* \"#utility.yul\":891:896   */\n      dup2\n        /* \"#utility.yul\":873:897   */\n      tag_39\n      jump\t// in\n    tag_42:\n        /* \"#utility.yul\":868:871   */\n      dup3\n        /* \"#utility.yul\":861:898   */\n      mstore\n        /* \"#utility.yul\":786:904   */\n      pop\n      pop\n      jump\t// out\n        /* \"#utility.yul\":940:1672   */\n    tag_43:\n        /* \"#utility.yul\":1059:1062   */\n      0x00\n        /* \"#utility.yul\":1088:1142   */\n      tag_45\n        /* \"#utility.yul\":1136:1141   */\n      dup3\n        /* \"#utility.yul\":1088:1142   */\n      tag_46\n      jump\t// in\n    tag_45:\n        /* \"#utility.yul\":1158:1244   */\n      tag_47\n        /* \"#utility.yul\":1237:1243   */\n      dup2\n        /* \"#utility.yul\":1232:1235   */\n      dup6\n        /* \"#utility.yul\":1158:1244   */\n      tag_48\n      jump\t// in\n    tag_47:\n        /* \"#utility.yul\":1151:1244   */\n      swap4\n      pop\n        /* \"#utility.yul\":1268:1324   */\n      tag_49\n        /* \"#utility.yul\":1318:1323   */\n      dup4\n        /* \"#utility.yul\":1268:1324   */\n      tag_50\n      jump\t// in\n    tag_49:\n        /* \"#utility.yul\":1347:1354   */\n      dup1\n        /* \"#utility.yul\":1378:1379   */\n      0x00\n        /* \"#utility.yul\":1363:1647   */\n    tag_51:\n        /* \"#utility.yul\":1388:1394   */\n      dup4\n        /* \"#utility.yul\":1385:1386   */\n      dup2\n        /* \"#utility.yul\":1382:1395   */\n      lt\n        /* \"#utility.yul\":1363:1647   */\n      iszero\n      tag_53\n      jumpi\n        /* \"#utility.yul\":1464:1470   */\n      dup2\n        /* \"#utility.yul\":1458:1471   */\n      mload\n        /* \"#utility.yul\":1491:1554   */\n      tag_54\n        /* \"#utility.yul\":1550:1553   */\n      dup9\n        /* \"#utility.yul\":1535:1548   */\n      dup3\n        /* \"#utility.yul\":1491:1554   */\n      tag_33\n      jump\t// in\n    tag_54:\n        /* \"#utility.yul\":1484:1554   */\n      swap8\n      pop\n        /* \"#utility.yul\":1577:1637   */\n      tag_55\n        /* \"#utility.yul\":1630:1636   */\n      dup4\n        /* \"#utility.yul\":1577:1637   */\n      tag_56\n      jump\t// in\n    tag_55:\n        /* \"#utility.yul\":1567:1637   */\n      swap3\n      pop\n        /* \"#utility.yul\":1423:1647   */\n      pop\n        /* \"#utility.yul\":1410:1411   */\n      0x01\n        /* \"#utility.yul\":1407:1408   */\n      dup2\n        /* \"#utility.yul\":1403:1412   */\n      add\n        /* \"#utility.yul\":1398:1412   */\n      swap1\n      pop\n        /* \"#utility.yul\":1363:1647   */\n      jump(tag_51)\n    tag_53:\n        /* \"#utility.yul\":1367:1381   */\n      pop\n        /* \"#utility.yul\":1663:1666   */\n      dup6\n        /* \"#utility.yul\":1656:1666   */\n      swap4\n      pop\n        /* \"#utility.yul\":1064:1672   */\n      pop\n      pop\n      pop\n        /* \"#utility.yul\":940:1672   */\n      swap3\n      swap2\n      pop\n      pop\n      jump\t// out\n        /* \"#utility.yul\":1678:1796   */\n    tag_57:\n        /* \"#utility.yul\":1765:1789   */\n      tag_59\n        /* \"#utility.yul\":1783:1788   */\n      dup2\n        /* \"#utility.yul\":1765:1789   */\n      tag_60\n      jump\t// in\n    tag_59:\n        /* \"#utility.yul\":1760:1763   */\n      dup3\n        /* \"#utility.yul\":1753:1790   */\n      mstore\n        /* \"#utility.yul\":1678:1796   */\n      pop\n      pop\n      jump\t// out\n        /* \"#utility.yul\":1802:2134   */\n    tag_17:\n        /* \"#utility.yul\":1923:1927   */\n      0x00\n        /* \"#utility.yul\":1961:1963   */\n      0x40\n        /* \"#utility.yul\":1950:1959   */\n      dup3\n        /* \"#utility.yul\":1946:1964   */\n      add\n        /* \"#utility.yul\":1938:1964   */\n      swap1\n      pop\n        /* \"#utility.yul\":1974:2045   */\n      tag_62\n        /* \"#utility.yul\":2042:2043   */\n      0x00\n        /* \"#utility.yul\":2031:2040   */\n      dup4\n        /* \"#utility.yul\":2027:2044   */\n      add\n        /* \"#utility.yul\":2018:2024   */\n      dup6\n        /* \"#utility.yul\":1974:2045   */\n      tag_40\n      jump\t// in\n    tag_62:\n        /* \"#utility.yul\":2055:2127   */\n      tag_63\n        /* \"#utility.yul\":2123:2125   */\n      0x20\n        /* \"#utility.yul\":2112:2121   */\n      dup4\n        /* \"#utility.yul\":2108:2126   */\n      add\n        /* \"#utility.yul\":2099:2105   */\n      dup5\n        /* \"#utility.yul\":2055:2127   */\n      tag_57\n      jump\t// in\n    tag_63:\n        /* \"#utility.yul\":1802:2134   */\n      swap4\n      swap3\n      pop\n      pop\n      pop\n      jump\t// out\n        /* \"#utility.yul\":2140:2513   */\n    tag_12:\n        /* \"#utility.yul\":2283:2287   */\n      0x00\n        /* \"#utility.yul\":2321:2323   */\n      0x20\n        /* \"#utility.yul\":2310:2319   */\n      dup3\n        /* \"#utility.yul\":2306:2324   */\n      add\n        /* \"#utility.yul\":2298:2324   */\n      swap1\n      pop\n        /* \"#utility.yul\":2370:2379   */\n      dup2\n        /* \"#utility.yul\":2364:2368   */\n      dup2\n        /* \"#utility.yul\":2360:2380   */\n      sub\n        /* \"#utility.yul\":2356:2357   */\n      0x00\n        /* \"#utility.yul\":2345:2354   */\n      dup4\n        /* \"#utility.yul\":2341:2358   */\n      add\n        /* \"#utility.yul\":2334:2381   */\n      mstore\n        /* \"#utility.yul\":2398:2506   */\n      tag_65\n        /* \"#utility.yul\":2501:2505   */\n      dup2\n        /* \"#utility.yul\":2492:2498   */\n      dup5\n        /* \"#utility.yul\":2398:2506   */\n      tag_43\n      jump\t// in\n    tag_65:\n        /* \"#utility.yul\":2390:2506   */\n      swap1\n      pop\n        /* \"#utility.yul\":2140:2513   */\n      swap3\n      swap2\n      pop\n      pop\n      jump\t// out\n        /* \"#utility.yul\":2600:2732   */\n    tag_50:\n        /* \"#utility.yul\":2667:2671   */\n      0x00\n        /* \"#utility.yul\":2690:2693   */\n      dup2\n        /* \"#utility.yul\":2682:2693   */\n      swap1\n      pop\n        /* \"#utility.yul\":2720:2724   */\n      0x20\n        /* \"#utility.yul\":2715:2718   */\n      dup3\n        /* \"#utility.yul\":2711:2725   */\n      add\n        /* \"#utility.yul\":2703:2725   */\n      swap1\n      pop\n        /* \"#utility.yul\":2600:2732   */\n      swap2\n      swap1\n      pop\n      jump\t// out\n        /* \"#utility.yul\":2738:2852   */\n    tag_46:\n        /* \"#utility.yul\":2805:2811   */\n      0x00\n        /* \"#utility.yul\":2839:2844   */\n      dup2\n        /* \"#utility.yul\":2833:2845   */\n      mload\n        /* \"#utility.yul\":2823:2845   */\n      swap1\n      pop\n        /* \"#utility.yul\":2738:2852   */\n      swap2\n      swap1\n      pop\n      jump\t// out\n        /* \"#utility.yul\":2858:2971   */\n    tag_56:\n        /* \"#utility.yul\":2928:2932   */\n      0x00\n        /* \"#utility.yul\":2960:2964   */\n      0x20\n        /* \"#utility.yul\":2955:2958   */\n      dup3\n        /* \"#utility.yul\":2951:2965   */\n      add\n        /* \"#utility.yul\":2943:2965   */\n      swap1\n      pop\n        /* \"#utility.yul\":2858:2971   */\n      swap2\n      swap1\n      pop\n      jump\t// out\n        /* \"#utility.yul\":2977:3161   */\n    tag_48:\n        /* \"#utility.yul\":3076:3087   */\n      0x00\n        /* \"#utility.yul\":3110:3116   */\n      dup3\n        /* \"#utility.yul\":3105:3108   */\n      dup3\n        /* \"#utility.yul\":3098:3117   */\n      mstore\n        /* \"#utility.yul\":3150:3154   */\n      0x20\n        /* \"#utility.yul\":3145:3148   */\n      dup3\n        /* \"#utility.yul\":3141:3155   */\n      add\n        /* \"#utility.yul\":3126:3155   */\n      swap1\n      pop\n        /* \"#utility.yul\":2977:3161   */\n      swap3\n      swap2\n      pop\n      pop\n      jump\t// out\n        /* \"#utility.yul\":3167:3263   */\n    tag_39:\n        /* \"#utility.yul\":3204:3211   */\n      0x00\n        /* \"#utility.yul\":3233:3257   */\n      tag_73\n        /* \"#utility.yul\":3251:3256   */\n      dup3\n        /* \"#utility.yul\":3233:3257   */\n      tag_74\n      jump\t// in\n    tag_73:\n        /* \"#utility.yul\":3222:3257   */\n      swap1\n      pop\n        /* \"#utility.yul\":3167:3263   */\n      swap2\n      swap1\n      pop\n      jump\t// out\n        /* \"#utility.yul\":3269:3395   */\n    tag_74:\n        /* \"#utility.yul\":3306:3313   */\n      0x00\n        /* \"#utility.yul\":3346:3388   */\n      0xffffffffffffffffffffffffffffffffffffffff\n        /* \"#utility.yul\":3339:3344   */\n      dup3\n        /* \"#utility.yul\":3335:3389   */\n      and\n        /* \"#utility.yul\":3324:3389   */\n      swap1\n      pop\n        /* \"#utility.yul\":3269:3395   */\n      swap2\n      swap1\n      pop\n      jump\t// out\n        /* \"#utility.yul\":3401:3478   */\n    tag_60:\n        /* \"#utility.yul\":3438:3445   */\n      0x00\n        /* \"#utility.yul\":3467:3472   */\n      dup2\n        /* \"#utility.yul\":3456:3472   */\n      swap1\n      pop\n        /* \"#utility.yul\":3401:3478   */\n      swap2\n      swap1\n      pop\n      jump\t// out\n        /* \"#utility.yul\":3607:3724   */\n    tag_31:\n        /* \"#utility.yul\":3716:3717   */\n      0x00\n        /* \"#utility.yul\":3713:3714   */\n      dup1\n        /* \"#utility.yul\":3706:3718   */\n      revert\n        /* \"#utility.yul\":3730:3852   */\n    tag_27:\n        /* \"#utility.yul\":3803:3827   */\n      tag_81\n        /* \"#utility.yul\":3821:3826   */\n      dup2\n        /* \"#utility.yul\":3803:3827   */\n      tag_60\n      jump\t// in\n    tag_81:\n        /* \"#utility.yul\":3796:3801   */\n      dup2\n        /* \"#utility.yul\":3793:3828   */\n      eq\n        /* \"#utility.yul\":3783:3846   */\n      tag_82\n      jumpi\n        /* \"#utility.yul\":3842:3843   */\n      0x00\n        /* \"#utility.yul\":3839:3840   */\n      dup1\n        /* \"#utility.yul\":3832:3844   */\n      revert\n        /* \"#utility.yul\":3783:3846   */\n    tag_82:\n        /* \"#utility.yul\":3730:3852   */\n      pop\n      jump\t// out\n    stop\n\n    sub_0: assembly {\n            /* \"Campaign.sol\":409:3883  contract Campaign {\r... */\n          mstore(0x40, 0x80)\n            /* \"Campaign.sol\":1396:1571  constructor (address creator, uint minimum) {\r... */\n          callvalue\n          dup1\n          iszero\n          tag_1\n          jumpi\n          0x00\n          dup1\n          revert\n        tag_1:\n          pop\n          mload(0x40)\n          sub(codesize, bytecodeSize)\n          dup1\n          bytecodeSize\n          dup4\n          codecopy\n          dup2\n          dup2\n          add\n          0x40\n          mstore\n          dup2\n          add\n          swap1\n          tag_2\n          swap2\n          swap1\n          tag_3\n          jump\t// in\n        tag_2:\n            /* \"Campaign.sol\":1461:1468  creator */\n          dup2\n            /* \"Campaign.sol\":1451:1458  manager */\n          0x00\n          dup1\n            /* \"Campaign.sol\":1451:1468  manager = creator */\n          0x0100\n          exp\n          dup2\n          sload\n          dup2\n          0xffffffffffffffffffffffffffffffffffffffff\n          mul\n          not\n          and\n          swap1\n          dup4\n          0xffffffffffffffffffffffffffffffffffffffff\n          and\n          mul\n          or\n          swap1\n          sstore\n          pop\n            /* \"Campaign.sol\":1501:1508  minimum */\n          dup1\n            /* \"Campaign.sol\":1479:1498  minimumContribution */\n          0x01\n            /* \"Campaign.sol\":1479:1508  minimumContribution = minimum */\n          dup2\n          swap1\n          sstore\n          pop\n            /* \"Campaign.sol\":1535:1536  0 */\n          0x00\n            /* \"Campaign.sol\":1519:1532  approverCount */\n          0x02\n            /* \"Campaign.sol\":1519:1536  approverCount = 0 */\n          dup2\n          swap1\n          sstore\n          pop\n            /* \"Campaign.sol\":1562:1563  0 */\n          0x00\n            /* \"Campaign.sol\":1547:1559  requestCount */\n          0x05\n            /* \"Campaign.sol\":1547:1563  requestCount = 0 */\n          dup2\n          swap1\n          sstore\n          pop\n            /* \"Campaign.sol\":1396:1571  constructor (address creator, uint minimum) {\r... */\n          pop\n          pop\n            /* \"Campaign.sol\":409:3883  contract Campaign {\r... */\n          jump(tag_6)\n            /* \"#utility.yul\":7:150   */\n        tag_8:\n            /* \"#utility.yul\":64:69   */\n          0x00\n            /* \"#utility.yul\":95:101   */\n          dup2\n            /* \"#utility.yul\":89:102   */\n          mload\n            /* \"#utility.yul\":80:102   */\n          swap1\n          pop\n            /* \"#utility.yul\":111:144   */\n          tag_10\n            /* \"#utility.yul\":138:143   */\n          dup2\n            /* \"#utility.yul\":111:144   */\n          tag_11\n          jump\t// in\n        tag_10:\n            /* \"#utility.yul\":7:150   */\n          swap3\n          swap2\n          pop\n          pop\n          jump\t// out\n            /* \"#utility.yul\":156:299   */\n        tag_12:\n            /* \"#utility.yul\":213:218   */\n          0x00\n            /* \"#utility.yul\":244:250   */\n          dup2\n            /* \"#utility.yul\":238:251   */\n          mload\n            /* \"#utility.yul\":229:251   */\n          swap1\n          pop\n            /* \"#utility.yul\":260:293   */\n          tag_14\n            /* \"#utility.yul\":287:292   */\n          dup2\n            /* \"#utility.yul\":260:293   */\n          tag_15\n          jump\t// in\n        tag_14:\n            /* \"#utility.yul\":156:299   */\n          swap3\n          swap2\n          pop\n          pop\n          jump\t// out\n            /* \"#utility.yul\":305:812   */\n        tag_3:\n            /* \"#utility.yul\":384:390   */\n          0x00\n            /* \"#utility.yul\":392:398   */\n          dup1\n            /* \"#utility.yul\":441:443   */\n          0x40\n            /* \"#utility.yul\":429:438   */\n          dup4\n            /* \"#utility.yul\":420:427   */\n          dup6\n            /* \"#utility.yul\":416:439   */\n          sub\n            /* \"#utility.yul\":412:444   */\n          slt\n            /* \"#utility.yul\":409:528   */\n          iszero\n          tag_17\n          jumpi\n            /* \"#utility.yul\":447:526   */\n          tag_18\n          tag_19\n          jump\t// in\n        tag_18:\n            /* \"#utility.yul\":409:528   */\n        tag_17:\n            /* \"#utility.yul\":567:568   */\n          0x00\n            /* \"#utility.yul\":592:656   */\n          tag_20\n            /* \"#utility.yul\":648:655   */\n          dup6\n            /* \"#utility.yul\":639:645   */\n          dup3\n            /* \"#utility.yul\":628:637   */\n          dup7\n            /* \"#utility.yul\":624:646   */\n          add\n            /* \"#utility.yul\":592:656   */\n          tag_8\n          jump\t// in\n        tag_20:\n            /* \"#utility.yul\":582:656   */\n          swap3\n          pop\n            /* \"#utility.yul\":538:666   */\n          pop\n            /* \"#utility.yul\":705:707   */\n          0x20\n            /* \"#utility.yul\":731:795   */\n          tag_21\n            /* \"#utility.yul\":787:794   */\n          dup6\n            /* \"#utility.yul\":778:784   */\n          dup3\n            /* \"#utility.yul\":767:776   */\n          dup7\n            /* \"#utility.yul\":763:785   */\n          add\n            /* \"#utility.yul\":731:795   */\n          tag_12\n          jump\t// in\n        tag_21:\n            /* \"#utility.yul\":721:795   */\n          swap2\n          pop\n            /* \"#utility.yul\":676:805   */\n          pop\n            /* \"#utility.yul\":305:812   */\n          swap3\n          pop\n          swap3\n          swap1\n          pop\n          jump\t// out\n            /* \"#utility.yul\":899:995   */\n        tag_24:\n            /* \"#utility.yul\":936:943   */\n          0x00\n            /* \"#utility.yul\":965:989   */\n          tag_26\n            /* \"#utility.yul\":983:988   */\n          dup3\n            /* \"#utility.yul\":965:989   */\n          tag_27\n          jump\t// in\n        tag_26:\n            /* \"#utility.yul\":954:989   */\n          swap1\n          pop\n            /* \"#utility.yul\":899:995   */\n          swap2\n          swap1\n          pop\n          jump\t// out\n            /* \"#utility.yul\":1001:1127   */\n        tag_27:\n            /* \"#utility.yul\":1038:1045   */\n          0x00\n            /* \"#utility.yul\":1078:1120   */\n          0xffffffffffffffffffffffffffffffffffffffff\n            /* \"#utility.yul\":1071:1076   */\n          dup3\n            /* \"#utility.yul\":1067:1121   */\n          and\n            /* \"#utility.yul\":1056:1121   */\n          swap1\n          pop\n            /* \"#utility.yul\":1001:1127   */\n          swap2\n          swap1\n          pop\n          jump\t// out\n            /* \"#utility.yul\":1133:1210   */\n        tag_29:\n            /* \"#utility.yul\":1170:1177   */\n          0x00\n            /* \"#utility.yul\":1199:1204   */\n          dup2\n            /* \"#utility.yul\":1188:1204   */\n          swap1\n          pop\n            /* \"#utility.yul\":1133:1210   */\n          swap2\n          swap1\n          pop\n          jump\t// out\n            /* \"#utility.yul\":1339:1456   */\n        tag_19:\n            /* \"#utility.yul\":1448:1449   */\n          0x00\n            /* \"#utility.yul\":1445:1446   */\n          dup1\n            /* \"#utility.yul\":1438:1450   */\n          revert\n            /* \"#utility.yul\":1462:1584   */\n        tag_11:\n            /* \"#utility.yul\":1535:1559   */\n          tag_35\n            /* \"#utility.yul\":1553:1558   */\n          dup2\n            /* \"#utility.yul\":1535:1559   */\n          tag_24\n          jump\t// in\n        tag_35:\n            /* \"#utility.yul\":1528:1533   */\n          dup2\n            /* \"#utility.yul\":1525:1560   */\n          eq\n            /* \"#utility.yul\":1515:1578   */\n          tag_36\n          jumpi\n            /* \"#utility.yul\":1574:1575   */\n          0x00\n            /* \"#utility.yul\":1571:1572   */\n          dup1\n            /* \"#utility.yul\":1564:1576   */\n          revert\n            /* \"#utility.yul\":1515:1578   */\n        tag_36:\n            /* \"#utility.yul\":1462:1584   */\n          pop\n          jump\t// out\n            /* \"#utility.yul\":1590:1712   */\n        tag_15:\n            /* \"#utility.yul\":1663:1687   */\n          tag_38\n            /* \"#utility.yul\":1681:1686   */\n          dup2\n            /* \"#utility.yul\":1663:1687   */\n          tag_29\n          jump\t// in\n        tag_38:\n            /* \"#utility.yul\":1656:1661   */\n          dup2\n            /* \"#utility.yul\":1653:1688   */\n          eq\n            /* \"#utility.yul\":1643:1706   */\n          tag_39\n          jumpi\n            /* \"#utility.yul\":1702:1703   */\n          0x00\n            /* \"#utility.yul\":1699:1700   */\n          dup1\n            /* \"#utility.yul\":1692:1704   */\n          revert\n            /* \"#utility.yul\":1643:1706   */\n        tag_39:\n            /* \"#utility.yul\":1590:1712   */\n          pop\n          jump\t// out\n            /* \"Campaign.sol\":409:3883  contract Campaign {\r... */\n        tag_6:\n          dataSize(sub_0)\n          dup1\n          dataOffset(sub_0)\n          0x00\n          codecopy\n          0x00\n          return\n        stop\n\n        sub_0: assembly {\n                /* \"Campaign.sol\":409:3883  contract Campaign {\r... */\n              mstore(0x40, 0x80)\n              jumpi(tag_1, lt(calldatasize, 0x04))\n              shr(0xe0, calldataload(0x00))\n              dup1\n              0x81d12c58\n              gt\n              tag_15\n              jumpi\n              dup1\n              0xb1e130fc\n              gt\n              tag_16\n              jumpi\n              dup1\n              0xb1e130fc\n              eq\n              tag_11\n              jumpi\n              dup1\n              0xc3759eb8\n              eq\n              tag_12\n              jumpi\n              dup1\n              0xd7bb99ba\n              eq\n              tag_13\n              jumpi\n              dup1\n              0xd7d1bbdb\n              eq\n              tag_14\n              jumpi\n              jump(tag_1)\n            tag_16:\n              dup1\n              0x81d12c58\n              eq\n              tag_8\n              jumpi\n              dup1\n              0x8a9cfd55\n              eq\n              tag_9\n              jumpi\n              dup1\n              0x937e09b1\n              eq\n              tag_10\n              jumpi\n              jump(tag_1)\n            tag_15:\n              dup1\n              0x03441006\n              eq\n              tag_2\n              jumpi\n              dup1\n              0x0a144391\n              eq\n              tag_3\n              jumpi\n              dup1\n              0x128e9be6\n              eq\n              tag_4\n              jumpi\n              dup1\n              0x481c6a75\n              eq\n              tag_5\n              jumpi\n              dup1\n              0x5badbe4c\n              eq\n              tag_6\n              jumpi\n              dup1\n              0x7606f781\n              eq\n              tag_7\n              jumpi\n            tag_1:\n              0x00\n              dup1\n              revert\n                /* \"Campaign.sol\":3069:3454  function finalizeRequest(uint index) public restricted notFinalized(index) {\r... */\n            tag_2:\n              callvalue\n              dup1\n              iszero\n              tag_17\n              jumpi\n              0x00\n              dup1\n              revert\n            tag_17:\n              pop\n              tag_18\n              0x04\n              dup1\n              calldatasize\n              sub\n              dup2\n              add\n              swap1\n              tag_19\n              swap2\n              swap1\n              tag_20\n              jump\t// in\n            tag_19:\n              tag_21\n              jump\t// in\n            tag_18:\n              stop\n                /* \"Campaign.sol\":740:781  mapping(address => bool) public approvers */\n            tag_3:\n              callvalue\n              dup1\n              iszero\n              tag_22\n              jumpi\n              0x00\n              dup1\n              revert\n            tag_22:\n              pop\n              tag_23\n              0x04\n              dup1\n              calldatasize\n              sub\n              dup2\n              add\n              swap1\n              tag_24\n              swap2\n              swap1\n              tag_25\n              jump\t// in\n            tag_24:\n              tag_26\n              jump\t// in\n            tag_23:\n              mload(0x40)\n              tag_27\n              swap2\n              swap1\n              tag_28\n              jump\t// in\n            tag_27:\n              mload(0x40)\n              dup1\n              swap2\n              sub\n              swap1\n              return\n                /* \"Campaign.sol\":708:733  uint public approverCount */\n            tag_4:\n              callvalue\n              dup1\n              iszero\n              tag_29\n              jumpi\n              0x00\n              dup1\n              revert\n            tag_29:\n              pop\n              tag_30\n              tag_31\n              jump\t// in\n            tag_30:\n              mload(0x40)\n              tag_32\n              swap2\n              swap1\n              tag_33\n              jump\t// in\n            tag_32:\n              mload(0x40)\n              dup1\n              swap2\n              sub\n              swap1\n              return\n                /* \"Campaign.sol\":641:663  address public manager */\n            tag_5:\n              callvalue\n              dup1\n              iszero\n              tag_34\n              jumpi\n              0x00\n              dup1\n              revert\n            tag_34:\n              pop\n              tag_35\n              tag_36\n              jump\t// in\n            tag_35:\n              mload(0x40)\n              tag_37\n              swap2\n              swap1\n              tag_38\n              jump\t// in\n            tag_37:\n              mload(0x40)\n              dup1\n              swap2\n              sub\n              swap1\n              return\n                /* \"Campaign.sol\":835:859  uint public requestCount */\n            tag_6:\n              callvalue\n              dup1\n              iszero\n              tag_39\n              jumpi\n              0x00\n              dup1\n              revert\n            tag_39:\n              pop\n              tag_40\n              tag_41\n              jump\t// in\n            tag_40:\n              mload(0x40)\n              tag_42\n              swap2\n              swap1\n              tag_33\n              jump\t// in\n            tag_42:\n              mload(0x40)\n              dup1\n              swap2\n              sub\n              swap1\n              return\n                /* \"Campaign.sol\":3462:3738  function getMetrics() public view returns (\r... */\n            tag_7:\n              callvalue\n              dup1\n              iszero\n              tag_43\n              jumpi\n              0x00\n              dup1\n              revert\n            tag_43:\n              pop\n              tag_44\n              tag_45\n              jump\t// in\n            tag_44:\n              mload(0x40)\n              tag_46\n              swap6\n              swap5\n              swap4\n              swap3\n              swap2\n              swap1\n              tag_47\n              jump\t// in\n            tag_46:\n              mload(0x40)\n              dup1\n              swap2\n              sub\n              swap1\n              return\n                /* \"Campaign.sol\":788:828  mapping(uint => Request) public requests */\n            tag_8:\n              callvalue\n              dup1\n              iszero\n              tag_48\n              jumpi\n              0x00\n              dup1\n              revert\n            tag_48:\n              pop\n              tag_49\n              0x04\n              dup1\n              calldatasize\n              sub\n              dup2\n              add\n              swap1\n              tag_50\n              swap2\n              swap1\n              tag_20\n              jump\t// in\n            tag_50:\n              tag_51\n              jump\t// in\n            tag_49:\n              mload(0x40)\n              tag_52\n              swap6\n              swap5\n              swap4\n              swap3\n              swap2\n              swap1\n              tag_53\n              jump\t// in\n            tag_52:\n              mload(0x40)\n              dup1\n              swap2\n              sub\n              swap1\n              return\n                /* \"Campaign.sol\":1901:2260  function createRequest(string calldata description, uint value, address recipient) external restricted {\r... */\n            tag_9:\n              callvalue\n              dup1\n              iszero\n              tag_54\n              jumpi\n              0x00\n              dup1\n              revert\n            tag_54:\n              pop\n              tag_55\n              0x04\n              dup1\n              calldatasize\n              sub\n              dup2\n              add\n              swap1\n              tag_56\n              swap2\n              swap1\n              tag_57\n              jump\t// in\n            tag_56:\n              tag_58\n              jump\t// in\n            tag_55:\n              stop\n                /* \"Campaign.sol\":670:701  uint public minimumContribution */\n            tag_10:\n              callvalue\n              dup1\n              iszero\n              tag_59\n              jumpi\n              0x00\n              dup1\n              revert\n            tag_59:\n              pop\n              tag_60\n              tag_61\n              jump\t// in\n            tag_60:\n              mload(0x40)\n              tag_62\n              swap2\n              swap1\n              tag_33\n              jump\t// in\n            tag_62:\n              mload(0x40)\n              dup1\n              swap2\n              sub\n              swap1\n              return\n                /* \"Campaign.sol\":2623:3061  function revokeApproval(uint index) public approver notFinalized(index) {\r... */\n            tag_11:\n              callvalue\n              dup1\n              iszero\n              tag_63\n              jumpi\n              0x00\n              dup1\n              revert\n            tag_63:\n              pop\n              tag_64\n              0x04\n              dup1\n              calldatasize\n              sub\n              dup2\n              add\n              swap1\n              tag_65\n              swap2\n              swap1\n              tag_20\n              jump\t// in\n            tag_65:\n              tag_66\n              jump\t// in\n            tag_64:\n              stop\n                /* \"Campaign.sol\":3746:3880  function isApprover(uint index, address person) public view returns (bool) {\r... */\n            tag_12:\n              callvalue\n              dup1\n              iszero\n              tag_67\n              jumpi\n              0x00\n              dup1\n              revert\n            tag_67:\n              pop\n              tag_68\n              0x04\n              dup1\n              calldatasize\n              sub\n              dup2\n              add\n              swap1\n              tag_69\n              swap2\n              swap1\n              tag_70\n              jump\t// in\n            tag_69:\n              tag_71\n              jump\t// in\n            tag_68:\n              mload(0x40)\n              tag_72\n              swap2\n              swap1\n              tag_28\n              jump\t// in\n            tag_72:\n              mload(0x40)\n              dup1\n              swap2\n              sub\n              swap1\n              return\n                /* \"Campaign.sol\":1579:1893  function contribute() public payable {\r... */\n            tag_13:\n              tag_73\n              tag_74\n              jump\t// in\n            tag_73:\n              stop\n                /* \"Campaign.sol\":2268:2615  function approveRequest(uint index) public approver notFinalized(index) {\r... */\n            tag_14:\n              callvalue\n              dup1\n              iszero\n              tag_75\n              jumpi\n              0x00\n              dup1\n              revert\n            tag_75:\n              pop\n              tag_76\n              0x04\n              dup1\n              calldatasize\n              sub\n              dup2\n              add\n              swap1\n              tag_77\n              swap2\n              swap1\n              tag_20\n              jump\t// in\n            tag_77:\n              tag_78\n              jump\t// in\n            tag_76:\n              stop\n                /* \"Campaign.sol\":3069:3454  function finalizeRequest(uint index) public restricted notFinalized(index) {\r... */\n            tag_21:\n                /* \"Campaign.sol\":937:944  manager */\n              0x00\n              dup1\n              sload\n              swap1\n              0x0100\n              exp\n              swap1\n              div\n              0xffffffffffffffffffffffffffffffffffffffff\n              and\n                /* \"Campaign.sol\":923:944  msg.sender == manager */\n              0xffffffffffffffffffffffffffffffffffffffff\n              and\n                /* \"Campaign.sol\":923:933  msg.sender */\n              caller\n                /* \"Campaign.sol\":923:944  msg.sender == manager */\n              0xffffffffffffffffffffffffffffffffffffffff\n              and\n              eq\n                /* \"Campaign.sol\":901:1011  require(\r... */\n              tag_80\n              jumpi\n              mload(0x40)\n              0x08c379a000000000000000000000000000000000000000000000000000000000\n              dup2\n              mstore\n              0x04\n              add\n              tag_81\n              swap1\n              tag_82\n              jump\t// in\n            tag_81:\n              mload(0x40)\n              dup1\n              swap2\n              sub\n              swap1\n              revert\n            tag_80:\n                /* \"Campaign.sol\":3137:3142  index */\n              dup1\n                /* \"Campaign.sol\":1276:1284  requests */\n              0x04\n                /* \"Campaign.sol\":1276:1291  requests[index] */\n              0x00\n                /* \"Campaign.sol\":1285:1290  index */\n              dup3\n                /* \"Campaign.sol\":1276:1291  requests[index] */\n              dup2\n              mstore\n              0x20\n              add\n              swap1\n              dup2\n              mstore\n              0x20\n              add\n              0x00\n              keccak256\n                /* \"Campaign.sol\":1276:1300  requests[index].complete */\n              0x02\n              add\n              0x14\n              swap1\n              sload\n              swap1\n              0x0100\n              exp\n              swap1\n              div\n              0xff\n              and\n                /* \"Campaign.sol\":1275:1300  !requests[index].complete */\n              iszero\n                /* \"Campaign.sol\":1253:1368  require(\r... */\n              tag_84\n              jumpi\n              mload(0x40)\n              0x08c379a000000000000000000000000000000000000000000000000000000000\n              dup2\n              mstore\n              0x04\n              add\n              tag_85\n              swap1\n              tag_86\n              jump\t// in\n            tag_85:\n              mload(0x40)\n              dup1\n              swap2\n              sub\n              swap1\n              revert\n            tag_84:\n                /* \"Campaign.sol\":3155:3178  Request storage request */\n              0x00\n                /* \"Campaign.sol\":3181:3189  requests */\n              0x04\n                /* \"Campaign.sol\":3181:3196  requests[index] */\n              0x00\n                /* \"Campaign.sol\":3190:3195  index */\n              dup5\n                /* \"Campaign.sol\":3181:3196  requests[index] */\n              dup2\n              mstore\n              0x20\n              add\n              swap1\n              dup2\n              mstore\n              0x20\n              add\n              0x00\n              keccak256\n                /* \"Campaign.sol\":3155:3196  Request storage request = requests[index] */\n              swap1\n              pop\n                /* \"Campaign.sol\":3269:3270  2 */\n              0x02\n                /* \"Campaign.sol\":3255:3268  approverCount */\n              dup1\n              sload\n                /* \"Campaign.sol\":3255:3270  approverCount/2 */\n              tag_88\n              swap2\n              swap1\n              tag_89\n              jump\t// in\n            tag_88:\n                /* \"Campaign.sol\":3231:3238  request */\n              dup2\n                /* \"Campaign.sol\":3231:3252  request.approvalCount */\n              0x03\n              add\n              sload\n                /* \"Campaign.sol\":3231:3270  request.approvalCount > approverCount/2 */\n              gt\n                /* \"Campaign.sol\":3209:3349  require(\r... */\n              tag_90\n              jumpi\n              mload(0x40)\n              0x08c379a000000000000000000000000000000000000000000000000000000000\n              dup2\n              mstore\n              0x04\n              add\n              tag_91\n              swap1\n              tag_92\n              jump\t// in\n            tag_91:\n              mload(0x40)\n              dup1\n              swap2\n              sub\n              swap1\n              revert\n            tag_90:\n                /* \"Campaign.sol\":3381:3385  true */\n              0x01\n                /* \"Campaign.sol\":3362:3369  request */\n              dup2\n                /* \"Campaign.sol\":3362:3378  request.complete */\n              0x02\n              add\n              0x14\n                /* \"Campaign.sol\":3362:3385  request.complete = true */\n              0x0100\n              exp\n              dup2\n              sload\n              dup2\n              0xff\n              mul\n              not\n              and\n              swap1\n              dup4\n              iszero\n              iszero\n              mul\n              or\n              swap1\n              sstore\n              pop\n                /* \"Campaign.sol\":3404:3411  request */\n              dup1\n                /* \"Campaign.sol\":3404:3421  request.recipient */\n              0x02\n              add\n              0x00\n              swap1\n              sload\n              swap1\n              0x0100\n              exp\n              swap1\n              div\n              0xffffffffffffffffffffffffffffffffffffffff\n              and\n                /* \"Campaign.sol\":3396:3431  payable(request.recipient).transfer */\n              0xffffffffffffffffffffffffffffffffffffffff\n              and\n                /* \"Campaign.sol\":3396:3446  payable(request.recipient).transfer(request.value) */\n              0x08fc\n                /* \"Campaign.sol\":3432:3439  request */\n              dup3\n                /* \"Campaign.sol\":3432:3445  request.value */\n              0x01\n              add\n              sload\n                /* \"Campaign.sol\":3396:3446  payable(request.recipient).transfer(request.value) */\n              swap1\n              dup2\n              iszero\n              mul\n              swap1\n              mload(0x40)\n              0x00\n              mload(0x40)\n              dup1\n              dup4\n              sub\n              dup2\n              dup6\n              dup9\n              dup9\n              call\n              swap4\n              pop\n              pop\n              pop\n              pop\n              iszero\n              dup1\n              iszero\n              tag_94\n              jumpi\n              returndatasize\n              0x00\n              dup1\n              returndatacopy\n              revert(0x00, returndatasize)\n            tag_94:\n              pop\n                /* \"Campaign.sol\":3144:3454  {\r... */\n              pop\n                /* \"Campaign.sol\":1022:1023  _ */\n              pop\n                /* \"Campaign.sol\":3069:3454  function finalizeRequest(uint index) public restricted notFinalized(index) {\r... */\n              pop\n              jump\t// out\n                /* \"Campaign.sol\":740:781  mapping(address => bool) public approvers */\n            tag_26:\n              mstore(0x20, 0x03)\n              dup1\n              0x00\n              mstore\n              keccak256(0x00, 0x40)\n              0x00\n              swap2\n              pop\n              sload\n              swap1\n              0x0100\n              exp\n              swap1\n              div\n              0xff\n              and\n              dup2\n              jump\t// out\n                /* \"Campaign.sol\":708:733  uint public approverCount */\n            tag_31:\n              sload(0x02)\n              dup2\n              jump\t// out\n                /* \"Campaign.sol\":641:663  address public manager */\n            tag_36:\n              0x00\n              dup1\n              sload\n              swap1\n              0x0100\n              exp\n              swap1\n              div\n              0xffffffffffffffffffffffffffffffffffffffff\n              and\n              dup2\n              jump\t// out\n                /* \"Campaign.sol\":835:859  uint public requestCount */\n            tag_41:\n              sload(0x05)\n              dup2\n              jump\t// out\n                /* \"Campaign.sol\":3462:3738  function getMetrics() public view returns (\r... */\n            tag_45:\n                /* \"Campaign.sol\":3515:3519  uint */\n              0x00\n                /* \"Campaign.sol\":3521:3525  uint */\n              dup1\n                /* \"Campaign.sol\":3527:3531  uint */\n              0x00\n                /* \"Campaign.sol\":3533:3537  uint */\n              dup1\n                /* \"Campaign.sol\":3539:3546  address */\n              0x00\n                /* \"Campaign.sol\":3587:3606  minimumContribution */\n              sload(0x01)\n                /* \"Campaign.sol\":3621:3642  address(this).balance */\n              selfbalance\n                /* \"Campaign.sol\":3657:3669  requestCount */\n              sload(0x05)\n                /* \"Campaign.sol\":3684:3697  approverCount */\n              sload(0x02)\n                /* \"Campaign.sol\":3712:3719  manager */\n              0x00\n              dup1\n              sload\n              swap1\n              0x0100\n              exp\n              swap1\n              div\n              0xffffffffffffffffffffffffffffffffffffffff\n              and\n                /* \"Campaign.sol\":3565:3730  return (\r... */\n              swap5\n              pop\n              swap5\n              pop\n              swap5\n              pop\n              swap5\n              pop\n              swap5\n              pop\n                /* \"Campaign.sol\":3462:3738  function getMetrics() public view returns (\r... */\n              swap1\n              swap2\n              swap3\n              swap4\n              swap5\n              jump\t// out\n                /* \"Campaign.sol\":788:828  mapping(uint => Request) public requests */\n            tag_51:\n              mstore(0x20, 0x04)\n              dup1\n              0x00\n              mstore\n              keccak256(0x00, 0x40)\n              0x00\n              swap2\n              pop\n              swap1\n              pop\n              dup1\n              0x00\n              add\n              dup1\n              sload\n              tag_96\n              swap1\n              tag_97\n              jump\t// in\n            tag_96:\n              dup1\n              0x1f\n              add\n              0x20\n              dup1\n              swap2\n              div\n              mul\n              0x20\n              add\n              mload(0x40)\n              swap1\n              dup2\n              add\n              0x40\n              mstore\n              dup1\n              swap3\n              swap2\n              swap1\n              dup2\n              dup2\n              mstore\n              0x20\n              add\n              dup3\n              dup1\n              sload\n              tag_98\n              swap1\n              tag_97\n              jump\t// in\n            tag_98:\n              dup1\n              iszero\n              tag_99\n              jumpi\n              dup1\n              0x1f\n              lt\n              tag_100\n              jumpi\n              0x0100\n              dup1\n              dup4\n              sload\n              div\n              mul\n              dup4\n              mstore\n              swap2\n              0x20\n              add\n              swap2\n              jump(tag_99)\n            tag_100:\n              dup3\n              add\n              swap2\n              swap1\n              0x00\n              mstore\n              keccak256(0x00, 0x20)\n              swap1\n            tag_101:\n              dup2\n              sload\n              dup2\n              mstore\n              swap1\n              0x01\n              add\n              swap1\n              0x20\n              add\n              dup1\n              dup4\n              gt\n              tag_101\n              jumpi\n              dup3\n              swap1\n              sub\n              0x1f\n              and\n              dup3\n              add\n              swap2\n            tag_99:\n              pop\n              pop\n              pop\n              pop\n              pop\n              swap1\n              dup1\n              0x01\n              add\n              sload\n              swap1\n              dup1\n              0x02\n              add\n              0x00\n              swap1\n              sload\n              swap1\n              0x0100\n              exp\n              swap1\n              div\n              0xffffffffffffffffffffffffffffffffffffffff\n              and\n              swap1\n              dup1\n              0x02\n              add\n              0x14\n              swap1\n              sload\n              swap1\n              0x0100\n              exp\n              swap1\n              div\n              0xff\n              and\n              swap1\n              dup1\n              0x03\n              add\n              sload\n              swap1\n              pop\n              dup6\n              jump\t// out\n                /* \"Campaign.sol\":1901:2260  function createRequest(string calldata description, uint value, address recipient) external restricted {\r... */\n            tag_58:\n                /* \"Campaign.sol\":937:944  manager */\n              0x00\n              dup1\n              sload\n              swap1\n              0x0100\n              exp\n              swap1\n              div\n              0xffffffffffffffffffffffffffffffffffffffff\n              and\n                /* \"Campaign.sol\":923:944  msg.sender == manager */\n              0xffffffffffffffffffffffffffffffffffffffff\n              and\n                /* \"Campaign.sol\":923:933  msg.sender */\n              caller\n                /* \"Campaign.sol\":923:944  msg.sender == manager */\n              0xffffffffffffffffffffffffffffffffffffffff\n              and\n              eq\n                /* \"Campaign.sol\":901:1011  require(\r... */\n              tag_103\n              jumpi\n              mload(0x40)\n              0x08c379a000000000000000000000000000000000000000000000000000000000\n              dup2\n              mstore\n              0x04\n              add\n              tag_104\n              swap1\n              tag_82\n              jump\t// in\n            tag_104:\n              mload(0x40)\n              dup1\n              swap2\n              sub\n              swap1\n              revert\n            tag_103:\n                /* \"Campaign.sol\":2015:2038  Request storage request */\n              0x00\n                /* \"Campaign.sol\":2041:2049  requests */\n              0x04\n                /* \"Campaign.sol\":2041:2065  requests[requestCount++] */\n              0x00\n                /* \"Campaign.sol\":2050:2062  requestCount */\n              0x05\n              0x00\n                /* \"Campaign.sol\":2050:2064  requestCount++ */\n              dup2\n              sload\n              dup1\n              swap3\n              swap2\n              swap1\n              tag_106\n              swap1\n              tag_107\n              jump\t// in\n            tag_106:\n              swap2\n              swap1\n              pop\n              sstore\n                /* \"Campaign.sol\":2041:2065  requests[requestCount++] */\n              dup2\n              mstore\n              0x20\n              add\n              swap1\n              dup2\n              mstore\n              0x20\n              add\n              0x00\n              keccak256\n                /* \"Campaign.sol\":2015:2065  Request storage request = requests[requestCount++] */\n              swap1\n              pop\n                /* \"Campaign.sol\":2098:2109  description */\n              dup5\n              dup5\n                /* \"Campaign.sol\":2076:2083  request */\n              dup3\n                /* \"Campaign.sol\":2076:2095  request.description */\n              0x00\n              add\n                /* \"Campaign.sol\":2076:2109  request.description = description */\n              swap2\n              swap1\n              tag_108\n              swap3\n              swap2\n              swap1\n              tag_109\n              jump\t// in\n            tag_108:\n              pop\n                /* \"Campaign.sol\":2136:2141  value */\n              dup3\n                /* \"Campaign.sol\":2120:2127  request */\n              dup2\n                /* \"Campaign.sol\":2120:2133  request.value */\n              0x01\n              add\n                /* \"Campaign.sol\":2120:2141  request.value = value */\n              dup2\n              swap1\n              sstore\n              pop\n                /* \"Campaign.sol\":2172:2181  recipient */\n              dup2\n                /* \"Campaign.sol\":2152:2159  request */\n              dup2\n                /* \"Campaign.sol\":2152:2169  request.recipient */\n              0x02\n              add\n              0x00\n                /* \"Campaign.sol\":2152:2181  request.recipient = recipient */\n              0x0100\n              exp\n              dup2\n              sload\n              dup2\n              0xffffffffffffffffffffffffffffffffffffffff\n              mul\n              not\n              and\n              swap1\n              dup4\n              0xffffffffffffffffffffffffffffffffffffffff\n              and\n              mul\n              or\n              swap1\n              sstore\n              pop\n                /* \"Campaign.sol\":2211:2216  false */\n              0x00\n                /* \"Campaign.sol\":2192:2199  request */\n              dup2\n                /* \"Campaign.sol\":2192:2208  request.complete */\n              0x02\n              add\n              0x14\n                /* \"Campaign.sol\":2192:2216  request.complete = false */\n              0x0100\n              exp\n              dup2\n              sload\n              dup2\n              0xff\n              mul\n              not\n              and\n              swap1\n              dup4\n              iszero\n              iszero\n              mul\n              or\n              swap1\n              sstore\n              pop\n                /* \"Campaign.sol\":2251:2252  0 */\n              0x00\n                /* \"Campaign.sol\":2227:2234  request */\n              dup2\n                /* \"Campaign.sol\":2227:2248  request.approvalCount */\n              0x03\n              add\n                /* \"Campaign.sol\":2227:2252  request.approvalCount = 0 */\n              dup2\n              swap1\n              sstore\n              pop\n                /* \"Campaign.sol\":2004:2260  {\r... */\n              pop\n                /* \"Campaign.sol\":1901:2260  function createRequest(string calldata description, uint value, address recipient) external restricted {\r... */\n              pop\n              pop\n              pop\n              pop\n              jump\t// out\n                /* \"Campaign.sol\":670:701  uint public minimumContribution */\n            tag_61:\n              sload(0x01)\n              dup2\n              jump\t// out\n                /* \"Campaign.sol\":2623:3061  function revokeApproval(uint index) public approver notFinalized(index) {\r... */\n            tag_66:\n                /* \"Campaign.sol\":1092:1101  approvers */\n              0x03\n                /* \"Campaign.sol\":1092:1113  approvers[msg.sender] */\n              0x00\n                /* \"Campaign.sol\":1102:1112  msg.sender */\n              caller\n                /* \"Campaign.sol\":1092:1113  approvers[msg.sender] */\n              0xffffffffffffffffffffffffffffffffffffffff\n              and\n              0xffffffffffffffffffffffffffffffffffffffff\n              and\n              dup2\n              mstore\n              0x20\n              add\n              swap1\n              dup2\n              mstore\n              0x20\n              add\n              0x00\n              keccak256\n              0x00\n              swap1\n              sload\n              swap1\n              0x0100\n              exp\n              swap1\n              div\n              0xff\n              and\n                /* \"Campaign.sol\":1070:1180  require(\r... */\n              tag_111\n              jumpi\n              mload(0x40)\n              0x08c379a000000000000000000000000000000000000000000000000000000000\n              dup2\n              mstore\n              0x04\n              add\n              tag_112\n              swap1\n              tag_113\n              jump\t// in\n            tag_112:\n              mload(0x40)\n              dup1\n              swap2\n              sub\n              swap1\n              revert\n            tag_111:\n                /* \"Campaign.sol\":2688:2693  index */\n              dup1\n                /* \"Campaign.sol\":1276:1284  requests */\n              0x04\n                /* \"Campaign.sol\":1276:1291  requests[index] */\n              0x00\n                /* \"Campaign.sol\":1285:1290  index */\n              dup3\n                /* \"Campaign.sol\":1276:1291  requests[index] */\n              dup2\n              mstore\n              0x20\n              add\n              swap1\n              dup2\n              mstore\n              0x20\n              add\n              0x00\n              keccak256\n                /* \"Campaign.sol\":1276:1300  requests[index].complete */\n              0x02\n              add\n              0x14\n              swap1\n              sload\n              swap1\n              0x0100\n              exp\n              swap1\n              div\n              0xff\n              and\n                /* \"Campaign.sol\":1275:1300  !requests[index].complete */\n              iszero\n                /* \"Campaign.sol\":1253:1368  require(\r... */\n              tag_115\n              jumpi\n              mload(0x40)\n              0x08c379a000000000000000000000000000000000000000000000000000000000\n              dup2\n              mstore\n              0x04\n              add\n              tag_116\n              swap1\n              tag_86\n              jump\t// in\n            tag_116:\n              mload(0x40)\n              dup1\n              swap2\n              sub\n              swap1\n              revert\n            tag_115:\n                /* \"Campaign.sol\":2706:2729  Request storage request */\n              0x00\n                /* \"Campaign.sol\":2732:2740  requests */\n              0x04\n                /* \"Campaign.sol\":2732:2747  requests[index] */\n              0x00\n                /* \"Campaign.sol\":2741:2746  index */\n              dup5\n                /* \"Campaign.sol\":2732:2747  requests[index] */\n              dup2\n              mstore\n              0x20\n              add\n              swap1\n              dup2\n              mstore\n              0x20\n              add\n              0x00\n              keccak256\n                /* \"Campaign.sol\":2706:2747  Request storage request = requests[index] */\n              swap1\n              pop\n                /* \"Campaign.sol\":2782:2789  request */\n              dup1\n                /* \"Campaign.sol\":2782:2799  request.approvals */\n              0x04\n              add\n                /* \"Campaign.sol\":2782:2811  request.approvals[msg.sender] */\n              0x00\n                /* \"Campaign.sol\":2800:2810  msg.sender */\n              caller\n                /* \"Campaign.sol\":2782:2811  request.approvals[msg.sender] */\n              0xffffffffffffffffffffffffffffffffffffffff\n              and\n              0xffffffffffffffffffffffffffffffffffffffff\n              and\n              dup2\n              mstore\n              0x20\n              add\n              swap1\n              dup2\n              mstore\n              0x20\n              add\n              0x00\n              keccak256\n              0x00\n              swap1\n              sload\n              swap1\n              0x0100\n              exp\n              swap1\n              div\n              0xff\n              and\n                /* \"Campaign.sol\":2760:2873  require(\r... */\n              tag_118\n              jumpi\n              mload(0x40)\n              0x08c379a000000000000000000000000000000000000000000000000000000000\n              dup2\n              mstore\n              0x04\n              add\n              tag_119\n              swap1\n              tag_120\n              jump\t// in\n            tag_119:\n              mload(0x40)\n              dup1\n              swap2\n              sub\n              swap1\n              revert\n            tag_118:\n                /* \"Campaign.sol\":2930:2934  true */\n              0x01\n                /* \"Campaign.sol\":2889:2934  requests[index].approvals[msg.sender] == true */\n              iszero\n              iszero\n                /* \"Campaign.sol\":2889:2897  requests */\n              0x04\n                /* \"Campaign.sol\":2889:2904  requests[index] */\n              0x00\n                /* \"Campaign.sol\":2898:2903  index */\n              dup6\n                /* \"Campaign.sol\":2889:2904  requests[index] */\n              dup2\n              mstore\n              0x20\n              add\n              swap1\n              dup2\n              mstore\n              0x20\n              add\n              0x00\n              keccak256\n                /* \"Campaign.sol\":2889:2914  requests[index].approvals */\n              0x04\n              add\n                /* \"Campaign.sol\":2889:2926  requests[index].approvals[msg.sender] */\n              0x00\n                /* \"Campaign.sol\":2915:2925  msg.sender */\n              caller\n                /* \"Campaign.sol\":2889:2926  requests[index].approvals[msg.sender] */\n              0xffffffffffffffffffffffffffffffffffffffff\n              and\n              0xffffffffffffffffffffffffffffffffffffffff\n              and\n              dup2\n              mstore\n              0x20\n              add\n              swap1\n              dup2\n              mstore\n              0x20\n              add\n              0x00\n              keccak256\n              0x00\n              swap1\n              sload\n              swap1\n              0x0100\n              exp\n              swap1\n              div\n              0xff\n              and\n                /* \"Campaign.sol\":2889:2934  requests[index].approvals[msg.sender] == true */\n              iszero\n              iszero\n              eq\n                /* \"Campaign.sol\":2886:3054  if(requests[index].approvals[msg.sender] == true) {\r... */\n              iszero\n              tag_121\n              jumpi\n                /* \"Campaign.sol\":2991:2996  false */\n              0x00\n                /* \"Campaign.sol\":2951:2959  requests */\n              0x04\n                /* \"Campaign.sol\":2951:2966  requests[index] */\n              0x00\n                /* \"Campaign.sol\":2960:2965  index */\n              dup6\n                /* \"Campaign.sol\":2951:2966  requests[index] */\n              dup2\n              mstore\n              0x20\n              add\n              swap1\n              dup2\n              mstore\n              0x20\n              add\n              0x00\n              keccak256\n                /* \"Campaign.sol\":2951:2976  requests[index].approvals */\n              0x04\n              add\n                /* \"Campaign.sol\":2951:2988  requests[index].approvals[msg.sender] */\n              0x00\n                /* \"Campaign.sol\":2977:2987  msg.sender */\n              caller\n                /* \"Campaign.sol\":2951:2988  requests[index].approvals[msg.sender] */\n              0xffffffffffffffffffffffffffffffffffffffff\n              and\n              0xffffffffffffffffffffffffffffffffffffffff\n              and\n              dup2\n              mstore\n              0x20\n              add\n              swap1\n              dup2\n              mstore\n              0x20\n              add\n              0x00\n              keccak256\n              0x00\n                /* \"Campaign.sol\":2951:2996  requests[index].approvals[msg.sender] = false */\n              0x0100\n              exp\n              dup2\n              sload\n              dup2\n              0xff\n              mul\n              not\n              and\n              swap1\n              dup4\n              iszero\n              iszero\n              mul\n              or\n              swap1\n              sstore\n              pop\n                /* \"Campaign.sol\":3011:3019  requests */\n              0x04\n                /* \"Campaign.sol\":3011:3026  requests[index] */\n              0x00\n                /* \"Campaign.sol\":3020:3025  index */\n              dup5\n                /* \"Campaign.sol\":3011:3026  requests[index] */\n              dup2\n              mstore\n              0x20\n              add\n              swap1\n              dup2\n              mstore\n              0x20\n              add\n              0x00\n              keccak256\n                /* \"Campaign.sol\":3011:3040  requests[index].approvalCount */\n              0x03\n              add\n              0x00\n                /* \"Campaign.sol\":3011:3042  requests[index].approvalCount-- */\n              dup2\n              sload\n              dup1\n              swap3\n              swap2\n              swap1\n              tag_122\n              swap1\n              tag_123\n              jump\t// in\n            tag_122:\n              swap2\n              swap1\n              pop\n              sstore\n              pop\n                /* \"Campaign.sol\":2886:3054  if(requests[index].approvals[msg.sender] == true) {\r... */\n            tag_121:\n                /* \"Campaign.sol\":2695:3061  {\r... */\n              pop\n                /* \"Campaign.sol\":1191:1192  _ */\n              pop\n                /* \"Campaign.sol\":2623:3061  function revokeApproval(uint index) public approver notFinalized(index) {\r... */\n              pop\n              jump\t// out\n                /* \"Campaign.sol\":3746:3880  function isApprover(uint index, address person) public view returns (bool) {\r... */\n            tag_71:\n                /* \"Campaign.sol\":3815:3819  bool */\n              0x00\n                /* \"Campaign.sol\":3839:3847  requests */\n              0x04\n                /* \"Campaign.sol\":3839:3854  requests[index] */\n              0x00\n                /* \"Campaign.sol\":3848:3853  index */\n              dup5\n                /* \"Campaign.sol\":3839:3854  requests[index] */\n              dup2\n              mstore\n              0x20\n              add\n              swap1\n              dup2\n              mstore\n              0x20\n              add\n              0x00\n              keccak256\n                /* \"Campaign.sol\":3839:3864  requests[index].approvals */\n              0x04\n              add\n                /* \"Campaign.sol\":3839:3872  requests[index].approvals[person] */\n              0x00\n                /* \"Campaign.sol\":3865:3871  person */\n              dup4\n                /* \"Campaign.sol\":3839:3872  requests[index].approvals[person] */\n              0xffffffffffffffffffffffffffffffffffffffff\n              and\n              0xffffffffffffffffffffffffffffffffffffffff\n              and\n              dup2\n              mstore\n              0x20\n              add\n              swap1\n              dup2\n              mstore\n              0x20\n              add\n              0x00\n              keccak256\n              0x00\n              swap1\n              sload\n              swap1\n              0x0100\n              exp\n              swap1\n              div\n              0xff\n              and\n                /* \"Campaign.sol\":3832:3872  return requests[index].approvals[person] */\n              swap1\n              pop\n                /* \"Campaign.sol\":3746:3880  function isApprover(uint index, address person) public view returns (bool) {\r... */\n              swap3\n              swap2\n              pop\n              pop\n              jump\t// out\n                /* \"Campaign.sol\":1579:1893  function contribute() public payable {\r... */\n            tag_74:\n                /* \"Campaign.sol\":1662:1681  minimumContribution */\n              sload(0x01)\n                /* \"Campaign.sol\":1649:1658  msg.value */\n              callvalue\n                /* \"Campaign.sol\":1649:1681  msg.value >= minimumContribution */\n              lt\n              iszero\n                /* \"Campaign.sol\":1627:1754  require(\r... */\n              tag_126\n              jumpi\n              mload(0x40)\n              0x08c379a000000000000000000000000000000000000000000000000000000000\n              dup2\n              mstore\n              0x04\n              add\n              tag_127\n              swap1\n              tag_128\n              jump\t// in\n            tag_127:\n              mload(0x40)\n              dup1\n              swap2\n              sub\n              swap1\n              revert\n            tag_126:\n                /* \"Campaign.sol\":1795:1799  true */\n              0x01\n                /* \"Campaign.sol\":1770:1799  approvers[msg.sender] != true */\n              iszero\n              iszero\n                /* \"Campaign.sol\":1770:1779  approvers */\n              0x03\n                /* \"Campaign.sol\":1770:1791  approvers[msg.sender] */\n              0x00\n                /* \"Campaign.sol\":1780:1790  msg.sender */\n              caller\n                /* \"Campaign.sol\":1770:1791  approvers[msg.sender] */\n              0xffffffffffffffffffffffffffffffffffffffff\n              and\n              0xffffffffffffffffffffffffffffffffffffffff\n              and\n              dup2\n              mstore\n              0x20\n              add\n              swap1\n              dup2\n              mstore\n              0x20\n              add\n              0x00\n              keccak256\n              0x00\n              swap1\n              sload\n              swap1\n              0x0100\n              exp\n              swap1\n              div\n              0xff\n              and\n                /* \"Campaign.sol\":1770:1799  approvers[msg.sender] != true */\n              iszero\n              iszero\n              eq\n                /* \"Campaign.sol\":1767:1886  if(approvers[msg.sender] != true) {\r... */\n              tag_129\n              jumpi\n                /* \"Campaign.sol\":1840:1844  true */\n              0x01\n                /* \"Campaign.sol\":1816:1825  approvers */\n              0x03\n                /* \"Campaign.sol\":1816:1837  approvers[msg.sender] */\n              0x00\n                /* \"Campaign.sol\":1826:1836  msg.sender */\n              caller\n                /* \"Campaign.sol\":1816:1837  approvers[msg.sender] */\n              0xffffffffffffffffffffffffffffffffffffffff\n              and\n              0xffffffffffffffffffffffffffffffffffffffff\n              and\n              dup2\n              mstore\n              0x20\n              add\n              swap1\n              dup2\n              mstore\n              0x20\n              add\n              0x00\n              keccak256\n              0x00\n                /* \"Campaign.sol\":1816:1844  approvers[msg.sender] = true */\n              0x0100\n              exp\n              dup2\n              sload\n              dup2\n              0xff\n              mul\n              not\n              and\n              swap1\n              dup4\n              iszero\n              iszero\n              mul\n              or\n              swap1\n              sstore\n              pop\n                /* \"Campaign.sol\":1859:1872  approverCount */\n              0x02\n              0x00\n                /* \"Campaign.sol\":1859:1874  approverCount++ */\n              dup2\n              sload\n              dup1\n              swap3\n              swap2\n              swap1\n              tag_130\n              swap1\n              tag_107\n              jump\t// in\n            tag_130:\n              swap2\n              swap1\n              pop\n              sstore\n              pop\n                /* \"Campaign.sol\":1767:1886  if(approvers[msg.sender] != true) {\r... */\n            tag_129:\n                /* \"Campaign.sol\":1579:1893  function contribute() public payable {\r... */\n              jump\t// out\n                /* \"Campaign.sol\":2268:2615  function approveRequest(uint index) public approver notFinalized(index) {\r... */\n            tag_78:\n                /* \"Campaign.sol\":1092:1101  approvers */\n              0x03\n                /* \"Campaign.sol\":1092:1113  approvers[msg.sender] */\n              0x00\n                /* \"Campaign.sol\":1102:1112  msg.sender */\n              caller\n                /* \"Campaign.sol\":1092:1113  approvers[msg.sender] */\n              0xffffffffffffffffffffffffffffffffffffffff\n              and\n              0xffffffffffffffffffffffffffffffffffffffff\n              and\n              dup2\n              mstore\n              0x20\n              add\n              swap1\n              dup2\n              mstore\n              0x20\n              add\n              0x00\n              keccak256\n              0x00\n              swap1\n              sload\n              swap1\n              0x0100\n              exp\n              swap1\n              div\n              0xff\n              and\n                /* \"Campaign.sol\":1070:1180  require(\r... */\n              tag_132\n              jumpi\n              mload(0x40)\n              0x08c379a000000000000000000000000000000000000000000000000000000000\n              dup2\n              mstore\n              0x04\n              add\n              tag_133\n              swap1\n              tag_113\n              jump\t// in\n            tag_133:\n              mload(0x40)\n              dup1\n              swap2\n              sub\n              swap1\n              revert\n            tag_132:\n                /* \"Campaign.sol\":2333:2338  index */\n              dup1\n                /* \"Campaign.sol\":1276:1284  requests */\n              0x04\n                /* \"Campaign.sol\":1276:1291  requests[index] */\n              0x00\n                /* \"Campaign.sol\":1285:1290  index */\n              dup3\n                /* \"Campaign.sol\":1276:1291  requests[index] */\n              dup2\n              mstore\n              0x20\n              add\n              swap1\n              dup2\n              mstore\n              0x20\n              add\n              0x00\n              keccak256\n                /* \"Campaign.sol\":1276:1300  requests[index].complete */\n              0x02\n              add\n              0x14\n              swap1\n              sload\n              swap1\n              0x0100\n              exp\n              swap1\n              div\n              0xff\n              and\n                /* \"Campaign.sol\":1275:1300  !requests[index].complete */\n              iszero\n                /* \"Campaign.sol\":1253:1368  require(\r... */\n              tag_135\n              jumpi\n              mload(0x40)\n              0x08c379a000000000000000000000000000000000000000000000000000000000\n              dup2\n              mstore\n              0x04\n              add\n              tag_136\n              swap1\n              tag_86\n              jump\t// in\n            tag_136:\n              mload(0x40)\n              dup1\n              swap2\n              sub\n              swap1\n              revert\n            tag_135:\n                /* \"Campaign.sol\":2351:2374  Request storage request */\n              0x00\n                /* \"Campaign.sol\":2377:2385  requests */\n              0x04\n                /* \"Campaign.sol\":2377:2392  requests[index] */\n              0x00\n                /* \"Campaign.sol\":2386:2391  index */\n              dup5\n                /* \"Campaign.sol\":2377:2392  requests[index] */\n              dup2\n              mstore\n              0x20\n              add\n              swap1\n              dup2\n              mstore\n              0x20\n              add\n              0x00\n              keccak256\n                /* \"Campaign.sol\":2351:2392  Request storage request = requests[index] */\n              swap1\n              pop\n                /* \"Campaign.sol\":2428:2435  request */\n              dup1\n                /* \"Campaign.sol\":2428:2445  request.approvals */\n              0x04\n              add\n                /* \"Campaign.sol\":2428:2457  request.approvals[msg.sender] */\n              0x00\n                /* \"Campaign.sol\":2446:2456  msg.sender */\n              caller\n                /* \"Campaign.sol\":2428:2457  request.approvals[msg.sender] */\n              0xffffffffffffffffffffffffffffffffffffffff\n              and\n              0xffffffffffffffffffffffffffffffffffffffff\n              and\n              dup2\n              mstore\n              0x20\n              add\n              swap1\n              dup2\n              mstore\n              0x20\n              add\n              0x00\n              keccak256\n              0x00\n              swap1\n              sload\n              swap1\n              0x0100\n              exp\n              swap1\n              div\n              0xff\n              and\n                /* \"Campaign.sol\":2427:2457  !request.approvals[msg.sender] */\n              iszero\n                /* \"Campaign.sol\":2405:2524  require(\r... */\n              tag_138\n              jumpi\n              mload(0x40)\n              0x08c379a000000000000000000000000000000000000000000000000000000000\n              dup2\n              mstore\n              0x04\n              add\n              tag_139\n              swap1\n              tag_140\n              jump\t// in\n            tag_139:\n              mload(0x40)\n              dup1\n              swap2\n              sub\n              swap1\n              revert\n            tag_138:\n                /* \"Campaign.sol\":2569:2573  true */\n              0x01\n                /* \"Campaign.sol\":2537:2544  request */\n              dup2\n                /* \"Campaign.sol\":2537:2554  request.approvals */\n              0x04\n              add\n                /* \"Campaign.sol\":2537:2566  request.approvals[msg.sender] */\n              0x00\n                /* \"Campaign.sol\":2555:2565  msg.sender */\n              caller\n                /* \"Campaign.sol\":2537:2566  request.approvals[msg.sender] */\n              0xffffffffffffffffffffffffffffffffffffffff\n              and\n              0xffffffffffffffffffffffffffffffffffffffff\n              and\n              dup2\n              mstore\n              0x20\n              add\n              swap1\n              dup2\n              mstore\n              0x20\n              add\n              0x00\n              keccak256\n              0x00\n                /* \"Campaign.sol\":2537:2573  request.approvals[msg.sender] = true */\n              0x0100\n              exp\n              dup2\n              sload\n              dup2\n              0xff\n              mul\n              not\n              and\n              swap1\n              dup4\n              iszero\n              iszero\n              mul\n              or\n              swap1\n              sstore\n              pop\n                /* \"Campaign.sol\":2584:2591  request */\n              dup1\n                /* \"Campaign.sol\":2584:2605  request.approvalCount */\n              0x03\n              add\n              0x00\n                /* \"Campaign.sol\":2584:2607  request.approvalCount++ */\n              dup2\n              sload\n              dup1\n              swap3\n              swap2\n              swap1\n              tag_141\n              swap1\n              tag_107\n              jump\t// in\n            tag_141:\n              swap2\n              swap1\n              pop\n              sstore\n              pop\n                /* \"Campaign.sol\":2340:2615  {\r... */\n              pop\n                /* \"Campaign.sol\":1191:1192  _ */\n              pop\n                /* \"Campaign.sol\":2268:2615  function approveRequest(uint index) public approver notFinalized(index) {\r... */\n              pop\n              jump\t// out\n            tag_109:\n              dup3\n              dup1\n              sload\n              tag_142\n              swap1\n              tag_97\n              jump\t// in\n            tag_142:\n              swap1\n              0x00\n              mstore\n              keccak256(0x00, 0x20)\n              swap1\n              0x1f\n              add\n              0x20\n              swap1\n              div\n              dup2\n              add\n              swap3\n              dup3\n              tag_144\n              jumpi\n              0x00\n              dup6\n              sstore\n              jump(tag_143)\n            tag_144:\n              dup3\n              0x1f\n              lt\n              tag_145\n              jumpi\n              dup1\n              calldataload\n              not(0xff)\n              and\n              dup4\n              dup1\n              add\n              or\n              dup6\n              sstore\n              jump(tag_143)\n            tag_145:\n              dup3\n              dup1\n              add\n              0x01\n              add\n              dup6\n              sstore\n              dup3\n              iszero\n              tag_143\n              jumpi\n              swap2\n              dup3\n              add\n            tag_146:\n              dup3\n              dup2\n              gt\n              iszero\n              tag_147\n              jumpi\n              dup3\n              calldataload\n              dup3\n              sstore\n              swap2\n              0x20\n              add\n              swap2\n              swap1\n              0x01\n              add\n              swap1\n              jump(tag_146)\n            tag_147:\n            tag_143:\n              pop\n              swap1\n              pop\n              tag_148\n              swap2\n              swap1\n              tag_149\n              jump\t// in\n            tag_148:\n              pop\n              swap1\n              jump\t// out\n            tag_149:\n            tag_150:\n              dup1\n              dup3\n              gt\n              iszero\n              tag_151\n              jumpi\n              0x00\n              dup2\n              0x00\n              swap1\n              sstore\n              pop\n              0x01\n              add\n              jump(tag_150)\n            tag_151:\n              pop\n              swap1\n              jump\t// out\n                /* \"#utility.yul\":7:146   */\n            tag_153:\n                /* \"#utility.yul\":53:58   */\n              0x00\n                /* \"#utility.yul\":91:97   */\n              dup2\n                /* \"#utility.yul\":78:98   */\n              calldataload\n                /* \"#utility.yul\":69:98   */\n              swap1\n              pop\n                /* \"#utility.yul\":107:140   */\n              tag_155\n                /* \"#utility.yul\":134:139   */\n              dup2\n                /* \"#utility.yul\":107:140   */\n              tag_156\n              jump\t// in\n            tag_155:\n                /* \"#utility.yul\":7:146   */\n              swap3\n              swap2\n              pop\n              pop\n              jump\t// out\n                /* \"#utility.yul\":166:719   */\n            tag_157:\n                /* \"#utility.yul\":224:232   */\n              0x00\n                /* \"#utility.yul\":234:240   */\n              dup1\n                /* \"#utility.yul\":284:287   */\n              dup4\n                /* \"#utility.yul\":277:281   */\n              0x1f\n                /* \"#utility.yul\":269:275   */\n              dup5\n                /* \"#utility.yul\":265:282   */\n              add\n                /* \"#utility.yul\":261:288   */\n              slt\n                /* \"#utility.yul\":251:373   */\n              tag_159\n              jumpi\n                /* \"#utility.yul\":292:371   */\n              tag_160\n              tag_161\n              jump\t// in\n            tag_160:\n                /* \"#utility.yul\":251:373   */\n            tag_159:\n                /* \"#utility.yul\":405:411   */\n              dup3\n                /* \"#utility.yul\":392:412   */\n              calldataload\n                /* \"#utility.yul\":382:412   */\n              swap1\n              pop\n                /* \"#utility.yul\":435:453   */\n              0xffffffffffffffff\n                /* \"#utility.yul\":427:433   */\n              dup2\n                /* \"#utility.yul\":424:454   */\n              gt\n                /* \"#utility.yul\":421:538   */\n              iszero\n              tag_162\n              jumpi\n                /* \"#utility.yul\":457:536   */\n              tag_163\n              tag_164\n              jump\t// in\n            tag_163:\n                /* \"#utility.yul\":421:538   */\n            tag_162:\n                /* \"#utility.yul\":571:575   */\n              0x20\n                /* \"#utility.yul\":563:569   */\n              dup4\n                /* \"#utility.yul\":559:576   */\n              add\n                /* \"#utility.yul\":547:576   */\n              swap2\n              pop\n                /* \"#utility.yul\":625:628   */\n              dup4\n                /* \"#utility.yul\":617:621   */\n              0x01\n                /* \"#utility.yul\":609:615   */\n              dup3\n                /* \"#utility.yul\":605:622   */\n              mul\n                /* \"#utility.yul\":595:603   */\n              dup4\n                /* \"#utility.yul\":591:623   */\n              add\n                /* \"#utility.yul\":588:629   */\n              gt\n                /* \"#utility.yul\":585:713   */\n              iszero\n              tag_165\n              jumpi\n                /* \"#utility.yul\":632:711   */\n              tag_166\n              tag_167\n              jump\t// in\n            tag_166:\n                /* \"#utility.yul\":585:713   */\n            tag_165:\n                /* \"#utility.yul\":166:719   */\n              swap3\n              pop\n              swap3\n              swap1\n              pop\n              jump\t// out\n                /* \"#utility.yul\":725:864   */\n            tag_168:\n                /* \"#utility.yul\":771:776   */\n              0x00\n                /* \"#utility.yul\":809:815   */\n              dup2\n                /* \"#utility.yul\":796:816   */\n              calldataload\n                /* \"#utility.yul\":787:816   */\n              swap1\n              pop\n                /* \"#utility.yul\":825:858   */\n              tag_170\n                /* \"#utility.yul\":852:857   */\n              dup2\n                /* \"#utility.yul\":825:858   */\n              tag_171\n              jump\t// in\n            tag_170:\n                /* \"#utility.yul\":725:864   */\n              swap3\n              swap2\n              pop\n              pop\n              jump\t// out\n                /* \"#utility.yul\":870:1199   */\n            tag_25:\n                /* \"#utility.yul\":929:935   */\n              0x00\n                /* \"#utility.yul\":978:980   */\n              0x20\n                /* \"#utility.yul\":966:975   */\n              dup3\n                /* \"#utility.yul\":957:964   */\n              dup5\n                /* \"#utility.yul\":953:976   */\n              sub\n                /* \"#utility.yul\":949:981   */\n              slt\n                /* \"#utility.yul\":946:1065   */\n              iszero\n              tag_173\n              jumpi\n                /* \"#utility.yul\":984:1063   */\n              tag_174\n              tag_175\n              jump\t// in\n            tag_174:\n                /* \"#utility.yul\":946:1065   */\n            tag_173:\n                /* \"#utility.yul\":1104:1105   */\n              0x00\n                /* \"#utility.yul\":1129:1182   */\n              tag_176\n                /* \"#utility.yul\":1174:1181   */\n              dup5\n                /* \"#utility.yul\":1165:1171   */\n              dup3\n                /* \"#utility.yul\":1154:1163   */\n              dup6\n                /* \"#utility.yul\":1150:1172   */\n              add\n                /* \"#utility.yul\":1129:1182   */\n              tag_153\n              jump\t// in\n            tag_176:\n                /* \"#utility.yul\":1119:1182   */\n              swap2\n              pop\n                /* \"#utility.yul\":1075:1192   */\n              pop\n                /* \"#utility.yul\":870:1199   */\n              swap3\n              swap2\n              pop\n              pop\n              jump\t// out\n                /* \"#utility.yul\":1205:2024   */\n            tag_57:\n                /* \"#utility.yul\":1294:1300   */\n              0x00\n                /* \"#utility.yul\":1302:1308   */\n              dup1\n                /* \"#utility.yul\":1310:1316   */\n              0x00\n                /* \"#utility.yul\":1318:1324   */\n              dup1\n                /* \"#utility.yul\":1367:1369   */\n              0x60\n                /* \"#utility.yul\":1355:1364   */\n              dup6\n                /* \"#utility.yul\":1346:1353   */\n              dup8\n                /* \"#utility.yul\":1342:1365   */\n              sub\n                /* \"#utility.yul\":1338:1370   */\n              slt\n                /* \"#utility.yul\":1335:1454   */\n              iszero\n              tag_178\n              jumpi\n                /* \"#utility.yul\":1373:1452   */\n              tag_179\n              tag_175\n              jump\t// in\n            tag_179:\n                /* \"#utility.yul\":1335:1454   */\n            tag_178:\n                /* \"#utility.yul\":1521:1522   */\n              0x00\n                /* \"#utility.yul\":1510:1519   */\n              dup6\n                /* \"#utility.yul\":1506:1523   */\n              add\n                /* \"#utility.yul\":1493:1524   */\n              calldataload\n                /* \"#utility.yul\":1551:1569   */\n              0xffffffffffffffff\n                /* \"#utility.yul\":1543:1549   */\n              dup2\n                /* \"#utility.yul\":1540:1570   */\n              gt\n                /* \"#utility.yul\":1537:1654   */\n              iszero\n              tag_180\n              jumpi\n                /* \"#utility.yul\":1573:1652   */\n              tag_181\n              tag_182\n              jump\t// in\n            tag_181:\n                /* \"#utility.yul\":1537:1654   */\n            tag_180:\n                /* \"#utility.yul\":1686:1751   */\n              tag_183\n                /* \"#utility.yul\":1743:1750   */\n              dup8\n                /* \"#utility.yul\":1734:1740   */\n              dup3\n                /* \"#utility.yul\":1723:1732   */\n              dup9\n                /* \"#utility.yul\":1719:1741   */\n              add\n                /* \"#utility.yul\":1686:1751   */\n              tag_157\n              jump\t// in\n            tag_183:\n                /* \"#utility.yul\":1668:1751   */\n              swap5\n              pop\n              swap5\n              pop\n                /* \"#utility.yul\":1464:1761   */\n              pop\n                /* \"#utility.yul\":1800:1802   */\n              0x20\n                /* \"#utility.yul\":1826:1879   */\n              tag_184\n                /* \"#utility.yul\":1871:1878   */\n              dup8\n                /* \"#utility.yul\":1862:1868   */\n              dup3\n                /* \"#utility.yul\":1851:1860   */\n              dup9\n                /* \"#utility.yul\":1847:1869   */\n              add\n                /* \"#utility.yul\":1826:1879   */\n              tag_168\n              jump\t// in\n            tag_184:\n                /* \"#utility.yul\":1816:1879   */\n              swap3\n              pop\n                /* \"#utility.yul\":1771:1889   */\n              pop\n                /* \"#utility.yul\":1928:1930   */\n              0x40\n                /* \"#utility.yul\":1954:2007   */\n              tag_185\n                /* \"#utility.yul\":1999:2006   */\n              dup8\n                /* \"#utility.yul\":1990:1996   */\n              dup3\n                /* \"#utility.yul\":1979:1988   */\n              dup9\n                /* \"#utility.yul\":1975:1997   */\n              add\n                /* \"#utility.yul\":1954:2007   */\n              tag_153\n              jump\t// in\n            tag_185:\n                /* \"#utility.yul\":1944:2007   */\n              swap2\n              pop\n                /* \"#utility.yul\":1899:2017   */\n              pop\n                /* \"#utility.yul\":1205:2024   */\n              swap3\n              swap6\n              swap2\n              swap5\n              pop\n              swap3\n              pop\n              jump\t// out\n                /* \"#utility.yul\":2030:2359   */\n            tag_20:\n                /* \"#utility.yul\":2089:2095   */\n              0x00\n                /* \"#utility.yul\":2138:2140   */\n              0x20\n                /* \"#utility.yul\":2126:2135   */\n              dup3\n                /* \"#utility.yul\":2117:2124   */\n              dup5\n                /* \"#utility.yul\":2113:2136   */\n              sub\n                /* \"#utility.yul\":2109:2141   */\n              slt\n                /* \"#utility.yul\":2106:2225   */\n              iszero\n              tag_187\n              jumpi\n                /* \"#utility.yul\":2144:2223   */\n              tag_188\n              tag_175\n              jump\t// in\n            tag_188:\n                /* \"#utility.yul\":2106:2225   */\n            tag_187:\n                /* \"#utility.yul\":2264:2265   */\n              0x00\n                /* \"#utility.yul\":2289:2342   */\n              tag_189\n                /* \"#utility.yul\":2334:2341   */\n              dup5\n                /* \"#utility.yul\":2325:2331   */\n              dup3\n                /* \"#utility.yul\":2314:2323   */\n              dup6\n                /* \"#utility.yul\":2310:2332   */\n              add\n                /* \"#utility.yul\":2289:2342   */\n              tag_168\n              jump\t// in\n            tag_189:\n                /* \"#utility.yul\":2279:2342   */\n              swap2\n              pop\n                /* \"#utility.yul\":2235:2352   */\n              pop\n                /* \"#utility.yul\":2030:2359   */\n              swap3\n              swap2\n              pop\n              pop\n              jump\t// out\n                /* \"#utility.yul\":2365:2839   */\n            tag_70:\n                /* \"#utility.yul\":2433:2439   */\n              0x00\n                /* \"#utility.yul\":2441:2447   */\n              dup1\n                /* \"#utility.yul\":2490:2492   */\n              0x40\n                /* \"#utility.yul\":2478:2487   */\n              dup4\n                /* \"#utility.yul\":2469:2476   */\n              dup6\n                /* \"#utility.yul\":2465:2488   */\n              sub\n                /* \"#utility.yul\":2461:2493   */\n              slt\n                /* \"#utility.yul\":2458:2577   */\n              iszero\n              tag_191\n              jumpi\n                /* \"#utility.yul\":2496:2575   */\n              tag_192\n              tag_175\n              jump\t// in\n            tag_192:\n                /* \"#utility.yul\":2458:2577   */\n            tag_191:\n                /* \"#utility.yul\":2616:2617   */\n              0x00\n                /* \"#utility.yul\":2641:2694   */\n              tag_193\n                /* \"#utility.yul\":2686:2693   */\n              dup6\n                /* \"#utility.yul\":2677:2683   */\n              dup3\n                /* \"#utility.yul\":2666:2675   */\n              dup7\n                /* \"#utility.yul\":2662:2684   */\n              add\n                /* \"#utility.yul\":2641:2694   */\n              tag_168\n              jump\t// in\n            tag_193:\n                /* \"#utility.yul\":2631:2694   */\n              swap3\n              pop\n                /* \"#utility.yul\":2587:2704   */\n              pop\n                /* \"#utility.yul\":2743:2745   */\n              0x20\n                /* \"#utility.yul\":2769:2822   */\n              tag_194\n                /* \"#utility.yul\":2814:2821   */\n              dup6\n                /* \"#utility.yul\":2805:2811   */\n              dup3\n                /* \"#utility.yul\":2794:2803   */\n              dup7\n                /* \"#utility.yul\":2790:2812   */\n              add\n                /* \"#utility.yul\":2769:2822   */\n              tag_153\n              jump\t// in\n            tag_194:\n                /* \"#utility.yul\":2759:2822   */\n              swap2\n              pop\n                /* \"#utility.yul\":2714:2832   */\n              pop\n                /* \"#utility.yul\":2365:2839   */\n              swap3\n              pop\n              swap3\n              swap1\n              pop\n              jump\t// out\n                /* \"#utility.yul\":2845:2963   */\n            tag_195:\n                /* \"#utility.yul\":2932:2956   */\n              tag_197\n                /* \"#utility.yul\":2950:2955   */\n              dup2\n                /* \"#utility.yul\":2932:2956   */\n              tag_198\n              jump\t// in\n            tag_197:\n                /* \"#utility.yul\":2927:2930   */\n              dup3\n                /* \"#utility.yul\":2920:2957   */\n              mstore\n                /* \"#utility.yul\":2845:2963   */\n              pop\n              pop\n              jump\t// out\n                /* \"#utility.yul\":2969:3078   */\n            tag_199:\n                /* \"#utility.yul\":3050:3071   */\n              tag_201\n                /* \"#utility.yul\":3065:3070   */\n              dup2\n                /* \"#utility.yul\":3050:3071   */\n              tag_202\n              jump\t// in\n            tag_201:\n                /* \"#utility.yul\":3045:3048   */\n              dup3\n                /* \"#utility.yul\":3038:3072   */\n              mstore\n                /* \"#utility.yul\":2969:3078   */\n              pop\n              pop\n              jump\t// out\n                /* \"#utility.yul\":3084:3448   */\n            tag_203:\n                /* \"#utility.yul\":3172:3175   */\n              0x00\n                /* \"#utility.yul\":3200:3239   */\n              tag_205\n                /* \"#utility.yul\":3233:3238   */\n              dup3\n                /* \"#utility.yul\":3200:3239   */\n              tag_206\n              jump\t// in\n            tag_205:\n                /* \"#utility.yul\":3255:3326   */\n              tag_207\n                /* \"#utility.yul\":3319:3325   */\n              dup2\n                /* \"#utility.yul\":3314:3317   */\n              dup6\n                /* \"#utility.yul\":3255:3326   */\n              tag_208\n              jump\t// in\n            tag_207:\n                /* \"#utility.yul\":3248:3326   */\n              swap4\n              pop\n                /* \"#utility.yul\":3335:3387   */\n              tag_209\n                /* \"#utility.yul\":3380:3386   */\n              dup2\n                /* \"#utility.yul\":3375:3378   */\n              dup6\n                /* \"#utility.yul\":3368:3372   */\n              0x20\n                /* \"#utility.yul\":3361:3366   */\n              dup7\n                /* \"#utility.yul\":3357:3373   */\n              add\n                /* \"#utility.yul\":3335:3387   */\n              tag_210\n              jump\t// in\n            tag_209:\n                /* \"#utility.yul\":3412:3441   */\n              tag_211\n                /* \"#utility.yul\":3434:3440   */\n              dup2\n                /* \"#utility.yul\":3412:3441   */\n              tag_212\n              jump\t// in\n            tag_211:\n                /* \"#utility.yul\":3407:3410   */\n              dup5\n                /* \"#utility.yul\":3403:3442   */\n              add\n                /* \"#utility.yul\":3396:3442   */\n              swap2\n              pop\n                /* \"#utility.yul\":3176:3448   */\n              pop\n                /* \"#utility.yul\":3084:3448   */\n              swap3\n              swap2\n              pop\n              pop\n              jump\t// out\n                /* \"#utility.yul\":3454:3820   */\n            tag_213:\n                /* \"#utility.yul\":3596:3599   */\n              0x00\n                /* \"#utility.yul\":3617:3684   */\n              tag_215\n                /* \"#utility.yul\":3681:3683   */\n              0x22\n                /* \"#utility.yul\":3676:3679   */\n              dup4\n                /* \"#utility.yul\":3617:3684   */\n              tag_208\n              jump\t// in\n            tag_215:\n                /* \"#utility.yul\":3610:3684   */\n              swap2\n              pop\n                /* \"#utility.yul\":3693:3786   */\n              tag_216\n                /* \"#utility.yul\":3782:3785   */\n              dup3\n                /* \"#utility.yul\":3693:3786   */\n              tag_217\n              jump\t// in\n            tag_216:\n                /* \"#utility.yul\":3811:3813   */\n              0x40\n                /* \"#utility.yul\":3806:3809   */\n              dup3\n                /* \"#utility.yul\":3802:3814   */\n              add\n                /* \"#utility.yul\":3795:3814   */\n              swap1\n              pop\n                /* \"#utility.yul\":3454:3820   */\n              swap2\n              swap1\n              pop\n              jump\t// out\n                /* \"#utility.yul\":3826:4192   */\n            tag_218:\n                /* \"#utility.yul\":3968:3971   */\n              0x00\n                /* \"#utility.yul\":3989:4056   */\n              tag_220\n                /* \"#utility.yul\":4053:4055   */\n              0x2d\n                /* \"#utility.yul\":4048:4051   */\n              dup4\n                /* \"#utility.yul\":3989:4056   */\n              tag_208\n              jump\t// in\n            tag_220:\n                /* \"#utility.yul\":3982:4056   */\n              swap2\n              pop\n                /* \"#utility.yul\":4065:4158   */\n              tag_221\n                /* \"#utility.yul\":4154:4157   */\n              dup3\n                /* \"#utility.yul\":4065:4158   */\n              tag_222\n              jump\t// in\n            tag_221:\n                /* \"#utility.yul\":4183:4185   */\n              0x40\n                /* \"#utility.yul\":4178:4181   */\n              dup3\n                /* \"#utility.yul\":4174:4186   */\n              add\n                /* \"#utility.yul\":4167:4186   */\n              swap1\n              pop\n                /* \"#utility.yul\":3826:4192   */\n              swap2\n              swap1\n              pop\n              jump\t// out\n                /* \"#utility.yul\":4198:4564   */\n            tag_223:\n                /* \"#utility.yul\":4340:4343   */\n              0x00\n                /* \"#utility.yul\":4361:4428   */\n              tag_225\n                /* \"#utility.yul\":4425:4427   */\n              0x27\n                /* \"#utility.yul\":4420:4423   */\n              dup4\n                /* \"#utility.yul\":4361:4428   */\n              tag_208\n              jump\t// in\n            tag_225:\n                /* \"#utility.yul\":4354:4428   */\n              swap2\n              pop\n                /* \"#utility.yul\":4437:4530   */\n              tag_226\n                /* \"#utility.yul\":4526:4529   */\n              dup3\n                /* \"#utility.yul\":4437:4530   */\n              tag_227\n              jump\t// in\n            tag_226:\n                /* \"#utility.yul\":4555:4557   */\n              0x40\n                /* \"#utility.yul\":4550:4553   */\n              dup3\n                /* \"#utility.yul\":4546:4558   */\n              add\n                /* \"#utility.yul\":4539:4558   */\n              swap1\n              pop\n                /* \"#utility.yul\":4198:4564   */\n              swap2\n              swap1\n              pop\n              jump\t// out\n                /* \"#utility.yul\":4570:4936   */\n            tag_228:\n                /* \"#utility.yul\":4712:4715   */\n              0x00\n                /* \"#utility.yul\":4733:4800   */\n              tag_230\n                /* \"#utility.yul\":4797:4799   */\n              0x28\n                /* \"#utility.yul\":4792:4795   */\n              dup4\n                /* \"#utility.yul\":4733:4800   */\n              tag_208\n              jump\t// in\n            tag_230:\n                /* \"#utility.yul\":4726:4800   */\n              swap2\n              pop\n                /* \"#utility.yul\":4809:4902   */\n              tag_231\n                /* \"#utility.yul\":4898:4901   */\n              dup3\n                /* \"#utility.yul\":4809:4902   */\n              tag_232\n              jump\t// in\n            tag_231:\n                /* \"#utility.yul\":4927:4929   */\n              0x40\n                /* \"#utility.yul\":4922:4925   */\n              dup3\n                /* \"#utility.yul\":4918:4930   */\n              add\n                /* \"#utility.yul\":4911:4930   */\n              swap1\n              pop\n                /* \"#utility.yul\":4570:4936   */\n              swap2\n              swap1\n              pop\n              jump\t// out\n                /* \"#utility.yul\":4942:5308   */\n            tag_233:\n                /* \"#utility.yul\":5084:5087   */\n              0x00\n                /* \"#utility.yul\":5105:5172   */\n              tag_235\n                /* \"#utility.yul\":5169:5171   */\n              0x27\n                /* \"#utility.yul\":5164:5167   */\n              dup4\n                /* \"#utility.yul\":5105:5172   */\n              tag_208\n              jump\t// in\n            tag_235:\n                /* \"#utility.yul\":5098:5172   */\n              swap2\n              pop\n                /* \"#utility.yul\":5181:5274   */\n              tag_236\n                /* \"#utility.yul\":5270:5273   */\n              dup3\n                /* \"#utility.yul\":5181:5274   */\n              tag_237\n              jump\t// in\n            tag_236:\n                /* \"#utility.yul\":5299:5301   */\n              0x40\n                /* \"#utility.yul\":5294:5297   */\n              dup3\n                /* \"#utility.yul\":5290:5302   */\n              add\n                /* \"#utility.yul\":5283:5302   */\n              swap1\n              pop\n                /* \"#utility.yul\":4942:5308   */\n              swap2\n              swap1\n              pop\n              jump\t// out\n                /* \"#utility.yul\":5314:5680   */\n            tag_238:\n                /* \"#utility.yul\":5456:5459   */\n              0x00\n                /* \"#utility.yul\":5477:5544   */\n              tag_240\n                /* \"#utility.yul\":5541:5543   */\n              0x27\n                /* \"#utility.yul\":5536:5539   */\n              dup4\n                /* \"#utility.yul\":5477:5544   */\n              tag_208\n              jump\t// in\n            tag_240:\n                /* \"#utility.yul\":5470:5544   */\n              swap2\n              pop\n                /* \"#utility.yul\":5553:5646   */\n              tag_241\n                /* \"#utility.yul\":5642:5645   */\n              dup3\n                /* \"#utility.yul\":5553:5646   */\n              tag_242\n              jump\t// in\n            tag_241:\n                /* \"#utility.yul\":5671:5673   */\n              0x40\n                /* \"#utility.yul\":5666:5669   */\n              dup3\n                /* \"#utility.yul\":5662:5674   */\n              add\n                /* \"#utility.yul\":5655:5674   */\n              swap1\n              pop\n                /* \"#utility.yul\":5314:5680   */\n              swap2\n              swap1\n              pop\n              jump\t// out\n                /* \"#utility.yul\":5686:6052   */\n            tag_243:\n                /* \"#utility.yul\":5828:5831   */\n              0x00\n                /* \"#utility.yul\":5849:5916   */\n              tag_245\n                /* \"#utility.yul\":5913:5915   */\n              0x33\n                /* \"#utility.yul\":5908:5911   */\n              dup4\n                /* \"#utility.yul\":5849:5916   */\n              tag_208\n              jump\t// in\n            tag_245:\n                /* \"#utility.yul\":5842:5916   */\n              swap2\n              pop\n                /* \"#utility.yul\":5925:6018   */\n              tag_246\n                /* \"#utility.yul\":6014:6017   */\n              dup3\n                /* \"#utility.yul\":5925:6018   */\n              tag_247\n              jump\t// in\n            tag_246:\n                /* \"#utility.yul\":6043:6045   */\n              0x40\n                /* \"#utility.yul\":6038:6041   */\n              dup3\n                /* \"#utility.yul\":6034:6046   */\n              add\n                /* \"#utility.yul\":6027:6046   */\n              swap1\n              pop\n                /* \"#utility.yul\":5686:6052   */\n              swap2\n              swap1\n              pop\n              jump\t// out\n                /* \"#utility.yul\":6058:6176   */\n            tag_248:\n                /* \"#utility.yul\":6145:6169   */\n              tag_250\n                /* \"#utility.yul\":6163:6168   */\n              dup2\n                /* \"#utility.yul\":6145:6169   */\n              tag_251\n              jump\t// in\n            tag_250:\n                /* \"#utility.yul\":6140:6143   */\n              dup3\n                /* \"#utility.yul\":6133:6170   */\n              mstore\n                /* \"#utility.yul\":6058:6176   */\n              pop\n              pop\n              jump\t// out\n                /* \"#utility.yul\":6182:6404   */\n            tag_38:\n                /* \"#utility.yul\":6275:6279   */\n              0x00\n                /* \"#utility.yul\":6313:6315   */\n              0x20\n                /* \"#utility.yul\":6302:6311   */\n              dup3\n                /* \"#utility.yul\":6298:6316   */\n              add\n                /* \"#utility.yul\":6290:6316   */\n              swap1\n              pop\n                /* \"#utility.yul\":6326:6397   */\n              tag_253\n                /* \"#utility.yul\":6394:6395   */\n              0x00\n                /* \"#utility.yul\":6383:6392   */\n              dup4\n                /* \"#utility.yul\":6379:6396   */\n              add\n                /* \"#utility.yul\":6370:6376   */\n              dup5\n                /* \"#utility.yul\":6326:6397   */\n              tag_195\n              jump\t// in\n            tag_253:\n                /* \"#utility.yul\":6182:6404   */\n              swap3\n              swap2\n              pop\n              pop\n              jump\t// out\n                /* \"#utility.yul\":6410:6620   */\n            tag_28:\n                /* \"#utility.yul\":6497:6501   */\n              0x00\n                /* \"#utility.yul\":6535:6537   */\n              0x20\n                /* \"#utility.yul\":6524:6533   */\n              dup3\n                /* \"#utility.yul\":6520:6538   */\n              add\n                /* \"#utility.yul\":6512:6538   */\n              swap1\n              pop\n                /* \"#utility.yul\":6548:6613   */\n              tag_255\n                /* \"#utility.yul\":6610:6611   */\n              0x00\n                /* \"#utility.yul\":6599:6608   */\n              dup4\n                /* \"#utility.yul\":6595:6612   */\n              add\n                /* \"#utility.yul\":6586:6592   */\n              dup5\n                /* \"#utility.yul\":6548:6613   */\n              tag_199\n              jump\t// in\n            tag_255:\n                /* \"#utility.yul\":6410:6620   */\n              swap3\n              swap2\n              pop\n              pop\n              jump\t// out\n                /* \"#utility.yul\":6626:7369   */\n            tag_53:\n                /* \"#utility.yul\":6845:6849   */\n              0x00\n                /* \"#utility.yul\":6883:6886   */\n              0xa0\n                /* \"#utility.yul\":6872:6881   */\n              dup3\n                /* \"#utility.yul\":6868:6887   */\n              add\n                /* \"#utility.yul\":6860:6887   */\n              swap1\n              pop\n                /* \"#utility.yul\":6933:6942   */\n              dup2\n                /* \"#utility.yul\":6927:6931   */\n              dup2\n                /* \"#utility.yul\":6923:6943   */\n              sub\n                /* \"#utility.yul\":6919:6920   */\n              0x00\n                /* \"#utility.yul\":6908:6917   */\n              dup4\n                /* \"#utility.yul\":6904:6921   */\n              add\n                /* \"#utility.yul\":6897:6944   */\n              mstore\n                /* \"#utility.yul\":6961:7039   */\n              tag_257\n                /* \"#utility.yul\":7034:7038   */\n              dup2\n                /* \"#utility.yul\":7025:7031   */\n              dup9\n                /* \"#utility.yul\":6961:7039   */\n              tag_203\n              jump\t// in\n            tag_257:\n                /* \"#utility.yul\":6953:7039   */\n              swap1\n              pop\n                /* \"#utility.yul\":7049:7121   */\n              tag_258\n                /* \"#utility.yul\":7117:7119   */\n              0x20\n                /* \"#utility.yul\":7106:7115   */\n              dup4\n                /* \"#utility.yul\":7102:7120   */\n              add\n                /* \"#utility.yul\":7093:7099   */\n              dup8\n                /* \"#utility.yul\":7049:7121   */\n              tag_248\n              jump\t// in\n            tag_258:\n                /* \"#utility.yul\":7131:7203   */\n              tag_259\n                /* \"#utility.yul\":7199:7201   */\n              0x40\n                /* \"#utility.yul\":7188:7197   */\n              dup4\n                /* \"#utility.yul\":7184:7202   */\n              add\n                /* \"#utility.yul\":7175:7181   */\n              dup7\n                /* \"#utility.yul\":7131:7203   */\n              tag_195\n              jump\t// in\n            tag_259:\n                /* \"#utility.yul\":7213:7279   */\n              tag_260\n                /* \"#utility.yul\":7275:7277   */\n              0x60\n                /* \"#utility.yul\":7264:7273   */\n              dup4\n                /* \"#utility.yul\":7260:7278   */\n              add\n                /* \"#utility.yul\":7251:7257   */\n              dup6\n                /* \"#utility.yul\":7213:7279   */\n              tag_199\n              jump\t// in\n            tag_260:\n                /* \"#utility.yul\":7289:7362   */\n              tag_261\n                /* \"#utility.yul\":7357:7360   */\n              0x80\n                /* \"#utility.yul\":7346:7355   */\n              dup4\n                /* \"#utility.yul\":7342:7361   */\n              add\n                /* \"#utility.yul\":7333:7339   */\n              dup5\n                /* \"#utility.yul\":7289:7362   */\n              tag_248\n              jump\t// in\n            tag_261:\n                /* \"#utility.yul\":6626:7369   */\n              swap7\n              swap6\n              pop\n              pop\n              pop\n              pop\n              pop\n              pop\n              jump\t// out\n                /* \"#utility.yul\":7375:7794   */\n            tag_120:\n                /* \"#utility.yul\":7541:7545   */\n              0x00\n                /* \"#utility.yul\":7579:7581   */\n              0x20\n                /* \"#utility.yul\":7568:7577   */\n              dup3\n                /* \"#utility.yul\":7564:7582   */\n              add\n                /* \"#utility.yul\":7556:7582   */\n              swap1\n              pop\n                /* \"#utility.yul\":7628:7637   */\n              dup2\n                /* \"#utility.yul\":7622:7626   */\n              dup2\n                /* \"#utility.yul\":7618:7638   */\n              sub\n                /* \"#utility.yul\":7614:7615   */\n              0x00\n                /* \"#utility.yul\":7603:7612   */\n              dup4\n                /* \"#utility.yul\":7599:7616   */\n              add\n                /* \"#utility.yul\":7592:7639   */\n              mstore\n                /* \"#utility.yul\":7656:7787   */\n              tag_263\n                /* \"#utility.yul\":7782:7786   */\n              dup2\n                /* \"#utility.yul\":7656:7787   */\n              tag_213\n              jump\t// in\n            tag_263:\n                /* \"#utility.yul\":7648:7787   */\n              swap1\n              pop\n                /* \"#utility.yul\":7375:7794   */\n              swap2\n              swap1\n              pop\n              jump\t// out\n                /* \"#utility.yul\":7800:8219   */\n            tag_128:\n                /* \"#utility.yul\":7966:7970   */\n              0x00\n                /* \"#utility.yul\":8004:8006   */\n              0x20\n                /* \"#utility.yul\":7993:8002   */\n              dup3\n                /* \"#utility.yul\":7989:8007   */\n              add\n                /* \"#utility.yul\":7981:8007   */\n              swap1\n              pop\n                /* \"#utility.yul\":8053:8062   */\n              dup2\n                /* \"#utility.yul\":8047:8051   */\n              dup2\n                /* \"#utility.yul\":8043:8063   */\n              sub\n                /* \"#utility.yul\":8039:8040   */\n              0x00\n                /* \"#utility.yul\":8028:8037   */\n              dup4\n                /* \"#utility.yul\":8024:8041   */\n              add\n                /* \"#utility.yul\":8017:8064   */\n              mstore\n                /* \"#utility.yul\":8081:8212   */\n              tag_265\n                /* \"#utility.yul\":8207:8211   */\n              dup2\n                /* \"#utility.yul\":8081:8212   */\n              tag_218\n              jump\t// in\n            tag_265:\n                /* \"#utility.yul\":8073:8212   */\n              swap1\n              pop\n                /* \"#utility.yul\":7800:8219   */\n              swap2\n              swap1\n              pop\n              jump\t// out\n                /* \"#utility.yul\":8225:8644   */\n            tag_140:\n                /* \"#utility.yul\":8391:8395   */\n              0x00\n                /* \"#utility.yul\":8429:8431   */\n              0x20\n                /* \"#utility.yul\":8418:8427   */\n              dup3\n                /* \"#utility.yul\":8414:8432   */\n              add\n                /* \"#utility.yul\":8406:8432   */\n              swap1\n              pop\n                /* \"#utility.yul\":8478:8487   */\n              dup2\n                /* \"#utility.yul\":8472:8476   */\n              dup2\n                /* \"#utility.yul\":8468:8488   */\n              sub\n                /* \"#utility.yul\":8464:8465   */\n              0x00\n                /* \"#utility.yul\":8453:8462   */\n              dup4\n                /* \"#utility.yul\":8449:8466   */\n              add\n                /* \"#utility.yul\":8442:8489   */\n              mstore\n                /* \"#utility.yul\":8506:8637   */\n              tag_267\n                /* \"#utility.yul\":8632:8636   */\n              dup2\n                /* \"#utility.yul\":8506:8637   */\n              tag_223\n              jump\t// in\n            tag_267:\n                /* \"#utility.yul\":8498:8637   */\n              swap1\n              pop\n                /* \"#utility.yul\":8225:8644   */\n              swap2\n              swap1\n              pop\n              jump\t// out\n                /* \"#utility.yul\":8650:9069   */\n            tag_86:\n                /* \"#utility.yul\":8816:8820   */\n              0x00\n                /* \"#utility.yul\":8854:8856   */\n              0x20\n                /* \"#utility.yul\":8843:8852   */\n              dup3\n                /* \"#utility.yul\":8839:8857   */\n              add\n                /* \"#utility.yul\":8831:8857   */\n              swap1\n              pop\n                /* \"#utility.yul\":8903:8912   */\n              dup2\n                /* \"#utility.yul\":8897:8901   */\n              dup2\n                /* \"#utility.yul\":8893:8913   */\n              sub\n                /* \"#utility.yul\":8889:8890   */\n              0x00\n                /* \"#utility.yul\":8878:8887   */\n              dup4\n                /* \"#utility.yul\":8874:8891   */\n              add\n                /* \"#utility.yul\":8867:8914   */\n              mstore\n                /* \"#utility.yul\":8931:9062   */\n              tag_269\n                /* \"#utility.yul\":9057:9061   */\n              dup2\n                /* \"#utility.yul\":8931:9062   */\n              tag_228\n              jump\t// in\n            tag_269:\n                /* \"#utility.yul\":8923:9062   */\n              swap1\n              pop\n                /* \"#utility.yul\":8650:9069   */\n              swap2\n              swap1\n              pop\n              jump\t// out\n                /* \"#utility.yul\":9075:9494   */\n            tag_113:\n                /* \"#utility.yul\":9241:9245   */\n              0x00\n                /* \"#utility.yul\":9279:9281   */\n              0x20\n                /* \"#utility.yul\":9268:9277   */\n              dup3\n                /* \"#utility.yul\":9264:9282   */\n              add\n                /* \"#utility.yul\":9256:9282   */\n              swap1\n              pop\n                /* \"#utility.yul\":9328:9337   */\n              dup2\n                /* \"#utility.yul\":9322:9326   */\n              dup2\n                /* \"#utility.yul\":9318:9338   */\n              sub\n                /* \"#utility.yul\":9314:9315   */\n              0x00\n                /* \"#utility.yul\":9303:9312   */\n              dup4\n                /* \"#utility.yul\":9299:9316   */\n              add\n                /* \"#utility.yul\":9292:9339   */\n              mstore\n                /* \"#utility.yul\":9356:9487   */\n              tag_271\n                /* \"#utility.yul\":9482:9486   */\n              dup2\n                /* \"#utility.yul\":9356:9487   */\n              tag_233\n              jump\t// in\n            tag_271:\n                /* \"#utility.yul\":9348:9487   */\n              swap1\n              pop\n                /* \"#utility.yul\":9075:9494   */\n              swap2\n              swap1\n              pop\n              jump\t// out\n                /* \"#utility.yul\":9500:9919   */\n            tag_82:\n                /* \"#utility.yul\":9666:9670   */\n              0x00\n                /* \"#utility.yul\":9704:9706   */\n              0x20\n                /* \"#utility.yul\":9693:9702   */\n              dup3\n                /* \"#utility.yul\":9689:9707   */\n              add\n                /* \"#utility.yul\":9681:9707   */\n              swap1\n              pop\n                /* \"#utility.yul\":9753:9762   */\n              dup2\n                /* \"#utility.yul\":9747:9751   */\n              dup2\n                /* \"#utility.yul\":9743:9763   */\n              sub\n                /* \"#utility.yul\":9739:9740   */\n              0x00\n                /* \"#utility.yul\":9728:9737   */\n              dup4\n                /* \"#utility.yul\":9724:9741   */\n              add\n                /* \"#utility.yul\":9717:9764   */\n              mstore\n                /* \"#utility.yul\":9781:9912   */\n              tag_273\n                /* \"#utility.yul\":9907:9911   */\n              dup2\n                /* \"#utility.yul\":9781:9912   */\n              tag_238\n              jump\t// in\n            tag_273:\n                /* \"#utility.yul\":9773:9912   */\n              swap1\n              pop\n                /* \"#utility.yul\":9500:9919   */\n              swap2\n              swap1\n              pop\n              jump\t// out\n                /* \"#utility.yul\":9925:10344   */\n            tag_92:\n                /* \"#utility.yul\":10091:10095   */\n              0x00\n                /* \"#utility.yul\":10129:10131   */\n              0x20\n                /* \"#utility.yul\":10118:10127   */\n              dup3\n                /* \"#utility.yul\":10114:10132   */\n              add\n                /* \"#utility.yul\":10106:10132   */\n              swap1\n              pop\n                /* \"#utility.yul\":10178:10187   */\n              dup2\n                /* \"#utility.yul\":10172:10176   */\n              dup2\n                /* \"#utility.yul\":10168:10188   */\n              sub\n                /* \"#utility.yul\":10164:10165   */\n              0x00\n                /* \"#utility.yul\":10153:10162   */\n              dup4\n                /* \"#utility.yul\":10149:10166   */\n              add\n                /* \"#utility.yul\":10142:10189   */\n              mstore\n                /* \"#utility.yul\":10206:10337   */\n              tag_275\n                /* \"#utility.yul\":10332:10336   */\n              dup2\n                /* \"#utility.yul\":10206:10337   */\n              tag_243\n              jump\t// in\n            tag_275:\n                /* \"#utility.yul\":10198:10337   */\n              swap1\n              pop\n                /* \"#utility.yul\":9925:10344   */\n              swap2\n              swap1\n              pop\n              jump\t// out\n                /* \"#utility.yul\":10350:10572   */\n            tag_33:\n                /* \"#utility.yul\":10443:10447   */\n              0x00\n                /* \"#utility.yul\":10481:10483   */\n              0x20\n                /* \"#utility.yul\":10470:10479   */\n              dup3\n                /* \"#utility.yul\":10466:10484   */\n              add\n                /* \"#utility.yul\":10458:10484   */\n              swap1\n              pop\n                /* \"#utility.yul\":10494:10565   */\n              tag_277\n                /* \"#utility.yul\":10562:10563   */\n              0x00\n                /* \"#utility.yul\":10551:10560   */\n              dup4\n                /* \"#utility.yul\":10547:10564   */\n              add\n                /* \"#utility.yul\":10538:10544   */\n              dup5\n                /* \"#utility.yul\":10494:10565   */\n              tag_248\n              jump\t// in\n            tag_277:\n                /* \"#utility.yul\":10350:10572   */\n              swap3\n              swap2\n              pop\n              pop\n              jump\t// out\n                /* \"#utility.yul\":10578:11242   */\n            tag_47:\n                /* \"#utility.yul\":10783:10787   */\n              0x00\n                /* \"#utility.yul\":10821:10824   */\n              0xa0\n                /* \"#utility.yul\":10810:10819   */\n              dup3\n                /* \"#utility.yul\":10806:10825   */\n              add\n                /* \"#utility.yul\":10798:10825   */\n              swap1\n              pop\n                /* \"#utility.yul\":10835:10906   */\n              tag_279\n                /* \"#utility.yul\":10903:10904   */\n              0x00\n                /* \"#utility.yul\":10892:10901   */\n              dup4\n                /* \"#utility.yul\":10888:10905   */\n              add\n                /* \"#utility.yul\":10879:10885   */\n              dup9\n                /* \"#utility.yul\":10835:10906   */\n              tag_248\n              jump\t// in\n            tag_279:\n                /* \"#utility.yul\":10916:10988   */\n              tag_280\n                /* \"#utility.yul\":10984:10986   */\n              0x20\n                /* \"#utility.yul\":10973:10982   */\n              dup4\n                /* \"#utility.yul\":10969:10987   */\n              add\n                /* \"#utility.yul\":10960:10966   */\n              dup8\n                /* \"#utility.yul\":10916:10988   */\n              tag_248\n              jump\t// in\n            tag_280:\n                /* \"#utility.yul\":10998:11070   */\n              tag_281\n                /* \"#utility.yul\":11066:11068   */\n              0x40\n                /* \"#utility.yul\":11055:11064   */\n              dup4\n                /* \"#utility.yul\":11051:11069   */\n              add\n                /* \"#utility.yul\":11042:11048   */\n              dup7\n                /* \"#utility.yul\":10998:11070   */\n              tag_248\n              jump\t// in\n            tag_281:\n                /* \"#utility.yul\":11080:11152   */\n              tag_282\n                /* \"#utility.yul\":11148:11150   */\n              0x60\n                /* \"#utility.yul\":11137:11146   */\n              dup4\n                /* \"#utility.yul\":11133:11151   */\n              add\n                /* \"#utility.yul\":11124:11130   */\n              dup6\n                /* \"#utility.yul\":11080:11152   */\n              tag_248\n              jump\t// in\n            tag_282:\n                /* \"#utility.yul\":11162:11235   */\n              tag_283\n                /* \"#utility.yul\":11230:11233   */\n              0x80\n                /* \"#utility.yul\":11219:11228   */\n              dup4\n                /* \"#utility.yul\":11215:11234   */\n              add\n                /* \"#utility.yul\":11206:11212   */\n              dup5\n                /* \"#utility.yul\":11162:11235   */\n              tag_195\n              jump\t// in\n            tag_283:\n                /* \"#utility.yul\":10578:11242   */\n              swap7\n              swap6\n              pop\n              pop\n              pop\n              pop\n              pop\n              pop\n              jump\t// out\n                /* \"#utility.yul\":11329:11428   */\n            tag_206:\n                /* \"#utility.yul\":11381:11387   */\n              0x00\n                /* \"#utility.yul\":11415:11420   */\n              dup2\n                /* \"#utility.yul\":11409:11421   */\n              mload\n                /* \"#utility.yul\":11399:11421   */\n              swap1\n              pop\n                /* \"#utility.yul\":11329:11428   */\n              swap2\n              swap1\n              pop\n              jump\t// out\n                /* \"#utility.yul\":11434:11603   */\n            tag_208:\n                /* \"#utility.yul\":11518:11529   */\n              0x00\n                /* \"#utility.yul\":11552:11558   */\n              dup3\n                /* \"#utility.yul\":11547:11550   */\n              dup3\n                /* \"#utility.yul\":11540:11559   */\n              mstore\n                /* \"#utility.yul\":11592:11596   */\n              0x20\n                /* \"#utility.yul\":11587:11590   */\n              dup3\n                /* \"#utility.yul\":11583:11597   */\n              add\n                /* \"#utility.yul\":11568:11597   */\n              swap1\n              pop\n                /* \"#utility.yul\":11434:11603   */\n              swap3\n              swap2\n              pop\n              pop\n              jump\t// out\n                /* \"#utility.yul\":11609:11794   */\n            tag_89:\n                /* \"#utility.yul\":11649:11650   */\n              0x00\n                /* \"#utility.yul\":11666:11686   */\n              tag_289\n                /* \"#utility.yul\":11684:11685   */\n              dup3\n                /* \"#utility.yul\":11666:11686   */\n              tag_251\n              jump\t// in\n            tag_289:\n                /* \"#utility.yul\":11661:11686   */\n              swap2\n              pop\n                /* \"#utility.yul\":11700:11720   */\n              tag_290\n                /* \"#utility.yul\":11718:11719   */\n              dup4\n                /* \"#utility.yul\":11700:11720   */\n              tag_251\n              jump\t// in\n            tag_290:\n                /* \"#utility.yul\":11695:11720   */\n              swap3\n              pop\n                /* \"#utility.yul\":11739:11740   */\n              dup3\n                /* \"#utility.yul\":11729:11764   */\n              tag_291\n              jumpi\n                /* \"#utility.yul\":11744:11762   */\n              tag_292\n              tag_293\n              jump\t// in\n            tag_292:\n                /* \"#utility.yul\":11729:11764   */\n            tag_291:\n                /* \"#utility.yul\":11786:11787   */\n              dup3\n                /* \"#utility.yul\":11783:11784   */\n              dup3\n                /* \"#utility.yul\":11779:11788   */\n              div\n                /* \"#utility.yul\":11774:11788   */\n              swap1\n              pop\n                /* \"#utility.yul\":11609:11794   */\n              swap3\n              swap2\n              pop\n              pop\n              jump\t// out\n                /* \"#utility.yul\":11800:11896   */\n            tag_198:\n                /* \"#utility.yul\":11837:11844   */\n              0x00\n                /* \"#utility.yul\":11866:11890   */\n              tag_295\n                /* \"#utility.yul\":11884:11889   */\n              dup3\n                /* \"#utility.yul\":11866:11890   */\n              tag_296\n              jump\t// in\n            tag_295:\n                /* \"#utility.yul\":11855:11890   */\n              swap1\n              pop\n                /* \"#utility.yul\":11800:11896   */\n              swap2\n              swap1\n              pop\n              jump\t// out\n                /* \"#utility.yul\":11902:11992   */\n            tag_202:\n                /* \"#utility.yul\":11936:11943   */\n              0x00\n                /* \"#utility.yul\":11979:11984   */\n              dup2\n                /* \"#utility.yul\":11972:11985   */\n              iszero\n                /* \"#utility.yul\":11965:11986   */\n              iszero\n                /* \"#utility.yul\":11954:11986   */\n              swap1\n              pop\n                /* \"#utility.yul\":11902:11992   */\n              swap2\n              swap1\n              pop\n              jump\t// out\n                /* \"#utility.yul\":11998:12124   */\n            tag_296:\n                /* \"#utility.yul\":12035:12042   */\n              0x00\n                /* \"#utility.yul\":12075:12117   */\n              0xffffffffffffffffffffffffffffffffffffffff\n                /* \"#utility.yul\":12068:12073   */\n              dup3\n                /* \"#utility.yul\":12064:12118   */\n              and\n                /* \"#utility.yul\":12053:12118   */\n              swap1\n              pop\n                /* \"#utility.yul\":11998:12124   */\n              swap2\n              swap1\n              pop\n              jump\t// out\n                /* \"#utility.yul\":12130:12207   */\n            tag_251:\n                /* \"#utility.yul\":12167:12174   */\n              0x00\n                /* \"#utility.yul\":12196:12201   */\n              dup2\n                /* \"#utility.yul\":12185:12201   */\n              swap1\n              pop\n                /* \"#utility.yul\":12130:12207   */\n              swap2\n              swap1\n              pop\n              jump\t// out\n                /* \"#utility.yul\":12213:12520   */\n            tag_210:\n                /* \"#utility.yul\":12281:12282   */\n              0x00\n                /* \"#utility.yul\":12291:12404   */\n            tag_301:\n                /* \"#utility.yul\":12305:12311   */\n              dup4\n                /* \"#utility.yul\":12302:12303   */\n              dup2\n                /* \"#utility.yul\":12299:12312   */\n              lt\n                /* \"#utility.yul\":12291:12404   */\n              iszero\n              tag_303\n              jumpi\n                /* \"#utility.yul\":12390:12391   */\n              dup1\n                /* \"#utility.yul\":12385:12388   */\n              dup3\n                /* \"#utility.yul\":12381:12392   */\n              add\n                /* \"#utility.yul\":12375:12393   */\n              mload\n                /* \"#utility.yul\":12371:12372   */\n              dup2\n                /* \"#utility.yul\":12366:12369   */\n              dup5\n                /* \"#utility.yul\":12362:12373   */\n              add\n                /* \"#utility.yul\":12355:12394   */\n              mstore\n                /* \"#utility.yul\":12327:12329   */\n              0x20\n                /* \"#utility.yul\":12324:12325   */\n              dup2\n                /* \"#utility.yul\":12320:12330   */\n              add\n                /* \"#utility.yul\":12315:12330   */\n              swap1\n              pop\n                /* \"#utility.yul\":12291:12404   */\n              jump(tag_301)\n            tag_303:\n                /* \"#utility.yul\":12422:12428   */\n              dup4\n                /* \"#utility.yul\":12419:12420   */\n              dup2\n                /* \"#utility.yul\":12416:12429   */\n              gt\n                /* \"#utility.yul\":12413:12514   */\n              iszero\n              tag_304\n              jumpi\n                /* \"#utility.yul\":12502:12503   */\n              0x00\n                /* \"#utility.yul\":12493:12499   */\n              dup5\n                /* \"#utility.yul\":12488:12491   */\n              dup5\n                /* \"#utility.yul\":12484:12500   */\n              add\n                /* \"#utility.yul\":12477:12504   */\n              mstore\n                /* \"#utility.yul\":12413:12514   */\n            tag_304:\n                /* \"#utility.yul\":12262:12520   */\n              pop\n                /* \"#utility.yul\":12213:12520   */\n              pop\n              pop\n              pop\n              jump\t// out\n                /* \"#utility.yul\":12526:12697   */\n            tag_123:\n                /* \"#utility.yul\":12565:12568   */\n              0x00\n                /* \"#utility.yul\":12588:12612   */\n              tag_306\n                /* \"#utility.yul\":12606:12611   */\n              dup3\n                /* \"#utility.yul\":12588:12612   */\n              tag_251\n              jump\t// in\n            tag_306:\n                /* \"#utility.yul\":12579:12612   */\n              swap2\n              pop\n                /* \"#utility.yul\":12634:12638   */\n              0x00\n                /* \"#utility.yul\":12627:12632   */\n              dup3\n                /* \"#utility.yul\":12624:12639   */\n              eq\n                /* \"#utility.yul\":12621:12662   */\n              iszero\n              tag_307\n              jumpi\n                /* \"#utility.yul\":12642:12660   */\n              tag_308\n              tag_309\n              jump\t// in\n            tag_308:\n                /* \"#utility.yul\":12621:12662   */\n            tag_307:\n                /* \"#utility.yul\":12689:12690   */\n              0x01\n                /* \"#utility.yul\":12682:12687   */\n              dup3\n                /* \"#utility.yul\":12678:12691   */\n              sub\n                /* \"#utility.yul\":12671:12691   */\n              swap1\n              pop\n                /* \"#utility.yul\":12526:12697   */\n              swap2\n              swap1\n              pop\n              jump\t// out\n                /* \"#utility.yul\":12703:13023   */\n            tag_97:\n                /* \"#utility.yul\":12747:12753   */\n              0x00\n                /* \"#utility.yul\":12784:12785   */\n              0x02\n                /* \"#utility.yul\":12778:12782   */\n              dup3\n                /* \"#utility.yul\":12774:12786   */\n              div\n                /* \"#utility.yul\":12764:12786   */\n              swap1\n              pop\n                /* \"#utility.yul\":12831:12832   */\n              0x01\n                /* \"#utility.yul\":12825:12829   */\n              dup3\n                /* \"#utility.yul\":12821:12833   */\n              and\n                /* \"#utility.yul\":12852:12870   */\n              dup1\n                /* \"#utility.yul\":12842:12923   */\n              tag_311\n              jumpi\n                /* \"#utility.yul\":12908:12912   */\n              0x7f\n                /* \"#utility.yul\":12900:12906   */\n              dup3\n                /* \"#utility.yul\":12896:12913   */\n              and\n                /* \"#utility.yul\":12886:12913   */\n              swap2\n              pop\n                /* \"#utility.yul\":12842:12923   */\n            tag_311:\n                /* \"#utility.yul\":12970:12972   */\n              0x20\n                /* \"#utility.yul\":12962:12968   */\n              dup3\n                /* \"#utility.yul\":12959:12973   */\n              lt\n                /* \"#utility.yul\":12939:12957   */\n              dup2\n                /* \"#utility.yul\":12936:12974   */\n              eq\n                /* \"#utility.yul\":12933:13017   */\n              iszero\n              tag_312\n              jumpi\n                /* \"#utility.yul\":12989:13007   */\n              tag_313\n              tag_314\n              jump\t// in\n            tag_313:\n                /* \"#utility.yul\":12933:13017   */\n            tag_312:\n                /* \"#utility.yul\":12754:13023   */\n              pop\n                /* \"#utility.yul\":12703:13023   */\n              swap2\n              swap1\n              pop\n              jump\t// out\n                /* \"#utility.yul\":13029:13262   */\n            tag_107:\n                /* \"#utility.yul\":13068:13071   */\n              0x00\n                /* \"#utility.yul\":13091:13115   */\n              tag_316\n                /* \"#utility.yul\":13109:13114   */\n              dup3\n                /* \"#utility.yul\":13091:13115   */\n              tag_251\n              jump\t// in\n            tag_316:\n                /* \"#utility.yul\":13082:13115   */\n              swap2\n              pop\n                /* \"#utility.yul\":13137:13203   */\n              0xffffffffffffffffffffffffffffffffffffffffffffffffffffffffffffffff\n                /* \"#utility.yul\":13130:13135   */\n              dup3\n                /* \"#utility.yul\":13127:13204   */\n              eq\n                /* \"#utility.yul\":13124:13227   */\n              iszero\n              tag_317\n              jumpi\n                /* \"#utility.yul\":13207:13225   */\n              tag_318\n              tag_309\n              jump\t// in\n            tag_318:\n                /* \"#utility.yul\":13124:13227   */\n            tag_317:\n                /* \"#utility.yul\":13254:13255   */\n              0x01\n                /* \"#utility.yul\":13247:13252   */\n              dup3\n                /* \"#utility.yul\":13243:13256   */\n              add\n                /* \"#utility.yul\":13236:13256   */\n              swap1\n              pop\n                /* \"#utility.yul\":13029:13262   */\n              swap2\n              swap1\n              pop\n              jump\t// out\n                /* \"#utility.yul\":13268:13448   */\n            tag_309:\n                /* \"#utility.yul\":13316:13393   */\n              0x4e487b7100000000000000000000000000000000000000000000000000000000\n                /* \"#utility.yul\":13313:13314   */\n              0x00\n                /* \"#utility.yul\":13306:13394   */\n              mstore\n                /* \"#utility.yul\":13413:13417   */\n              0x11\n                /* \"#utility.yul\":13410:13411   */\n              0x04\n                /* \"#utility.yul\":13403:13418   */\n              mstore\n                /* \"#utility.yul\":13437:13441   */\n              0x24\n                /* \"#utility.yul\":13434:13435   */\n              0x00\n                /* \"#utility.yul\":13427:13442   */\n              revert\n                /* \"#utility.yul\":13454:13634   */\n            tag_293:\n                /* \"#utility.yul\":13502:13579   */\n              0x4e487b7100000000000000000000000000000000000000000000000000000000\n                /* \"#utility.yul\":13499:13500   */\n              0x00\n                /* \"#utility.yul\":13492:13580   */\n              mstore\n                /* \"#utility.yul\":13599:13603   */\n              0x12\n                /* \"#utility.yul\":13596:13597   */\n              0x04\n                /* \"#utility.yul\":13589:13604   */\n              mstore\n                /* \"#utility.yul\":13623:13627   */\n              0x24\n                /* \"#utility.yul\":13620:13621   */\n              0x00\n                /* \"#utility.yul\":13613:13628   */\n              revert\n                /* \"#utility.yul\":13640:13820   */\n            tag_314:\n                /* \"#utility.yul\":13688:13765   */\n              0x4e487b7100000000000000000000000000000000000000000000000000000000\n                /* \"#utility.yul\":13685:13686   */\n              0x00\n                /* \"#utility.yul\":13678:13766   */\n              mstore\n                /* \"#utility.yul\":13785:13789   */\n              0x22\n                /* \"#utility.yul\":13782:13783   */\n              0x04\n                /* \"#utility.yul\":13775:13790   */\n              mstore\n                /* \"#utility.yul\":13809:13813   */\n              0x24\n                /* \"#utility.yul\":13806:13807   */\n              0x00\n                /* \"#utility.yul\":13799:13814   */\n              revert\n                /* \"#utility.yul\":13826:13943   */\n            tag_164:\n                /* \"#utility.yul\":13935:13936   */\n              0x00\n                /* \"#utility.yul\":13932:13933   */\n              dup1\n                /* \"#utility.yul\":13925:13937   */\n              revert\n                /* \"#utility.yul\":13949:14066   */\n            tag_161:\n                /* \"#utility.yul\":14058:14059   */\n              0x00\n                /* \"#utility.yul\":14055:14056   */\n              dup1\n                /* \"#utility.yul\":14048:14060   */\n              revert\n                /* \"#utility.yul\":14072:14189   */\n            tag_167:\n                /* \"#utility.yul\":14181:14182   */\n              0x00\n                /* \"#utility.yul\":14178:14179   */\n              dup1\n                /* \"#utility.yul\":14171:14183   */\n              revert\n                /* \"#utility.yul\":14195:14312   */\n            tag_182:\n                /* \"#utility.yul\":14304:14305   */\n              0x00\n                /* \"#utility.yul\":14301:14302   */\n              dup1\n                /* \"#utility.yul\":14294:14306   */\n              revert\n                /* \"#utility.yul\":14318:14435   */\n            tag_175:\n                /* \"#utility.yul\":14427:14428   */\n              0x00\n                /* \"#utility.yul\":14424:14425   */\n              dup1\n                /* \"#utility.yul\":14417:14429   */\n              revert\n                /* \"#utility.yul\":14441:14543   */\n            tag_212:\n                /* \"#utility.yul\":14482:14488   */\n              0x00\n                /* \"#utility.yul\":14533:14535   */\n              0x1f\n                /* \"#utility.yul\":14529:14536   */\n              not\n                /* \"#utility.yul\":14524:14526   */\n              0x1f\n                /* \"#utility.yul\":14517:14522   */\n              dup4\n                /* \"#utility.yul\":14513:14527   */\n              add\n                /* \"#utility.yul\":14509:14537   */\n              and\n                /* \"#utility.yul\":14499:14537   */\n              swap1\n              pop\n                /* \"#utility.yul\":14441:14543   */\n              swap2\n              swap1\n              pop\n              jump\t// out\n                /* \"#utility.yul\":14549:14770   */\n            tag_217:\n                /* \"#utility.yul\":14689:14723   */\n              0x596f7520686176656e277420617070726f766564207468697320726571756573\n                /* \"#utility.yul\":14685:14686   */\n              0x00\n                /* \"#utility.yul\":14677:14683   */\n              dup3\n                /* \"#utility.yul\":14673:14687   */\n              add\n                /* \"#utility.yul\":14666:14724   */\n              mstore\n                /* \"#utility.yul\":14758:14762   */\n              0x742e000000000000000000000000000000000000000000000000000000000000\n                /* \"#utility.yul\":14753:14755   */\n              0x20\n                /* \"#utility.yul\":14745:14751   */\n              dup3\n                /* \"#utility.yul\":14741:14756   */\n              add\n                /* \"#utility.yul\":14734:14763   */\n              mstore\n                /* \"#utility.yul\":14549:14770   */\n              pop\n              jump\t// out\n                /* \"#utility.yul\":14776:15008   */\n            tag_222:\n                /* \"#utility.yul\":14916:14950   */\n              0x436f6e747269627574696f6e20616d6f756e74206973206c657373207468616e\n                /* \"#utility.yul\":14912:14913   */\n              0x00\n                /* \"#utility.yul\":14904:14910   */\n              dup3\n                /* \"#utility.yul\":14900:14914   */\n              add\n                /* \"#utility.yul\":14893:14951   */\n              mstore\n                /* \"#utility.yul\":14985:15000   */\n              0x20746865206d696e696d756d2e00000000000000000000000000000000000000\n                /* \"#utility.yul\":14980:14982   */\n              0x20\n                /* \"#utility.yul\":14972:14978   */\n              dup3\n                /* \"#utility.yul\":14968:14983   */\n              add\n                /* \"#utility.yul\":14961:15001   */\n              mstore\n                /* \"#utility.yul\":14776:15008   */\n              pop\n              jump\t// out\n                /* \"#utility.yul\":15014:15240   */\n            tag_227:\n                /* \"#utility.yul\":15154:15188   */\n              0x596f75206861766520616c726561647920617070726f76656420746869732072\n                /* \"#utility.yul\":15150:15151   */\n              0x00\n                /* \"#utility.yul\":15142:15148   */\n              dup3\n                /* \"#utility.yul\":15138:15152   */\n              add\n                /* \"#utility.yul\":15131:15189   */\n              mstore\n                /* \"#utility.yul\":15223:15232   */\n              0x6571756573742e00000000000000000000000000000000000000000000000000\n                /* \"#utility.yul\":15218:15220   */\n              0x20\n                /* \"#utility.yul\":15210:15216   */\n              dup3\n                /* \"#utility.yul\":15206:15221   */\n              add\n                /* \"#utility.yul\":15199:15233   */\n              mstore\n                /* \"#utility.yul\":15014:15240   */\n              pop\n              jump\t// out\n                /* \"#utility.yul\":15246:15473   */\n            tag_232:\n                /* \"#utility.yul\":15386:15420   */\n              0x5468697320726571756573742068617320616c7265616479206265656e20636f\n                /* \"#utility.yul\":15382:15383   */\n              0x00\n                /* \"#utility.yul\":15374:15380   */\n              dup3\n                /* \"#utility.yul\":15370:15384   */\n              add\n                /* \"#utility.yul\":15363:15421   */\n              mstore\n                /* \"#utility.yul\":15455:15465   */\n              0x6d706c657465642e000000000000000000000000000000000000000000000000\n                /* \"#utility.yul\":15450:15452   */\n              0x20\n                /* \"#utility.yul\":15442:15448   */\n              dup3\n                /* \"#utility.yul\":15438:15453   */\n              add\n                /* \"#utility.yul\":15431:15466   */\n              mstore\n                /* \"#utility.yul\":15246:15473   */\n              pop\n              jump\t// out\n                /* \"#utility.yul\":15479:15705   */\n            tag_237:\n                /* \"#utility.yul\":15619:15653   */\n              0x4f6e6c7920636f6e7472696275746f72732063616e20617070726f7665207265\n                /* \"#utility.yul\":15615:15616   */\n              0x00\n                /* \"#utility.yul\":15607:15613   */\n              dup3\n                /* \"#utility.yul\":15603:15617   */\n              add\n                /* \"#utility.yul\":15596:15654   */\n              mstore\n                /* \"#utility.yul\":15688:15697   */\n              0x7175657374732e00000000000000000000000000000000000000000000000000\n                /* \"#utility.yul\":15683:15685   */\n              0x20\n                /* \"#utility.yul\":15675:15681   */\n              dup3\n                /* \"#utility.yul\":15671:15686   */\n              add\n                /* \"#utility.yul\":15664:15698   */\n              mstore\n                /* \"#utility.yul\":15479:15705   */\n              pop\n              jump\t// out\n                /* \"#utility.yul\":15711:15937   */\n            tag_242:\n                /* \"#utility.yul\":15851:15885   */\n              0x4f6e6c79206d616e616765722063616e206d616b652074686973207472616e73\n                /* \"#utility.yul\":15847:15848   */\n              0x00\n                /* \"#utility.yul\":15839:15845   */\n              dup3\n                /* \"#utility.yul\":15835:15849   */\n              add\n                /* \"#utility.yul\":15828:15886   */\n              mstore\n                /* \"#utility.yul\":15920:15929   */\n              0x616374696f6e2e00000000000000000000000000000000000000000000000000\n                /* \"#utility.yul\":15915:15917   */\n              0x20\n                /* \"#utility.yul\":15907:15913   */\n              dup3\n                /* \"#utility.yul\":15903:15918   */\n              add\n                /* \"#utility.yul\":15896:15930   */\n              mstore\n                /* \"#utility.yul\":15711:15937   */\n              pop\n              jump\t// out\n                /* \"#utility.yul\":15943:16181   */\n            tag_247:\n                /* \"#utility.yul\":16083:16117   */\n              0x54686973207265717565737420686173206e6f74207965742072656163686564\n                /* \"#utility.yul\":16079:16080   */\n              0x00\n                /* \"#utility.yul\":16071:16077   */\n              dup3\n                /* \"#utility.yul\":16067:16081   */\n              add\n                /* \"#utility.yul\":16060:16118   */\n              mstore\n                /* \"#utility.yul\":16152:16173   */\n              0x207265717569726564206d616a6f726974792e00000000000000000000000000\n                /* \"#utility.yul\":16147:16149   */\n              0x20\n                /* \"#utility.yul\":16139:16145   */\n              dup3\n                /* \"#utility.yul\":16135:16150   */\n              add\n                /* \"#utility.yul\":16128:16174   */\n              mstore\n                /* \"#utility.yul\":15943:16181   */\n              pop\n              jump\t// out\n                /* \"#utility.yul\":16187:16309   */\n            tag_156:\n                /* \"#utility.yul\":16260:16284   */\n              tag_336\n                /* \"#utility.yul\":16278:16283   */\n              dup2\n                /* \"#utility.yul\":16260:16284   */\n              tag_198\n              jump\t// in\n            tag_336:\n                /* \"#utility.yul\":16253:16258   */\n              dup2\n                /* \"#utility.yul\":16250:16285   */\n              eq\n                /* \"#utility.yul\":16240:16303   */\n              tag_337\n              jumpi\n                /* \"#utility.yul\":16299:16300   */\n              0x00\n                /* \"#utility.yul\":16296:16297   */\n              dup1\n                /* \"#utility.yul\":16289:16301   */\n              revert\n                /* \"#utility.yul\":16240:16303   */\n            tag_337:\n                /* \"#utility.yul\":16187:16309   */\n              pop\n              jump\t// out\n                /* \"#utility.yul\":16315:16437   */\n            tag_171:\n                /* \"#utility.yul\":16388:16412   */\n              tag_339\n                /* \"#utility.yul\":16406:16411   */\n              dup2\n                /* \"#utility.yul\":16388:16412   */\n              tag_251\n              jump\t// in\n            tag_339:\n                /* \"#utility.yul\":16381:16386   */\n              dup2\n                /* \"#utility.yul\":16378:16413   */\n              eq\n                /* \"#utility.yul\":16368:16431   */\n              tag_340\n              jumpi\n                /* \"#utility.yul\":16427:16428   */\n              0x00\n                /* \"#utility.yul\":16424:16425   */\n              dup1\n                /* \"#utility.yul\":16417:16429   */\n              revert\n                /* \"#utility.yul\":16368:16431   */\n            tag_340:\n                /* \"#utility.yul\":16315:16437   */\n              pop\n              jump\t// out\n\n            auxdata: 0xa26469706673582212206ec0ac23f5c1b3c5885efd6bf95531f1d8a6419dbca20458f50acdbb856c1b5764736f6c63430008070033\n        }\n    }\n\n    auxdata: 0xa2646970667358221220b7b7450e919779b9b4da9cd09bf79f99047943936728303b83fc92b044256f1a64736f6c63430008070033\n}\n","bytecode":{"linkReferences":{},"object":"608060405234801561001057600080fd5b50611d48806100206000396000f3fe6080604052600436106100295760003560e01c8063a3303a751461002e578063a6b036331461004a575b600080fd5b610048600480360381019061004391906101c6565b610075565b005b34801561005657600080fd5b5061005f610116565b60405161006c91906102bf565b60405180910390f35b60003382604051610085906101a4565b610090929190610296565b604051809103906000f0801580156100ac573d6000803e3d6000fd5b5090506000819080600181540180825580915050600190039060005260206000200160009091909190916101000a81548173ffffffffffffffffffffffffffffffffffffffff021916908373ffffffffffffffffffffffffffffffffffffffff1602179055505050565b6060600080548060200260200160405190810160405280929190818152602001828054801561019a57602002820191906000526020600020905b8160009054906101000a900473ffffffffffffffffffffffffffffffffffffffff1673ffffffffffffffffffffffffffffffffffffffff1681526020019060010190808311610150575b5050505050905090565b6119a08061037383390190565b6000813590506101c08161035b565b92915050565b6000602082840312156101dc576101db610356565b5b60006101ea848285016101b1565b91505092915050565b60006101ff838361020b565b60208301905092915050565b6102148161031a565b82525050565b6102238161031a565b82525050565b6000610234826102f1565b61023e8185610309565b9350610249836102e1565b8060005b8381101561027a57815161026188826101f3565b975061026c836102fc565b92505060018101905061024d565b5085935050505092915050565b6102908161034c565b82525050565b60006040820190506102ab600083018561021a565b6102b86020830184610287565b9392505050565b600060208201905081810360008301526102d98184610229565b905092915050565b6000819050602082019050919050565b600081519050919050565b6000602082019050919050565b600082825260208201905092915050565b60006103258261032c565b9050919050565b600073ffffffffffffffffffffffffffffffffffffffff82169050919050565b6000819050919050565b600080fd5b6103648161034c565b811461036f57600080fd5b5056fe60806040523480156200001157600080fd5b50604051620019a0380380620019a08339818101604052810190620000379190620000c4565b816000806101000a81548173ffffffffffffffffffffffffffffffffffffffff021916908373ffffffffffffffffffffffffffffffffffffffff1602179055508060018190555060006002819055506000600581905550505062000182565b600081519050620000a7816200014e565b92915050565b600081519050620000be8162000168565b92915050565b60008060408385031215620000de57620000dd62000149565b5b6000620000ee8582860162000096565b92505060206200010185828601620000ad565b9150509250929050565b600062000118826200011f565b9050919050565b600073ffffffffffffffffffffffffffffffffffffffff82169050919050565b6000819050919050565b600080fd5b62000159816200010b565b81146200016557600080fd5b50565b62000173816200013f565b81146200017f57600080fd5b50565b61180e80620001926000396000f3fe6080604052600436106100c25760003560e01c806381d12c581161007f578063b1e130fc11610059578063b1e130fc14610272578063c3759eb81461029b578063d7bb99ba146102d8578063d7d1bbdb146102e2576100c2565b806381d12c58146101dd5780638a9cfd551461021e578063937e09b114610247576100c2565b806303441006146100c75780630a144391146100f0578063128e9be61461012d578063481c6a75146101585780635badbe4c146101835780637606f781146101ae575b600080fd5b3480156100d357600080fd5b506100ee60048036038101906100e99190610fb7565b61030b565b005b3480156100fc57600080fd5b5061011760048036038101906101129190610f16565b6104f9565b604051610124919061119a565b60405180910390f35b34801561013957600080fd5b50610142610519565b60405161014f91906112ef565b60405180910390f35b34801561016457600080fd5b5061016d61051f565b60405161017a919061117f565b60405180910390f35b34801561018f57600080fd5b50610198610543565b6040516101a591906112ef565b60405180910390f35b3480156101ba57600080fd5b506101c3610549565b6040516101d495949392919061130a565b60405180910390f35b3480156101e957600080fd5b5061020460048036038101906101ff9190610fb7565b61058d565b6040516102159594939291906111b5565b60405180910390f35b34801561022a57600080fd5b5061024560048036038101906102409190610f43565b610678565b005b34801561025357600080fd5b5061025c6107c1565b60405161026991906112ef565b60405180910390f35b34801561027e57600080fd5b5061029960048036038101906102949190610fb7565b6107c7565b005b3480156102a757600080fd5b506102c260048036038101906102bd9190610fe4565b610a68565b6040516102cf919061119a565b60405180910390f35b6102e0610ad3565b005b3480156102ee57600080fd5b5061030960048036038101906103049190610fb7565b610be3565b005b60008054906101000a900473ffffffffffffffffffffffffffffffffffffffff1673ffffffffffffffffffffffffffffffffffffffff163373ffffffffffffffffffffffffffffffffffffffff1614610399576040517f08c379a0000000000000000000000000000000000000000000000000000000008152600401610390906112af565b60405180910390fd5b806004600082815260200190815260200160002060020160149054906101000a900460ff16156103fe576040517f08c379a00000000000000000000000000000000000000000000000000000000081526004016103f59061126f565b60405180910390fd5b6000600460008481526020019081526020016000209050600280546104239190611379565b816003015411610468576040517f08c379a000000000000000000000000000000000000000000000000000000000815260040161045f906112cf565b60405180910390fd5b60018160020160146101000a81548160ff0219169083151502179055508060020160009054906101000a900473ffffffffffffffffffffffffffffffffffffffff1673ffffffffffffffffffffffffffffffffffffffff166108fc82600101549081150290604051600060405180830381858888f193505050501580156104f3573d6000803e3d6000fd5b50505050565b60036020528060005260406000206000915054906101000a900460ff1681565b60025481565b60008054906101000a900473ffffffffffffffffffffffffffffffffffffffff1681565b60055481565b60008060008060006001544760055460025460008054906101000a900473ffffffffffffffffffffffffffffffffffffffff16945094509450945094509091929394565b60046020528060005260406000206000915090508060000180546105b09061144f565b80601f01602080910402602001604051908101604052809291908181526020018280546105dc9061144f565b80156106295780601f106105fe57610100808354040283529160200191610629565b820191906000526020600020905b81548152906001019060200180831161060c57829003601f168201915b5050505050908060010154908060020160009054906101000a900473ffffffffffffffffffffffffffffffffffffffff16908060020160149054906101000a900460ff16908060030154905085565b60008054906101000a900473ffffffffffffffffffffffffffffffffffffffff1673ffffffffffffffffffffffffffffffffffffffff163373ffffffffffffffffffffffffffffffffffffffff1614610706576040517f08c379a00000000000000000000000000000000000000000000000000000000081526004016106fd906112af565b60405180910390fd5b6000600460006005600081548092919061071f90611481565b91905055815260200190815260200160002090508484826000019190610746929190610df3565b50828160010181905550818160020160006101000a81548173ffffffffffffffffffffffffffffffffffffffff021916908373ffffffffffffffffffffffffffffffffffffffff16021790555060008160020160146101000a81548160ff021916908315150217905550600081600301819055505050505050565b60015481565b600360003373ffffffffffffffffffffffffffffffffffffffff1673ffffffffffffffffffffffffffffffffffffffff16815260200190815260200160002060009054906101000a900460ff16610853576040517f08c379a000000000000000000000000000000000000000000000000000000000815260040161084a9061128f565b60405180910390fd5b806004600082815260200190815260200160002060020160149054906101000a900460ff16156108b8576040517f08c379a00000000000000000000000000000000000000000000000000000000081526004016108af9061126f565b60405180910390fd5b60006004600084815260200190815260200160002090508060040160003373ffffffffffffffffffffffffffffffffffffffff1673ffffffffffffffffffffffffffffffffffffffff16815260200190815260200160002060009054906101000a900460ff1661095d576040517f08c379a00000000000000000000000000000000000000000000000000000000081526004016109549061120f565b60405180910390fd5b600115156004600085815260200190815260200160002060040160003373ffffffffffffffffffffffffffffffffffffffff1673ffffffffffffffffffffffffffffffffffffffff16815260200190815260200160002060009054906101000a900460ff1615151415610a635760006004600085815260200190815260200160002060040160003373ffffffffffffffffffffffffffffffffffffffff1673ffffffffffffffffffffffffffffffffffffffff16815260200190815260200160002060006101000a81548160ff021916908315150217905550600460008481526020019081526020016000206003016000815480929190610a5d90611425565b91905055505b505050565b60006004600084815260200190815260200160002060040160008373ffffffffffffffffffffffffffffffffffffffff1673ffffffffffffffffffffffffffffffffffffffff16815260200190815260200160002060009054906101000a900460ff16905092915050565b600154341015610b18576040517f08c379a0000000000000000000000000000000000000000000000000000000008152600401610b0f9061122f565b60405180910390fd5b60011515600360003373ffffffffffffffffffffffffffffffffffffffff1673ffffffffffffffffffffffffffffffffffffffff16815260200190815260200160002060009054906101000a900460ff16151514610be1576001600360003373ffffffffffffffffffffffffffffffffffffffff1673ffffffffffffffffffffffffffffffffffffffff16815260200190815260200160002060006101000a81548160ff02191690831515021790555060026000815480929190610bdb90611481565b91905055505b565b600360003373ffffffffffffffffffffffffffffffffffffffff1673ffffffffffffffffffffffffffffffffffffffff16815260200190815260200160002060009054906101000a900460ff16610c6f576040517f08c379a0000000000000000000000000000000000000000000000000000000008152600401610c669061128f565b60405180910390fd5b806004600082815260200190815260200160002060020160149054906101000a900460ff1615610cd4576040517f08c379a0000000000000000000000000000000000000000000000000000000008152600401610ccb9061126f565b60405180910390fd5b60006004600084815260200190815260200160002090508060040160003373ffffffffffffffffffffffffffffffffffffffff1673ffffffffffffffffffffffffffffffffffffffff16815260200190815260200160002060009054906101000a900460ff1615610d7a576040517f08c379a0000000000000000000000000000000000000000000000000000000008152600401610d719061124f565b60405180910390fd5b60018160040160003373ffffffffffffffffffffffffffffffffffffffff1673ffffffffffffffffffffffffffffffffffffffff16815260200190815260200160002060006101000a81548160ff021916908315150217905550806003016000815480929190610de990611481565b9190505550505050565b828054610dff9061144f565b90600052602060002090601f016020900481019282610e215760008555610e68565b82601f10610e3a57803560ff1916838001178555610e68565b82800160010185558215610e68579182015b82811115610e67578235825591602001919060010190610e4c565b5b509050610e759190610e79565b5090565b5b80821115610e92576000816000905550600101610e7a565b5090565b600081359050610ea5816117aa565b92915050565b60008083601f840112610ec157610ec061155c565b5b8235905067ffffffffffffffff811115610ede57610edd611557565b5b602083019150836001820283011115610efa57610ef9611561565b5b9250929050565b600081359050610f10816117c1565b92915050565b600060208284031215610f2c57610f2b61156b565b5b6000610f3a84828501610e96565b91505092915050565b60008060008060608587031215610f5d57610f5c61156b565b5b600085013567ffffffffffffffff811115610f7b57610f7a611566565b5b610f8787828801610eab565b94509450506020610f9a87828801610f01565b9250506040610fab87828801610e96565b91505092959194509250565b600060208284031215610fcd57610fcc61156b565b5b6000610fdb84828501610f01565b91505092915050565b60008060408385031215610ffb57610ffa61156b565b5b600061100985828601610f01565b925050602061101a85828601610e96565b9150509250929050565b61102d816113aa565b82525050565b61103c816113bc565b82525050565b600061104d8261135d565b6110578185611368565b93506110678185602086016113f2565b61107081611570565b840191505092915050565b6000611088602283611368565b915061109382611581565b604082019050919050565b60006110ab602d83611368565b91506110b6826115d0565b604082019050919050565b60006110ce602783611368565b91506110d98261161f565b604082019050919050565b60006110f1602883611368565b91506110fc8261166e565b604082019050919050565b6000611114602783611368565b915061111f826116bd565b604082019050919050565b6000611137602783611368565b91506111428261170c565b604082019050919050565b600061115a603383611368565b91506111658261175b565b604082019050919050565b611179816113e8565b82525050565b60006020820190506111946000830184611024565b92915050565b60006020820190506111af6000830184611033565b92915050565b600060a08201905081810360008301526111cf8188611042565b90506111de6020830187611170565b6111eb6040830186611024565b6111f86060830185611033565b6112056080830184611170565b9695505050505050565b600060208201905081810360008301526112288161107b565b9050919050565b600060208201905081810360008301526112488161109e565b9050919050565b60006020820190508181036000830152611268816110c1565b9050919050565b60006020820190508181036000830152611288816110e4565b9050919050565b600060208201905081810360008301526112a881611107565b9050919050565b600060208201905081810360008301526112c88161112a565b9050919050565b600060208201905081810360008301526112e88161114d565b9050919050565b60006020820190506113046000830184611170565b92915050565b600060a08201905061131f6000830188611170565b61132c6020830187611170565b6113396040830186611170565b6113466060830185611170565b6113536080830184611024565b9695505050505050565b600081519050919050565b600082825260208201905092915050565b6000611384826113e8565b915061138f836113e8565b92508261139f5761139e6114f9565b5b828204905092915050565b60006113b5826113c8565b9050919050565b60008115159050919050565b600073ffffffffffffffffffffffffffffffffffffffff82169050919050565b6000819050919050565b60005b838110156114105780820151818401526020810190506113f5565b8381111561141f576000848401525b50505050565b6000611430826113e8565b91506000821415611444576114436114ca565b5b600182039050919050565b6000600282049050600182168061146757607f821691505b6020821081141561147b5761147a611528565b5b50919050565b600061148c826113e8565b91507fffffffffffffffffffffffffffffffffffffffffffffffffffffffffffffffff8214156114bf576114be6114ca565b5b600182019050919050565b7f4e487b7100000000000000000000000000000000000000000000000000000000600052601160045260246000fd5b7f4e487b7100000000000000000000000000000000000000000000000000000000600052601260045260246000fd5b7f4e487b7100000000000000000000000000000000000000000000000000000000600052602260045260246000fd5b600080fd5b600080fd5b600080fd5b600080fd5b600080fd5b6000601f19601f8301169050919050565b7f596f7520686176656e277420617070726f76656420746869732072657175657360008201527f742e000000000000000000000000000000000000000000000000000000000000602082015250565b7f436f6e747269627574696f6e20616d6f756e74206973206c657373207468616e60008201527f20746865206d696e696d756d2e00000000000000000000000000000000000000602082015250565b7f596f75206861766520616c726561647920617070726f7665642074686973207260008201527f6571756573742e00000000000000000000000000000000000000000000000000602082015250565b7f5468697320726571756573742068617320616c7265616479206265656e20636f60008201527f6d706c657465642e000000000000000000000000000000000000000000000000602082015250565b7f4f6e6c7920636f6e7472696275746f72732063616e20617070726f766520726560008201527f7175657374732e00000000000000000000000000000000000000000000000000602082015250565b7f4f6e6c79206d616e616765722063616e206d616b652074686973207472616e7360008201527f616374696f6e2e00000000000000000000000000000000000000000000000000602082015250565b7f54686973207265717565737420686173206e6f7420796574207265616368656460008201527f207265717569726564206d616a6f726974792e00000000000000000000000000602082015250565b6117b3816113aa565b81146117be57600080fd5b50565b6117ca816113e8565b81146117d557600080fd5b5056fea26469706673582212206ec0ac23f5c1b3c5885efd6bf95531f1d8a6419dbca20458f50acdbb856c1b5764736f6c63430008070033a2646970667358221220b7b7450e919779b9b4da9cd09bf79f99047943936728303b83fc92b044256f1a64736f6c63430008070033","opcodes":"PUSH1 0x80 PUSH1 0x40 MSTORE CALLVALUE DUP1 ISZERO PUSH2 0x10 JUMPI PUSH1 0x0 DUP1 REVERT JUMPDEST POP PUSH2 0x1D48 DUP1 PUSH2 0x20 PUSH1 0x0 CODECOPY PUSH1 0x0 RETURN INVALID PUSH1 0x80 PUSH1 0x40 MSTORE PUSH1 0x4 CALLDATASIZE LT PUSH2 0x29 JUMPI PUSH1 0x0 CALLDATALOAD PUSH1 0xE0 SHR DUP1 PUSH4 0xA3303A75 EQ PUSH2 0x2E JUMPI DUP1 PUSH4 0xA6B03633 EQ PUSH2 0x4A JUMPI JUMPDEST PUSH1 0x0 DUP1 REVERT JUMPDEST PUSH2 0x48 PUSH1 0x4 DUP1 CALLDATASIZE SUB DUP2 ADD SWAP1 PUSH2 0x43 SWAP2 SWAP1 PUSH2 0x1C6 JUMP JUMPDEST PUSH2 0x75 JUMP JUMPDEST STOP JUMPDEST CALLVALUE DUP1 ISZERO PUSH2 0x56 JUMPI PUSH1 0x0 DUP1 REVERT JUMPDEST POP PUSH2 0x5F PUSH2 0x116 JUMP JUMPDEST PUSH1 0x40 MLOAD PUSH2 0x6C SWAP2 SWAP1 PUSH2 0x2BF JUMP JUMPDEST PUSH1 0x40 MLOAD DUP1 SWAP2 SUB SWAP1 RETURN JUMPDEST PUSH1 0x0 CALLER DUP3 PUSH1 0x40 MLOAD PUSH2 0x85 SWAP1 PUSH2 0x1A4 JUMP JUMPDEST PUSH2 0x90 SWAP3 SWAP2 SWAP1 PUSH2 0x296 JUMP JUMPDEST PUSH1 0x40 MLOAD DUP1 SWAP2 SUB SWAP1 PUSH1 0x0 CREATE DUP1 ISZERO DUP1 ISZERO PUSH2 0xAC JUMPI RETURNDATASIZE PUSH1 0x0 DUP1 RETURNDATACOPY RETURNDATASIZE PUSH1 0x0 REVERT JUMPDEST POP SWAP1 POP PUSH1 0x0 DUP2 SWAP1 DUP1 PUSH1 0x1 DUP2 SLOAD ADD DUP1 DUP3 SSTORE DUP1 SWAP2 POP POP PUSH1 0x1 SWAP1 SUB SWAP1 PUSH1 0x0 MSTORE PUSH1 0x20 PUSH1 0x0 KECCAK256 ADD PUSH1 0x0 SWAP1 SWAP2 SWAP1 SWAP2 SWAP1 SWAP2 PUSH2 0x100 EXP DUP2 SLOAD DUP2 PUSH20 0xFFFFFFFFFFFFFFFFFFFFFFFFFFFFFFFFFFFFFFFF MUL NOT AND SWAP1 DUP4 PUSH20 0xFFFFFFFFFFFFFFFFFFFFFFFFFFFFFFFFFFFFFFFF AND MUL OR SWAP1 SSTORE POP POP POP JUMP JUMPDEST PUSH1 0x60 PUSH1 0x0 DUP1 SLOAD DUP1 PUSH1 0x20 MUL PUSH1 0x20 ADD PUSH1 0x40 MLOAD SWAP1 DUP2 ADD PUSH1 0x40 MSTORE DUP1 SWAP3 SWAP2 SWAP1 DUP2 DUP2 MSTORE PUSH1 0x20 ADD DUP3 DUP1 SLOAD DUP1 ISZERO PUSH2 0x19A JUMPI PUSH1 0x20 MUL DUP3 ADD SWAP2 SWAP1 PUSH1 0x0 MSTORE PUSH1 0x20 PUSH1 0x0 KECCAK256 SWAP1 JUMPDEST DUP2 PUSH1 0x0 SWAP1 SLOAD SWAP1 PUSH2 0x100 EXP SWAP1 DIV PUSH20 0xFFFFFFFFFFFFFFFFFFFFFFFFFFFFFFFFFFFFFFFF AND PUSH20 0xFFFFFFFFFFFFFFFFFFFFFFFFFFFFFFFFFFFFFFFF AND DUP2 MSTORE PUSH1 0x20 ADD SWAP1 PUSH1 0x1 ADD SWAP1 DUP1 DUP4 GT PUSH2 0x150 JUMPI JUMPDEST POP POP POP POP POP SWAP1 POP SWAP1 JUMP JUMPDEST PUSH2 0x19A0 DUP1 PUSH2 0x373 DUP4 CODECOPY ADD SWAP1 JUMP JUMPDEST PUSH1 0x0 DUP2 CALLDATALOAD SWAP1 POP PUSH2 0x1C0 DUP2 PUSH2 0x35B JUMP JUMPDEST SWAP3 SWAP2 POP POP JUMP JUMPDEST PUSH1 0x0 PUSH1 0x20 DUP3 DUP5 SUB SLT ISZERO PUSH2 0x1DC JUMPI PUSH2 0x1DB PUSH2 0x356 JUMP JUMPDEST JUMPDEST PUSH1 0x0 PUSH2 0x1EA DUP5 DUP3 DUP6 ADD PUSH2 0x1B1 JUMP JUMPDEST SWAP2 POP POP SWAP3 SWAP2 POP POP JUMP JUMPDEST PUSH1 0x0 PUSH2 0x1FF DUP4 DUP4 PUSH2 0x20B JUMP JUMPDEST PUSH1 0x20 DUP4 ADD SWAP1 POP SWAP3 SWAP2 POP POP JUMP JUMPDEST PUSH2 0x214 DUP2 PUSH2 0x31A JUMP JUMPDEST DUP3 MSTORE POP POP JUMP JUMPDEST PUSH2 0x223 DUP2 PUSH2 0x31A JUMP JUMPDEST DUP3 MSTORE POP POP JUMP JUMPDEST PUSH1 0x0 PUSH2 0x234 DUP3 PUSH2 0x2F1 JUMP JUMPDEST PUSH2 0x23E DUP2 DUP6 PUSH2 0x309 JUMP JUMPDEST SWAP4 POP PUSH2 0x249 DUP4 PUSH2 0x2E1 JUMP JUMPDEST DUP1 PUSH1 0x0 JUMPDEST DUP4 DUP2 LT ISZERO PUSH2 0x27A JUMPI DUP2 MLOAD PUSH2 0x261 DUP9 DUP3 PUSH2 0x1F3 JUMP JUMPDEST SWAP8 POP PUSH2 0x26C DUP4 PUSH2 0x2FC JUMP JUMPDEST SWAP3 POP POP PUSH1 0x1 DUP2 ADD SWAP1 POP PUSH2 0x24D JUMP JUMPDEST POP DUP6 SWAP4 POP POP POP POP SWAP3 SWAP2 POP POP JUMP JUMPDEST PUSH2 0x290 DUP2 PUSH2 0x34C JUMP JUMPDEST DUP3 MSTORE POP POP JUMP JUMPDEST PUSH1 0x0 PUSH1 0x40 DUP3 ADD SWAP1 POP PUSH2 0x2AB PUSH1 0x0 DUP4 ADD DUP6 PUSH2 0x21A JUMP JUMPDEST PUSH2 0x2B8 PUSH1 0x20 DUP4 ADD DUP5 PUSH2 0x287 JUMP JUMPDEST SWAP4 SWAP3 POP POP POP JUMP JUMPDEST PUSH1 0x0 PUSH1 0x20 DUP3 ADD SWAP1 POP DUP2 DUP2 SUB PUSH1 0x0 DUP4 ADD MSTORE PUSH2 0x2D9 DUP2 DUP5 PUSH2 0x229 JUMP JUMPDEST SWAP1 POP SWAP3 SWAP2 POP POP JUMP JUMPDEST PUSH1 0x0 DUP2 SWAP1 POP PUSH1 0x20 DUP3 ADD SWAP1 POP SWAP2 SWAP1 POP JUMP JUMPDEST PUSH1 0x0 DUP2 MLOAD SWAP1 POP SWAP2 SWAP1 POP JUMP JUMPDEST PUSH1 0x0 PUSH1 0x20 DUP3 ADD SWAP1 POP SWAP2 SWAP1 POP JUMP JUMPDEST PUSH1 0x0 DUP3 DUP3 MSTORE PUSH1 0x20 DUP3 ADD SWAP1 POP SWAP3 SWAP2 POP POP JUMP JUMPDEST PUSH1 0x0 PUSH2 0x325 DUP3 PUSH2 0x32C JUMP JUMPDEST SWAP1 POP SWAP2 SWAP1 POP JUMP JUMPDEST PUSH1 0x0 PUSH20 0xFFFFFFFFFFFFFFFFFFFFFFFFFFFFFFFFFFFFFFFF DUP3 AND SWAP1 POP SWAP2 SWAP1 POP JUMP JUMPDEST PUSH1 0x0 DUP2 SWAP1 POP SWAP2 SWAP1 POP JUMP JUMPDEST PUSH1 0x0 DUP1 REVERT JUMPDEST PUSH2 0x364 DUP2 PUSH2 0x34C JUMP JUMPDEST DUP2 EQ PUSH2 0x36F JUMPI PUSH1 0x0 DUP1 REVERT JUMPDEST POP JUMP INVALID PUSH1 0x80 PUSH1 0x40 MSTORE CALLVALUE DUP1 ISZERO PUSH3 0x11 JUMPI PUSH1 0x0 DUP1 REVERT JUMPDEST POP PUSH1 0x40 MLOAD PUSH3 0x19A0 CODESIZE SUB DUP1 PUSH3 0x19A0 DUP4 CODECOPY DUP2 DUP2 ADD PUSH1 0x40 MSTORE DUP2 ADD SWAP1 PUSH3 0x37 SWAP2 SWAP1 PUSH3 0xC4 JUMP JUMPDEST DUP2 PUSH1 0x0 DUP1 PUSH2 0x100 EXP DUP2 SLOAD DUP2 PUSH20 0xFFFFFFFFFFFFFFFFFFFFFFFFFFFFFFFFFFFFFFFF MUL NOT AND SWAP1 DUP4 PUSH20 0xFFFFFFFFFFFFFFFFFFFFFFFFFFFFFFFFFFFFFFFF AND MUL OR SWAP1 SSTORE POP DUP1 PUSH1 0x1 DUP2 SWAP1 SSTORE POP PUSH1 0x0 PUSH1 0x2 DUP2 SWAP1 SSTORE POP PUSH1 0x0 PUSH1 0x5 DUP2 SWAP1 SSTORE POP POP POP PUSH3 0x182 JUMP JUMPDEST PUSH1 0x0 DUP2 MLOAD SWAP1 POP PUSH3 0xA7 DUP2 PUSH3 0x14E JUMP JUMPDEST SWAP3 SWAP2 POP POP JUMP JUMPDEST PUSH1 0x0 DUP2 MLOAD SWAP1 POP PUSH3 0xBE DUP2 PUSH3 0x168 JUMP JUMPDEST SWAP3 SWAP2 POP POP JUMP JUMPDEST PUSH1 0x0 DUP1 PUSH1 0x40 DUP4 DUP6 SUB SLT ISZERO PUSH3 0xDE JUMPI PUSH3 0xDD PUSH3 0x149 JUMP JUMPDEST JUMPDEST PUSH1 0x0 PUSH3 0xEE DUP6 DUP3 DUP7 ADD PUSH3 0x96 JUMP JUMPDEST SWAP3 POP POP PUSH1 0x20 PUSH3 0x101 DUP6 DUP3 DUP7 ADD PUSH3 0xAD JUMP JUMPDEST SWAP2 POP POP SWAP3 POP SWAP3 SWAP1 POP JUMP JUMPDEST PUSH1 0x0 PUSH3 0x118 DUP3 PUSH3 0x11F JUMP JUMPDEST SWAP1 POP SWAP2 SWAP1 POP JUMP JUMPDEST PUSH1 0x0 PUSH20 0xFFFFFFFFFFFFFFFFFFFFFFFFFFFFFFFFFFFFFFFF DUP3 AND SWAP1 POP SWAP2 SWAP1 POP JUMP JUMPDEST PUSH1 0x0 DUP2 SWAP1 POP SWAP2 SWAP1 POP JUMP JUMPDEST PUSH1 0x0 DUP1 REVERT JUMPDEST PUSH3 0x159 DUP2 PUSH3 0x10B JUMP JUMPDEST DUP2 EQ PUSH3 0x165 JUMPI PUSH1 0x0 DUP1 REVERT JUMPDEST POP JUMP JUMPDEST PUSH3 0x173 DUP2 PUSH3 0x13F JUMP JUMPDEST DUP2 EQ PUSH3 0x17F JUMPI PUSH1 0x0 DUP1 REVERT JUMPDEST POP JUMP JUMPDEST PUSH2 0x180E DUP1 PUSH3 0x192 PUSH1 0x0 CODECOPY PUSH1 0x0 RETURN INVALID PUSH1 0x80 PUSH1 0x40 MSTORE PUSH1 0x4 CALLDATASIZE LT PUSH2 0xC2 JUMPI PUSH1 0x0 CALLDATALOAD PUSH1 0xE0 SHR DUP1 PUSH4 0x81D12C58 GT PUSH2 0x7F JUMPI DUP1 PUSH4 0xB1E130FC GT PUSH2 0x59 JUMPI DUP1 PUSH4 0xB1E130FC EQ PUSH2 0x272 JUMPI DUP1 PUSH4 0xC3759EB8 EQ PUSH2 0x29B JUMPI DUP1 PUSH4 0xD7BB99BA EQ PUSH2 0x2D8 JUMPI DUP1 PUSH4 0xD7D1BBDB EQ PUSH2 0x2E2 JUMPI PUSH2 0xC2 JUMP JUMPDEST DUP1 PUSH4 0x81D12C58 EQ PUSH2 0x1DD JUMPI DUP1 PUSH4 0x8A9CFD55 EQ PUSH2 0x21E JUMPI DUP1 PUSH4 0x937E09B1 EQ PUSH2 0x247 JUMPI PUSH2 0xC2 JUMP JUMPDEST DUP1 PUSH4 0x3441006 EQ PUSH2 0xC7 JUMPI DUP1 PUSH4 0xA144391 EQ PUSH2 0xF0 JUMPI DUP1 PUSH4 0x128E9BE6 EQ PUSH2 0x12D JUMPI DUP1 PUSH4 0x481C6A75 EQ PUSH2 0x158 JUMPI DUP1 PUSH4 0x5BADBE4C EQ PUSH2 0x183 JUMPI DUP1 PUSH4 0x7606F781 EQ PUSH2 0x1AE JUMPI JUMPDEST PUSH1 0x0 DUP1 REVERT JUMPDEST CALLVALUE DUP1 ISZERO PUSH2 0xD3 JUMPI PUSH1 0x0 DUP1 REVERT JUMPDEST POP PUSH2 0xEE PUSH1 0x4 DUP1 CALLDATASIZE SUB DUP2 ADD SWAP1 PUSH2 0xE9 SWAP2 SWAP1 PUSH2 0xFB7 JUMP JUMPDEST PUSH2 0x30B JUMP JUMPDEST STOP JUMPDEST CALLVALUE DUP1 ISZERO PUSH2 0xFC JUMPI PUSH1 0x0 DUP1 REVERT JUMPDEST POP PUSH2 0x117 PUSH1 0x4 DUP1 CALLDATASIZE SUB DUP2 ADD SWAP1 PUSH2 0x112 SWAP2 SWAP1 PUSH2 0xF16 JUMP JUMPDEST PUSH2 0x4F9 JUMP JUMPDEST PUSH1 0x40 MLOAD PUSH2 0x124 SWAP2 SWAP1 PUSH2 0x119A JUMP JUMPDEST PUSH1 0x40 MLOAD DUP1 SWAP2 SUB SWAP1 RETURN JUMPDEST CALLVALUE DUP1 ISZERO PUSH2 0x139 JUMPI PUSH1 0x0 DUP1 REVERT JUMPDEST POP PUSH2 0x142 PUSH2 0x519 JUMP JUMPDEST PUSH1 0x40 MLOAD PUSH2 0x14F SWAP2 SWAP1 PUSH2 0x12EF JUMP JUMPDEST PUSH1 0x40 MLOAD DUP1 SWAP2 SUB SWAP1 RETURN JUMPDEST CALLVALUE DUP1 ISZERO PUSH2 0x164 JUMPI PUSH1 0x0 DUP1 REVERT JUMPDEST POP PUSH2 0x16D PUSH2 0x51F JUMP JUMPDEST PUSH1 0x40 MLOAD PUSH2 0x17A SWAP2 SWAP1 PUSH2 0x117F JUMP JUMPDEST PUSH1 0x40 MLOAD DUP1 SWAP2 SUB SWAP1 RETURN JUMPDEST CALLVALUE DUP1 ISZERO PUSH2 0x18F JUMPI PUSH1 0x0 DUP1 REVERT JUMPDEST POP PUSH2 0x198 PUSH2 0x543 JUMP JUMPDEST PUSH1 0x40 MLOAD PUSH2 0x1A5 SWAP2 SWAP1 PUSH2 0x12EF JUMP JUMPDEST PUSH1 0x40 MLOAD DUP1 SWAP2 SUB SWAP1 RETURN JUMPDEST CALLVALUE DUP1 ISZERO PUSH2 0x1BA JUMPI PUSH1 0x0 DUP1 REVERT JUMPDEST POP PUSH2 0x1C3 PUSH2 0x549 JUMP JUMPDEST PUSH1 0x40 MLOAD PUSH2 0x1D4 SWAP6 SWAP5 SWAP4 SWAP3 SWAP2 SWAP1 PUSH2 0x130A JUMP JUMPDEST PUSH1 0x40 MLOAD DUP1 SWAP2 SUB SWAP1 RETURN JUMPDEST CALLVALUE DUP1 ISZERO PUSH2 0x1E9 JUMPI PUSH1 0x0 DUP1 REVERT JUMPDEST POP PUSH2 0x204 PUSH1 0x4 DUP1 CALLDATASIZE SUB DUP2 ADD SWAP1 PUSH2 0x1FF SWAP2 SWAP1 PUSH2 0xFB7 JUMP JUMPDEST PUSH2 0x58D JUMP JUMPDEST PUSH1 0x40 MLOAD PUSH2 0x215 SWAP6 SWAP5 SWAP4 SWAP3 SWAP2 SWAP1 PUSH2 0x11B5 JUMP JUMPDEST PUSH1 0x40 MLOAD DUP1 SWAP2 SUB SWAP1 RETURN JUMPDEST CALLVALUE DUP1 ISZERO PUSH2 0x22A JUMPI PUSH1 0x0 DUP1 REVERT JUMPDEST POP PUSH2 0x245 PUSH1 0x4 DUP1 CALLDATASIZE SUB DUP2 ADD SWAP1 PUSH2 0x240 SWAP2 SWAP1 PUSH2 0xF43 JUMP JUMPDEST PUSH2 0x678 JUMP JUMPDEST STOP JUMPDEST CALLVALUE DUP1 ISZERO PUSH2 0x253 JUMPI PUSH1 0x0 DUP1 REVERT JUMPDEST POP PUSH2 0x25C PUSH2 0x7C1 JUMP JUMPDEST PUSH1 0x40 MLOAD PUSH2 0x269 SWAP2 SWAP1 PUSH2 0x12EF JUMP JUMPDEST PUSH1 0x40 MLOAD DUP1 SWAP2 SUB SWAP1 RETURN JUMPDEST CALLVALUE DUP1 ISZERO PUSH2 0x27E JUMPI PUSH1 0x0 DUP1 REVERT JUMPDEST POP PUSH2 0x299 PUSH1 0x4 DUP1 CALLDATASIZE SUB DUP2 ADD SWAP1 PUSH2 0x294 SWAP2 SWAP1 PUSH2 0xFB7 JUMP JUMPDEST PUSH2 0x7C7 JUMP JUMPDEST STOP JUMPDEST CALLVALUE DUP1 ISZERO PUSH2 0x2A7 JUMPI PUSH1 0x0 DUP1 REVERT JUMPDEST POP PUSH2 0x2C2 PUSH1 0x4 DUP1 CALLDATASIZE SUB DUP2 ADD SWAP1 PUSH2 0x2BD SWAP2 SWAP1 PUSH2 0xFE4 JUMP JUMPDEST PUSH2 0xA68 JUMP JUMPDEST PUSH1 0x40 MLOAD PUSH2 0x2CF SWAP2 SWAP1 PUSH2 0x119A JUMP JUMPDEST PUSH1 0x40 MLOAD DUP1 SWAP2 SUB SWAP1 RETURN JUMPDEST PUSH2 0x2E0 PUSH2 0xAD3 JUMP JUMPDEST STOP JUMPDEST CALLVALUE DUP1 ISZERO PUSH2 0x2EE JUMPI PUSH1 0x0 DUP1 REVERT JUMPDEST POP PUSH2 0x309 PUSH1 0x4 DUP1 CALLDATASIZE SUB DUP2 ADD SWAP1 PUSH2 0x304 SWAP2 SWAP1 PUSH2 0xFB7 JUMP JUMPDEST PUSH2 0xBE3 JUMP JUMPDEST STOP JUMPDEST PUSH1 0x0 DUP1 SLOAD SWAP1 PUSH2 0x100 EXP SWAP1 DIV PUSH20 0xFFFFFFFFFFFFFFFFFFFFFFFFFFFFFFFFFFFFFFFF AND PUSH20 0xFFFFFFFFFFFFFFFFFFFFFFFFFFFFFFFFFFFFFFFF AND CALLER PUSH20 0xFFFFFFFFFFFFFFFFFFFFFFFFFFFFFFFFFFFFFFFF AND EQ PUSH2 0x399 JUMPI PUSH1 0x40 MLOAD PUSH32 0x8C379A000000000000000000000000000000000000000000000000000000000 DUP2 MSTORE PUSH1 0x4 ADD PUSH2 0x390 SWAP1 PUSH2 0x12AF JUMP JUMPDEST PUSH1 0x40 MLOAD DUP1 SWAP2 SUB SWAP1 REVERT JUMPDEST DUP1 PUSH1 0x4 PUSH1 0x0 DUP3 DUP2 MSTORE PUSH1 0x20 ADD SWAP1 DUP2 MSTORE PUSH1 0x20 ADD PUSH1 0x0 KECCAK256 PUSH1 0x2 ADD PUSH1 0x14 SWAP1 SLOAD SWAP1 PUSH2 0x100 EXP SWAP1 DIV PUSH1 0xFF AND ISZERO PUSH2 0x3FE JUMPI PUSH1 0x40 MLOAD PUSH32 0x8C379A000000000000000000000000000000000000000000000000000000000 DUP2 MSTORE PUSH1 0x4 ADD PUSH2 0x3F5 SWAP1 PUSH2 0x126F JUMP JUMPDEST PUSH1 0x40 MLOAD DUP1 SWAP2 SUB SWAP1 REVERT JUMPDEST PUSH1 0x0 PUSH1 0x4 PUSH1 0x0 DUP5 DUP2 MSTORE PUSH1 0x20 ADD SWAP1 DUP2 MSTORE PUSH1 0x20 ADD PUSH1 0x0 KECCAK256 SWAP1 POP PUSH1 0x2 DUP1 SLOAD PUSH2 0x423 SWAP2 SWAP1 PUSH2 0x1379 JUMP JUMPDEST DUP2 PUSH1 0x3 ADD SLOAD GT PUSH2 0x468 JUMPI PUSH1 0x40 MLOAD PUSH32 0x8C379A000000000000000000000000000000000000000000000000000000000 DUP2 MSTORE PUSH1 0x4 ADD PUSH2 0x45F SWAP1 PUSH2 0x12CF JUMP JUMPDEST PUSH1 0x40 MLOAD DUP1 SWAP2 SUB SWAP1 REVERT JUMPDEST PUSH1 0x1 DUP2 PUSH1 0x2 ADD PUSH1 0x14 PUSH2 0x100 EXP DUP2 SLOAD DUP2 PUSH1 0xFF MUL NOT AND SWAP1 DUP4 ISZERO ISZERO MUL OR SWAP1 SSTORE POP DUP1 PUSH1 0x2 ADD PUSH1 0x0 SWAP1 SLOAD SWAP1 PUSH2 0x100 EXP SWAP1 DIV PUSH20 0xFFFFFFFFFFFFFFFFFFFFFFFFFFFFFFFFFFFFFFFF AND PUSH20 0xFFFFFFFFFFFFFFFFFFFFFFFFFFFFFFFFFFFFFFFF AND PUSH2 0x8FC DUP3 PUSH1 0x1 ADD SLOAD SWAP1 DUP2 ISZERO MUL SWAP1 PUSH1 0x40 MLOAD PUSH1 0x0 PUSH1 0x40 MLOAD DUP1 DUP4 SUB DUP2 DUP6 DUP9 DUP9 CALL SWAP4 POP POP POP POP ISZERO DUP1 ISZERO PUSH2 0x4F3 JUMPI RETURNDATASIZE PUSH1 0x0 DUP1 RETURNDATACOPY RETURNDATASIZE PUSH1 0x0 REVERT JUMPDEST POP POP POP POP JUMP JUMPDEST PUSH1 0x3 PUSH1 0x20 MSTORE DUP1 PUSH1 0x0 MSTORE PUSH1 0x40 PUSH1 0x0 KECCAK256 PUSH1 0x0 SWAP2 POP SLOAD SWAP1 PUSH2 0x100 EXP SWAP1 DIV PUSH1 0xFF AND DUP2 JUMP JUMPDEST PUSH1 0x2 SLOAD DUP2 JUMP JUMPDEST PUSH1 0x0 DUP1 SLOAD SWAP1 PUSH2 0x100 EXP SWAP1 DIV PUSH20 0xFFFFFFFFFFFFFFFFFFFFFFFFFFFFFFFFFFFFFFFF AND DUP2 JUMP JUMPDEST PUSH1 0x5 SLOAD DUP2 JUMP JUMPDEST PUSH1 0x0 DUP1 PUSH1 0x0 DUP1 PUSH1 0x0 PUSH1 0x1 SLOAD SELFBALANCE PUSH1 0x5 SLOAD PUSH1 0x2 SLOAD PUSH1 0x0 DUP1 SLOAD SWAP1 PUSH2 0x100 EXP SWAP1 DIV PUSH20 0xFFFFFFFFFFFFFFFFFFFFFFFFFFFFFFFFFFFFFFFF AND SWAP5 POP SWAP5 POP SWAP5 POP SWAP5 POP SWAP5 POP SWAP1 SWAP2 SWAP3 SWAP4 SWAP5 JUMP JUMPDEST PUSH1 0x4 PUSH1 0x20 MSTORE DUP1 PUSH1 0x0 MSTORE PUSH1 0x40 PUSH1 0x0 KECCAK256 PUSH1 0x0 SWAP2 POP SWAP1 POP DUP1 PUSH1 0x0 ADD DUP1 SLOAD PUSH2 0x5B0 SWAP1 PUSH2 0x144F JUMP JUMPDEST DUP1 PUSH1 0x1F ADD PUSH1 0x20 DUP1 SWAP2 DIV MUL PUSH1 0x20 ADD PUSH1 0x40 MLOAD SWAP1 DUP2 ADD PUSH1 0x40 MSTORE DUP1 SWAP3 SWAP2 SWAP1 DUP2 DUP2 MSTORE PUSH1 0x20 ADD DUP3 DUP1 SLOAD PUSH2 0x5DC SWAP1 PUSH2 0x144F JUMP JUMPDEST DUP1 ISZERO PUSH2 0x629 JUMPI DUP1 PUSH1 0x1F LT PUSH2 0x5FE JUMPI PUSH2 0x100 DUP1 DUP4 SLOAD DIV MUL DUP4 MSTORE SWAP2 PUSH1 0x20 ADD SWAP2 PUSH2 0x629 JUMP JUMPDEST DUP3 ADD SWAP2 SWAP1 PUSH1 0x0 MSTORE PUSH1 0x20 PUSH1 0x0 KECCAK256 SWAP1 JUMPDEST DUP2 SLOAD DUP2 MSTORE SWAP1 PUSH1 0x1 ADD SWAP1 PUSH1 0x20 ADD DUP1 DUP4 GT PUSH2 0x60C JUMPI DUP3 SWAP1 SUB PUSH1 0x1F AND DUP3 ADD SWAP2 JUMPDEST POP POP POP POP POP SWAP1 DUP1 PUSH1 0x1 ADD SLOAD SWAP1 DUP1 PUSH1 0x2 ADD PUSH1 0x0 SWAP1 SLOAD SWAP1 PUSH2 0x100 EXP SWAP1 DIV PUSH20 0xFFFFFFFFFFFFFFFFFFFFFFFFFFFFFFFFFFFFFFFF AND SWAP1 DUP1 PUSH1 0x2 ADD PUSH1 0x14 SWAP1 SLOAD SWAP1 PUSH2 0x100 EXP SWAP1 DIV PUSH1 0xFF AND SWAP1 DUP1 PUSH1 0x3 ADD SLOAD SWAP1 POP DUP6 JUMP JUMPDEST PUSH1 0x0 DUP1 SLOAD SWAP1 PUSH2 0x100 EXP SWAP1 DIV PUSH20 0xFFFFFFFFFFFFFFFFFFFFFFFFFFFFFFFFFFFFFFFF AND PUSH20 0xFFFFFFFFFFFFFFFFFFFFFFFFFFFFFFFFFFFFFFFF AND CALLER PUSH20 0xFFFFFFFFFFFFFFFFFFFFFFFFFFFFFFFFFFFFFFFF AND EQ PUSH2 0x706 JUMPI PUSH1 0x40 MLOAD PUSH32 0x8C379A000000000000000000000000000000000000000000000000000000000 DUP2 MSTORE PUSH1 0x4 ADD PUSH2 0x6FD SWAP1 PUSH2 0x12AF JUMP JUMPDEST PUSH1 0x40 MLOAD DUP1 SWAP2 SUB SWAP1 REVERT JUMPDEST PUSH1 0x0 PUSH1 0x4 PUSH1 0x0 PUSH1 0x5 PUSH1 0x0 DUP2 SLOAD DUP1 SWAP3 SWAP2 SWAP1 PUSH2 0x71F SWAP1 PUSH2 0x1481 JUMP JUMPDEST SWAP2 SWAP1 POP SSTORE DUP2 MSTORE PUSH1 0x20 ADD SWAP1 DUP2 MSTORE PUSH1 0x20 ADD PUSH1 0x0 KECCAK256 SWAP1 POP DUP5 DUP5 DUP3 PUSH1 0x0 ADD SWAP2 SWAP1 PUSH2 0x746 SWAP3 SWAP2 SWAP1 PUSH2 0xDF3 JUMP JUMPDEST POP DUP3 DUP2 PUSH1 0x1 ADD DUP2 SWAP1 SSTORE POP DUP2 DUP2 PUSH1 0x2 ADD PUSH1 0x0 PUSH2 0x100 EXP DUP2 SLOAD DUP2 PUSH20 0xFFFFFFFFFFFFFFFFFFFFFFFFFFFFFFFFFFFFFFFF MUL NOT AND SWAP1 DUP4 PUSH20 0xFFFFFFFFFFFFFFFFFFFFFFFFFFFFFFFFFFFFFFFF AND MUL OR SWAP1 SSTORE POP PUSH1 0x0 DUP2 PUSH1 0x2 ADD PUSH1 0x14 PUSH2 0x100 EXP DUP2 SLOAD DUP2 PUSH1 0xFF MUL NOT AND SWAP1 DUP4 ISZERO ISZERO MUL OR SWAP1 SSTORE POP PUSH1 0x0 DUP2 PUSH1 0x3 ADD DUP2 SWAP1 SSTORE POP POP POP POP POP POP JUMP JUMPDEST PUSH1 0x1 SLOAD DUP2 JUMP JUMPDEST PUSH1 0x3 PUSH1 0x0 CALLER PUSH20 0xFFFFFFFFFFFFFFFFFFFFFFFFFFFFFFFFFFFFFFFF AND PUSH20 0xFFFFFFFFFFFFFFFFFFFFFFFFFFFFFFFFFFFFFFFF AND DUP2 MSTORE PUSH1 0x20 ADD SWAP1 DUP2 MSTORE PUSH1 0x20 ADD PUSH1 0x0 KECCAK256 PUSH1 0x0 SWAP1 SLOAD SWAP1 PUSH2 0x100 EXP SWAP1 DIV PUSH1 0xFF AND PUSH2 0x853 JUMPI PUSH1 0x40 MLOAD PUSH32 0x8C379A000000000000000000000000000000000000000000000000000000000 DUP2 MSTORE PUSH1 0x4 ADD PUSH2 0x84A SWAP1 PUSH2 0x128F JUMP JUMPDEST PUSH1 0x40 MLOAD DUP1 SWAP2 SUB SWAP1 REVERT JUMPDEST DUP1 PUSH1 0x4 PUSH1 0x0 DUP3 DUP2 MSTORE PUSH1 0x20 ADD SWAP1 DUP2 MSTORE PUSH1 0x20 ADD PUSH1 0x0 KECCAK256 PUSH1 0x2 ADD PUSH1 0x14 SWAP1 SLOAD SWAP1 PUSH2 0x100 EXP SWAP1 DIV PUSH1 0xFF AND ISZERO PUSH2 0x8B8 JUMPI PUSH1 0x40 MLOAD PUSH32 0x8C379A000000000000000000000000000000000000000000000000000000000 DUP2 MSTORE PUSH1 0x4 ADD PUSH2 0x8AF SWAP1 PUSH2 0x126F JUMP JUMPDEST PUSH1 0x40 MLOAD DUP1 SWAP2 SUB SWAP1 REVERT JUMPDEST PUSH1 0x0 PUSH1 0x4 PUSH1 0x0 DUP5 DUP2 MSTORE PUSH1 0x20 ADD SWAP1 DUP2 MSTORE PUSH1 0x20 ADD PUSH1 0x0 KECCAK256 SWAP1 POP DUP1 PUSH1 0x4 ADD PUSH1 0x0 CALLER PUSH20 0xFFFFFFFFFFFFFFFFFFFFFFFFFFFFFFFFFFFFFFFF AND PUSH20 0xFFFFFFFFFFFFFFFFFFFFFFFFFFFFFFFFFFFFFFFF AND DUP2 MSTORE PUSH1 0x20 ADD SWAP1 DUP2 MSTORE PUSH1 0x20 ADD PUSH1 0x0 KECCAK256 PUSH1 0x0 SWAP1 SLOAD SWAP1 PUSH2 0x100 EXP SWAP1 DIV PUSH1 0xFF AND PUSH2 0x95D JUMPI PUSH1 0x40 MLOAD PUSH32 0x8C379A000000000000000000000000000000000000000000000000000000000 DUP2 MSTORE PUSH1 0x4 ADD PUSH2 0x954 SWAP1 PUSH2 0x120F JUMP JUMPDEST PUSH1 0x40 MLOAD DUP1 SWAP2 SUB SWAP1 REVERT JUMPDEST PUSH1 0x1 ISZERO ISZERO PUSH1 0x4 PUSH1 0x0 DUP6 DUP2 MSTORE PUSH1 0x20 ADD SWAP1 DUP2 MSTORE PUSH1 0x20 ADD PUSH1 0x0 KECCAK256 PUSH1 0x4 ADD PUSH1 0x0 CALLER PUSH20 0xFFFFFFFFFFFFFFFFFFFFFFFFFFFFFFFFFFFFFFFF AND PUSH20 0xFFFFFFFFFFFFFFFFFFFFFFFFFFFFFFFFFFFFFFFF AND DUP2 MSTORE PUSH1 0x20 ADD SWAP1 DUP2 MSTORE PUSH1 0x20 ADD PUSH1 0x0 KECCAK256 PUSH1 0x0 SWAP1 SLOAD SWAP1 PUSH2 0x100 EXP SWAP1 DIV PUSH1 0xFF AND ISZERO ISZERO EQ ISZERO PUSH2 0xA63 JUMPI PUSH1 0x0 PUSH1 0x4 PUSH1 0x0 DUP6 DUP2 MSTORE PUSH1 0x20 ADD SWAP1 DUP2 MSTORE PUSH1 0x20 ADD PUSH1 0x0 KECCAK256 PUSH1 0x4 ADD PUSH1 0x0 CALLER PUSH20 0xFFFFFFFFFFFFFFFFFFFFFFFFFFFFFFFFFFFFFFFF AND PUSH20 0xFFFFFFFFFFFFFFFFFFFFFFFFFFFFFFFFFFFFFFFF AND DUP2 MSTORE PUSH1 0x20 ADD SWAP1 DUP2 MSTORE PUSH1 0x20 ADD PUSH1 0x0 KECCAK256 PUSH1 0x0 PUSH2 0x100 EXP DUP2 SLOAD DUP2 PUSH1 0xFF MUL NOT AND SWAP1 DUP4 ISZERO ISZERO MUL OR SWAP1 SSTORE POP PUSH1 0x4 PUSH1 0x0 DUP5 DUP2 MSTORE PUSH1 0x20 ADD SWAP1 DUP2 MSTORE PUSH1 0x20 ADD PUSH1 0x0 KECCAK256 PUSH1 0x3 ADD PUSH1 0x0 DUP2 SLOAD DUP1 SWAP3 SWAP2 SWAP1 PUSH2 0xA5D SWAP1 PUSH2 0x1425 JUMP JUMPDEST SWAP2 SWAP1 POP SSTORE POP JUMPDEST POP POP POP JUMP JUMPDEST PUSH1 0x0 PUSH1 0x4 PUSH1 0x0 DUP5 DUP2 MSTORE PUSH1 0x20 ADD SWAP1 DUP2 MSTORE PUSH1 0x20 ADD PUSH1 0x0 KECCAK256 PUSH1 0x4 ADD PUSH1 0x0 DUP4 PUSH20 0xFFFFFFFFFFFFFFFFFFFFFFFFFFFFFFFFFFFFFFFF AND PUSH20 0xFFFFFFFFFFFFFFFFFFFFFFFFFFFFFFFFFFFFFFFF AND DUP2 MSTORE PUSH1 0x20 ADD SWAP1 DUP2 MSTORE PUSH1 0x20 ADD PUSH1 0x0 KECCAK256 PUSH1 0x0 SWAP1 SLOAD SWAP1 PUSH2 0x100 EXP SWAP1 DIV PUSH1 0xFF AND SWAP1 POP SWAP3 SWAP2 POP POP JUMP JUMPDEST PUSH1 0x1 SLOAD CALLVALUE LT ISZERO PUSH2 0xB18 JUMPI PUSH1 0x40 MLOAD PUSH32 0x8C379A000000000000000000000000000000000000000000000000000000000 DUP2 MSTORE PUSH1 0x4 ADD PUSH2 0xB0F SWAP1 PUSH2 0x122F JUMP JUMPDEST PUSH1 0x40 MLOAD DUP1 SWAP2 SUB SWAP1 REVERT JUMPDEST PUSH1 0x1 ISZERO ISZERO PUSH1 0x3 PUSH1 0x0 CALLER PUSH20 0xFFFFFFFFFFFFFFFFFFFFFFFFFFFFFFFFFFFFFFFF AND PUSH20 0xFFFFFFFFFFFFFFFFFFFFFFFFFFFFFFFFFFFFFFFF AND DUP2 MSTORE PUSH1 0x20 ADD SWAP1 DUP2 MSTORE PUSH1 0x20 ADD PUSH1 0x0 KECCAK256 PUSH1 0x0 SWAP1 SLOAD SWAP1 PUSH2 0x100 EXP SWAP1 DIV PUSH1 0xFF AND ISZERO ISZERO EQ PUSH2 0xBE1 JUMPI PUSH1 0x1 PUSH1 0x3 PUSH1 0x0 CALLER PUSH20 0xFFFFFFFFFFFFFFFFFFFFFFFFFFFFFFFFFFFFFFFF AND PUSH20 0xFFFFFFFFFFFFFFFFFFFFFFFFFFFFFFFFFFFFFFFF AND DUP2 MSTORE PUSH1 0x20 ADD SWAP1 DUP2 MSTORE PUSH1 0x20 ADD PUSH1 0x0 KECCAK256 PUSH1 0x0 PUSH2 0x100 EXP DUP2 SLOAD DUP2 PUSH1 0xFF MUL NOT AND SWAP1 DUP4 ISZERO ISZERO MUL OR SWAP1 SSTORE POP PUSH1 0x2 PUSH1 0x0 DUP2 SLOAD DUP1 SWAP3 SWAP2 SWAP1 PUSH2 0xBDB SWAP1 PUSH2 0x1481 JUMP JUMPDEST SWAP2 SWAP1 POP SSTORE POP JUMPDEST JUMP JUMPDEST PUSH1 0x3 PUSH1 0x0 CALLER PUSH20 0xFFFFFFFFFFFFFFFFFFFFFFFFFFFFFFFFFFFFFFFF AND PUSH20 0xFFFFFFFFFFFFFFFFFFFFFFFFFFFFFFFFFFFFFFFF AND DUP2 MSTORE PUSH1 0x20 ADD SWAP1 DUP2 MSTORE PUSH1 0x20 ADD PUSH1 0x0 KECCAK256 PUSH1 0x0 SWAP1 SLOAD SWAP1 PUSH2 0x100 EXP SWAP1 DIV PUSH1 0xFF AND PUSH2 0xC6F JUMPI PUSH1 0x40 MLOAD PUSH32 0x8C379A000000000000000000000000000000000000000000000000000000000 DUP2 MSTORE PUSH1 0x4 ADD PUSH2 0xC66 SWAP1 PUSH2 0x128F JUMP JUMPDEST PUSH1 0x40 MLOAD DUP1 SWAP2 SUB SWAP1 REVERT JUMPDEST DUP1 PUSH1 0x4 PUSH1 0x0 DUP3 DUP2 MSTORE PUSH1 0x20 ADD SWAP1 DUP2 MSTORE PUSH1 0x20 ADD PUSH1 0x0 KECCAK256 PUSH1 0x2 ADD PUSH1 0x14 SWAP1 SLOAD SWAP1 PUSH2 0x100 EXP SWAP1 DIV PUSH1 0xFF AND ISZERO PUSH2 0xCD4 JUMPI PUSH1 0x40 MLOAD PUSH32 0x8C379A000000000000000000000000000000000000000000000000000000000 DUP2 MSTORE PUSH1 0x4 ADD PUSH2 0xCCB SWAP1 PUSH2 0x126F JUMP JUMPDEST PUSH1 0x40 MLOAD DUP1 SWAP2 SUB SWAP1 REVERT JUMPDEST PUSH1 0x0 PUSH1 0x4 PUSH1 0x0 DUP5 DUP2 MSTORE PUSH1 0x20 ADD SWAP1 DUP2 MSTORE PUSH1 0x20 ADD PUSH1 0x0 KECCAK256 SWAP1 POP DUP1 PUSH1 0x4 ADD PUSH1 0x0 CALLER PUSH20 0xFFFFFFFFFFFFFFFFFFFFFFFFFFFFFFFFFFFFFFFF AND PUSH20 0xFFFFFFFFFFFFFFFFFFFFFFFFFFFFFFFFFFFFFFFF AND DUP2 MSTORE PUSH1 0x20 ADD SWAP1 DUP2 MSTORE PUSH1 0x20 ADD PUSH1 0x0 KECCAK256 PUSH1 0x0 SWAP1 SLOAD SWAP1 PUSH2 0x100 EXP SWAP1 DIV PUSH1 0xFF AND ISZERO PUSH2 0xD7A JUMPI PUSH1 0x40 MLOAD PUSH32 0x8C379A000000000000000000000000000000000000000000000000000000000 DUP2 MSTORE PUSH1 0x4 ADD PUSH2 0xD71 SWAP1 PUSH2 0x124F JUMP JUMPDEST PUSH1 0x40 MLOAD DUP1 SWAP2 SUB SWAP1 REVERT JUMPDEST PUSH1 0x1 DUP2 PUSH1 0x4 ADD PUSH1 0x0 CALLER PUSH20 0xFFFFFFFFFFFFFFFFFFFFFFFFFFFFFFFFFFFFFFFF AND PUSH20 0xFFFFFFFFFFFFFFFFFFFFFFFFFFFFFFFFFFFFFFFF AND DUP2 MSTORE PUSH1 0x20 ADD SWAP1 DUP2 MSTORE PUSH1 0x20 ADD PUSH1 0x0 KECCAK256 PUSH1 0x0 PUSH2 0x100 EXP DUP2 SLOAD DUP2 PUSH1 0xFF MUL NOT AND SWAP1 DUP4 ISZERO ISZERO MUL OR SWAP1 SSTORE POP DUP1 PUSH1 0x3 ADD PUSH1 0x0 DUP2 SLOAD DUP1 SWAP3 SWAP2 SWAP1 PUSH2 0xDE9 SWAP1 PUSH2 0x1481 JUMP JUMPDEST SWAP2 SWAP1 POP SSTORE POP POP POP POP JUMP JUMPDEST DUP3 DUP1 SLOAD PUSH2 0xDFF SWAP1 PUSH2 0x144F JUMP JUMPDEST SWAP1 PUSH1 0x0 MSTORE PUSH1 0x20 PUSH1 0x0 KECCAK256 SWAP1 PUSH1 0x1F ADD PUSH1 0x20 SWAP1 DIV DUP2 ADD SWAP3 DUP3 PUSH2 0xE21 JUMPI PUSH1 0x0 DUP6 SSTORE PUSH2 0xE68 JUMP JUMPDEST DUP3 PUSH1 0x1F LT PUSH2 0xE3A JUMPI DUP1 CALLDATALOAD PUSH1 0xFF NOT AND DUP4 DUP1 ADD OR DUP6 SSTORE PUSH2 0xE68 JUMP JUMPDEST DUP3 DUP1 ADD PUSH1 0x1 ADD DUP6 SSTORE DUP3 ISZERO PUSH2 0xE68 JUMPI SWAP2 DUP3 ADD JUMPDEST DUP3 DUP2 GT ISZERO PUSH2 0xE67 JUMPI DUP3 CALLDATALOAD DUP3 SSTORE SWAP2 PUSH1 0x20 ADD SWAP2 SWAP1 PUSH1 0x1 ADD SWAP1 PUSH2 0xE4C JUMP JUMPDEST JUMPDEST POP SWAP1 POP PUSH2 0xE75 SWAP2 SWAP1 PUSH2 0xE79 JUMP JUMPDEST POP SWAP1 JUMP JUMPDEST JUMPDEST DUP1 DUP3 GT ISZERO PUSH2 0xE92 JUMPI PUSH1 0x0 DUP2 PUSH1 0x0 SWAP1 SSTORE POP PUSH1 0x1 ADD PUSH2 0xE7A JUMP JUMPDEST POP SWAP1 JUMP JUMPDEST PUSH1 0x0 DUP2 CALLDATALOAD SWAP1 POP PUSH2 0xEA5 DUP2 PUSH2 0x17AA JUMP JUMPDEST SWAP3 SWAP2 POP POP JUMP JUMPDEST PUSH1 0x0 DUP1 DUP4 PUSH1 0x1F DUP5 ADD SLT PUSH2 0xEC1 JUMPI PUSH2 0xEC0 PUSH2 0x155C JUMP JUMPDEST JUMPDEST DUP3 CALLDATALOAD SWAP1 POP PUSH8 0xFFFFFFFFFFFFFFFF DUP2 GT ISZERO PUSH2 0xEDE JUMPI PUSH2 0xEDD PUSH2 0x1557 JUMP JUMPDEST JUMPDEST PUSH1 0x20 DUP4 ADD SWAP2 POP DUP4 PUSH1 0x1 DUP3 MUL DUP4 ADD GT ISZERO PUSH2 0xEFA JUMPI PUSH2 0xEF9 PUSH2 0x1561 JUMP JUMPDEST JUMPDEST SWAP3 POP SWAP3 SWAP1 POP JUMP JUMPDEST PUSH1 0x0 DUP2 CALLDATALOAD SWAP1 POP PUSH2 0xF10 DUP2 PUSH2 0x17C1 JUMP JUMPDEST SWAP3 SWAP2 POP POP JUMP JUMPDEST PUSH1 0x0 PUSH1 0x20 DUP3 DUP5 SUB SLT ISZERO PUSH2 0xF2C JUMPI PUSH2 0xF2B PUSH2 0x156B JUMP JUMPDEST JUMPDEST PUSH1 0x0 PUSH2 0xF3A DUP5 DUP3 DUP6 ADD PUSH2 0xE96 JUMP JUMPDEST SWAP2 POP POP SWAP3 SWAP2 POP POP JUMP JUMPDEST PUSH1 0x0 DUP1 PUSH1 0x0 DUP1 PUSH1 0x60 DUP6 DUP8 SUB SLT ISZERO PUSH2 0xF5D JUMPI PUSH2 0xF5C PUSH2 0x156B JUMP JUMPDEST JUMPDEST PUSH1 0x0 DUP6 ADD CALLDATALOAD PUSH8 0xFFFFFFFFFFFFFFFF DUP2 GT ISZERO PUSH2 0xF7B JUMPI PUSH2 0xF7A PUSH2 0x1566 JUMP JUMPDEST JUMPDEST PUSH2 0xF87 DUP8 DUP3 DUP9 ADD PUSH2 0xEAB JUMP JUMPDEST SWAP5 POP SWAP5 POP POP PUSH1 0x20 PUSH2 0xF9A DUP8 DUP3 DUP9 ADD PUSH2 0xF01 JUMP JUMPDEST SWAP3 POP POP PUSH1 0x40 PUSH2 0xFAB DUP8 DUP3 DUP9 ADD PUSH2 0xE96 JUMP JUMPDEST SWAP2 POP POP SWAP3 SWAP6 SWAP2 SWAP5 POP SWAP3 POP JUMP JUMPDEST PUSH1 0x0 PUSH1 0x20 DUP3 DUP5 SUB SLT ISZERO PUSH2 0xFCD JUMPI PUSH2 0xFCC PUSH2 0x156B JUMP JUMPDEST JUMPDEST PUSH1 0x0 PUSH2 0xFDB DUP5 DUP3 DUP6 ADD PUSH2 0xF01 JUMP JUMPDEST SWAP2 POP POP SWAP3 SWAP2 POP POP JUMP JUMPDEST PUSH1 0x0 DUP1 PUSH1 0x40 DUP4 DUP6 SUB SLT ISZERO PUSH2 0xFFB JUMPI PUSH2 0xFFA PUSH2 0x156B JUMP JUMPDEST JUMPDEST PUSH1 0x0 PUSH2 0x1009 DUP6 DUP3 DUP7 ADD PUSH2 0xF01 JUMP JUMPDEST SWAP3 POP POP PUSH1 0x20 PUSH2 0x101A DUP6 DUP3 DUP7 ADD PUSH2 0xE96 JUMP JUMPDEST SWAP2 POP POP SWAP3 POP SWAP3 SWAP1 POP JUMP JUMPDEST PUSH2 0x102D DUP2 PUSH2 0x13AA JUMP JUMPDEST DUP3 MSTORE POP POP JUMP JUMPDEST PUSH2 0x103C DUP2 PUSH2 0x13BC JUMP JUMPDEST DUP3 MSTORE POP POP JUMP JUMPDEST PUSH1 0x0 PUSH2 0x104D DUP3 PUSH2 0x135D JUMP JUMPDEST PUSH2 0x1057 DUP2 DUP6 PUSH2 0x1368 JUMP JUMPDEST SWAP4 POP PUSH2 0x1067 DUP2 DUP6 PUSH1 0x20 DUP7 ADD PUSH2 0x13F2 JUMP JUMPDEST PUSH2 0x1070 DUP2 PUSH2 0x1570 JUMP JUMPDEST DUP5 ADD SWAP2 POP POP SWAP3 SWAP2 POP POP JUMP JUMPDEST PUSH1 0x0 PUSH2 0x1088 PUSH1 0x22 DUP4 PUSH2 0x1368 JUMP JUMPDEST SWAP2 POP PUSH2 0x1093 DUP3 PUSH2 0x1581 JUMP JUMPDEST PUSH1 0x40 DUP3 ADD SWAP1 POP SWAP2 SWAP1 POP JUMP JUMPDEST PUSH1 0x0 PUSH2 0x10AB PUSH1 0x2D DUP4 PUSH2 0x1368 JUMP JUMPDEST SWAP2 POP PUSH2 0x10B6 DUP3 PUSH2 0x15D0 JUMP JUMPDEST PUSH1 0x40 DUP3 ADD SWAP1 POP SWAP2 SWAP1 POP JUMP JUMPDEST PUSH1 0x0 PUSH2 0x10CE PUSH1 0x27 DUP4 PUSH2 0x1368 JUMP JUMPDEST SWAP2 POP PUSH2 0x10D9 DUP3 PUSH2 0x161F JUMP JUMPDEST PUSH1 0x40 DUP3 ADD SWAP1 POP SWAP2 SWAP1 POP JUMP JUMPDEST PUSH1 0x0 PUSH2 0x10F1 PUSH1 0x28 DUP4 PUSH2 0x1368 JUMP JUMPDEST SWAP2 POP PUSH2 0x10FC DUP3 PUSH2 0x166E JUMP JUMPDEST PUSH1 0x40 DUP3 ADD SWAP1 POP SWAP2 SWAP1 POP JUMP JUMPDEST PUSH1 0x0 PUSH2 0x1114 PUSH1 0x27 DUP4 PUSH2 0x1368 JUMP JUMPDEST SWAP2 POP PUSH2 0x111F DUP3 PUSH2 0x16BD JUMP JUMPDEST PUSH1 0x40 DUP3 ADD SWAP1 POP SWAP2 SWAP1 POP JUMP JUMPDEST PUSH1 0x0 PUSH2 0x1137 PUSH1 0x27 DUP4 PUSH2 0x1368 JUMP JUMPDEST SWAP2 POP PUSH2 0x1142 DUP3 PUSH2 0x170C JUMP JUMPDEST PUSH1 0x40 DUP3 ADD SWAP1 POP SWAP2 SWAP1 POP JUMP JUMPDEST PUSH1 0x0 PUSH2 0x115A PUSH1 0x33 DUP4 PUSH2 0x1368 JUMP JUMPDEST SWAP2 POP PUSH2 0x1165 DUP3 PUSH2 0x175B JUMP JUMPDEST PUSH1 0x40 DUP3 ADD SWAP1 POP SWAP2 SWAP1 POP JUMP JUMPDEST PUSH2 0x1179 DUP2 PUSH2 0x13E8 JUMP JUMPDEST DUP3 MSTORE POP POP JUMP JUMPDEST PUSH1 0x0 PUSH1 0x20 DUP3 ADD SWAP1 POP PUSH2 0x1194 PUSH1 0x0 DUP4 ADD DUP5 PUSH2 0x1024 JUMP JUMPDEST SWAP3 SWAP2 POP POP JUMP JUMPDEST PUSH1 0x0 PUSH1 0x20 DUP3 ADD SWAP1 POP PUSH2 0x11AF PUSH1 0x0 DUP4 ADD DUP5 PUSH2 0x1033 JUMP JUMPDEST SWAP3 SWAP2 POP POP JUMP JUMPDEST PUSH1 0x0 PUSH1 0xA0 DUP3 ADD SWAP1 POP DUP2 DUP2 SUB PUSH1 0x0 DUP4 ADD MSTORE PUSH2 0x11CF DUP2 DUP9 PUSH2 0x1042 JUMP JUMPDEST SWAP1 POP PUSH2 0x11DE PUSH1 0x20 DUP4 ADD DUP8 PUSH2 0x1170 JUMP JUMPDEST PUSH2 0x11EB PUSH1 0x40 DUP4 ADD DUP7 PUSH2 0x1024 JUMP JUMPDEST PUSH2 0x11F8 PUSH1 0x60 DUP4 ADD DUP6 PUSH2 0x1033 JUMP JUMPDEST PUSH2 0x1205 PUSH1 0x80 DUP4 ADD DUP5 PUSH2 0x1170 JUMP JUMPDEST SWAP7 SWAP6 POP POP POP POP POP POP JUMP JUMPDEST PUSH1 0x0 PUSH1 0x20 DUP3 ADD SWAP1 POP DUP2 DUP2 SUB PUSH1 0x0 DUP4 ADD MSTORE PUSH2 0x1228 DUP2 PUSH2 0x107B JUMP JUMPDEST SWAP1 POP SWAP2 SWAP1 POP JUMP JUMPDEST PUSH1 0x0 PUSH1 0x20 DUP3 ADD SWAP1 POP DUP2 DUP2 SUB PUSH1 0x0 DUP4 ADD MSTORE PUSH2 0x1248 DUP2 PUSH2 0x109E JUMP JUMPDEST SWAP1 POP SWAP2 SWAP1 POP JUMP JUMPDEST PUSH1 0x0 PUSH1 0x20 DUP3 ADD SWAP1 POP DUP2 DUP2 SUB PUSH1 0x0 DUP4 ADD MSTORE PUSH2 0x1268 DUP2 PUSH2 0x10C1 JUMP JUMPDEST SWAP1 POP SWAP2 SWAP1 POP JUMP JUMPDEST PUSH1 0x0 PUSH1 0x20 DUP3 ADD SWAP1 POP DUP2 DUP2 SUB PUSH1 0x0 DUP4 ADD MSTORE PUSH2 0x1288 DUP2 PUSH2 0x10E4 JUMP JUMPDEST SWAP1 POP SWAP2 SWAP1 POP JUMP JUMPDEST PUSH1 0x0 PUSH1 0x20 DUP3 ADD SWAP1 POP DUP2 DUP2 SUB PUSH1 0x0 DUP4 ADD MSTORE PUSH2 0x12A8 DUP2 PUSH2 0x1107 JUMP JUMPDEST SWAP1 POP SWAP2 SWAP1 POP JUMP JUMPDEST PUSH1 0x0 PUSH1 0x20 DUP3 ADD SWAP1 POP DUP2 DUP2 SUB PUSH1 0x0 DUP4 ADD MSTORE PUSH2 0x12C8 DUP2 PUSH2 0x112A JUMP JUMPDEST SWAP1 POP SWAP2 SWAP1 POP JUMP JUMPDEST PUSH1 0x0 PUSH1 0x20 DUP3 ADD SWAP1 POP DUP2 DUP2 SUB PUSH1 0x0 DUP4 ADD MSTORE PUSH2 0x12E8 DUP2 PUSH2 0x114D JUMP JUMPDEST SWAP1 POP SWAP2 SWAP1 POP JUMP JUMPDEST PUSH1 0x0 PUSH1 0x20 DUP3 ADD SWAP1 POP PUSH2 0x1304 PUSH1 0x0 DUP4 ADD DUP5 PUSH2 0x1170 JUMP JUMPDEST SWAP3 SWAP2 POP POP JUMP JUMPDEST PUSH1 0x0 PUSH1 0xA0 DUP3 ADD SWAP1 POP PUSH2 0x131F PUSH1 0x0 DUP4 ADD DUP9 PUSH2 0x1170 JUMP JUMPDEST PUSH2 0x132C PUSH1 0x20 DUP4 ADD DUP8 PUSH2 0x1170 JUMP JUMPDEST PUSH2 0x1339 PUSH1 0x40 DUP4 ADD DUP7 PUSH2 0x1170 JUMP JUMPDEST PUSH2 0x1346 PUSH1 0x60 DUP4 ADD DUP6 PUSH2 0x1170 JUMP JUMPDEST PUSH2 0x1353 PUSH1 0x80 DUP4 ADD DUP5 PUSH2 0x1024 JUMP JUMPDEST SWAP7 SWAP6 POP POP POP POP POP POP JUMP JUMPDEST PUSH1 0x0 DUP2 MLOAD SWAP1 POP SWAP2 SWAP1 POP JUMP JUMPDEST PUSH1 0x0 DUP3 DUP3 MSTORE PUSH1 0x20 DUP3 ADD SWAP1 POP SWAP3 SWAP2 POP POP JUMP JUMPDEST PUSH1 0x0 PUSH2 0x1384 DUP3 PUSH2 0x13E8 JUMP JUMPDEST SWAP2 POP PUSH2 0x138F DUP4 PUSH2 0x13E8 JUMP JUMPDEST SWAP3 POP DUP3 PUSH2 0x139F JUMPI PUSH2 0x139E PUSH2 0x14F9 JUMP JUMPDEST JUMPDEST DUP3 DUP3 DIV SWAP1 POP SWAP3 SWAP2 POP POP JUMP JUMPDEST PUSH1 0x0 PUSH2 0x13B5 DUP3 PUSH2 0x13C8 JUMP JUMPDEST SWAP1 POP SWAP2 SWAP1 POP JUMP JUMPDEST PUSH1 0x0 DUP2 ISZERO ISZERO SWAP1 POP SWAP2 SWAP1 POP JUMP JUMPDEST PUSH1 0x0 PUSH20 0xFFFFFFFFFFFFFFFFFFFFFFFFFFFFFFFFFFFFFFFF DUP3 AND SWAP1 POP SWAP2 SWAP1 POP JUMP JUMPDEST PUSH1 0x0 DUP2 SWAP1 POP SWAP2 SWAP1 POP JUMP JUMPDEST PUSH1 0x0 JUMPDEST DUP4 DUP2 LT ISZERO PUSH2 0x1410 JUMPI DUP1 DUP3 ADD MLOAD DUP2 DUP5 ADD MSTORE PUSH1 0x20 DUP2 ADD SWAP1 POP PUSH2 0x13F5 JUMP JUMPDEST DUP4 DUP2 GT ISZERO PUSH2 0x141F JUMPI PUSH1 0x0 DUP5 DUP5 ADD MSTORE JUMPDEST POP POP POP POP JUMP JUMPDEST PUSH1 0x0 PUSH2 0x1430 DUP3 PUSH2 0x13E8 JUMP JUMPDEST SWAP2 POP PUSH1 0x0 DUP3 EQ ISZERO PUSH2 0x1444 JUMPI PUSH2 0x1443 PUSH2 0x14CA JUMP JUMPDEST JUMPDEST PUSH1 0x1 DUP3 SUB SWAP1 POP SWAP2 SWAP1 POP JUMP JUMPDEST PUSH1 0x0 PUSH1 0x2 DUP3 DIV SWAP1 POP PUSH1 0x1 DUP3 AND DUP1 PUSH2 0x1467 JUMPI PUSH1 0x7F DUP3 AND SWAP2 POP JUMPDEST PUSH1 0x20 DUP3 LT DUP2 EQ ISZERO PUSH2 0x147B JUMPI PUSH2 0x147A PUSH2 0x1528 JUMP JUMPDEST JUMPDEST POP SWAP2 SWAP1 POP JUMP JUMPDEST PUSH1 0x0 PUSH2 0x148C DUP3 PUSH2 0x13E8 JUMP JUMPDEST SWAP2 POP PUSH32 0xFFFFFFFFFFFFFFFFFFFFFFFFFFFFFFFFFFFFFFFFFFFFFFFFFFFFFFFFFFFFFFFF DUP3 EQ ISZERO PUSH2 0x14BF JUMPI PUSH2 0x14BE PUSH2 0x14CA JUMP JUMPDEST JUMPDEST PUSH1 0x1 DUP3 ADD SWAP1 POP SWAP2 SWAP1 POP JUMP JUMPDEST PUSH32 0x4E487B7100000000000000000000000000000000000000000000000000000000 PUSH1 0x0 MSTORE PUSH1 0x11 PUSH1 0x4 MSTORE PUSH1 0x24 PUSH1 0x0 REVERT JUMPDEST PUSH32 0x4E487B7100000000000000000000000000000000000000000000000000000000 PUSH1 0x0 MSTORE PUSH1 0x12 PUSH1 0x4 MSTORE PUSH1 0x24 PUSH1 0x0 REVERT JUMPDEST PUSH32 0x4E487B7100000000000000000000000000000000000000000000000000000000 PUSH1 0x0 MSTORE PUSH1 0x22 PUSH1 0x4 MSTORE PUSH1 0x24 PUSH1 0x0 REVERT JUMPDEST PUSH1 0x0 DUP1 REVERT JUMPDEST PUSH1 0x0 DUP1 REVERT JUMPDEST PUSH1 0x0 DUP1 REVERT JUMPDEST PUSH1 0x0 DUP1 REVERT JUMPDEST PUSH1 0x0 DUP1 REVERT JUMPDEST PUSH1 0x0 PUSH1 0x1F NOT PUSH1 0x1F DUP4 ADD AND SWAP1 POP SWAP2 SWAP1 POP JUMP JUMPDEST PUSH32 0x596F7520686176656E277420617070726F766564207468697320726571756573 PUSH1 0x0 DUP3 ADD MSTORE PUSH32 0x742E000000000000000000000000000000000000000000000000000000000000 PUSH1 0x20 DUP3 ADD MSTORE POP JUMP JUMPDEST PUSH32 0x436F6E747269627574696F6E20616D6F756E74206973206C657373207468616E PUSH1 0x0 DUP3 ADD MSTORE PUSH32 0x20746865206D696E696D756D2E00000000000000000000000000000000000000 PUSH1 0x20 DUP3 ADD MSTORE POP JUMP JUMPDEST PUSH32 0x596F75206861766520616C726561647920617070726F76656420746869732072 PUSH1 0x0 DUP3 ADD MSTORE PUSH32 0x6571756573742E00000000000000000000000000000000000000000000000000 PUSH1 0x20 DUP3 ADD MSTORE POP JUMP JUMPDEST PUSH32 0x5468697320726571756573742068617320616C7265616479206265656E20636F PUSH1 0x0 DUP3 ADD MSTORE PUSH32 0x6D706C657465642E000000000000000000000000000000000000000000000000 PUSH1 0x20 DUP3 ADD MSTORE POP JUMP JUMPDEST PUSH32 0x4F6E6C7920636F6E7472696275746F72732063616E20617070726F7665207265 PUSH1 0x0 DUP3 ADD MSTORE PUSH32 0x7175657374732E00000000000000000000000000000000000000000000000000 PUSH1 0x20 DUP3 ADD MSTORE POP JUMP JUMPDEST PUSH32 0x4F6E6C79206D616E616765722063616E206D616B652074686973207472616E73 PUSH1 0x0 DUP3 ADD MSTORE PUSH32 0x616374696F6E2E00000000000000000000000000000000000000000000000000 PUSH1 0x20 DUP3 ADD MSTORE POP JUMP JUMPDEST PUSH32 0x54686973207265717565737420686173206E6F74207965742072656163686564 PUSH1 0x0 DUP3 ADD MSTORE PUSH32 0x207265717569726564206D616A6F726974792E00000000000000000000000000 PUSH1 0x20 DUP3 ADD MSTORE POP JUMP JUMPDEST PUSH2 0x17B3 DUP2 PUSH2 0x13AA JUMP JUMPDEST DUP2 EQ PUSH2 0x17BE JUMPI PUSH1 0x0 DUP1 REVERT JUMPDEST POP JUMP JUMPDEST PUSH2 0x17CA DUP2 PUSH2 0x13E8 JUMP JUMPDEST DUP2 EQ PUSH2 0x17D5 JUMPI PUSH1 0x0 DUP1 REVERT JUMPDEST POP JUMP INVALID LOG2 PUSH5 0x6970667358 0x22 SLT KECCAK256 PUSH15 0xC0AC23F5C1B3C5885EFD6BF95531F1 0xD8 0xA6 COINBASE SWAP14 0xBC LOG2 DIV PC CREATE2 EXP 0xCD 0xBB DUP6 PUSH13 0x1B5764736F6C63430008070033 LOG2 PUSH5 0x6970667358 0x22 SLT KECCAK256 0xB7 0xB7 GASLIMIT 0xE SWAP2 SWAP8 PUSH26 0xB9B4DA9CD09BF79F99047943936728303B83FC92B044256F1A64 PUSH20 0x6F6C634300080700330000000000000000000000 "},"gasEstimates":{"creation":{"codeDepositCost":"1499200","executionCost":"1568","totalCost":"1500768"},"external":{"createCampaign(uint256)":"infinite","getCampaigns()":"infinite"}},"methodIdentifiers":{"createCampaign(uint256)":"a3303a75","getCampaigns()":"a6b03633"}},"storageLayout":{"storage":[{"astId":4,"contract":"Campaign.sol:CampaignFactory","label":"campaigns","offset":0,"slot":"0","type":"t_array(t_address)dyn_storage"}],"types":{"t_address":{"encoding":"inplace","label":"address","numberOfBytes":"20"},"t_array(t_address)dyn_storage":{"base":"t_address","encoding":"dynamic_array","label":"address[]","numberOfBytes":"32"}}},"userdoc":{"kind":"user","methods":{},"version":1}}